:100000000C94FB060C9442070C9442070C94420794
:100010000C9442070C9442070C9442070C9442073C
:100020000C9442070C9442070C94E2220C949E22FA
:100030000C9403290C9442070C9442070C94420739
:100040000C9442070C9442070C9442070C9442070C
:100050000C9442070C94DF280C9442070C9442073E
:100060000C9442070C9442070C9442070C944207EC
:100070000C9442070C9442070C9442070C944207DC
:100080000C9442070C9442070C9442070C944207CC
:100090000C9442070C9442070C9442070C944207BC
:1000A0000C9442070C9442070C9442070501090680
:1000B000A1018505050719E029E715002501950827
:1000C000750181020507190029EF1500250195F03A
:1000D000750181020508190129059505750191022F
:1000E000950175039101C00660FF0961A1010962D4
:1000F000150026FF0095207508810209631500266A
:10010000FF00952075089102C005010906A10105AF
:100110000719E029E7150025019508750181029569
:1001200001750881010507190029FF150026FF0048
:1001300095067508810005081901290595057501C1
:100140009102950175039101C000010101010101B6
:10015000010101020202020202020202030303037E
:10016000030303030404040404040405050505054E
:10017000060606060607070707070808080809090C
:1001800009090A0A0A0B0B0B0C0C0C0D0D0D0E0EB7
:100190000E0F0F0F1010111111121213131414154A
:1001A0001516161717181819191A1A1B1B1C1D1DBE
:1001B0001E1E1F2020212222232424252626272814
:1001C00029292A2B2C2D2D2E2F3031323233343544
:1001D000363738393A3B3C3D3E3F40414243444547
:1001E000464748494A4C4D4E4F5051535455565826
:1001F000595A5B5D5E5F616264656668696B6C6DD0
:100200006F7072737577787A7B7D7E808283858745
:10021000888A8C8E8F91939596989A9C9EA0A2A383
:10022000A5A7A9ABADAFB1B3B5B7BABCBEC0C2C488
:10023000C6C9CBCDCFD1D4D6D8DBDDDFE2E4E7E948
:10024000EBEEF0F3F5F8FAFDFFFFAA7F554022230D
:10025000252628292A2C2D2F3032333536383A3BA3
:100260003D3E4042434547494A4C4E5051535557F5
:10027000595A5C5E6062646668696B6D6F71737514
:1002800077797B7D7F81838587898A8C8E90929414
:1002900096989A9C9E9FA1A3A5A7A8AAACAEAFB121
:1002A000B3B4B6B8B9BBBCBEBFC1C2C3C5C6C7C96B
:1002B000CACBCCCDCED0D1D2D2D3D4D5D6D7D7D825
:1002C000D9D9DADADBDBDBDCDCDCDCDCDDDDDDDD77
:1002D000DCDCDCDCDCDBDBDBDADAD9D9D8D7D7D67F
:1002E000D5D4D3D2D2D1D0CECDCCCBCAC9C7C6C536
:1002F000C3C2C1BFBEBCBBB9B8B6B4B3B1AFAEAC7C
:10030000AAA8A7A5A3A19F9E9C9A98969492908E26
:100310008C8A89878583817F7D7B79777573716FFF
:100320006D6B6968666462605E5C5A5957555351DB
:10033000504E4C4A4947454342403E3D3B3A383691
:10034000353332302F2D2C2A292826252322290027
:100350001E001F0020002100220023002400250091
:10036000260027002D002E004C004B002B0014000F
:100370001A000800150017001C0018000C001200DD
:1003800013002F0030002A004E0039000400160030
:10039000070009000A000B000D000E000F003300DB
:1003A0003400280028004A00E1001D001B00060060
:1003B0001900050011001000360037003800310028
:1003C000E50052004D00E000E300E200CF5CC25CBB
:1003D0002C002C002C00E600E7000151E400500046
:1003E00051004F0001003A003B003C003D003E0040
:1003F0003F0040004100420043004400450001002E
:1004000001000100010001000100010001000100E4
:1004100001000100010001000100010001000100D4
:1004200001000100C25CC35CCF5CD55CCD5CCE5CDE
:10043000C95CCA5C0100010001000100010001006B
:1004400001000100010001000100010001000100A4
:100450000100010001000100010001000100010094
:1004600001000100C25C005C01000100010001000C
:100470000100010001000100010001000100010074
:100480000100010001000100010001000100010064
:100490000100010001000100010001000100010054
:1004A0000100010001000100010001000100010044
:100CA000010001000100010001000100010000003D
:100CB0000000000000000000000000000000000034
:100CC00000007E0F00D4FFFFFFC700000078000087
:100CD0000000000000002A2B280000000000000097
:100CE00000000000000000000029000000002C1E91
:100CF0003420212224342627252E362D3738271E4E
:100D00001F202122232425263333362E37381F0473
:100D100005060708090A0B0C0D0E0F10111213140B
:100D200015161718191A1B1C1D2F3130232D3504C9
:100D300005060708090A0B0C0D0E0F1011121314EB
:100D400015161718191A1B1C1D2F3130354C321966
:100D50000A00047F3F1F643214643214783C1E1E64
:100D6000140A0509025B00030100A0FA090400004F
:100D700001030101000921110100012240000705C2
:100D8000810308000A090401000203000000092190
:100D9000110100012222000705820320000107053E
:100DA00003032000010904020001030000000921DF
:100DB00011010001223B000705840320000A1201F3
:100DC00010010000000820456060010001020301DD
:100DD0000403300000000E034900440037003500D2
:100DE0004800530000000A034E0050004B0043002F
:100DF00000000403090411241FBECFEFDAE0DEBFB8
:100E0000CDBF04B603FE27C0809122059091230533
:100E1000A0912405B09125058730904BA740B04B99
:100E2000D1F41092220510922305109224051092FD
:100E3000250514BE84B7877F84BF0FB6F894A895A4
:100E400080916000886180936000109260000FBE06
:100E5000E0E0F8E3099525E0ACE6B1E001C01D92C1
:100E6000A232B207E1F711E0A0E0B1E0E2EFF5E570
:100E700002C005900D92AC36B107D9F70E94D0237D
:100E80000C94AC2A0C940000E8EDF0E080818E7F99
:100E900080831092E2001092DA001092E100A0EE3E
:100EA000B0E08C9181608C9380818F77808319BCB6
:100EB000A7EDB0E08C918E7F8C9380818F7E8083B4
:100EC0001092E80408952091E4003091E50095E641
:100ED000A9012091EC00822F817020FF06C0809133
:100EE000E80080FF06C080E008952091E80022FD20
:100EF0001AC080911D05882389F0853089F0809182
:100F0000EB0085FD0FC02091E4003091E500421711
:100F10005307F9F29150E1F684E0089582E00895D4
:100F200083E0089581E00895EF92FF920F931F935D
:100F3000CF937C018B010E946307C82F811117C0DA
:100F40008091E80085FD0BC08091E8008E7780934A
:100F5000E8000E946307882399F3C82F08C0F701AF
:100F600081917F018093F1000150110949F78C2F85
:100F7000CF911F910F91FF90EF900895CF93FC01B7
:100F800080911D05843001F5C091E900CF7020915A
:100F9000EC00922F917020FD90E8C92B82E08093A5
:100FA000E9008091E80080FF0CC050E040E060E282
:100FB00070E0CF010E9494078091E8008E778093C3
:100FC000E800CF70C093E900CF9108958091150596
:100FD00087FF13C08091E80082FF06C08091E8007F
:100FE0008B778093E80004C080911D058111F2CFBA
:100FF000089580911D058823D9F38091E80080FF32
:10100000F8CF8091E8008E77ECCF982F9093E9008D
:10101000242F762F50E0891731F07091EC00209149
:10102000ED005091F00021FD07C09F5F973071F7F0
:101030008093E90081E008953091EB003E7F30938A
:10104000EB003091ED003D7F3093ED003091EB00EF
:1010500031603093EB007093EC002093ED005093DF
:10106000F0002091EE0027FDE0CF80E00895CF92C0
:10107000DF92EF92FF920F931F93CF93DF93C8ED10
:10108000D0E088818F7E8883E7EDF0E08081816009
:10109000808384E082BF81E08093E80488818E7F32
:1010A000888302EE10E0F80110821092DA0081EEDF
:1010B000C82ED12CF601108288818F778883888191
:1010C0008068888388818F7D888319BC10921D0574
:1010D00010921405109213051092120590EEE92E4D
:1010E000F12CF70180818B7F8083888181608883E8
:1010F00042E060E080E00E940508F60180818E7F7A
:101100008083F80180818160808380818860808312
:10111000F70180818E7F8083888180618883DF9161
:10112000CF911F910F91FF90EF90DF90CF90089596
:10113000FC0180911B0590911C0586179707A0F074
:101140006115710529F49091E8009E779093E8006D
:1011500090E06115710551F4911108C08091E8008B
:1011600082FF34C080E00895BC01F2CF80911D055C
:101170008823C1F18530C1F18091E80083FD30C042
:101180008091E80082FDEACF8091E80080FFE1CF06
:101190008091F3002091F200382F6115710519F04C
:1011A0002830310558F091E02830310509F090E001
:1011B0002091E8002E772093E800CBCF8191809397
:1011C000F100615071092F5F3F4FE7CF80911D05FE
:1011D000882341F0853041F08091E80083FFBECF45
:1011E00081E0089582E0089583E0089508950895C8
:1011F000089508958091F10408959C014FB7F894E3
:101200008091E4049091E504A091E604B091E70494
:101210004FBF821B930B08952FB7F8948091E4047D
:101220009091E504A091E604B091E7042FBF0895E2
:101230008091B00481111092B00408958091AF04A0
:101240009091AE04892B9091AD04892B80936C0111
:101250009091B0049923A1F0892B80936C01809127
:101260001C01882341F18091BF0487FF24C08EE1D7
:10127000EEE6F1E090E0815000F591110E9418092E
:10128000E091C204F091C3043097E1F080911C0119
:10129000882359F08091BF0487FF07C080916C01BB
:1012A00080936D0185E080936C010280F381E02DD5
:1012B0008CE691E0099486E0DBCF21912223D9F2DC
:1012C0009F5FD9CF089590911C019923D1F09091FF
:1012D000BF0497FF16C0E82FE695E695E695EE3138
:1012E000E0F4F0E0E459FE4F282F277081E090E011
:1012F00001C0880F2A95EAF780959281892382831D
:101300000895EEE6F1E09191891303C0DF01119792
:101310001C9291E0E437F907B1F7089590911C0110
:101320009923C1F09091BF0497FF14C0E82FE69570
:10133000E695E695EE31F8F4F0E0E459FE4F87705B
:1013400021E030E001C0220F8A95EAF78281822BEA
:1013500082830895AEE6B1E0EFEF90E02D91821721
:1013600051F0EF3F19F4211101C0E92F9F5F963032
:10137000A9F7EF3F09F408950E2E000CFF0BE45976
:10138000FE4FE6CF2FE0929F800D1124982F97708B
:1013900086958695869525E0829FF0011124E65872
:1013A000FB4F50E040E080E0219130E0092E02C088
:1013B000369527950A94E2F721703327042E01C051
:1013C000220F0A94EAF7822B4F5F5F4F4530510599
:1013D00059F708952FE0929F800D1124982F977050
:1013E00041E001C0440F9A95EAF786958695869567
:1013F00095E0899FF0011124E658FB4F90E080E0D2
:1014000070E05191DF0111979B01082E02C03695C3
:1014100027950A94E2F72170219525272423252773
:101420002C9301968530910561F7089560931E0510
:1014300070931F0580932005909321051092AE04B0
:101440001092AD040C941E090F931F9360911E051A
:1014500070911F0580912005909121058B019C01C1
:101460000670112722273327063011052105310583
:1014700029F468601F910F910C94160A677FFACFC8
:101480000F931F9341E050E060E070E004C0440F10
:10149000551F661F771F8A95D2F7CB01BA01609559
:1014A00070958095909500911E0510911F052091D3
:1014B00020053091210560237123822393231F91FE
:1014C0000F910C94160A9091AC0480958923809317
:1014D000AC04282F277071F4282F082E000C330B32
:1014E0009217130639F08595859585950E94400AD7
:1014F0001092AC0408950F931F9341E050E060E018
:1015000070E004C0440F551F661F771F8A95D2F7FD
:1015100080911E0590911F05A0912005B091210595
:101520008A019B01082B192B2A2B3B2BC901B801DF
:101530001F910F910C94160A6093B1047093B2043A
:101540008093B3049093B4041092AE041092AD044F
:101550000C941E098091790490914804981301C05D
:1015600008958F5F8770FACF882341F0809590911E
:10157000AF0489238093AF040C941E090895882337
:1015800039F09091AF04982B9093AF040C941E09FE
:101590000895E091C204F091C304309721F00190C6
:1015A000F081E02D099480E00895882309F474C047
:1015B000823871F40E94C90A81FF6EC089E30E94DB
:1015C0008E090E941E0989E30E9463090C941E097A
:1015D000833859F40E94C90A80FF5EC083E50E94E7
:1015E0008E090E941E0983E5EFCF843859F40E94CA
:1015F000C90A82FF51C087E40E948E090E941E0919
:1016000087E4E2CF9CEF980F913AF0F290E2980FC6
:10161000983088F4877021E030E0A90102C0440FBF
:10162000551F8A95E2F7CA0180959091AF048923EE
:101630008093AF04CBCF9BE5980F9330B0F48091AB
:101640003E0490913F04892B39F110923F0410928F
:101650003E04E091C204F091C3043097E9F00680A3
:10166000F781E02D90E080E00994885A8731A0F45A
:101670008091400490914104892B71F010924104B3
:1016800010924004E091C204F091C304309721F01D
:101690000084F185E02DE6CF0895CF92DF92EF929E
:1016A000FF92843030F5811125C090918000977FA2
:1016B000909380002F98282F30E0AFEFBFEF0E946B
:1016C0009D2A23E030E040E050E00E947B2AC901DF
:1016D0002C3764E13607A0F469E070E00E945429D9
:1016E00070938D0060938C00FF90EF90DF90CF900F
:1016F000089583E090918000986090938000DBCF04
:101700002A50374D4F4F5F4F942F832F722F6627EC
:1017100025EF38E241E050E00E947B2A69017A011E
:10172000CA01B9010E942A299B01AC01C701B60177
:101730000E942A29672F782F892F99276115710513
:1017400021E08207910561F66FEF7FEFC9CF282F67
:10175000220F220F220F9091D7049770922B909313
:10176000D704987F21E009F420E09091D70420FB72
:1017700090F99093D7040C944D0BFA01811101C09C
:10178000FB0109948091E904982F9E7F61F4817098
:1017900082608093E9048091EC04833318F082E343
:1017A0008093EC0408958635B0F381708465F1CFA1
:1017B000AF92BF92DF92EF92FF920F931F93CF935E
:1017C000DF93182F062FE901433308F042E3E42F9B
:1017D000F0E0E75BFE4F011110C0E4915E2F4E2F49
:1017E0004983E8835A83DF91CF911F910F91FF9036
:1017F000EF90DF90BF90AF900895202F30E044919C
:10180000D42EE42EF12C56E0159FC0011124EFEFE9
:10181000F0E0BF010E945429812F90E0880F991FAA
:1018200055E5569FD001579FB00D11248A1B9B0B85
:10183000982F990F890F5F01A21AB30AAE9CD001AD
:10184000AF9CB00DBE9CB00D11245B2F089F800192
:101850001124012F11275F01A01AB10AAE9C80014B
:10186000AF9C100DBE9C100D11245F01A81AB10889
:10187000A29EC001A39E900DB29E900D1124892FAF
:101880009927E81BF90BEE9DC001EF9D900DFE9D81
:10189000900D1124E92F62307105A1F050F461150B
:1018A000710509F49DCF6130710581F0EB2F512F47
:1018B00097CF6430710569F080F06630710509F4E6
:1018C0008FCFF4CFE42F4B2F592F8ACFE42F412F06
:1018D00087CFEB2F542F492F83CF4B2F5D2DE12F37
:1018E0007FCF9091BF0492FF06C0282F2871283027
:1018F000F9F4877F846093FF06C0282F2871283170
:10190000F1F4877E84612091C00420FF06C0382F47
:1019100038713830D9F4877F816021FF06C0282FC5
:1019200028712831D1F4877E816194FD877E0895E6
:10193000282F24712430F9F68B7F8860DCCF282F84
:101940002471243101F78B7E8861DDCF382F31710E
:10195000313019F78E7F8860E0CF282F2171213137
:1019600021F78E7E8861E1CFCF93DF93EC018091E8
:101970001C018823B1F18091BF0487FF32C060E26F
:1019800084E08093E9008FEF9091E800815095FD0D
:1019900006C095ED9A95F1F700008111F5CF809181
:1019A000E80085FF1BC080911C0170E050E040E022
:1019B000811104C050E040E068E070E0CE010E9478
:1019C00094078091E8008E778093E80080E2FE0122
:1019D000A2EFB4E001900D928A95E1F7DF91CF91EB
:1019E000089568E081E0CDCF81E08093E00080E25F
:1019F0008093D8001092C9008FE19EE40197F1F71F
:101A000000C0000087E090EBDC01809322059093FA
:101A10002305A0932405B093250588E19CE00FB62B
:101A2000F894A895809360000FBE90936000FFCF5C
:101A3000CF93C82F882309F48CC08238C1F40E9448
:101A4000C90A81FD86C089E30E948E090E941E0991
:101A50002FEF81EE94E0215080409040E1F700C0EC
:101A6000000089E30E946309CF910C941E0983381A
:101A7000A1F40E94C90A80FD6CC083E50E948E0912
:101A80000E941E092FEF81EE94E02150804090408B
:101A9000E1F700C0000083E5E5CF8438A1F40E949F
:101AA000C90A82FD56C087E40E948E090E941E0961
:101AB0002FEF81EE94E0215080409040E1F700C08C
:101AC000000087E4CFCF8CEF8C0F813A88F58091AE
:101AD0001C01882301F18091BF0487FF1CC0EC2FFB
:101AE000E695E695E695F0E0E459FE4F828190E0B8
:101AF0004C2F477021E030E002C0220F331F4A957F
:101B0000E2F782239323892B79F08C2F0E946309BB
:101B10000E941E0909C0EEE6F1E08191C817A9F301
:101B200021E0E437F207C9F78C2F0E948E099CCF81
:101B300080E28C0F883068F4C77021E030E001C08B
:101B4000220FCA95EAF78091AF04822B8093AF04ED
:101B50008BCFCF910895CF93C82F0E94180DC93312
:101B600049F42FEF87EE93E0215080409040E1F759
:101B700000C000008C2FCF910C94D50A0F931F93B7
:101B8000CF93DF93C42FD22FFC0182818823A1F051
:101B900040933C040E940C0990933B0480933A04C8
:101BA000C77081E001C0880FCA95EAF7DF91CF9135
:101BB0001F910F910C94BF0A10913C04141335C06F
:101BC00080913A0490913B040E94FD08883C910565
:101BD00060F5C0E2CD0F1D17B9F080E2810F8830AB
:101BE00040F4177081E001C0880F1A95EAF70E944F
:101BF000B40AC83048F481E09D2F977001C0880F67
:101C00009A95EAF70E94BF0A802F0E94AB0DC83058
:101C100098F4D77081E001C0880FDA95EAF7DF9178
:101C2000CF911F910F910C94B40AC77081E001C04D
:101C3000880FCA95EAF7F3CFDF91CF911F910F91EB
:101C400008958091E90480FD0AC0E2E9F1E0118283
:101C500010821282339652E0E139F507C1F7809A7B
:101C600031B33E7F21B321604FB7F89482E991E010
:101C7000FC015191CF0168E021BB000000C057FF7B
:101C800031BB550F000000C000C000C031BB00C018
:101C90006A9591F7F2E081399F0751F74FBF8FE5C1
:101CA00094E00197F1F700C000000895EF92FF92D1
:101CB0001F93CF93DF93EC0182E9E82E81E0F82EA9
:101CC00010E08C8197014091EC046091EB04810F4E
:101CD0000E94D80B1D5F83E0E80EF11C1F3F89F7BF
:101CE0000E94210E9A818C8190FF08C08F5F8C83A7
:101CF000DF91CF911F91FF90EF9008958150F7CF22
:101D0000BF92CF92DF92EF92FF920F931F93CF93E8
:101D1000DF93FC018281DD24DA9480FD02C0DD24A2
:101D2000D39402E911E0D0E0C0E025E5B22EF8013D
:101D300011821082128294E0E92EF12CC12C809144
:101D40008F018C0D86350CF43DC06B2D0E94462909
:101D5000892F082E000C990B8C179D0791F4809108
:101D6000EC048E9DA0018F9D500D11245595479533
:101D70005595479598016091EB048091EA040E9483
:101D8000D80BCD0CF1E0EF1AF108C9F621960D5FE2
:101D90001F4FC535D10559F60E94210E80918F0144
:101DA00091E0D91215C0811111C084E580938F0193
:101DB000DF91CF911F910F91FF90EF90DF90CF9027
:101DC000BF90089587FFC5CF8B5AC3CF8150EECF08
:101DD00090E00196BE010E946829E8CF0F931F93FF
:101DE000CF93DF93C2E9D1E0FE011182108212820B
:101DF000339682E0E139F807C1F710E000E0809106
:101E00009001082E000C990B081719078CF180918E
:101E10001001082E000C990B801791074CF19E01C0
:101E20004091EC046091EB048091EA040E94D80B8D
:101E30000F5F1F4F23960535110509F70E94210EEC
:101E400080910F0190919001980F909390012091B3
:101E50001001280F20931001121614F494351CF071
:101E6000819580930F01DF91CF911F910F9108957C
:101E7000198218821A82DCCF8F929F92AF92BF9202
:101E8000CF92DF92EF92FF920F931F93CF93DF9346
:101E9000EC014C81042F10E09801D8010E949D2A8A
:101EA0009B01AC010E94682A4B015C01E0E2F0E07A
:101EB000E01BF10BA5E5B0E0AC019B010E94682A94
:101EC0006B017C019F01DF010E9489299B01AC010C
:101ED0000E94732A9B01AC01280D391D4A1D5B1D10
:101EE000C701B6010E947B2AF22E822F90E039E2D0
:101EF0003F15D8F143E0249F900111243595279593
:101F0000122F109592E9C92E91E0D92E00E085E5B7
:101F1000E82EEF188E2D01FD8F2D9601412F609137
:101F2000EB040E94D80B0F5F53E0C50ED11C0535A2
:101F300089F70E94210E9C8181E0992319F090324B
:101F400019F48FEF8093110180911101890F8C8317
:101F5000DF91CF911F910F91FF90EF90DF90CF9085
:101F6000BF90AF909F908F90089525E530E0A90134
:101F7000481B590BCA019A01220F331F280F391F22
:101F800037FFBCCF2F5F3F4FB9CFEF92FF920F9338
:101F90001F93CF93DF938C01C2E9D1E0F12CE12CA8
:101FA000F80194816091EB048091EA04FAE2EF1663
:101FB000F104FCF49923F9F09E014091EC040E9495
:101FC000D80B2FEFE21AF20A239685E5E816F10402
:101FD00039F70E94210EF801848190E0019681700A
:101FE00099278483DF91CF911F910F91FF90EF90FC
:101FF0000895992309F39E0140E0E1CF9091E9040F
:1020000090FF0CC0E2E9F1E0818360834283339664
:1020100092E0E139F907C1F70C94210E08950F936E
:102020001F93CF93DF9300D00F92CDB7DEB78C0113
:102030008091910181110AC09E012F5F3F4F42E3C1
:102040006FEF0E94D80B8A8180939101F80164811F
:10205000613069F08091910140E0662361F040E0D9
:10206000623011F44091910180E060E004C0609121
:10207000910140E080E00E94FE0FF801848190E031
:10208000019663E070E00E94682984830F900F90AE
:102090000F90DF91CF911F910F910895CF93DF9310
:1020A00000D00F92CDB7DEB79091E90490FF0AC03F
:1020B0009E012F5F3F4F0E94D80B4B8169818A811F
:1020C0000E94FE0F0F900F900F90DF91CF91089517
:1020D000CF93DF93EC01EC81F0E0E25BFD4F4491A4
:1020E000E9EEF4E0628181810E944E108C818F5F65
:1020F0008C83DF91CF910895CF93DF93EC01E9EECC
:10210000F4E0438162818C810E944E108C818F5F4C
:102110008C83DF91CF9108957F928F929F92AF929F
:10212000BF92CF92DF92EF92FF920F931F93CF93C4
:10213000DF9308E411E0A5EBB4E0712CCC24C39448
:10214000D12CE80189918E01E82FE295EF70F0E043
:1021500091A18F70760101C0EE0C8A95EAF7892F64
:102160008E2981A392A17E2D7095972392A3D0EA08
:10217000DA95F1F79DE4A92E91E0B92E50E040E008
:1021800030E020E0E50169915E01862E82948FE0C7
:102190008822912CE40188A190E06F7002C095958F
:1021A00087956A95E2F780FD65C0C601042E02C0DE
:1021B000880F991F0A94E2F7282B392B4F5F5F4F46
:1021C0004F305105F9F681A1872381A382A1E82A26
:1021D000E2A28D919C9111972817390709F44DC0FF
:1021E00011963C932E9381E0782A1296D1E00D341B
:1021F0001D0709F0A6CF772009F441C081E0809344
:102200008E010E940C0990938D0180938C01809126
:102210008C0190918D010E94FD080697A0F180919C
:10222000B5049091B6049093DB048093DA04809116
:10223000B7049091B8049093DD048093DC048091FE
:10224000B9049091BA049093DF048093DE048091E6
:10225000BB049091BC049093E1048093E0048091CE
:10226000BD049091BE049093E3048093E204109225
:102270008E0109C090E080E09FCF80E0B5CF8091D3
:102280008E018111C4CF872DDF91CF911F910F91C6
:10229000FF90EF90DF90CF90BF90AF909F908F9086
:1022A0007F900895CF9384E090E00E94012AC82F88
:1022B00081E290E00E94012A982F8C2FCF910895FF
:1022C0000F931F93CF93DF93C42FD0E0CC0FDD1F6C
:1022D0002EE1629FC00DD11D112436E9839FC00DF0
:1022E000D11D1124CE0186960E94012A082F10E0EC
:1022F000102F0027CE0187960E94012A9801282BD3
:10230000C901DF91CF911F910F910895462F84301D
:1023100038F4753028F46F3018F4672F0C9460117E
:1023200090E080E00895CF93DF930E948611EC0146
:102330008238910589F1B8F58133910509F492C08D
:1023400028F58932910509F486C08A9709F491C06D
:10235000C11523E5D20708F0ACC0C11532E5D3079B
:1023600008F011C1C11540E2D40708F090C0C115B2
:1023700081E0D80730F5C53AD10508F081C0C430F6
:10238000D105F8F4C130D105E1F040C085339105A5
:1023900009F45AC0C997E1F68091BF04837089F0AF
:1023A000C0EED0E00EC0833E910599F170F4803EFE
:1023B000910501F1823E910559F68091BF0482FD9D
:1023C00021C0CE01DF91CF910895863E910561F144
:1023D000873E910571F1843E910509F0B9CF809156
:1023E000C00481FFEECF8091BF04C7EED0E084FD32
:1023F0000DC0E7CF8091BF0480FDF4C09091C00470
:1024000090FFDFCFC3EED0E084FFDBCFD0E0C0E0B1
:10241000D8CF8091BF0482FDE8C09091C00490FDA8
:10242000BFCF84FFCECFF2CF8091BF0483FDDDCF3D
:10243000C8CF8091BF0483FDDBC09091C00491FFA1
:10244000F0CFC4EED0E0BDCF8091BF0485FFB9CFFF
:10245000C9E2D0E0B6CF8091BF0485FFB2CFC5E31B
:10246000D0E0AFCF8091BF0486FFABCFCAE2D0E00F
:10247000A8CF8091BF0486FFA4CFC1E3D0E0A1CF55
:10248000CE01805E9109089708F49BCFBFCFC1159C
:1024900091E5D90708F072C0C11520E5D20708F010
:1024A00050C0C11530E4D30708F4B0CFDF70D06A54
:1024B00088CFC11546E5D407F0F4C11585E5D807E6
:1024C00008F077C0C11594E5D90708F06DC0CE01BA
:1024D0008370992721E030E002C0220F331F8A95D4
:1024E000E2F7C695C69590E2C99FE0011124C22B80
:1024F000D32BDA6866CFC1152AE5D20778F4C11567
:1025000039E5D30708F060C0C11548E5D40708F4E1
:102510007DCFDC2FCC27C06FD06A53CFCE01905631
:102520008115904208F072CF8D2F8F710E94710C2F
:1025300090E0982F882788279F719C012C2BE90118
:1025400041C0CE01E4E096958795EA95E1F7837066
:102550002C2F26952695237040E2249F900111246C
:10256000382B8C2F8370C1E0D0E002C0CC0FDD1F70
:102570008A95E2F7C22BD32BDC6823CFDC2FCC2744
:10258000C16FD06A1ECFCE018370992721E030E061
:1025900002C0220F331F8A95E2F7C695C69580E2E6
:1025A000C89FE0011124E6CFDC2FCC27C46FD06A8E
:1025B00008CF8C2F0E94710CC82FD0E0DC2FCC27C5
:1025C000CC27DF71D062FDCE8C2F8F700E94710CF2
:1025D00034E0D695C7953A95E1F7CF709C2FEC0182
:1025E000D069EFCEC9E3D0E0ECCEC2EED0E0E9CEC8
:1025F000C6EED0E0E6CEBF92CF92DF92EF92FF928E
:102600000F931F93CF93DF938C01C0901E05D09042
:102610001F05E0902005F09021058091B104909174
:10262000B204A091B304B091B404C82AD92AEA2A0A
:10263000FB2ACFE1D0E0BC2ED701C6010C2E04C08E
:10264000B695A795979587950A94D2F780FD0EC009
:10265000219788F7B12C8B2DDF91CF911F910F918E
:10266000FF90EF90DF90CF90BF900895B8018C2F2E
:102670000E949311019761F3EECFCF93DF93EC01AA
:102680000E94FB12BE01DF91CF910C9493110E9426
:102690003D13292F2F7092959F7092509E3078F4A1
:1026A000E92FF0E0E255F54D0C947C29803F19F0BC
:1026B00020F4883E20F481E00895843FE1F380E037
:1026C0000895883EC0F3813FD1F7F5CF822F8695DC
:1026D0008695869508956F927F928F929F92AF9282
:1026E000BF92CF92DF92EF92FF920F931F93CF93FF
:1026F000DF938EE4C82E83E0D82E9AEDE92EF12CDC
:10270000E701C659D10936011BC0F50185909490A7
:10271000692DC8010E94152A682DC80101960E94E2
:10272000152A82E0A80EB11C0E5F1F4FC017D107FB
:1027300061F78EE1680E711C6E96CE15DF0529F0EB
:102740008E010E5111095301E0CF7E0186E9E80E9A
:10275000F11C86E9C80ED11C82E3E81683E0F80676
:1027600079F6DF91CF911F910F91FF90EF90DF905D
:10277000CF90BF90AF909F908F907F906F90089573
:10278000682F86E090E00C94152ACF93DF93CEE774
:10279000D2E060E0CE010E94152A2196C11584E0A6
:1027A000D807B9F7DF91CF910895CF93C82F6FEF76
:1027B000811161E282E290E00E94152A6FEFC1115F
:1027C00062E183E290E00E94152A6FEFC11161E09F
:1027D00084E290E0CF910C94152A8F929F92AF9251
:1027E000BF92CF92DF92EF92FF920F931F93CF93FE
:1027F000DF93FC01B280948081E08483C1E9D2E060
:1028000002E911E08BE4A82E88248394EE24EA9454
:10281000F12C2BE4C22ED12C91101DC01B821A82E8
:1028200098014A81698188810E94D80B25960D5FA5
:102830001F4F84E0CA33D80779F7DF91CF911F91FA
:102840000F91FF90EF90DF90CF90BF90AF909F904F
:102850008F900C94210E2B81222309F121502B8380
:102860003C818A2D821B311101C0822F9091EC0492
:10287000899FC0011124B6010E9454296A83211145
:1028800004C0332311F01C82AB8222E02B1540F2EE
:102890008091EA0488838091EB048983C1CF0E94F0
:1028A000E429823091400CF0BBCF82E08B15C0F45C
:1028B0000E94E429B7010E946829888322E02B1531
:1028C00090F40E94E4292091EB042695622F70E099
:1028D0000E946829280F29831A82AB828C82A0CF9C
:1028E0008091EA04EACF2091EB04F5CF90E080E0FC
:1028F0000E940F2A21E08C3E9E4F09F020E0822F9B
:1029000008956CEE7EEF90E080E00E94332A60E054
:1029100082E090E00E94152A60E083E090E00E944F
:10292000152A1092B1041092B2041092B3041092BE
:10293000B40460E084E090E00E94152A60E081E247
:1029400090E00E94152A60E085E090E00E94152A40
:1029500060E086E090E00E94152A6FEF87E090E04B
:102960000E94152A40E050E0BA0188E090E00E9401
:10297000272A60E08DE090E00E94152A40E050E0B8
:10298000BA0188E190E00E94272A60E087E190E0A8
:102990000E94152A40E050E0BA018CE190E00E94CC
:1029A000272A60E080E290E00E94152A40E050E093
:1029B000BA018FE090E00E94272A40E050E0BA017F
:1029C00083E190E00C94272A0E947614811102C0C2
:1029D0000E94811486E090E00E94012A8093D7042F
:1029E000803220F0877088618093D7049091D7045B
:1029F000892F817090FF04C0892F869586958695D2
:102A00000C944D0BCF92DF92EF92FF926B017C0101
:102A10000E94C20BB701A60188E090E0FF90EF9002
:102A2000DF90CF900C94272A5F926F927F928F92C3
:102A30009F92AF92BF92CF92DF92EF92FF920F934D
:102A40001F93CF93DF9300D00F92CDB7DEB7182F2F
:102A5000762E042F622E9091E90490FF29C0E92F71
:102A6000E695AE2FB0E0A35EBE4F8C918093D80464
:102A70009E7F923081F59E012F5F3F4F812F0E94F4
:102A8000D80B4B8169818A810E94FE0F1093EA0462
:102A90007092EB040093EC04662051F06091E9041D
:102AA0007091EA048091EB049091EC040E9402156D
:102AB0000F900F900F90DF91CF911F910F91FF908A
:102AC000EF90DF90CF90BF90AF909F908F907F90CE
:102AD0006F905F900895823019F40091EC04D6CF86
:102AE000863019F41091EA04D1CF8930D9F38931B5
:102AF00069F6E9518E2F8170582EE695F0E0E75B7C
:102B0000FD4FA590B490BB2482E9E82E81E0F82E19
:102B1000D12CC12C95E5892E912CC601B4010E94BF
:102B20005429812F511013C0860F9701402F672D14
:102B30000E94D80BCA0CDB1C83E0E80EF11C81E973
:102B4000E81682E0F80649F70E94210E9FCF861B07
:102B5000ECCFE9EEF4E0438128E0421B08F440E0CA
:102B600021E0628181810C941415E9EEF4E0438147
:102B700028E0420F08F44FEF21E0628181810C943C
:102B80001415E9EEF4E0628128E0621B08F460E0CD
:102B900021E0438181810C941415E9EEF4E0628117
:102BA00028E0620F08F46FEF21E0438181810C94EB
:102BB0001415E9EEF4E0818121E0438162818850BF
:102BC0000C941415E9EEF4E0818121E043816281E7
:102BD000885F0C9414158091ED04882319F08150BE
:102BE0008093ED046091E9047091EA048091EB0414
:102BF0009091EC040C9402158091ED04833018F44C
:102C00008F5F8093ED046091E9047091EA048091F4
:102C1000EB049091EC040C940215E9EEF4E081E1F0
:102C2000808311828FEF828382E3838314826081A9
:102C30007181828193810C9402151092AF0480916E
:102C40001C01EEE6F1E0882379F08091BF0487FF54
:102C50000BC08EE1DF011D928A95E9F71092AE0458
:102C60001092AD040C941E0986E0F4CF1F93CF930D
:102C7000DF93CDB7DEB7AA970FB6F894DEBF0FBECD
:102C8000CDBF85E195E02091F100DC012D93CD01D0
:102C9000B5E08D319B07B9F780911605833009F4B3
:102CA00071C0B8F4813009F448C0823009F4B2C070
:102CB0008091E80083FF3AC1809115059091160537
:102CC0009A3008F033C1E92FF0E0E454F54D0C944C
:102CD0007C298A3009F48DC08B3009F470C08930AA
:102CE00039F780911505813219F780911905909176
:102CF0001A05009711F00297D9F68091E800877FB6
:102D00008093E8008091E80082FF37C09091F30043
:102D10008091F200029729F48091F1008B7F81303D
:102D200021F48091F1008093F1048091E8008B7789
:102D30008093E8000E94E607BBCF80911505813A99
:102D400009F0B6CF8091E800877F8093E8008091FA
:102D5000190590911A05892B61F460E282EF94E0E5
:102D600070E00E9498088091E8008B778093E800DB
:102D70009FCF60E090E080E0F3CF80911D0581114E
:102D8000C1CF96CF80911505813A09F091CF8091FE
:102D9000190590911A05892B09F08ACF8091E800D6
:102DA000877F8093E8008091E80080FFFCCF8091CE
:102DB0001C018093F1008091E8008E77B9CF80915B
:102DC0001505813209F074CF8091190590911A058B
:102DD000892B09F06DCF8091E800877F8093E80010
:102DE0000E94E6078091170580931C010E941D1622
:102DF0005FCF80911505813209F05ACF8091E800AC
:102E0000877F8093E8000E94E607809118058093F1
:102E1000F0044ECF80911505813A09F049CF809199
:102E2000E800877F8093E8008091E80080FFFCCF76
:102E30008091F004BECF803899F0823809F076C0D6
:102E4000809119058F70873008F070C08093E90079
:102E50008091EB0085FB882780F91092E90006C07D
:102E60008091120590911305911182609091E80074
:102E7000977F9093E8008093F1001092F100809189
:102E8000E8008E77C0C1882309F4ADC1823009F013
:102E90004DC0809117058111B1C1809119058F70C6
:102EA0002FEF280F263008F041C08093E9002091D1
:102EB000EB0020FFA3C1933031F48091EB008062DE
:102EC0008093EB009BC19091EB0090619093EB009D
:102ED00021E030E001C0220F8A95EAF72093EA0052
:102EE0001092EA008091EB008860EACF81111EC049
:102EF000109117051F778091E3008078812B8093D4
:102F0000E3008091E800877F8093E8000E94E60755
:102F10008091E80080FFFCCF8091E300806880937F
:102F2000E30082E0111183E080931D058091E800A9
:102F300083FF0AC08091E800877F8093E80080913A
:102F4000EB0080628093EB00AA960FB6F894DEBF88
:102F50000FBECDBFDF91CF911F9108958058823071
:102F600028F720911705309118052C3DE3E03E0726
:102F7000A1F583E08A838AE289834FB7F894DE0162
:102F8000139620E03EE051E2E32FF0E0509357002B
:102F9000E49120FF03C0E295EF703F5FEF708E2F4A
:102FA00090E0EA30C0F0C7968D939D932F5F243157
:102FB00059F74FBF8091E800877F8093E8006AE26D
:102FC00070E0CE0101960E9498088091E8008B770E
:102FD0008093E800ABCFC096E7CF80911905909120
:102FE0001A05432F55274330510509F44AC078F597
:102FF0004130510509F485C08BE590E0E3E6FDE042
:103000004230510509F092CF2091E800277F2093AC
:10301000E80020911B0530911C058217930708F4E6
:103020009C0140E02115310509F070C041116EC0CE
:103030008091E80082FDC9CF80911D05882329F287
:10304000853019F28091E80083FFF2CFBECF413284
:10305000510509F447C04232510509F067CF83306A
:10306000910508F063CFFC01EE0FFF1FE15AFE4F00
:103070000190F081E02D845A9E4FDC018C9190E00C
:103080001DC0332721303105E9F02115310579F0D4
:1030900022303105F9F02330310509F047CFE0ED5A
:1030A000FDE0E4918E2F90E0E0EDFDE007C0E2EF5F
:1030B000FDE0E4918E2F90E0E2EFFDE0009709F44F
:1030C00035CFA2CFE6EEFDE0E4918E2F90E0E6EE64
:1030D000FDE0F4CFE6EDFDE0E4918E2F90E0E6ED2B
:1030E000FDE0ECCF8330910508F020CF880F991FC9
:1030F000FC01EB59FE4F0190F081E02D89E090E05A
:1031000083CF82E190E0EEEBFDE07ECF80911D0564
:10311000882309F45ACF853009F457CF8091E8000D
:1031200083FD53CF8091E80082FD82CF8091E8003B
:1031300080FF78CF9091F3008091F2002115310546
:1031400019F08830910550F041E0089709F040E00F
:103150008091E8008E778093E80064CF449140939B
:10316000F1003196215031090196E8CF803809F0FD
:10317000DDCE8091E800877F8093E8008091140580
:103180008093F1007CCE8111D1CE109117051230C1
:1031900008F0CCCE8091E800877F8093E800109300
:1031A00014050E94E607112311F084E005C0809108
:1031B000E30087FDFACF81E080931D0542E061ECDA
:1031C00081E00E94050842E261EC84E00E9405086B
:1031D00042E261EC82E00E94050842E260EC83E09A
:1031E0000E940508A3CE80911705813009F09ECE7C
:1031F00081E0933009F080E0809313051092E9009C
:103200008091E800877F8093E8000E94E6078ECED9
:103210006091E904669570E04BE050E084E091E055
:103220000E94F429892B19F481E08093D9040E942B
:103230000C099093C6048093C50408959091E90405
:1032400090FF36C09170811129C092609093E9047B
:10325000662351F06091E9047091EA048091EB04D7
:103260009091EC040E9402156091E904669570E06B
:103270004BE050E084E091E00E94F429892BA9F012
:103280001092D90481E08093C80420E04091EC04BE
:103290006091EB048091EA040C9414158B3210F0C9
:1032A0009465D4CF880F982BD1CF0E940819EACF0C
:1032B00008958091E9048695815009F48AE261E0DD
:1032C0000C941E198091E90486958F5F8B3208F06B
:1032D00081E061E00C941E199091E90490FF07C011
:1032E0009695981720F0961710F40C94621961E0E7
:1032F0000C941E195F926F927F928F929F92AF9261
:10330000BF92CF92DF92EF92FF920F931F93CF93D2
:10331000DF9300D000D00F92CDB7DEB77C01FC0167
:1033200083819481892B31F08081918189238F3F22
:1033300009F013C60F900F900F900F900F90DF9130
:10334000CF911F910F91FF90EF90DF90CF90BF90A2
:10335000AF909F908F907F906F905F9008950E94A4
:10336000FB12182F682F89819A810E94EA096981CE
:103370007A81812F0E9486118C01F7019281992315
:1033800009F4C0C5980122513F452031310508F0AC
:103390007EC58FEF93E00E94012A02515EE7852EE1
:1033A00052E0952E882369F18091AC04877011F268
:1033B000F7018281882309F4BDCF82E00F900F903E
:1033C0000F900F900F90DF91CF911F910F91FF9071
:1033D000EF90DF90CF90BF90AF909F908F907F90B5
:1033E0006F905F900C94630A8114F4E09F06E1F201
:1033F000C4010E94012A811101C001502FEF821ADD
:10340000920A0111F1CF1C821B82662463944AE068
:10341000542E84010F5F1F4FC4010E94012A89832B
:103420001A82882309F4C0CF9FEF980F933008F5D4
:103430008A83698232E0830E911CC8010E94012AAE
:103440008B83882309F4B0CF8E010F5F1F4FF801E3
:1034500020812223F1F2213009F043C09181828141
:10346000913049F40E5F1F4F0E94AB0D0F5F1F4F4D
:10347000EECF4801E9CF923029F40E5F1F4F0E9432
:10348000180DF4CF933029F40E5F1F4F0E94D50A18
:10349000EDCF943019F00F5F1F4FE8CF0E5F1F4F35
:1034A00030E020E0B8016F5F7F4FF8014181805329
:1034B000990B8A30910550F021503109B8F28FE90B
:1034C0009FE00197F1F700C00000F6CF529EF00197
:1034D000539EF00D11249C012E0F3F1F842F8B0152
:1034E000E1CFE22FF0E0E253F34F7490822F869504
:1034F0008695869590E0FC01E254F34FA4902770E6
:10350000B12C022E02C0B594A7940A94E2F7E1E030
:10351000AE22BB24FC01E255F34FC490D12C02C073
:10352000D594C7942A95E2F7F1E0CF22DD24A114C7
:10353000B10419F081EE0E94180DC114D10419F0E4
:1035400086EE0E94180D872D0E94AB0DCD2819F034
:1035500086EE0E94D50AAB2809F488CF81EE96CF7B
:1035600081E00E947B0A0E94240A1ECF81E00E9413
:10357000400AF9CF82E0F5CF82E0F9CF0F3BFCE5BE
:103580001F0709F44AC098F1003C3CE5130709F015
:103590009AC49091D704892F8695869586958F5FDA
:1035A0008F719770843008F059C0880F880F880F8A
:1035B000892B8093D7048091D70410C083E00E94A8
:1035C000A70B8091D7040E94C013EECE8091D70440
:1035D000982F987FE9F188508093D704887F91E0F5
:1035E00009F490E08091D70490FB80F913C080919A
:1035F000D704982F969596959695933040F49F5FB3
:10360000990F990F990F8770892B8093D704809118
:10361000D70481608093D70419C08091D70480FFBC
:1036200009C08E7F8093D7040E94C01380E00E945F
:103630004D0BBACE80FDB8CE81608093D704813027
:1036400019F489E08093D7048091D7040E94C013B5
:103650008091D704869586958695E9CF9093D70477
:10366000AACF07E225EE45EE68ED7CE547C406E209
:1036700021EE40EE63EF7CE541C407E225EE44EE27
:1036800064EF7CE53BC406E221EE42EE65EF7CE5AB
:1036900035C408E221E045EE69ED7CE52FC4809158
:1036A000BF04806106303CE5130709F47FC008F4CD
:1036B00084C08091BF04806279C08091BF048D7FF7
:1036C0000C309CE5190709F471C070F48091BF04B7
:1036D0008C600A30FCE51F0709F468C008F479C063
:1036E0008091BF048E7F62C08091BF04877F0E30BF
:1036F0003CE5130709F45AC008F471C08091BF0477
:103700008F7E54C00B3F9CE5190709F45AC030F571
:103710000331FCE51F0709F472C078F401313CE580
:10372000130709F468C002311C4509F078C40E94EF
:103730001D168091BF048F7739C005319CE51907AC
:1037400009F465C008F479C08091C00481600A3F23
:103750001C4509F064C48093C00461C40F3F2CE58C
:10376000120709F450C070F40D3F8CE51807D9F129
:103770008091C0048E7F0E3F1C4568F38091C00489
:103780008360E9CF0130EDE51E0709F45FC008F45E
:103790004AC060E002301D4509F041C48EE090E06F
:1037A0000E94152A3CC48091BF0481608093BF04AD
:1037B00036C48091BF048460F9CF8091BF048860D3
:1037C000F5CF8091C0048260C6CF8091BF04806431
:1037D000EDCF0E941D168091BF048068E7CF8091D5
:1037E000BF048B7FE3CF8091C0048D7FB4CF8091E5
:1037F000BF048F7DDBCF8091BF048F7BD7CF8091BB
:10380000BF04837FD3CF8091C0048C7FA4CF8091ED
:10381000BF0482FB992790F921E0922790FB82F95F
:1038200090FB83F9C3CF8091C004982F909591703D
:103830008E7F892B90FB81F98ECF0E941D1690916F
:10384000BF04892F97FB87F98058B0CF61E0A6CFDE
:103850008091AF0406313CE5130709F08FC38A7AE3
:1038600091E009F490E090933D04811106C089E253
:103870000E948E090E941E0997CD85E3F9CF85E34A
:1038800069C38091E90480FF1BC08E7F8093E904A7
:103890006091E9047091EA048091EB049091EC044A
:1038A0000E9402151092D9048FEF90E7E2E0815058
:1038B0009040E040E1F700C000000E94210E74CD6E
:1038C00081608093E90461E086950E941E196CCDA9
:1038D00049E559E162E679E10E94BD0B65CD42E61A
:1038E00059E169E579E1F8CF49ED55E162EE75E11D
:1038F000F3CF42EE55E169ED75E1EECF41EC55E1D4
:103900006DEC75E1E9CF4DEC55E161EC75E1E4CF8B
:1039100049EA55E165EB75E1DFCF45EB55E169EA31
:1039200075E1DACF4BEE55E16CEF75E1D5CF4CEF99
:1039300055E16BEE75E1D0CF61E081E0C6CF65E087
:1039400082E00E946C1930CD68E086E0FACF6EE02C
:1039500089E0F7CF64E18FE0F4CF67E185E1F1CF53
:1039600061E088E1B2CF62E289E1EBCF61E083E21E
:10397000ACCF0115FCE51F0709F447C00E3D1C45FF
:1039800009F450C0F70100811181992309F44DC059
:10399000C8010E94FB12D82E682FC8010E94EA09B4
:1039A000B8018D2D0E9493118C01882EF701B580EE
:1039B000B2943FE0B322A280A1101092AE04809195
:1039C000AC04877099F0AA2089F0812F807F803421
:1039D00021F080E2800F883048F082E00E94630A84
:1039E0008091AC048770DD24D3948111D12CC12E39
:1039F000C2942FE0C222FBE0FC1508F450C0EC2D6D
:103A0000F0E0EA53F54D0C947C290E941D163FEF1F
:103A100084E39CE0315080409040E1F700C000001A
:103A20000E94F40C0E948114BFCCC8010E94C209FC
:103A3000D82EB6CF212F2F70B22E107F19F0B2944E
:103A400090EFB922AA20C9F0BB2069F080E2800F74
:103A5000883010F081100BC08091AF04B82AB0926A
:103A6000AF040E941E09802F0E94180D18C080917B
:103A7000AE04B82AB092AE04F4CF802F0E94D50ACB
:103A8000BB2069F0B094005E083010F081103AC09D
:103A90008091AF04B822B092AF040E941E09EC2DB1
:103AA000E850FF0B349710F40E94C90ADD2009F496
:103AB00041CC8091AC0480FD3DCCF701128285950C
:103AC000859585950E947B0AC7010E947A1980918D
:103AD000AC048595859585950F900F900F900F906C
:103AE0000F90DF91CF911F910F91FF90EF90DF909A
:103AF000CF90BF90AF909F908F907F906F905F908E
:103B00000C94400A8091AE04B822B092AE04C5CFA6
:103B1000312F3F70932E107F103219F0929480EF66
:103B20009822882071F081E0881661F1AA20B9F10D
:103B3000BB2071F1F701858180FF95CF8F70858360
:103B400027C0AA2091F09091B004892D892BB11043
:103B500003C00E94BF0AA3CFE1E0BE12FACF9817BC
:103B600009F49DCF8093B0049ACFB11006C00E9493
:103B70001809892D0E94B40A92CFF1E0BF1609F40A
:103B80008ECFF5CFAA2031F025E02B1508F487CF92
:103B9000892DDFCF34E03B1508F481CFEACFBB207D
:103BA00041F3F9E38F126CC12FEF37EE83E0215020
:103BB00030408040E1F700C0000062C1812F837077
:103BC00009F066C0A1106BCF802F82958695877013
:103BD000880F880F602F6F70862E912CB12CA12C2E
:103BE000082E04C0880C991CAA1CBB1C0A94D2F78E
:103BF00040E050E0BA0104FF0FC04FE050E060E049
:103C000070E004C0440F551F661F771F8A95D2F7D6
:103C10004095509560957095812F86958695837017
:103C2000823019F1D8F40091B1041091B2042091BE
:103C3000B3043091B404813069F0482959296A29C4
:103C40007B29CB01BA0160237123822393230E9435
:103C50009C0A25CF802A912AA22AB32ACB01BA0135
:103C6000682979298A299B29F2CF482959296A2963
:103C70007B290091B1041091B2042091B3043091DA
:103C8000B404CB01BA016027712782279327DFCFC5
:103C90008695AA2011F0812F8170882309F4FFCE28
:103CA000802F829586958770880F880F602F6F70A0
:103CB000862E912CB12CA12C082E04C0880C991CA6
:103CC000AA1CBB1C0A94D2F740E050E0BA0104FFE2
:103CD0000FC04FE050E060E070E004C0440F551F9B
:103CE000661F771F8A95D2F740955095609570951D
:103CF000812F869586958370823019F1D8F40091D2
:103D00001E0510911F05209120053091210581305D
:103D100069F0482959296A297B29CB01BA01602316
:103D20007123822393230E94160AB9CE802A912AF6
:103D3000A22AB32ACB01BA01682979298A299B29A9
:103D4000F2CF482959296A297B2900911E05109133
:103D50001F052091200530912105CB01BA01602774
:103D6000712782279327DFCF1F70AA2029F0812F88
:103D70000E947B0A802FEDCE802F0E94B40A812FF3
:103D80000E94400A8CCE802F92EF891609F450C011
:103D9000981578F0E0EF8E1619F1F1EF8F1609F40F
:103DA0003FC0AA2009F467C0B1105DCE812F8F718A
:103DB0003CC023EF821609F440C034EF8312F1CFE8
:103DC000AA2009F44DC01F71812F0E947B0AE8E0F0
:103DD0001E9FC001112483608093AC04812F25C0F5
:103DE000AA20C9F084E08B1508F459CE1F7161E058
:103DF00070E080E090E004C0660F771F881F991F75
:103E00001A95D2F700911E0510911F0520912005EB
:103E100030912105A4CF95E09B1508F440CEE6CF64
:103E2000812F8F71AA2009F4ABCF0E947B0A37CE75
:103E3000812F8F71AA20C9F3A3CF60E070E0CB017E
:103E4000AA2009F470CF1F7161E070E080E090E07B
:103E500004C0660F771F881F991F1A95D2F763CF8A
:103E600081E00E94630AF1E0FB1508F018CE82E0C1
:103E70000E94630A14CEBB2039F0893309F494CE32
:103E8000802F0E94D50A0BCE812F8F7179CF003100
:103E9000FFE51F0709F464CB01312FE5120709F490
:103EA00069CB0D3B2CE5120709F490CB08F066CBEB
:103EB0000B3B8CE5180709F481CB80E00C3BECE56B
:103EC0001E0709F47CCB033F2CE5120709F4CFCB86
:103ED00008F060C0083D8CE5180709F4C2CB093D25
:103EE000ECE51E0709F4D5CB073DFCE51F0709F0FB
:103EF0005DC006E221EE41EE67ED7CE5C7010E9460
:103F0000BE0D52CA00313FE5130709F42FCB013132
:103F10008FE5180709F430CB033FECE51E0709F4E1
:103F2000A6CB08F08CC0083D2CE5120709F499CB0C
:103F3000093D3CE5130709F4ACCB073D8CE51807B8
:103F4000C1F206311C4509F01DCD80913D0481115F
:103F500096CC89E20E9463098DCC85E0DE01119642
:103F600001900D928A95E1F7F701228189819A816A
:103F70002111F5C90E94C209182FF9C98272F801EE
:103F8000E25CFC45E431F10508F0F3CCEE52F54D6E
:103F90000C947C29053F2CE5120709F474CB08F436
:103FA0006CCB063F8CE5180709F455C010923C0411
:103FB00002308CE5180708F44BCC0631ECE51E07FF
:103FC00038F098012A5F3C452930310508F040CC93
:103FD0000E9452119093C0048093BF040031FCE50D
:103FE0001F0709F404CC08F08DCB08303CE513071B
:103FF00009F4EBCB08F061CB04309CE5190709F418
:10400000D8CB08F04CCB0230FCE51F0709F4CBCB32
:104010008091BF04826003301C4509F4C7CB6091D6
:10402000BF041091C00484E090E00E94152A612F23
:1040300081E290E00E94152A0E941D16B5C9053F35
:10404000ECE51E0709F41FCB08F417CB063F2CE55F
:10405000120709F076CF07E225EE46EE66EF7CE523
:104060004DCF1F93CF93DF9380914704807FA9F4B6
:1040700080914404882389F080917904D091480488
:104080006091420470914304A0914504B0914604AC
:10409000C62FC72316E0D81304C0DF91CF911F911C
:1040A000089590E0109711F0CF3F19F401968770B2
:1040B000F2CF189F9001199F300D1124F901E75B91
:1040C000FB4F41814713F2CF40814613EFCF42812E
:1040D0004111ECCF438154814A1B5B0B483C510595
:1040E00028F7809147048F70806180934704F9011D
:1040F000E25BFB4F80818F708061808382E494E07B
:104100000E947A19DF91CF911F910C94AA0AAF9265
:10411000BF92CF92DF92EF92FF920F931F93CF93B4
:10412000DF93CDB7DEB761970FB6F894DEBF0FBE51
:10413000CDBF8C0185E0F801DE011D9601900D9246
:104140008A95E1F7F80180819181E28022E4A22E34
:1041500024E0B22E6091450470914604611571050A
:1041600009F43EC13091420440914304232F24239B
:104170002F3F09F435C1C380D480F0904404F60188
:10418000E61BF70BFF2009F4FBC020914704522FD8
:10419000507FE83CF10508F0BBC0511178C0FE2CFF
:1041A000491321C038131FC0E1101DC02F702061BA
:1041B00020934704C5010E947A1980914704F801B1
:1041C00085838F2D61960FB6F894DEBF0FBECDBFED
:1041D000DF91CF911F910F91FF90EF90DF90CF90E3
:1041E000BF90AF900895CD2829F0282F29232F3F85
:1041F00009F014C120E0F22FF170DF2E20FF3DC046
:10420000209179044091480456E0241315C08D870D
:104210009E878D859E850E943D13292F22952F70A4
:104220002230F8F0243020F59F70F9F0F8019581E4
:10423000907FD9F4D12C1FC030E0529FF001539FE2
:10424000F00D1124E75BFB4F6181961306C060817E
:10425000861303C06281E61210C02F5F3F4F2770A4
:10426000D4CF9F7011F0882329F3805E883010F33B
:10427000C8010E947A19FD2CA4CFEE2009F4A1CF29
:1042800080914704816080934704F12C9ACF4913B1
:1042900012C0381310C0E1100EC0F8012583C80108
:1042A0000E947A1986E0F801A2E4B4E001900D9230
:1042B0008A95E1F786CF8D879E878D859E850E94A2
:1042C0004713882309F1EE20F9F0809147048032EA
:1042D00070F0209142043091430438872F8319866F
:1042E000DB86CA868C87CE0107960E947A1986E003
:1042F000F801A2E4B4E001900D928A95E1F70E94E2
:104300003120FF24F3945DCFC8010E947A19F9CFC0
:1043100051110AC082E494E00E947A1986E0F50106
:1043200011928A95E9F7B1CF49130FC038130DC028
:10433000E1100BC0F8012583C8010E947A1986E0BC
:10434000F50111928A95E9F73CCF8D879E878D857F
:104350009E850E9447138823B9F2EE20A9F280912E
:104360004704803220F220914204309143043A8382
:1043700029831B82DD82CC828E83CE010196B5CF4C
:10438000E83CF105E0F6FE2CEE2009F4BDCF491320
:1043900016C0381314C08091470480FD83CF982F36
:1043A000907F09F47FCFF8018583903F09F477CFA0
:1043B000982F907F905F8F70892B858370CF8D872A
:1043C0009E878D859E850E944713811190CF809195
:1043D0004704816080934704C8010E947A19F1CE96
:1043E000EE2009F491CF8D879E878D859E850E9452
:1043F0004713F82E882309F487CF86E0F801A2E45A
:10440000B4E001900D928A95E1F780914204909179
:1044100043040E943D130E943120D3CE21E02E257B
:10442000EACE1F93CF93DF93CDB7DEB767970FB672
:10443000F894DEBF0FBECDBF4B8B5C8B6D8B7E8B3C
:104440008F8B1A8A198A85E0FE017396DE011D960C
:1044500001900D928A95E1F786E0FE013D96DE011E
:10446000179601900D928A95E1F7CE0107960E946A
:104470008720882389F016E0809179049091480480
:10448000891349C067960FB6F894DEBF0FBECDBF43
:10449000DF91CF911F91089586E0FE013796DE01EE
:1044A000119601900D928A95E1F78A859B85892B5B
:1044B00011F38F81988589238F3FE9F22091480479
:1044C00030E0C90101968770992740917904481717
:1044D000190671F40E941D16109248041092790476
:1044E00086E0E2E4F4E0DF011D928A95E9F7C3CFAC
:1044F00096E0929FD001939FB00D1124A75BBB4F14
:10450000FE01319601900D929A95E1F7809348044F
:104510000E94AA0AB0CF819FC0011124875B9B4FE4
:104520000E948720882309F4ADCF8091790490E020
:10453000019687709927809379049ECF1F920F92DE
:104540000FB60F9211242F933F934F935F936F9366
:104550007F938F939F93AF93BF93CF93DF93EF930B
:10456000FF93D091E900DF708091EC00C82FC170FB
:1045700080FDC0E81092E9008091F000877F809371
:10458000F00078940E9436161092E9008091F000B5
:1045900088608093F000CD2BCF70C093E900FF912D
:1045A000EF91DF91CF91BF91AF919F918F917F91CB
:1045B0006F915F914F913F912F910F900FBE0F9090
:1045C0001F9018951F920F920FB60F9211242F93E0
:1045D0003F934F935F936F937F938F939F93AF938B
:1045E000BF93EF93FF938091E10082FF09C0809118
:1045F000E20082FF05C08091E1008B7F8093E100A3
:104600008091DA0080FF24C08091D80080FF20C014
:104610008091DA008E7F8093DA008091D90080FF4C
:10462000B2C080E189BD82E189BD09B400FEFDCF41
:1046300081E080931D058091E804811109C00E94EA
:1046400044070E9437088091E20084608093E20072
:104650008091E10080FF17C08091E20080FF13C0CD
:104660008091E2008E7F8093E2008091E200806181
:104670008093E2008091D80080628093D80019BCBA
:1046800085E080931D058091E10084FF40C080910A
:10469000E20084FF3CC080E189BD82E189BD89B52B
:1046A000982F917080FFFBCF8091D8008F7D8093F1
:1046B000D8008091E1008F7E8093E1008091E2003C
:1046C0008F7E8093E2008091E20081608093E2001F
:1046D00080911405882309F45CC084E080931D0553
:1046E0000E941D160E94E4140E94C90A1092EF0451
:1046F0008091EE04882349F08091E90481608093E1
:10470000E90460E086950E941E190E9408198091B4
:10471000E10083FF27C08091E20083FF23C08091E6
:10472000E100877F8093E10082E080931D05109275
:1047300014058091E1008E7F8093E1008091E2007A
:104740008E7F8093E2008091E20080618093E2009E
:1047500042E060E080E00E9405088091F0008860FF
:104760008093F000FF91EF91BF91AF919F918F9156
:104770007F916F915F914F913F912F910F900FBE5D
:104780000F901F90189519BC10921D051092E80407
:104790005FCF8091E30087FD93E090931D05A0CF4C
:1047A000CDB7DEB7AA970FB6F894DEBF0FBECDBF68
:1047B00084B7877F84BF0FB6F894A8958091600076
:1047C000886180936000109260000FBE80E890E0E6
:1047D0000FB6F89480936100909361000FBE85B787
:1047E000806885BF85B7806885BF0E9444070E94A6
:1047F00037088091E20084608093E2007894809191
:104800001D058823A1F01091E9001F709091EC0024
:10481000892F817090FD80E8182B1092E90080911B
:10482000E80083FD0E9436161F701093E90082E0B5
:1048300084BD93E095BD9AEF97BD80936E00A8E488
:10484000B1E061E070E08D91E82FE295EF70F0E06B
:1048500041A18F709B0101C0220F8A95EAF7922F28
:104860009095942391A382A1822B82A321E0AD3461
:10487000B20749F7ADE4B1E061E070E08D91E82F57
:10488000E295EF70F0E041A18F709B0101C0220F13
:104890008A95EAF7922F9095942391A382A1822B77
:1048A00082A381E0AC35B80749F71092B6041092A4
:1048B000B5041092DB041092DA041092B80410923E
:1048C000B7041092DD041092DC041092BA04109226
:1048D000B9041092DF041092DE041092BC0410920E
:1048E000BB041092E1041092E0041092BE041092F6
:1048F000BD041092E3041092E2040E948C10EFE3D6
:10490000FCE93197F1F700C000000E948C10809103
:10491000DA0480FF0BC080E00E94D5136FEF7FEFB9
:1049200090E080E00E94332A0E94F40C0E947614EA
:10493000811102C00E948114279A2F988AE08093E7
:10494000800089E1809381008FEF9FEF9093870033
:10495000809386000E94E41482E290E00E94012A83
:10496000813209F016C483E290E00E94012A82316C
:1049700009F00FC484E290E00E94012A813009F01E
:1049800008C40E947614811102C00E94811482E042
:1049900090E00E94012A8093CC040E9452119093CF
:1049A000C0048093BF0483E090E00E94012A682F36
:1049B00070E090E080E00E949C0A0E94E4148091E4
:1049C000C104811133C00E947614811104C00E9479
:1049D00081140E940D1688E090E00E94092A6093DD
:1049E000E9047093EA048093EB049093EC046E7FE7
:1049F00071F40E940D1688E090E00E94092A6093ED
:104A0000E9047093EA048093EB049093EC040E9411
:104A1000C20B1092D9048091E90480FF04C060E0C9
:104A200086950E941E1981E08093C10482E191E085
:104A30009093C3048093C20453E0652E712CEE243E
:104A4000EA94F12C71E5C72E7DE0D72E80911D05EB
:104A5000853009F4B7C00E948C10AAEDB4E0EDECEB
:104A6000F4E010E000E0702F8D919D912191319143
:104A70002817390709F409C12827392760E0AA2433
:104A8000A394B12CA9014A215B21452B09F4F7C05D
:104A900069A37AA39C012A213B2191E0232B09F4ED
:104AA00090E09BA30E940C098160782F9DA38CA3AA
:104AB00049A15AA16BA18DA10E941122000F111FC3
:104AC000F801E353FB4F80819181A826B926B1827A
:104AD000A0828091D904882309F441C08091D80430
:104AE000E091E904E695E81BE093C704823009F001
:104AF000E3C0F0E0E15AF24FE4910E2F10E088E6B7
:104B0000A82E80E1B82E8091C804882389F01092E5
:104B1000C8040E940C09980120953095820F931FBC
:104B20009093C6048093C5041092CA041092C904DD
:104B30008091C5049091C6040E94FD0880179107DA
:104B400070F0E091C504F091C6040E0F1F1F109382
:104B5000C6040093C50485EC94E0F50109950E9414
:104B6000C90A9091CB04891721F00E94C90A809349
:104B7000CB0480911D05843009F068CF83E08093D9
:104B8000E9008091E80082FF61CF8091E80090E029
:104B900085FF06C00E946307882309F4F8C091E0EE
:104BA0008091E8008B778093E800992309F44ECF39
:104BB000E981E150E33108F065C1F0E0EA51F54DDB
:104BC0000C947C2980911D05843009F444C0109216
:104BD000C40488E190E020E40FB6F894A89580938F
:104BE00060000FBE2093600080E00E944D0B109289
:104BF000D9048091EF04811117C081E08093EF0404
:104C00008091E904982F91709093EE048E7F8093A9
:104C1000E904FFEF20E782E0F15020408040E1F717
:104C200000C000000E94210E83B7817F846083BF93
:104C300083B7816083BF7894889583B78E7F83BF65
:104C40000FB6F894A8958091600088618093600009
:104C5000109260000FBE80911305882309F4F6CEF0
:104C60000E948C10EAEDF4E084EE94E02191319101
:104C7000232B09F078C28E179F07C1F7E7CE6F5F2D
:104C8000AA0CBB1C6F3009F0FDCE0F5F1F4F053023
:104C9000110509F0E8CE8FEF8EA38FA318A60E940E
:104CA0000C098160782F9AA789A74EA15FA168A5FA
:104CB0008AA50E9411220DCF863059F4F0E0E45A03
:104CC000F24FE4910E2F10E0BCE7AB2EB0E1BB2E0B
:104CD0001ACF893061F4E695F0E0E75AF24FE4919B
:104CE0000E2F10E0A6E5AA2EAEE0BA2E0CCF8F3024
:104CF00061F4E695F0E0EA5AF24FE4910E2F10E0ED
:104D0000F0E8AF2EFEE0BF2EFECE853159F4F0E084
:104D1000ED5AF24FE4910E2F10E0EEEEAE2EEEE0E3
:104D2000BE2EF1CE08E210E05CE3A52E5FE0B52ECA
:104D3000883109F4E8CE833241F4F60105911491EB
:104D40007FE0A72E70E1B72EDECE04EF11E045EC38
:104D5000A42E4FE0B42E843209F4D5CE00ED17E036
:104D600036EFA32E38E0B32E853209F0CCCE8E2F4D
:104D700063E00E943A29E92FF0E0E25BF24FE49110
:104D80000E2F10E06DEEA62E63E1B62EBCCE00E233
:104D900010E0CE0101965C018091E80085FD0AC01B
:104DA0008091E8008B778093E8000E946307882356
:104DB00099F3F5CE8091F100F50181935F010150E7
:104DC000110951F7ECCE1A8289E08B831AC08A81CF
:104DD000823009F4EBC18330C9F0813009F052C050
:104DE0002FB7F8946091E4047091E5048091E60493
:104DF0009091E7042FBF0E9482296B837C838D836F
:104E00009E83CE0101960E94BE0720CE8091DA04D7
:104E10009091DB049827892798279C838B83809126
:104E2000DC049091DD049827892798279E838D8341
:104E30008091DE049091DF0498278927982798872E
:104E40008F838091E0049091E10498278927982727
:104E50009A8789878091E2049091E30498278927B3
:104E600098279C878B87CDCF8A81823059F46B81BC
:104E70007C818D819E810E94822985E290E00E9442
:104E8000152ABFCF8FEF8983BCCF4C816B818A817C
:104E90000E9460119827892798279E838D83B1CF20
:104EA000AD80BE80BA24AB24BA248A810B81FEE196
:104EB0000F9F8001112426E9829F000D111D1124EE
:104EC0008C8190E0880F991F080F191F6B2DC80166
:104ED00086960E94152A6A2DC8018796D0CF0E9417
:104EE0006B138FCF8A81893059F48B81E3E08E9FD9
:104EF000C0011124B7010E945429862F0E94A70BDC
:104F00008A818138C1F060F4803809F07ACF20E0DE
:104F10004B816091EB048091EA040E94141571CFDB
:104F2000823859F1833809F06CCF20E04091EC04CD
:104F30006C818B81F2CF60E08B810E941E199B8176
:104F40008091E904911111C08E7F8093E904109241
:104F5000D904FFEF20E782E0F15020408040E1F7E4
:104F600000C000000E94210E4CCF81608093E904B4
:104F700060E086950E941E1944CF8B818093ED04DA
:104F800040CF8A81893059F08A30B9F0813819F1DF
:104F9000B0F4803809F035CF8091EC0416CF8091C1
:104FA000D704869586958695EFEF8E9FC0011124D4
:104FB000B3010E9454296B8324CF1B8222CF8238F5
:104FC00091F0833809F01DCF8091EA048B838091A2
:104FD000EB048C8316CF8091E90480FF02C0869594
:104FE000F4CE80E0F2CE8091ED04EFCE8091D70434
:104FF0000E94C0136091E9047091EA048091EB046F
:105000009091EC040E940215FCCE80E18A83F9CED7
:1050100081E08A8382E8D9CEAA80BB80BA24AB24FF
:10502000BA248E010F5F1F4F8C80800E912E911C31
:10503000C50182589D4F0815190509F4E2CEF2E822
:10504000AF16F1E0BF0650F40E94012AF8018483F4
:10505000FFEFAF1ABF0A0F5F1F4FEACFF8011482AC
:10506000F7CF0A811B81102701271027CE01019657
:105070004C01AC80A00EB12EB11CC80182589D4FCE
:10508000A016B10609F4BDCE0238E1E01E0720F4F7
:10509000F40164810E94152AFFEF8F1A9F0A0F5FA7
:1050A0001F4FEBCF0E94C513ACCE84E0AFCFAA80D8
:1050B000BB80BA24AB24BA248E010F5F1F4F8C80B3
:1050C000800E912E911CC50186960815190509F4CC
:1050D00098CE28E5A21622E0B20650F40E94012ADA
:1050E000F8018483FFEFAF1ABF0A0F5F1F4FEBCFAA
:1050F000F8011482F7CF0A811B811027012710279E
:10510000CE0101964C01AC80A00EB12EB11CC8019D
:1051100086960A151B0509F474CE0835E2E01E07D1
:1051200020F4F40164810E94152AFFEF8F1A9F0A70
:105130000F5F1F4FECCF80E00E94D5136FEF7FEF22
:1051400090E080E00E94332A5CCECE0101960E945E
:10515000BE072FEF81EE94E0215080409040E1F7B0
:1051600000C00000E1CB80E189BD82E189BD09B4C6
:1051700000FEFDCF8091D8008F7D8093D800809174
:10518000E00082608093E0008091E00081FDFCCF30
:105190005DCC60E085E290E00E94152A0E946B13CE
:1051A0000E94C51381E00E94D513EBCB85E290E00D
:1051B0000E94012A1B821C821D828E8322CE78943B
:1051C0001F921FB61F9211248F939F93AF93BF938B
:1051D0008091E4049091E504A091E604B091E70485
:1051E0000196A11DB11D8093E4049093E504A09362
:1051F000E604B093E704BF91AF919F918F911F9008
:105200001FBE1F9018951F921FB61F9211248F93D7
:105210009F93AF93BF938091C404811113C0809179
:10522000E4049091E504A091E604B091E70441966E
:10523000A11DB11D8093E4049093E504A093E604BE
:10524000B093E704BF91AF919F918F911F901FBEC4
:105250001F901895DB018F939F930E94682ABF913E
:10526000AF91A29F800D911DA39F900DB29F900DB5
:1052700011240895991B79E004C0991F961708F02E
:10528000961B881F7A95C9F78095089587FB082E8D
:10529000062687FD819567FD61950E943A290EF4E7
:1052A000919507FC81950895AA1BBB1B51E107C08E
:1052B000AA1FBB1FA617B70710F0A61BB70B881FA6
:1052C000991F5A95A9F780959095BC01CD01089535
:1052D00097FB072E16F4009407D077FD09D00E94A3
:1052E000542907FC05D03EF4909581959F4F089571
:1052F000709561957F4F0895EE0FFF1F0590F49113
:10530000E02D09946927962769277827872778272A
:1053100008950E949D2A332312F48A1B9B0B0C9440
:1053200093290E949D2AB7FF0895821B930B08952D
:105330008F929F92AF92BF92CF92DF92EF92FF92A5
:10534000CF93DF93EC01688179818A819B8161151C
:1053500071058105910521F464E279ED8BE597E013
:105360002DE133EF41E050E00E94492A49015A0102
:105370009B01AC01A7EAB1E40E94682A6B017C01A1
:10538000ACEEB4EFA50194010E94762ADC01CB01BA
:105390008C0D9D1DAE1DBF1DB7FF03C00197A10958
:1053A000B04888839983AA83BB839F77DF91CF918D
:1053B000FF90EF90DF90CF90BF90AF909F908F9035
:1053C00008950E949829089580E091E00E9498290C
:1053D0000895B0E0A0E08093000190930101A093B4
:1053E0000201B09303010895FC014150504030F098
:1053F00001900616D1F73197CF0108958827992794
:105400000895F999FECF92BD81BDF89A992780B58C
:105410000895A6E1B0E044E050E00C943B2AA8E1F6
:10542000B0E042E050E00C943B2A262FF999FECFE1
:1054300092BD81BDF89A019700B4021639F01FBAE7
:1054400020BD0FB6F894FA9AF99A0FBE0895039604
:10545000272F0E94162A0E94152A252F0E94162AFD
:10546000242F0C94162A0196272F0E94162A0C949A
:10547000152ADC01CB01FC01F999FECF06C0F2BD73
:10548000E1BDF89A319600B40D9241505040B8F702
:105490000895052E97FB1EF400940E94602A57FD84
:1054A00007D00E947B2A07FC03D04EF40C94602A9C
:1054B00050954095309521953F4F4F4F5F4F089540
:1054C00090958095709561957F4F8F4F9F4F089570
:1054D0000E949D2AA59F900DB49F900DA49F800DC2
:1054E000911D11240895B7FF0C94682A0E94682A20
:1054F000821B930B0895A1E21A2EAA1BBB1BFD0170
:105500000DC0AA1FBB1FEE1FFF1FA217B307E407A2
:10551000F50720F0A21BB30BE40BF50B661F771FFA
:10552000881F991F1A9469F76095709580959095DA
:105530009B01AC01BD01CF010895A29FB001B39FB3
:10554000C001A39F700D811D1124911DB29F700D8C
:10555000811D1124911D0895F894FFCF5613561301
:105560005F135F1361135F135F135F1356135613BB
:1055700066135F135F1366131B17431796174317C2
:1055800096177617AE179617B618C3181A1D1A1D58
:10559000881D881D4F1D4F1D4F1D4F1DDE1DB41E44
:1055A000C31EC31E411C681C6F1C741C791C7E1C0E
:1055B000831C881C8D1C921C971C9C1C9F1CA41C6B
:1055C000A71CAA1CAD1CB01CB31CB61CE326E72606
:1055D0003427452750276F277227C127F6279B2896
:1055E000A528052808280C2831285228552857288E
:0255F0007B2816
:1055F2000100000001191A1B1C1D1E1F202122017F
:105602000201FA08B40CF908F708F80801000102CF
:105612000202020606060909090909090F0F0F0FFE
:105622000F0F151515181919191919191919191909
:1056320023242525252525253033673666F6F5F4FE
:10564200F1C69593929190949697343540223B09F6
:0C56520001E700AC00750D8E0DAE0D00E0
:00000001FF
