:100000000C9432070C9479070C9479070C947907B7
:100010000C9479070C9479070C9479070C94790760
:100020000C9479070C9479070C941E280C94F128F1
:100030000C94F51E0C9479070C9479070C947907AD
:100040000C9479070C9479070C9479070C94790730
:100050000C9479070C945D1F0C9479070C94790724
:100060000C9479070C9479070C9479070C94790710
:100070000C9479070C9479070C9479070C94790700
:100080000C9479070C9479070C9479070C947907F0
:100090000C9479070C9479070C9479070C947907E0
:1000A0000C9479070C9479070C94790729001E00A9
:1000B0001F0020002100220023002400250026002C
:1000C00027002D002E0035002A002A002B001400E6
:1000D0001A000800150017001C0018000C00120080
:1000E00013002F0030003100000000003900040030
:1000F0001600070009000A000B000D000E000F009B
:10010000330034003502280000000000E100320016
:100110001D001B000600190005001100100036002C
:1001200037003800E500520052003800E000E300DC
:10013000E300E200E2000151000000002C00015148
:10014000E40001515000510051004F0001003A00FD
:100150003B003C003D003E003F00400041004200AB
:1001600043004400450001004C004C000100347085
:100170005200357036703770387039703A703B7095
:10018000010001000100010000000000010050001A
:1001900051004F00010001000100010001000100B9
:1001A0000100010020020100000000000100010028
:1001B00000703070327031700100010001000100E8
:1001C0000100010001000100010001000100010027
:1001D0000100010001000100000000000100010019
:1001E0000100010001000100010001000100010007
:1001F00001000100010001000100010001000100F7
:1002000001000100010001000100010001000100E6
:1002100001000100010001000100010001000100D6
:1002200001000100010001000000000001000100C8
:1002300001000100010001000100010001000100B6
:1002400001000100010001000000000001000100A8
:100250000100010001000100010001000100010096
:100260000100010001000100010001000100010086
:100270000100010001000100000000000100010078
:100280000100010001000100010001000100010066
:100290000100010001000100010001000100010056
:1002A0000100010001000100010001000100010046
:1002B0000100010001000100010001000100010036
:1002C0000100010001000100000000000100010028
:1002D0000100010001000100010001000100010016
:1002E0000100010001000100000000000100010008
:1002F00001000100010001000100010001000100F6
:1003000001000100010001000100010001000100E5
:1003100001000100010001000000000001000100D7
:1003200001000100010001000100010001000100C5
:1003300001000100010001000100010001000100B5
:1003400001000100010001000100010001000100A5
:100350000100010001000100010001000100010095
:100360000100010001000100000000000100010087
:100370000100010001000100010001000100010075
:100380000100010001000100000000000100010067
:100390000100010001000100010001000100010055
:1003A0000100010001000100010001000100010045
:1003B0000100010001000100000000000100010037
:1003C0000100010001000100010001000100010025
:1003D0000100010001000100010001000100010015
:1003E0000100010001000100010001000100010005
:1003F00001000100010001000100010001000100F5
:1004000001000100010001000000000001000100E6
:1004100001000100010001000100010001000100D4
:1004200001000100010001000000000001000100C6
:1004300001000100010001000100010001000100B4
:1004400001000100010001000100010001000100A4
:100450000100010001000100000000000100010096
:100460000100010001000100010001000100010084
:100470000100010001000100010001000100010074
:100480000100010001000100010001000100010064
:100490000100010001000100010001000100010054
:1004A0000100010001000100000000000100010046
:1004B0000100010001000100010001000100010034
:1004C0000100010001000100000000000100010026
:1004D0000100010001000100010001000100010014
:1004E0000100010001000100010001000100010004
:1004F00001000100010001000000000001000100F6
:1005000001000100010001000100010001000100E3
:1005100001000100010001000100010001000100D3
:1005200001000100010001000100010001000100C3
:1005300001000100010001000100010001000100B3
:1005400001000100010001000000000001000100A5
:100550000100010001000100010001000100010093
:100560000100010001000100000000000100010085
:100570000100010001000100010001000100010073
:100580000100010001000100010001000100010063
:100590000100010001000100000000000100010055
:1005A0000100010001000100010001000100010043
:1005B0000100010001000100010001000100010033
:1005C0000100010001000100010001000100010023
:1005D0000100010001000100010001000100010013
:1005E0000100010001000100000000000100010005
:1005F00001000100010001000100010001000100F3
:1006000001000100010001000000000001000100E4
:1006100001000100010001000100010001000100D2
:1006200001000100010001000100010001000100C2
:1006300001000100010001000000000001000100B4
:1006400001000100010001000100010001000100A2
:100650000100010001000100010001000100010092
:100660000100010001000100010001000100010082
:100670000100010001000100010001000100010072
:100680000100010001000100000000000100010064
:100690000100010001000100010001000100010052
:1006A0000100010001000100000000000100010044
:1006B0000100010001000100010001000100010032
:1006C0000100010001000100010001000100010022
:1006D0000100010001000100000000000100010014
:1006E0000100010001000100010001000100010002
:1006F00001000100010001000100010001000100F2
:1007000001000100010001000100010001000100E1
:1007100001000100010001000100010001000100D1
:1007200001000100010001000000000001000100C3
:1007300001000100010001000100010001000100B1
:1007400001000100010001000000000001000100A3
:100750000100010001000100010001000100010091
:100760000100010001000100010001000100010081
:100770000100010001000100000000000100010073
:100780000100010001000100010001000100010061
:100790000100010001000100010001000100010051
:1007A0000100010001000100010001000100010041
:1007B0000100010001000100010001000100010031
:1007C0000100010001000100000000000100010023
:1007D0000100010001000100010001000100010011
:1007E0000100010001000100000000000100010003
:1007F00001000100010001000100010001000100F1
:1008000001000100010001000100010001000100E0
:1008100001000100010001000000000001000100D2
:1008200001000100010001000100010001000100C0
:1008300001000100010001000100010001000100B0
:1008400001000100010001000100010001000100A0
:100850000100010001000100010001000100010090
:100860000100010001000100000000000100010082
:100870000100010001000100010001000100010070
:100880000100010001000100000000000100010062
:100890000100010001000100010001000100010050
:1008A0000100010001000100010001000100010040
:1008B0000100010001000100000000000100010032
:1008C0000100010001000100010001000100010020
:1008D0000100010001000100010001000100010010
:1008E0000100010001000100010001000100010000
:1008F00001000100010001000100010001000100F0
:1009000001000100010001000000000001000100E1
:1009100001000100010001000100010001000100CF
:1009200001000100010001000000000001000100C1
:1009300001000100010001000100010001000100AF
:10094000010001000100010001000100010001009F
:100950000100010001000100000000000100010091
:10096000010001000100010001000100010001007F
:10097000010001000100010001000100010001006F
:10098000010001000100010001000100010001005F
:10099000010001000100010001000100010001004F
:1009A0000100010001000100000000000100010041
:1009B000010001000100010001000100010001002F
:1009C0000100010001000100000000000100010021
:1009D000010001000100010001000100010001000F
:1009E00001000100010001000100010001000100FF
:1009F00001000100010001000000000001000100F1
:100A000001000100010001000100010001000100DE
:100A100001000100010001000100010001000100CE
:100A200001000100010001000100010001000100BE
:100A300001000100010001000100010001000100AE
:100A400001000100010001000000000001000100A0
:100A5000010001000100010001000100010001008E
:100A60000100010001000100000000000100010080
:100A7000010001000100010001000100010001006E
:100A8000010001000100010001000100010001005E
:100A90000100010001000100000000000100010050
:100AA0000100010001000100010001006432146432
:100AB0003214783C1E1E140A0500000000010101DA
:100AC0000202030405050607090A0B0C0E0F11129A
:100AD000141517191B1D1F212325282A2C2F3134EB
:100AE00036393B3E414346494C4F5255585A5D6159
:100AF00064676A6D707376797C7F8386898C8F9248
:100B000095989B9EA2A5A7AAADB0B3B6B9BCBEC12D
:100B1000C4C6C9CBCED0D3D5D7DADCDEE0E2E4E67A
:100B2000E8EAEBEDEEF0F1F3F4F5F6F8F9FAFAFB9A
:100B3000FCFDFDFEFEFEFFFFFFFFFFFFFFFEFEFED2
:100B4000FDFDFCFBFAFAF9F8F6F5F4F3F1F0EEED41
:100B5000EBEAE8E6E4E2E0DEDCDAD7D5D3D0CECBD0
:100B6000C9C6C4C1BEBCB9B6B3B0ADAAA7A5A29E42
:100B70009B9895928F8C898683807C797673706D33
:100B80006A6764615D5A5855524F4C494643413E2D
:100B90003B393634312F2C2A282523211F1D1B19C0
:100BA00017151412110F0E0C0B0A09070605050480
:100BB0000302020101010000000000000000010129
:100BC000010101010101010202020202020202020C
:100BD00003030303030303030404040404040505DB
:100BE000050505060606060607070707080808089C
:100BF0000909090A0A0A0A0B0B0B0C0C0C0D0D0D46
:100C00000E0E0F0F0F1010111111121213131414D6
:100C1000151516161717181819191A1A1B1C1C1D4A
:100C20001D1E1F1F202021222223242525262727A1
:100C300028292A2B2B2C2D2E2F2F303132333435CF
:100C400036363738393A3B3C3D3E3F4041424344DB
:100C5000464748494A4B4C4D4F50515253555657B1
:100C6000585A5B5C5E5F606263646667696A6C6D5C
:100C70006E707173747678797B7C7E8081838486D4
:100C8000888A8B8D8F91929496989A9B9D9FA1A311
:100C9000A5A7A9ABADAFB1B3B5B7B9BBBDBFC1C413
:100CA000C6C8CACCCFD1D3D6D8DADCDFE1E4E6E8D7
:100CB000EBEDF0F2F5F7FAFCFF12036B006500793B
:100CC0000062006F00610072006400000016037192
:100CD000006D006B006200750069006C00640065C7
:100CE00000720000000403090409026D0004010001
:100CF000A0FA09040000010301010009211101000B
:100D0000012240000705810308000A0904010001CF
:100D100003010200092111010001224D0007058293
:100D20000308000A09040200010300000009211160
:100D30000100012236000705830308000A090403A5
:100D40000001030000000921110100012239000700
:100D50000584032000011201100100000008EDFECF
:100D6000606001000102000105010906A1010507FB
:100D700019E029E71500250195087501810205088C
:100D800019012905950575019102950175039101D8
:100D90000507190029F71500250195F8750181024D
:100DA000C005010980A10185021601002603001A71
:100DB00081002A8300751095018100C0050C09018E
:100DC000A1018503160100269C021A01002A9C023B
:100DD000751095018100C005010902A1010901A159
:100DE00000050919012905150025019505750181E1
:100DF000029501750381010501093009311581252D
:100E00007F95027508810609381581257F95017542
:100E1000088106050C0A38021581257F95017508A1
:100E20008106C0C005010906A101050719E029E7EF
:100E3000150025019508750181029501750881014C
:100E4000050819012905950575019102950175039C
:100E500091010507190029FF150026FF0095067569
:100E6000088100C011241FBECFEFDAE0DEBFCDBF86
:100E700004B603FE27C080918E0290918F02A0914C
:100E80009002B09191028730904BA740B04BD1F4C3
:100E900010928E0210928F02109290021092910284
:100EA00014BE84B7877F84BF0FB6F894A89580914D
:100EB0006000886180936000109260000FBEE0E0E7
:100EC000F8E3099511E0A0E0B1E0EEE8F8E502C032
:100ED00005900D92AE33B107D9F722E0AEE3B1E051
:100EE00001C01D92AE38B207E1F70E946B250C9449
:100EF000452C0C94000090E080E00895089508953A
:100F000081E00895089581E008950C9480070E947F
:100F100056172FEF84E39CE0215080409040E1F78A
:100F200000C000000C94821FFF920F931F93CF9379
:100F3000DF938C01FC01C081D18180918F018111EF
:100F400048C08281882309F43FC0CE010E94BB1CA7
:100F5000F82E682FCE010E94631CBE018F2D0E94C7
:100F60007109EC01B8010E948507882309F478C053
:100F7000B801CE010E94A20B882309F471C0C633C8
:100F8000F0E7DF0709F484C0C0F5C53190E7D90761
:100F900028F5C230E0E7DE0708F099C0C115F0E798
:100FA000DF0709F458C0C130D04709F460C081E0C0
:100FB0008093400180934101C801DF91CF911F913F
:100FC0000F91FF900C948307CE010E94911CF82E84
:100FD000C4CFCE010E94BB1CBE01C1CFC43390E779
:100FE000D90709F44EC0C533D04709F7F80182810B
:100FF0008823B1F10E94BD0F33C0CA33F0E7DF0789
:1010000009F457C070F4F8018281C833F0E7DF07B4
:1010100009F44AC008F443C0882311F10E94010F6B
:101020001FC0CC33E0E7DE0709F4D5C008F448C0A0
:10103000CD33D04709F0BBCFF8018281882309F472
:10104000F1C0109241010E94271F90933F018093AD
:101050003E0180E2CDC0F801828181110E948707A4
:1010600080E0DF91CF911F910F91FF900895F801DB
:1010700082818823A9F380912702816080932702CF
:10108000EFCFF8018281882359F30E94C70FE8CF80
:10109000F8018281882321F30E94B20EE1CF8823D8
:1010A000F9F20E94CA0EDCCF8823D1F20E94E90E29
:1010B000D7CFF8018281882399F20E94190FD0CFEF
:1010C000F8018281882361F20E94310FC9CFF801B3
:1010D0008281882309F470CF0E94781E811102C09A
:1010E0000E94521E0E94951E90E090937F02809372
:1010F0007E02FE01E350F04780917E028160E23182
:10110000F105C8F4EA57F74F0C94F72B9808A40898
:10111000A808AC08B008B408B808BC08C008C408DF
:10112000C808CC08D008D408D808DC08E008E408CF
:1011300080917E02826080937E0280917E020E9476
:10114000991E0E9456178CCF80917E028460F3CF47
:1011500080917E028860EFCF80917E028061EBCF2C
:1011600080917E028062E7CF80917E028064E3CF2F
:1011700080917E028068DFCF80917E028460EACF1A
:1011800080917E028E7FD7CF80917E028D7FD3CFDC
:1011900080917E028B7FCFCF80917E02877FCBCFE5
:1011A00080917E028F7EC7CF80917E028F7DC3CFDC
:1011B00080917E028F7BBFCF80917E028F77BBCFE5
:1011C00080917E028B7FEACF90917E02892F97FBE0
:1011D00087F98058B0CFF8018281882361F010929E
:1011E00040010E94271F90933F0180933E0182E0BF
:1011F0000E94C01435CF8091400181110FC08091B1
:101200003E0190913F010E94331F883C910530F4CC
:1012100086E20E94951386E20E94711482E00E9489
:10122000C7141ECF8091410181110FC080913E01F2
:1012300090913F010E94331F883C910530F487E272
:101240000E94951387E20E94711480E2E8CF0C940B
:10125000F30B269A2E988FEF9FEF90938700809341
:10126000860082E28093800089E1809381000C9463
:1012700020230E9429090C94F10B282F2E9880918D
:101280008000211108C08F7D8093800010928B0018
:1012900010928A0008958062809380002F3039F484
:1012A0008FEF9FEF90938B0080938A0008958FE0DB
:1012B00090E0821B910923E0880F991F2A95E1F79E
:1012C0002FEF3FEF02C0369527958A95E2F73093CE
:1012D0008B0020938A0008950C9482070C946C096B
:1012E0000895E72FF0E095E0899FE00DF11D1124AE
:1012F00084E0EE0FFF1F8A95E1F7E60FF11DEE0F78
:10130000FF1FE455FF4F859194910895FC01EE0F66
:10131000FF1FE455F54F8591949108950E9471093E
:101320000E94210B811520E5920708F040C081152D
:1013300030E4930708F0FAC0883E910518F5803E26
:10134000910508F07DC1883A910580F4853A9105B0
:1013500008F087C08130910509F472C120F0843013
:10136000910508F06DC190E080E008958D3B9105F6
:1013700008F482C0803C9105B0F3805C91090E9422
:1013800086090895811540E2940750F4811521E003
:10139000920708F055C1803F910528F390650895A4
:1013A000811530E3930708F0BEC09F70E8CF811528
:1013B00045E5940760F5811524E5920708F0E5C03E
:1013C000811532E5930750F4811541E5940708F43F
:1013D000B0C0982F8827816F906A0895282F26958E
:1013E0002695AC01437055278115934508F0BEC082
:1013F00081E090E002C0880F991F4A95E2F740E231
:10140000249F90011124822B932B9C680895803394
:1014100040E7940798F4803220E7920708F0BFC0B5
:10142000811536E5930708F4B5C09C0130569F70CE
:101430002115304108F097CF90620895813320E75D
:10144000920709F4B3C008F4AEC0823340E79407B2
:1014500009F4AFC08333904709F085CF80E093ED66
:101460000895853A910509F4A7C0863A910509F0D7
:10147000A6C082E890E40895883A910509F4A2C0D4
:10148000893A910509F4A1C08A3A910509F4A0C0EE
:101490008B3A910509F49FC08C3A910509F49EC0DE
:1014A0008B3B910509F49DC08C3B910509F49CC0D0
:1014B0008D3A910509F49BC0803B910509F49AC0CF
:1014C0008E3A910509F499C08F3A910509F498C0B4
:1014D000813B910509F497C0823B910509F496C0C0
:1014E000833B910509F495C0843B910509F494C0B0
:1014F000853B910509F493C0863B910509F492C0A0
:10150000873B910509F491C0883B910509F490C08F
:10151000893B910509F48FC08A3B910509F48EC07F
:1015200080E094E408959927906C08959F70906AE4
:1015300008959C0154E0369527955A95E1F7922F2E
:101540009370482F437021E030E002C0220F331F18
:101550004A95E2F73C68392B86958695837040E280
:10156000849FC0011124822B932B089581E090E089
:1015700002C0880F991F4A95E2F740E2249F90012C
:101580001124822B932B9A680895982F8827846FB3
:10159000906A0895982F882788279F714DCF805291
:1015A0009047946D089580E091ED089580E090ED6E
:1015B000089580E092ED089581E890E4089583E82D
:1015C00090E4089582EE94E4089589EE94E40895F9
:1015D0008AEE94E4089585EB94E4089586EB94E410
:1015E000089583EB94E4089584EB94E4089587EBE5
:1015F00094E408958CEC94E408958DEC94E40895BB
:1016000083E895E408958AE895E4089582E995E4ED
:10161000089584E995E4089581E296E4089583E2CB
:1016200096E4089584E296E4089585E296E40895A8
:1016300086E296E4089587E296E408958AE296E4C5
:1016400008958238910549F1B0F48133910509F488
:101650005CC048F48932910509F452C08A32910580
:1016600009F458C008958533910509F444C08933BD
:10167000910599F00895833E910531F138F4803E4B
:10168000910591F0823E9105B1F00895863E910555
:1016900011F1873E910541F1089520917E0223705A
:1016A000C9F080EE90E0089520917E0220FF12C0E4
:1016B00089E390E0089520917E0222FF0BC024FF71
:1016C0002EC090E080E0089520917E0222FD2AC085
:1016D00024FDF7CF089520917E0223FFFBCF24FD48
:1016E000F0CF87EE90E0089520917E0223FFF0CFA7
:1016F00086EE90E0089520917E0225FD16C00895A3
:1017000020917E0225FD14C0089520917E0226FDC1
:1017100012C0089520917E0226FD10C0089583EE28
:1017200090E0089582EE90E0089589E290E00895B7
:1017300085E390E008958AE290E0089581E390E0E7
:10174000C9CF08950F931F93CF938C01FB01828122
:10175000811106C0C1E08C2FCF911F910F91089588
:10176000C0914F01C11125C00531104799F70E9462
:10177000A10B81E080934F010E94271F90934E019F
:1017800080934D0110924201109244011092430146
:1017900010924601109245011092480110924701A3
:1017A00010924A011092490110924C0110924B0183
:1017B000D2CF80914D0190914E010E94331F883C01
:1017C000910540F680914201E82FF0E0EE0FFF1FF7
:1017D000ED5BFE4F118300838F5F80934201C0E079
:1017E000BACF0C947E070C947F07CF93DF9385B715
:1017F000806885BF85B7806885BFA4E2B1E049E213
:1018000051E0C1E0D0E08D91E82FE295EF70F0E07B
:1018100061A18F709E0101C0220F8A95EAF7922F75
:101820009095962391A382A1822B82A34A175B07EE
:1018300051F7A4E1B1E061E070E08D91E82FE2950D
:10184000EF70F0E041A18F709B0101C0220F8A95DB
:10185000EAF7922F9095942391A382A1822B82A3E1
:1018600081E0A432B80749F710925B0110925A0147
:10187000109251011092500110925D0110925C0182
:10188000109253011092520110925F0110925E016A
:101890001092550110925401109261011092600152
:1018A000109257011092560110926301109262013A
:1018B0001092590110925801DF91CF910C9439097F
:1018C0006F927F929F92AF92BF92CF92DF92EF92F0
:1018D000FF920F931F93CF93DF93C0E5D1E004E213
:1018E00011E0EE24E394F12CBB24B394C880D9809A
:1018F00019821882D8018D918D01E82FE295EF7041
:10190000F0E091A18F70970101C0220F8A95EAF74C
:10191000892F822B81A382A1A22EA0948A2182A347
:10192000B0EABA95F1F784E1682E81E0782E90E074
:1019300080E0D3017D913D01472F42954F7050E0EB
:10194000DA0190969C90488159817F70D70102C03E
:10195000AA0FBB1F7A95E2F7BD01692109F06FC09C
:10196000B701082E02C0660F771F0A94E2F7462BD4
:10197000572B59834883019680319105D1F681A177
:101980008A2181A382A1282B22A388819981C8164C
:10199000D90641F0B09264010E94271F909366011E
:1019A000809365012296B1E009321B0709F09ECFB2
:1019B00080916401882391F1809165019091660185
:1019C0000E94331F069750F1809150019091510170
:1019D00090935B0180935A01809152019091530141
:1019E00090935D0180935C01809154019091550129
:1019F00090935F0180935E01809156019091570111
:101A000090936101809360018091580190915901F8
:101A10009093630180936201109264010E942709F0
:101A200081E0DF91CF911F910F91FF90EF90DF90B8
:101A3000CF90BF90AF909F907F906F90089570E08F
:101A400060E095CFE82FF0E0EE0FFF1FE65AFE4F63
:101A5000808191810895089531B3242F2095232307
:101A600031B3432B3FB7F894FC01680F791FE61799
:101A7000F70711F43FBF0895819198E041BB000042
:101A800000C087FF21BB880F000000C000C000C05D
:101A900021BB00C09A9591F7EACF20B3242B20BB3D
:101AA0009B01220F331F620F731F0E942C0D87ECC6
:101AB00090E00197F1F700C00000089541E00C9418
:101AC0004D0DCF92DF92EF92FF920F931F93CF9322
:101AD000DF93E901662309F466C0E42EF12CEFEFF1
:101AE000F0E0E61BF109EE9D8001EF9D100DFE9DDB
:101AF000100D1124212FE12FFF27EE1AFF0A5CE3BE
:101B0000C52ED12CB6010E94CF2BFB01BC01E69E55
:101B1000C001E79E900DF69E900D1124B6010E9423
:101B2000CF2BE230F10589F168F4812F262F210FA8
:101B3000309781F0242F461B319761F080E020E040
:101B400040E008C0E430F10551F128F1842F861BF4
:101B50003597A1F7E42FF0E0E754F44F4491E22FDA
:101B6000F0E0E754F44F9491E82FF0E0E754F44F9D
:101B7000E49149839883EA83DF91CF911F910F917C
:101B8000FF90EF90DF90CF900895862F810FE42F84
:101B9000412F2E2FDFCFE42FE61B842FF9CF842F88
:101BA000462F410FD7CF842F242FD4CF88E090E049
:101BB0000C94052CAB01BC0188E090E00C94232C24
:101BC000E4E5F2E083E08083109255028FEF828398
:101BD00083836091540270915502809156029091D6
:101BE00057020C94DA0D80915402ECE5F2E080FF8C
:101BF00006C06AE070E08CE592E00C945E0D118204
:101C000010821282339682E0EA37F807C1F7F1CFEB
:101C1000ECE5F2E0818360834283339692E0EA3719
:101C2000F907C1F70C94F30DEF92FF920F931F93F6
:101C3000CF93DF9300D01F92CDB7DEB7182FE92ED8
:101C4000F62E042F8091540290915502A0915602D5
:101C5000B09157028093580290935902A0935A0270
:101C6000B0935B028091540280FF1FC09E012F5FE2
:101C70003F4F812F9E2D0E94610D8091580210FBD5
:101C800087F9809358021695809159028078812BAC
:101C9000E0FA87F980935902F0925A0200935B02AE
:101CA0004B8169818A810E94080E0F900F900F90DE
:101CB000DF91CF911F910F91FF90EF9008950F93B7
:101CC0001F93CF93DF93EC01062F142F90915402B2
:101CD00090FF43C0892F8E77823021F5CE010E947C
:101CE000140E80915402C0FB87F980935402C6956C
:101CF000809155028078C82BD0FBC7F9C09355025C
:101D0000009356021093570260915402709155024D
:101D10008091560290915702DF91CF911F910F91C0
:101D20000C94DA0D892F86958F732EE3280F2F736D
:101D3000243018F410915702D4CF865C8F73893009
:101D400080F6991F9927991FD0915502CD2FCC0F5E
:101D5000C92BD7FBDD27D0F9C4CFDF91CF911F91DD
:101D60000F910895E4E5F2E02081221F2227221F2F
:101D700030915502432F440F842F822B37FB992734
:101D800090F9089668E671E00E94E32B4381628136
:101D90000C945F0E20915402221F2227221F3091A3
:101DA0005502432F440F842F822B37FB992790F93C
:101DB0008830910540F4805A9E4F409157026091BF
:101DC00056020C945F0E089768E671E00E94E32BC0
:101DD000F4CF60915602683F90F4685F809154029E
:101DE000881F8827881F90915502292F220F97FB63
:101DF000992790F940915702822B0C945F0E6FEF58
:101E0000EDCF60915602683090F068508091540296
:101E1000881F8827881F90915502292F220F97FB32
:101E2000992790F940915702822B0C945F0E60E045
:101E3000EDCF40915702483F90F4485F80915402A3
:101E4000881F8827881F90915502292F220F97FB02
:101E5000992790F960915602822B0C945F0E4FEFF8
:101E6000EDCF40915702483090F048508091540295
:101E7000881F8827881F90915502292F220F97FBD2
:101E8000992790F960915602822B0C945F0E40E0E6
:101E9000EDCF9091540290FF3BC09178811126C004
:101EA0009260909354026091540270915502809117
:101EB0005602909157020E94DA0D80915402982F99
:101EC0009E779230D9F410927C01881F8827881F52
:101ED00090915502292F220F97FB992790F9409155
:101EE000570260915602822B0C945F0E893110F0DC
:101EF0009063D7CF8F73880F982BD3CF982F969559
:101F0000925C9F73963108F791E090937C01DDCF4E
:101F100008958091270281608093270281E0809359
:101F20007D010E94781E811104C00E94521E0E94F1
:101F3000E00D0E94D60D6093540270935502809379
:101F40005602909357026E7761F40E94E00D0E9452
:101F5000D60D60935402709355028093560290936D
:101F6000570281E080937C018091540280FF04C07D
:101F700086958F730C94490F08958091540286952D
:101F80008F738F5F893108F081E00C94490F909135
:101F90005402892F8E7F90FF81608093540260915C
:101FA00054027091550280915602909157020E94FE
:101FB000DA0D8091540280FF04C086958F730C94D3
:101FC000490F10927C012FEF80E792E02150804072
:101FD0009040E1F700C000000C94F30DCF93C82FA0
:101FE00080917A0190917B010E94331FEC2FF0E0E9
:101FF000EB54F54FE491E817190609F010F50E942B
:10200000271F90937B0180937A01E0917901F0E0A2
:10201000E754F54F449180915402881F8827881F08
:1020200090915502292F220F97FB992790F96091E3
:102030005602822B0E94140E809179018F5F80934B
:102040007901CF910895CF93C82F80917701909116
:1020500078010E94331FEC2FF0E0EE54F54FE4912D
:10206000E817190609F0E8F40E94271F90937801F9
:1020700080937701409157026091560280917501DB
:10208000909176010E94140E8091750190917601D5
:10209000019668E671E00E94CF2B909376018093C1
:1020A0007501CF910895CF92DF92FF920F931F9306
:1020B000CF93DF93F82E80917301909174010E9469
:1020C000331FEF2DE695F0E0EE54F54FE491E8175D
:1020D000190609F0A8F50E94271F909374018093B8
:1020E00073010CE512E0D0E0C0E088E6C82EDD24E4
:1020F000D39480917101909172018C0F9D1FB60154
:102100000E94CF2B980140915702609156020E9485
:10211000610DA4960D5F1F4FC83681E0D80749F7BF
:102120000E94F30D8091710190917201F0FE10C038
:102130000196BE010E94CF2B909372018093710192
:10214000DF91CF911F910F91FF90DF90CF90089575
:102150000197F2CFAF92BF92CF92DF92EF92FF92B0
:102160000F931F93CF93DF93C82FFF24FA9480FD22
:1021700002C0FF24F39480916F01909170010E943E
:10218000331FC695EC2FF0E0E155F54FE491E817C9
:10219000190611F008F053C00E94271F9093700198
:1021A00080936F01CCE5D2E010E000E097E0C92E0B
:1021B000D12C198218821A8287E0A82EB12CE12C2A
:1021C00080916E018E0D87FD865F082E000C990BA5
:1021D00008171907E9F4209157022A9DC0012B9D89
:1021E000900D1124B6010E94E32B462F80915402DA
:1021F000881F8827881F90915502592F550F97FBEC
:10220000992790F99E0160915602852B0E94610DDD
:10221000EF0C81E0A81AB10899F60F5F1F4F2396C3
:102220000A30110531F60E94F30D80916E0191E0A4
:10223000F91212C081110EC089E080936E01DF9106
:10224000CF911F910F91FF90EF90DF90CF90BF90B3
:10225000AF9008958150F1CF90E00196B8010E94AF
:10226000E32BEBCFBF92CF92DF92EF92FF920F93CF
:102270001F93CF93DF93CDB7DEB76E970FB6F89469
:10228000DEBF0FBECDBF182F80916C0190916D0104
:102290000E94331FE12FF0E0E455F54FE491E81779
:1022A000190611F008F07AC00E94271F90936D0163
:1022B00080936C018E010F5F1F4FF12CE12C6801A0
:1022C000D80111961C9211971C9212961C92B12C57
:1022D0009091000180916B01B99E800D11248A308C
:1022E0000CF089E087FD80E0082E000C990BE816C1
:1022F000F906A1F480915402881F8827881F9091C5
:102300005502592F550F97FB992790F99801409145
:10231000570260915602852B0E94610DB394B7E07D
:10232000BB12D6CFEFEFEE1AFE0A0D5F1F4FFAE099
:10233000EF16F10429F62CE532E009E010E05AE04E
:10234000E52EF12CC801B7010E94E32BFC01EE0F32
:10235000FF1FE80FF91FEC0DFD1D8181D9011196BA
:102360008C93119780818C93828112968C930F5F4E
:102370001F4F2D5F3F4F0331110521F70E94F30DD1
:102380009091000180916B019130E1F48A3FB4F4A7
:1023900089EF80936B018FEF809300016E960FB6EB
:1023A000F894DEBF0FBECDBFDF91CF911F910F918B
:1023B000FF90EF90DF90CF90BF9008958150809371
:1023C0006B01ECCF81312CF080E180936B0181E0D7
:1023D000E3CF8F5FF4CFCF93DF938091690190912A
:1023E0006A010E94331F883E934028F10E94271FF4
:1023F00090936A01809369018091670190916801CF
:102400000196817099279093680180936701CCE5CC
:10241000D2E09E01409157026091560290E080E028
:102420000E94610D239682E0CA37D80791F7DF91A9
:10243000CF910C94F30DDF91CF91089580917C01A1
:10244000882371F18091540286958F739EE3980FD3
:102450009F73943018F482500C94EE0F9AE3980F07
:102460009F73933018F486500C94231097E3980FC1
:102470009F73963018F489500C94531091E3980F81
:102480009F73963018F48F500C94AA109BE2980F0B
:102490009F73933018F485510C9432110C94EB1106
:1024A000089590938301809382010895E0918201C1
:1024B000F0918301309721F00190F081E02D099493
:1024C00080E00895E0918201F0918301309721F03E
:1024D0000280F381E02D09940895E0918201F0914A
:1024E0008301309721F00480F581E02D099408954F
:1024F00020918001309181012817390771F0909364
:10250000810180938001E0918201F09183013097F5
:1025100021F00680F781E02D0994089520917E0135
:1025200030917F012817390771F090937F018093D4
:102530007E01E0918201F0918301309721F00084C7
:10254000F185E02D0994089508950C94A4120E9439
:102550001E1F0E94F50B0E94EF1F0E9420230C9467
:10256000890F5F926F927F928F929F92AF92BF92EC
:10257000CF92DF92EF92FF920F931F93CF93DF934F
:10258000CDB7DEB72A970FB6F894DEBF0FBECDBF2A
:102590000E94600C95E8A92E91E0B92E10E000E0B1
:1025A00088248394912C502E802F0E94220D7C0130
:1025B000F501C190D1905F01C816D90609F45EC03B
:1025C0008091270281FD0E942B0D90E080E0CE24B7
:1025D000DF243401082E02C0660C771C0A94E2F74F
:1025E000960126213721232B09F443C08E835F8275
:1025F000E620F72081E0EF2809F480E088870E9438
:10260000271F8160782F9A8789874E815F8168852F
:102610008A850E946B13000F111FF801EB57FE4FC4
:102620008081918168267926718260820E9472225F
:102630000E945612909184018917B9F10E94561296
:10264000809384012A960FB6F894DEBF0FBECDBFEB
:10265000DF91CF911F910F91FF90EF90DF90CF907E
:10266000BF90AF909F908F907F906F905F900C94F1
:102670006E0901968031910509F0ABCF0F5F1F4FB6
:102680000530110509F08FCF8FEF89838A831B8274
:102690000E94271F8160782F9D838C8349815A81F6
:1026A0006B818D810E946B13C1CF2A960FB6F8946F
:1026B000DEBF0FBECDBFDF91CF911F910F91FF9075
:1026C000EF90DF90CF90BF90AF909F908F907F90D2
:1026D0006F905F900895CF93DF93CDB7DEB72B97C0
:1026E0000FB6F894DEBF0FBECDBF4F835887698702
:1026F0007A878B871E821D8285E0FE013796DE0178
:10270000119601900D928A95E1F749815A816B816A
:102710007C818D819E812B960FB6F894DEBF0FBE13
:10272000CDBFDF91CF910C94081A882309F4D8C04B
:10273000823871F40E94561281FDD2C089E30E9452
:102740005B1D0E94231E89E30E94981D0C94231E8A
:10275000833859F40E94561280FDC2C083E50E945E
:102760005B1D0E94231E83E5EFCF843859F40E943D
:10277000561282FDB5C087E40E945B1D0E94231E95
:1027800087E4E2CF9CEF980F913A18F40E945B1D0A
:10279000DDCF90E2980F983050F4877091E001C03F
:1027A000990F8A95EAF7892F0E94DA1DCFCF9BE512
:1027B000980F933070F4853A31F0863A39F083E817
:1027C00090E00C94781281E890E0FBCF82E890E0F2
:1027D000F8CF98E5980F953108F082C0883A09F44F
:1027E00040C0893A09F440C08A3A09F440C08B3AA3
:1027F00009F440C08C3A09F440C08B3B09F440C056
:102800008C3B09F440C08D3A09F440C0803B09F488
:1028100040C08E3A09F440C08F3A09F440C0813B71
:1028200009F440C0823B09F440C0833B09F440C036
:10283000843B09F440C0853B09F440C0863B09F461
:1028400040C0873B09F440C0883B09F440C0893B45
:1028500009F440C08A3B09F440C090E080E00C9449
:102860008E1282EE90E0FBCF89EE90E0F8CF8AEEF8
:1028700090E0F5CF85EB90E0F2CF86EB90E0EFCFE4
:1028800083EB90E0ECCF84EB90E0E9CF87EB90E036
:10289000E6CF8CEC90E0E3CF8DEC90E0E0CF83E8E6
:1028A00091E0DDCF8AE891E0DACF82E991E0D7CFFD
:1028B00084E991E0D4CF81E292E0D1CF83E292E04B
:1028C000CECF84E292E0CBCF85E292E0C8CF86E221
:1028D00092E0C5CF87E292E0C2CF8AE292E0BFCF1A
:1028E0000895882309F44BC0823871F40E9456126F
:1028F00081FF45C089E30E945B1D0E94231E89E37E
:102900000E94981D0C94231E833859F40E9456127D
:1029100080FF35C083E50E945B1D0E94231E83E576
:10292000EFCF843859F40E94561282FF28C087E402
:102930000E945B1D0E94231E87E4E2CF9CEF980F4C
:10294000913AF0F290E2980F983050F4877091E04D
:1029500001C0990F8A95EAF7892F0E94E01DD2CF16
:102960009BE5980F933020F490E080E00C9478126F
:10297000885A853120F490E080E00C948E120895FE
:10298000882321F00E94DA1D0C94231E08958823C9
:1029900021F00E94E01D0C94231E08958F929F92B7
:1029A000AF92BF92DF92EF92FF920F931F93CF935C
:1029B000DF937C01D62FC72FFC01058102950F7094
:1029C000128111110E94F91D0E94541DD82E8823D6
:1029D00071F0112321F180E28D0F883000F182E047
:1029E0000E943E1D0E94541D91E0D82ED926EC2F46
:1029F000E295EF70F0E0E150FB4E0C94F72B1115CF
:102A0000111561156115A315BF153E153E15CA15A3
:102A10003E1562166216D516DE163E15FE16D12C30
:102A2000E6CF0C2F0F70C07F11F00295007F1123AD
:102A3000A9F0002359F080E28D0F883010F0D111F9
:102A400009C0802F0E94DA1D0E94231E8D2F0E9434
:102A5000951314C0802F0E94EB1DF6CF8D2F0E947E
:102A60007114002359F080E28D0F883010F0D111DD
:102A700024C0802F0E94E01D0E94231EDD2009F447
:102A8000C4C10E94311D80FDC0C1F70112820E94A5
:102A90002B1D0E94A71BC7010E9411170E942B1D0E
:102AA000DF91CF911F910F91FF90EF90DF90BF903A
:102AB000AF909F908F900C94C81B802F0E94F11DA7
:102AC000DBCFFC2FFF70BF2EC07FC03219F0B29455
:102AD00080EFB822DD2369F0D13029F1112369F1AB
:102AE000002359F0F701858180FFB0CF8F70858377
:102AF00004C0112361F0011104C08B2D0E94C01489
:102B0000BDCF8B2D0130D1F70E940D1EB7CF011123
:102B100006C00E94101E8B2D0E94C714AFCF01303B
:102B200009F4ACCFF6CF112321F0063008F0A6CF80
:102B3000E4CF053008F0A2CFEECF002361F38D2F54
:102B40000E9471149BCF8C2F86958695837069F0B7
:102B5000813009F093CF8D2F9C2F9370111102C0FB
:102B600090E080E00E948E1289CF8D2F9C2F937071
:102B7000111102C090E080E00E9478127FCF8D2F6B
:102B8000112329F00E947B210E94672277CF0E94A7
:102B9000E321FACF8C2F837009F047C011116ECF5B
:102BA0002D2F229526952770220F220F6D2F6F70E3
:102BB000862E912CB12CA12C022E04C0880C991CBD
:102BC000AA1CBB1C0A94D2F760E070E0CB01D4FFD2
:102BD0000FC06FE070E080E090E004C0660F771FE8
:102BE000881F991F2A95D2F76095709580959095CA
:102BF000C695C695C370C23051F080F46829792912
:102C00008A299B29C13071F00E94501B37CF682957
:102C100079298A299B290E946C1B30CF0E94501B66
:102C2000C501B4010E94341B29CF8695112311F0F0
:102C30008C2F8170882309F421CF2D2F2295269582
:102C40002770220F220F6D2F6F70862E912CB12CC2
:102C5000A12C022E04C0880C991CAA1CBB1C0A942F
:102C6000D2F760E070E0CB01D4FF0FC06FE070E0FE
:102C700080E090E004C0660F771F881F991F2A9597
:102C8000D2F76095709580959095C695C695C3705E
:102C9000C23051F080F4682979298A299B29C130F2
:102CA00071F00E942A1CEACE682979298A299B2979
:102CB0000E94461CE3CE0E942A1CC501B4010E945A
:102CC0000E1CDCCEE0E2ED0FE53108F062C0F0E072
:102CD000E459F94E0C94F72B811681168116811652
:102CE000811681168116811681168116811681162C
:102CF00081168116811681168E169C16A316AA16A9
:102D0000B416DF708C2F8F71112321F00E94A71B46
:102D10008D2FF4CE0E94C81B8D2FFECE112341F0C3
:102D2000053008F0ABCE8C2F8F710E94ED1BA6CE24
:102D3000063008F0A3CEF7CF8C2F8F71112339F016
:102D40000E94A71B9BCE8C2F8F711123C9F30E9469
:102D5000C81B94CE112329F08C2F8F710E94921BD7
:102D60008DCE0E94881B8ACE112349F0CF718C2F03
:102D70000E94A71B63E08C2F0E94351D7FCE81E04F
:102D80000E943E1D023008F479CE82E00E943E1D72
:102D900075CE112329F0011159CE8C2F8F71D0CF10
:102DA0000111CDCE8C2F8F71D2CF4C2F4F706D2F44
:102DB000C7010E947B070E94B11A60CE11115ECE3E
:102DC000CF70C230A9F040F4CC2379F0C13009F0C3
:102DD00055CE0E94492352CEC33069F0C43009F069
:102DE0004DCE8D2F0E94982349CE0E94312346CE8E
:102DF0000E94622343CE0E94752340CE4C2F4F7019
:102E00006D2FC7010E94700939CEDF91CF911F91BC
:102E10000F91FF90EF90DF90BF90AF909F908F90B9
:102E200008950F931F93CF93DF93EC0198818981CD
:102E30002B813C81232B39F08F3F19F481E09F3F98
:102E400019F080E001C081E080FD17C0CE010E9432
:102E50009407882391F0688179818A810E94071DF7
:102E60008C010E94621C0E94291BB801CE01DF91D7
:102E7000CF911F910F910C94CE14DF91CF911F91A0
:102E80000F9108950E94F91D0E940A1E0E94CC1DF8
:102E90000E94231E0E9414230E94672290E080E07B
:102EA0000E94781290E080E00C948E120E94E81D3F
:102EB0000C9442170E94FD1CE92FE295EF70E2503E
:102EC000EE30E0F4F0E0E959F84E0C94F72B75176A
:102ED00075177E177E1780177E177E177E1775175A
:102EE000751785177E177E178517803F19F020F418
:102EF000803E20F481E00895843FE1F380E008956E
:102F0000803EC0F3813FD1F7F5CF93FB882780F94E
:102F10000895CF93DF9300D000D01F92CDB7DEB7D6
:102F20000F900F900F900F900F90DF91CF91089519
:102F3000CF93DF9300D000D000D0CDB7DEB7269678
:102F40000FB6F894DEBF0FBECDBFDF91CF910895CD
:102F50001F93CF93DF93C091900116E08091910170
:102F60008C1304C0DF91CF911F910895D0E01C9F76
:102F7000F0011D9FF00D1124EE56FE4F408151814E
:102F800062817381848195810E9498172196C77010
:102F9000E5CF4091C2015091C3016091C40170918D
:102FA000C5018091C6019091C7010C9498171F9399
:102FB000CF93DF938091C701807FD1F48091C401CA
:102FC0008823B1F080919001D0919101B091C2011C
:102FD000C091C3014091C5015091C601A1E0BF3F1E
:102FE00009F0A0E0BA016095709516E0D81304C00E
:102FF000DF91CF911F91089521E04115510521F0F6
:103000002A2FCF3F09F020E090E020FD38C0189F24
:10301000F001199FF00D1124EE56FE4F21812C1363
:103020002EC020812B132BC02281211128C0238187
:1030300034812417350700F1241B350B283C31055A
:10304000F0F42091C7012F7020612093C70126E082
:10305000289FF001299FF00D1124E956FE4F808131
:103060008F708061808382EC91E00E941117DF9164
:10307000CF911F910C94A817260F371FDFCF019611
:103080008770B4CFAF92BF92CF92DF92EF92FF9250
:103090000F931F93CF93DF93CDB7DEB761970FB632
:1030A000F894DEBF0FBECDBF8C0185E0F801DE01D4
:1030B0001D9601900D928A95E1F7D8014C911196D9
:1030C0005C9111971296EC903091C2016091C3010E
:1030D0008091C5019091C60121E0009731F06F3FCA
:1030E00019F421E03F3F09F020E0B22FB170BB2E70
:1030F00020FD80C1F801C380D480A090C401AA2023
:1031000009F427C1C816D906D0F1D601A81BB90BFE
:10311000CD01FF24F394883C910508F0F12C8091B7
:10312000C701982F907FFF2009F4CAC0911187C072
:10313000FE2C651329C0341327C0E11025C08F7001
:1031400080618093C7010E94C91782EC91E00E94C0
:1031500011178091C701F80185838F2D61960FB6F5
:10316000F894DEBF0FBECDBFDF91CF911F910F91BD
:10317000FF90EF90DF90CF90BF90AF900895809533
:1031800090958C0D9D1DC5CF81E0CD2831F05F3F1E
:1031900019F481E04F3F09F080E080FD24C081E018
:1031A0008E25F82FF170DF2E80FF3FC080919001B7
:1031B0002091910136E0821318C04D875E878D857E
:1031C0009E850E94FD1C292F22952F70223008F128
:1031D000243030F59F7009F1D80115969C91907FAD
:1031E000E1F4FB2CBACF80E0DCCF90E0389FF00117
:1031F000399FF00D1124EE56FE4F6181561306C023
:103200006081461303C062816E110FC00196877002
:10321000D2CF9F7011F0882321F3805E883008F3AD
:10322000C8010E941117BD2CDCCFEE2009F495CF08
:103230008091C70181608093C701F12C8ECF651307
:1032400012C0341310C0E1100EC0F8018583C8010C
:103250000E94111786E0F801A2ECB1E001900D92F6
:103260008A95E1F741C04D875E878D859E850E94D6
:103270005A17882309F4C8C0EE2009F4C5C080910C
:10328000C701803270F02091C2013091C3013887AC
:103290002F831986DB86CA868C87CE0107960E940B
:1032A000111786E0F801A2ECB1E001900D928A9529
:1032B000E1F70E94D7170E94C917FF24F3944DCF5E
:1032C000911115C07C2DD98AC88A6E2D89890E94DA
:1032D000891782EC91E00E94111786E0E2ECF1E0A0
:1032E000DF011D928A95E9F70E94C91736CF651351
:1032F00012C0341310C0E1100EC0F8018583C8015C
:103300000E941117E2ECF1E086E0DF011D928A9540
:10331000E9F7FA2C22CF4D875E878D859E850E9426
:103320005A17882309F470C0EE2009F46DC080910B
:10333000C701803208F4B5CF2091C2013091C3019A
:103340003A8329831B82DD82CC828E83CE01019653
:10335000A6CFC816D90638F1F601E81BF90BCF0144
:10336000F12C883C910508F03DC0FE2CEE2009F4BC
:103370004BC0651326C0341324C08091C70180FD63
:1033800017C0982F907FA1F0D80115968C931597B0
:10339000903F09F45CCF982F907F905F8F70892BBE
:1033A00015968C9354CF809590958C0D9D1DD8CFFC
:1033B00086E0F801A2ECB1E001900D928A95E1F768
:1033C000CCCE4D875E878D859E850E945A178111D0
:1033D00068CF8091C70181608093C701C8010E94B6
:1033E0001117BBCE7C2DD98AC88A6E2D89890E947F
:1033F000891773CFEE2041F04D875E878D859E85BE
:103400000E945A1781114DCFC8010E94111755CF44
:103410001F93CF93DF93CDB7DEB72C970FB6F894F9
:10342000DEBF0FBECDBF4F83588769877A878B87F2
:103430009C87CE0107960E944218882309F442C057
:103440009F8188852A853B85232B39F08F3F19F48E
:1034500081E09F3F19F080E001C081E080FD08C05D
:103460004F81588569857A858B859C850E94981740
:1034700016E08091900190919101891709F467C03D
:10348000819FC00111248E569E4F0E9442188823AE
:1034900009F45DC0E09190011E9FF0011124EE56E9
:1034A000FE4F4081518162817381848195810E94A8
:1034B00098178091900190E00196877099278093EA
:1034C0009001D7CF86E0FE013796DE01119601907C
:1034D0000D928A95E1F79F8188852A853B85232B6C
:1034E00039F08F3F19F481E09F3F19F080E001C06F
:1034F00081E080FDBDCF2091910130E0C9010196AE
:1035000087709927409190014817190699F096E025
:10351000929FD001939FB00D1124AE56BE4FFE0175
:10352000319601900D929A95E1F7809391010E9456
:10353000A8179ECF0E9456171092910110929001E9
:1035400086E0E2ECF1E0DF011D928A95E9F72C9626
:103550000FB6F894DEBF0FBECDBFDF91CF911F91A4
:103560000895EF92FF920F931F93CF93DF938C01F7
:10357000892B81F0F12CEE24E394E8012196F801E7
:103580008491843770F4843008F05FC08130B1F0EA
:103590008230A1F1DF91CF911F910F91FF90EF90B9
:1035A0000895853709F44CC008F43DC09CE7980F96
:1035B000903780F78F770E94711449C00E5F1F4FBC
:1035C000FE01849190E2980F983060F48770FE2D90
:1035D00001C0FF0F8A95EAF78F2F0E94FC1D0E9401
:1035E000231E02C00E9495138F2D815030F2EFE907
:1035F000FFE03197F1F700C00000F7CF0E5F1F4FDB
:10360000FE01849190E2980F983050F48770FE2D5F
:1036100001C0FF0F8A95EAF78F2F0E94021EDFCFAD
:103620000E947114E1CF0E5F1F4FFE01C491C15083
:10363000D8F28FE99FE00197F1F700C00000F7CFC3
:103640000E5F1F4FFE01F490CFCF0E9495138E01A5
:10365000CBCF08956093FE017093FF018093000229
:10366000909301020C9442170F931F930091FE0157
:103670001091FF012091000230910102DC01CB0189
:10368000802B912BA22BB32B8093FE019093FF01F3
:10369000A0930002B09301021F910F910C94421766
:1036A0000F931F930091FE011091FF0120910002E2
:1036B00030910102DC01CB0180239123A223B323AB
:1036C0008093FE019093FF01A0930002B09301024A
:1036D0001F910F910C9442170F931F930091FE01BD
:1036E0001091FF012091000230910102DC01CB0119
:1036F00080279127A227B3278093FE019093FF0193
:10370000A0930002B09301021F910F910C944217F5
:103710001092FA011092FB011092FC011092FD012F
:103720000C94421741E050E060E070E004C0440FA8
:10373000551F661F771F8A95D2F74093FA01509361
:10374000FB016093FC017093FD010C94421741E072
:1037500050E060E070E004C0440F551F661F771F03
:103760008A95D2F78091FA019091FB01A091FC011A
:10377000B091FD01842B952BA62BB72B8093FA01DA
:103780009093FB01A093FC01B093FD010C944217B0
:1037900041E050E060E070E004C0440F551F661F38
:1037A000771F8A95D2F740955095609570958091D6
:1037B000FA019091FB01A091FC01B091FD018423DD
:1037C0009523A623B7238093FA019093FB01A0933E
:1037D000FC01B093FD010C94421741E050E060E021
:1037E00070E004C0440F551F661F771F8A95D2F7FB
:1037F0008091FA019091FB01A091FC01B091FD0133
:1038000084279527A627B7278093FA019093FB0179
:10381000A093FC01B093FD010C9442170F931F93EA
:103820000091FA011091FB012091FC013091FD0102
:10383000DC01CB01802B912BA22BB32B8093FA01BF
:103840009093FB01A093FC01B093FD011F910F9198
:103850000C9442170F931F930091FA011091FB01F2
:103860002091FC013091FD01DC01CB0180239123EB
:10387000A223B3238093FA019093FB01A093FC0150
:10388000B093FD011F910F910C9442170F931F935A
:103890000091FA011091FB012091FC013091FD0192
:1038A000DC01CB0180279127A227B3278093FA015F
:1038B0009093FB01A093FC01B093FD011F910F9128
:1038C0000C94421708959295907F890F982F9770C6
:1038D00071E001C0770F9A95EAF7869586958695EF
:1038E00025E0829FC001112450E040E0A62FB0E007
:1038F000FC01E40FF51FE853FE4F60819D01042E8B
:1039000002C0369527950A94E2F721702195262763
:103910002723262720834F5F5F4F4530510541F70E
:1039200008959295907F890F982F97708695869528
:10393000869525E0829FA001112470E060E080E080
:10394000FA01E60FF71FE853FE4F208130E0092E01
:1039500002C0369527950A94E2F721703327062E88
:1039600001C0220F0A94EAF7822B6F5F7F4F653008
:10397000710531F70895BF92CF92DF92EF92FF92D7
:103980000F931F93CF93DF938C01C090FA01D090D7
:10399000FB01E090FC01F090FD018091FE0190910F
:1039A000FF01A0910002B0910102C82AD92AEA2A97
:1039B000FB2ACFE1D0E0BC2ED701C6010C2E04C0FB
:1039C000B695A795979587950A94D2F780FD0EC076
:1039D000219788F7B12C8B2DDF91CF911F910F91FB
:1039E000FF90EF90DF90CF90BF900895B8018C2F9B
:1039F0000E948E09019761F3EECFCF93DF93EC0124
:103A00000E94BB1CBE01DF91CF910C948E091F93C5
:103A1000CF93DF93EB0190918F01992331F0CB018C
:103A2000DF91CF911F910C94FD1C882379F0CB017D
:103A30000E94BB1C182F682FCE010E94631CBE0180
:103A4000812FDF91CF911F910C948E09CB010E94A1
:103A5000911C182FF4CF809102028595859585954C
:103A60000895809102028770089598E0899F9001DF
:103A70001124622B609302020C94A71B9091020206
:103A80008095892380930202282F277061F4282FC4
:103A9000082E000C330B9217130629F08595859597
:103AA00085950C94C81B089590910202977081E04F
:103AB00009F480E00895909113019923E1F0909129
:103AC0007E0297FF18C0E82FE695E695E695EF3160
:103AD00039F12091010130910201E20FF32FF11D24
:103AE000877021E030E001C0220F8A95EAF78181DA
:103AF000822B818308952091010130910201F90107
:103B000032969FEF40E05191851751F09F3F19F495
:103B1000511101C0942F4F5F4E31A9F79F3F09F417
:103B20000895290F311D97FD3A95F9018283089573
:103B3000909113019923F1F090917E0297FF1AC0A2
:103B4000E82FE695E695E695EF3129F12091010100
:103B500030910201E20FF32FF11D282F277081E031
:103B600090E001C0880F2A95EAF78095918189231A
:103B7000818308952091010130910201F90132966B
:103B8000205E3F4F9191891303C0DF0111971C9272
:103B9000E217F307B9F7089581E090E0E0910101A1
:103BA000F0910201E80FF91F108201968032910511
:103BB000A9F7089590912602892B809326020895F3
:103BC000982F90958091260289238093260208954C
:103BD00010922602089590912502892B8093250248
:103BE0000895982F9095809125028923809325022E
:103BF000089510922502089590912402892B8093B4
:103C000024020895982F909580912402892380930F
:103C100024020895109224020895809303020895C7
:103C20001092030208952091010130910201F901DF
:103C30003196205E3F4F80E0919191118F5FE217A6
:103C4000F307D1F70895E0910101F091020180910D
:103C500026028083E0910101F09102018081909120
:103C60002502892B8083E0910101F091020180817E
:103C700090912402892B808390910302992361F013
:103C8000E0910101F09102018081892B80830E94E3
:103C9000131E811110920302809101019091020183
:103CA0000C9462126DEE7EEF90E080E00E942F2C6B
:103CB00060E082E090E00E94112C60E083E090E000
:103CC0000E94112C60E084E090E00E94112C60E0E2
:103CD00085E090E00E94112C60E086E090E00E9478
:103CE000112C40E050E0BA0188E090E00C94232CC5
:103CF00090E080E00E940B2C21E08D3E9E4F09F069
:103D000020E0822F089582E090E00C94FD2B682F34
:103D100082E090E00C94112C83E090E00C94FD2B59
:103D2000682F83E090E00C94112C84E090E00C94D8
:103D3000FD2B682F84E090E00C94112C86E090E03D
:103D40000C94FD2B682F86E090E00C94112C809150
:103D50008502843051F11092280288E190E020E43D
:103D60000FB6F894A895809360000FBE2093600072
:103D700080E00E943D0980E00E946E0983B7817F48
:103D8000846083BF83B7816083BF7894889583B74D
:103D90008E7F83BF0FB6F894A895809160008861EC
:103DA00080936000109260000FBE089508950895FA
:103DB000CF930E94D61E0E94600C0E94D71EC0E0C6
:103DC0008C2F0E94220D892B31F4CF5FC530C1F7B3
:103DD00080E0CF91089581E0FCCF0E9456170E94A9
:103DE00020230E9456120C946E091F920F920FB658
:103DF0000F9211248F939F93AF93BF9380912802CA
:103E0000811113C080917A0290917B02A0917C0273
:103E1000B0917D024196A11DB11D80937A029093CD
:103E20007B02A0937C02B0937D02BF91AF919F91E2
:103E30008F910F900FBE0F901F90189582E084BD58
:103E400093E095BD9AEF97BD80936E0008952FB7CC
:103E5000F89480917A0290917B02A0917C02B091BB
:103E60007D022FBF0895CF92DF92EF92FF920F93C2
:103E70001F932FB7F89440917A0250917B02609182
:103E80007C0270917D022FBF6A017B01EE24FF242A
:103E90008C0130E020E0C016D106E206F30650F0B7
:103EA000481B590BCA011F910F91FF90EF90DF90B3
:103EB000CF90089541505109F3CF1F920F920FB642
:103EC0000F9211248F939F93AF93BF9380917A02A7
:103ED00090917B02A0917C02B0917D020196A11D80
:103EE000B11D80937A0290937B02A0937C02B093E1
:103EF0007D02BF91AF919F918F910F900FBE0F9058
:103F00001F9018950E94A327F8942FEF87EA91E657
:103F1000215080409040E1F700C0000087E090EB26
:103F2000DC0180938E0290938F02A0939002B09355
:103F3000910288E19CE00FB6F894A8958093600008
:103F40000FBE90936000FFCFAF92BF92CF92DF92EF
:103F5000EF92FF920F931F93CF93C0E0CC24C394B2
:103F6000D12CE82EF12C8C2F0E94220D5C0110E048
:103F700000E0C601002E02C0880F991F0A94E2F7E4
:103F80008A219B21892B99F40F5F1F4F0031110566
:103F900081F7CF5FC53039F780E0CF911F910F9146
:103FA000FF90EF90DF90CF90BF90AF900895602F7B
:103FB0007C2F80E00E947109E816F90629F781E05C
:103FC000ECCFCF93C82F8CE20E94A41F882321F04E
:103FD0008C2FCF910C94A41F80E0CF910895CF93A4
:103FE0000E94781E811102C00E94521EC5E608C0C0
:103FF0000E94600C8FE39CE90197F1F700C000007C
:10400000C150B1F789E20E94E11F8111EFC08AE23D
:104010000E94E11F81110E94521E85E00E94E11F53
:1040200081110E94821F0E94831E8093270287E0D5
:104030000E94E11F882371F08BE10E94E11F882319
:1040400009F4B1C090912702892F8D7F91FF826082
:1040500080932702809127020E94871E0E94951E4E
:1040600090E090937F0280937E0280EE0E94E11F99
:10407000882341F090917E02892F8E7F90FF81608E
:1040800080937E0289E30E94E11F882341F0909192
:104090007E02892F8D7F91FF826080937E0282EE67
:1040A0000E94E11F882341F090917E02892F8B7F2F
:1040B00092FF846080937E0286EE0E94E11F882337
:1040C00041F090917E02892F877F93FF88608093D3
:1040D0007E0283EE0E94E11F882341F090917E02D0
:1040E000892F8F7E94FF806180937E0285E30E94FA
:1040F000E11F882341F090917E02892F8F7D95FFEB
:10410000806280937E0281E30E94E11F882341F058
:1041100090917E02892F8F7B96FF806480937E0230
:1041200081E10E94E11F882341F090917E02892F56
:1041300097FB87F9805880937E0280917E020E94CF
:10414000991E87E20E94E11FC82F8EE10E94E11FA5
:104150008111C2608FE10E94E11F8111C46080E281
:104160000E94E11F8111C86081E20E94E11F81115C
:10417000C06182E20E94E11F8111C06283E20E945D
:10418000E11F8111C06484E20E94E11F882341F194
:10419000C0688C2F0E94901E6C2F70E090E080E031
:1041A000CF910C942A1B8EE00E94E11F882339F0E6
:1041B00090912702892F8B7F92FF846049CF80E105
:1041C0000E94E11F90912702882329F0892F877F81
:1041D00093FF88603DCF892F8E7F90FF816038CF1D
:1041E000C111D7CF0E948C1E682FD7CFCF910895D1
:1041F00080912B0280FF12C06091060185E0689FCC
:10420000B0011124759567957595679560387105AE
:10421000A8F561157105A1F1862F089581FF09C0E8
:104220006091060185E0689FB0011124759567953E
:10423000EDCF82FF07C06091060185E0689FB00165
:104240001124E4CF20912C022223A9F090910501A2
:104250006091060185E0689FB00111242917B0F62E
:10426000269FA001279F500D1124692F70E0CA01DD
:104270000E94E32BCBCF65E070E0CECF8FE70895AF
:1042800081E0089580912B0280FF0CC060910401B1
:1042900070E075956795759567956115710549F19C
:1042A000862F089581FF06C06091040170E0759526
:1042B0006795F3CF6091040182FD0BC090912C02B1
:1042C0009923A1F06091030180910401961738F0C1
:1042D000682F70E06038710500F38FE70895899FBB
:1042E000C001112470E00E94E32BF4CF61E070E084
:1042F000D7CF81E00895803F31F40E94F820819566
:1043000080932F020895813F19F40E94F820F8CF7E
:10431000823F31F40E94F820819580932E02089507
:10432000833F19F40E94F820F8CF893F29F40E94B6
:1043300042218093300208958A3F21F40E94422155
:104340008195F7CF8B3F31F40E9442218195809374
:10435000310208958C3F19F40E944221F8CF843F26
:1043600031F480912D02816080932D020895853F64
:1043700021F480912D028260F7CF863F21F4809155
:104380002D028460F1CF873F21F480912D02886057
:10439000EBCF883F21F480912D028061E5CF8D3FE6
:1043A00031F480912B02816080932B0208958E3F1F
:1043B00021F480912B028260F7CF8F3FB9F7809173
:1043C0002B028460F1CF803FC1F480912F0287FDE2
:1043D00010922F0280912E0281110EC080912F0227
:1043E00081110AC080913002811106C08091310292
:1043F000811102C010922C020895813F29F480910E
:104400002F0218162CF3E6CF90912E02823F29F44A
:1044100097FFE0CF10922E02DDCF833F19F41916DB
:10442000CCF3D8CF893F39F480913002181694F636
:1044300010923002CFCF8A3F29F48091300287FF5B
:10444000C9CFF6CF8B3F39F48091310287FFC2CFBD
:1044500010923102BFCF8C3F29F48091310218169F
:10446000BCF3B8CF843F31F480912D028E7F8093CE
:104470002D02B0CF853F21F480912D028D7FF7CFA3
:10448000863F21F480912D028B7FF1CF873F21F46D
:1044900080912D02877FEBCF883F21F480912D0200
:1044A0008F7EE5CF8D3F31F480912B028E7F8093FC
:1044B0002B0290CF8E3F21F480912B028D7FF7CF7E
:1044C0008F3F09F087CF80912B028B7FF0CF8DE259
:1044D00092E00E946D120E94271F90932A028093FF
:1044E000290208951F93CF93DF9380912902909121
:1044F0002A020E94331FAC0190912C0220910701E7
:1045000030E0911106C0209108018AE0289F9001B7
:1045100011244217530780F080912E02C0912F0280
:1045200010913002D091310281110AC0C11178C0BE
:10453000111176C0D11174C0DF91CF911F910895F0
:104540009F3F19F09F5F90932C02181624F40E944D
:10455000F82080932E0280912E0287FF05C00E94D2
:10456000F820819580932E021C1624F40E94F820D6
:1045700080932F0280912F0287FF05C00E94F820B0
:10458000819580932F0260912E02662331F1C091B4
:104590002F02CC2311F1062E000C770B880B990B00
:1045A0000E94D62A23E333E343E35FE30E943A2BDE
:1045B0000E949E2A60932E026C2FCC0F770B880BE3
:1045C000990B0E94D62A23E333E343E35FE30E947F
:1045D0003A2B0E949E2A60932F02111624F40E9407
:1045E0004221809330028091300287FF05C00E94F3
:1045F00042218195809330021D1624F40E944221AD
:10460000809331028091310287FF05C00E944221D0
:10461000819580933102DF91CF911F910C94672295
:104620009F3F09F08FCFA0CF85E0EDE2F2E0DF0100
:104630001D928A95E9F710922C0210922B02089590
:104640000E94781E811102C00E94521E0E949E1E6E
:104650008093800280FF03C086950C943D0980E022
:10466000FCCF80918002982F96959F3030F49F5F09
:10467000990F8170892B80938002809180028160E4
:10468000809380020E94A21E8091800286950C94E5
:104690003D0980918002982F9E7F79F0825080930F
:1046A00080028E7F91E009F490E08091800290FB7F
:1046B00080F9809380020E94A21E809180028695DC
:1046C0000C943D0990918002892F8E7F90FF81602C
:1046D000809380020E94A21E8091800280FF03C00E
:1046E00086950C943D0980E0FCCF90918002892F43
:1046F00086958F5F8F7791708031B8F4880F892B02
:1047000080938002809180028E7F91E009F490E096
:104710008091800290FB80F9809380020E94A21E0B
:104720008091800286950C943D0990938002EACF97
:1047300090918002292F26958227880F9170982BBF
:10474000909380029E7F21E009F420E08091800216
:1047500020FB80F9809380020E94A21E809180023B
:1047600086950C943D09809152020895CF93DF9372
:1047700000D01F92CDB7DEB79C01809185028430B6
:1047800019F593E099833B832A839093E9008FEF97
:104790009091E800815095FD06C095ED9A95F1F74E
:1047A00000008111F5CF8091E80085FF0DC050E039
:1047B00040E063E070E0CE0101960E9413268091F4
:1047C000E8008E778093E8000F900F900F90DF91B4
:1047D000CF910895CF93DF9300D01F92CDB7DEB76E
:1047E00020918502243031F522E0298380589109F7
:1047F0009B838A8383E08093E9008FEF9091E800A8
:10480000815095FD06C095ED9A95F1F70000811154
:10481000F5CF8091E80085FF0DC050E040E063E0F7
:1048200070E0CE0101960E9413268091E8008E77F9
:104830008093E8000F900F900F90DF91CF91089533
:104840009C01809185028430F9F482E08093E90034
:104850009FEF8091E800915085FD06C085ED8A9517
:10486000F1F700009111F5CF8091E80085FF0CC0B1
:1048700050E040E065E070E0C9010E94132680919D
:10488000E8008E778093E8000895CF93DF93EC01E2
:10489000809185028430F1F4909113019923E9F01D
:1048A00090917E0297FF19C08093E9008FEF90915D
:1048B000E800815095FD06C095E19A95F1F700005A
:1048C0008111F5CF8091E80050E040E060E270E0B7
:1048D00085FD1AC0DF91CF91089581E08093E900B2
:1048E0008FEF9091E800815095FD06C095ED9A9567
:1048F000F1F700008111F5CF8091E80085FFEACF44
:1049000050E040E068E070E0CE010E941326809104
:10491000E8008E778093E80080E2FE01A2E3B2E037
:1049200001900D928A95E1F7D5CF80918402811193
:1049300009C00E94A3270E9400288091E2008460A1
:104940008093E200089510928402089508950895D6
:104950000C94ED1E42E061EC81E00E94212742E0D0
:1049600061EC82E00E94212742E061EC83E00E943A
:10497000212742E261EC84E00C9421278091870298
:10498000833009F455C030F4813071F1823009F47C
:1049900091C008958A3009F47DC08B3009F463C05A
:1049A000893009F044C080918602813209F03FC00D
:1049B00080918A0290918B02009711F00397B9F5CC
:1049C0008091E800877F8093E8008091E80082FF73
:1049D0002AC08091F100809352028091E8008B7789
:1049E0008093E8000C94552780918602813AF9F46F
:1049F0008091E800877F8093E80080918A029091FF
:104A00008B02892B61F460E282E392E070E00E9405
:104A100062268091E8008B778093E800089560E03B
:104A200090E080E0F3CF809185028111CECF089590
:104A300080918602813AD9F780918A0290918B0207
:104A4000892BA9F78091E800877F8093E800809107
:104A5000E80080FFFCCF809113018093F1008091EA
:104A6000E8008E77BDCF80918602813201F7809178
:104A70008A0290918B02892BD1F68091E800877F82
:104A80008093E8000E94552780918802809313014B
:104A90000C94561780918602813249F68091E80085
:104AA000877F8093E8000E94552780918902809338
:104AB0005302089580918602813A09F0B8CF80911F
:104AC000E800877F8093E8008091E80080FFFCCFBA
:104AD00080915302C2CF84B7877F84BF0FB6F8940A
:104AE000A8958091600088618093600010926000BA
:104AF0000FBE80E880936100109261000E94A512B1
:104B00000E94A3270E9400288091E2008460809385
:104B1000E20078940E94822A0E94A71289E091E024
:104B20000E94511280918502853029F00E94B112B5
:104B30000E941E12F7CF0E94A71E80918302882335
:104B400089F30E94D81E882369F30E94FD25EACFCD
:104B5000292F33272330310579F158F421303105DD
:104B6000F1F02230310519F190E080E030E020E0F2
:104B70001AC02132310599F122323105A9F764308A
:104B800098F770E0FB01EE0FFF1FE35DFE4F208101
:104B90003181675D7E4FFB01808190E004C082E13E
:104BA00090E026E53DE0FA013183208308958DE60B
:104BB00090E029EE3CE0F7CF99278130910561F034
:104BC00028F0029789F6E9EBFCE002C0E5EEFCE094
:104BD000849190E09F01E7CFEDECFCE0F9CF6430E9
:104BE00008F0C2CFE62FF0E0EE0FFF1FEB5CFE4FA8
:104BF0002081318189E090E0D6CF80E189BD82E1DA
:104C000089BD09B400FEFDCF8091D8008F7D8093CF
:104C1000D8008091E00082608093E0008091E00005
:104C200081FDFCCF0895AF92BF92CF92DF92FF92A9
:104C30000F931F93CF93DF936C01EB018A010E94C6
:104C40007427F82E811123C00115110539F0F801E0
:104C500080819181C81BD90BC80ED91EB12CA12C03
:104C60002097A9F08091E80085FD22C08091E8009E
:104C70008E778093E80001151105A1F0F80180817D
:104C80009181A80EB91EB182A08285E0F82E8F2DE9
:104C9000DF91CF911F910F91FF90DF90CF90BF9048
:104CA000AF9008950E9474278823D1F2F82EEFCF99
:104CB000F60181916F018093F1002197FFEFAF1A08
:104CC000BF0ACECFFC0180918C0290918D02861795
:104CD0009707A0F06115710529F49091E8009E777F
:104CE0009093E80090E06115710551F4911108C0AE
:104CF0008091E80082FF35C080E00895BC01F2CFCA
:104D0000809185028823C9F18530C9F18091E8003E
:104D100083FD31C08091E80082FDEACF8091E800F8
:104D200080FFE1CF2091F3008091F200322F282FF5
:104D30006115710519F02830310558F091E02830DF
:104D4000310509F090E02091E8002E772093E800EB
:104D5000CACF81918093F100615071092F5F3F4F5D
:104D6000E7CF80918502882341F0853041F0809122
:104D7000E80083FFBDCF81E0089582E0089583E0DD
:104D80000895FC0180918C0290918D0286179707FF
:104D9000A0F06115710529F48091E8008E77809369
:104DA000E80090E06115710551F4911108C08091FF
:104DB000E80082FF36C080E00895BC01F2CF809108
:104DC00085028823D1F18530D1F18091E80083FDFF
:104DD00032C08091E80082FDEACF8091E80080FF38
:104DE000E1CF2091F3008091F200322F282F61153E
:104DF000710519F02830310558F091E0283031055F
:104E000009F090E08091E8008E778093E800CACFA7
:104E100084918093F1003196615071092F5F3F4F6B
:104E2000E6CF80918502882341F0853041F0809162
:104E3000E80083FFBCCF81E0089582E0089583E01D
:104E40000895982F973028F08F708093E90081E0C3
:104E500008959093E900242F762F50E0981731F0B1
:104E60007091EC002091ED005091F00021FD02C006
:104E70009F5FE8CF3091EB003E7F3093EB003091A5
:104E8000ED003D7F3093ED003091EB0031603093C9
:104E9000EB007093EC002093ED005093F000209114
:104EA000EE0027FDE5CF80E008958091860287FF20
:104EB00013C08091E80082FF06C08091E8008B77E4
:104EC0008093E80004C0809185028111F2CF08959B
:104ED000809185028823D9F38091E80080FFF8CF84
:104EE0008091E8008E77ECCF2091E4003091E500CE
:104EF00085E69091EC0090FF06C09091E80090FF4D
:104F000006C080E008959091E80092FDFACF90915C
:104F10008502992391F0953091F09091EB0095FDE9
:104F200010C04091E4005091E5002417350709F3C3
:104F300081509A01F1F684E0089582E0089583E0BB
:104F4000089581E008950E9411280E941928E0EE3A
:104F5000F0E0808181608083E8EDF0E080818F77F0
:104F6000808319BCA7EDB0E08C918E7F8C938081FB
:104F70008F7E80831092840208950F931F93CF93A6
:104F8000DF930E9411280E941928C8EDD0E0888183
:104F90008F77888388818068888388818F7D8883E4
:104FA00019BC109285021092810210928302109215
:104FB000820200EE10E0F80180818B7F808388817F
:104FC0008160888342E060E080E00E942127E1EE7A
:104FD000F0E080818E7F8083E2EEF0E0808181606E
:104FE0008083808188608083F80180818E7F8083C8
:104FF000888180618883DF91CF911F910F910895FF
:10500000E8EDF0E080818F7E8083E7EDF0E0808145
:105010008160808384E082BF81E0809384020C946D
:10502000BD27E8EDF0E080818E7F80831092E20062
:1050300008951092DA001092E10008951F920F92E5
:105040000FB60F9211242F933F934F935F936F935B
:105050007F938F939F93AF93BF93EF93FF93809131
:10506000E10082FF0BC08091E20082FF07C08091C7
:10507000E1008B7F8093E1000E94812A8091DA0019
:1050800080FF19C08091D80080FF15C08091DA00A0
:105090008E7F8093DA008091D90080FF94C080E1F8
:1050A00089BD82E189BD09B400FEFDCF81E0809316
:1050B00085020E9495248091E10080FF19C08091B3
:1050C000E20080FF15C08091E2008E7F8093E200B5
:1050D0008091E20080618093E2008091D80080623C
:1050E0008093D80019BC85E0809385020E94A72494
:1050F0008091E10084FF29C08091E20084FF25C0F7
:1051000080E189BD82E189BD09B400FEFDCF8091B7
:10511000D8008F7D8093D8008091E1008F7E8093AE
:10512000E1008091E2008F7E8093E2008091E200B6
:1051300081608093E20080918102882309F449C054
:1051400084E0809385020E94A8248091E10083FF7F
:1051500029C08091E20083FF25C08091E100877F14
:105160008093E10082E08093850210928102809119
:10517000E1008E7F8093E1008091E2008E7F80933A
:10518000E2008091E20080618093E20042E060E012
:1051900080E00E9421278091F00088608093F000D9
:1051A0000E94A624FF91EF91BF91AF919F918F91A3
:1051B0007F916F915F914F913F912F910F900FBE13
:1051C0000F901F90189519BC109285020E94A3247D
:1051D00072CF8091E30087FD02C081E0B2CF83E00F
:1051E000B0CF1F920F920FB60F9211242F933F93BF
:1051F0004F935F936F937F938F939F93AF93BF93DF
:10520000CF93EF93FF93C091E900CF708091EC00B2
:105210001092E9008091F000877F8093F0007894ED
:105220000E942D291092E9008091F00088608093FF
:10523000F000C093E900FF91EF91CF91BF91AF9142
:105240009F918F917F916F915F914F913F912F919E
:105250000F900FBE0F901F9018951F93CF93DF9361
:10526000CDB7DEB7AA970FB6F894DEBF0FBECDBF9D
:10527000E6E8F2E08091F100819322E0EE38F20757
:10528000C9F70E94BE248091E80083FF42C080914C
:105290008602909187029A3008F03BC0E92FF0E037
:1052A000EC5AF64D0C94F72B5E2982298929822924
:1052B0008929DD29FF298929542A612A803879F032
:1052C000823839F580918A028F708093E90080914D
:1052D000EB0085FB882780F91092E90006C08091D9
:1052E000820290918302911182609091E800977FF1
:1052F0009093E8008093F1001092F1008091E80013
:105300008E772DC0282F2D7F21F48823D1F0823075
:1053100059F18091E80083FF0AC08091E800877FFF
:105320008093E8008091EB0080628093EB00AA9666
:105330000FB6F894DEBF0FBECDBFDF91CF911F91A6
:10534000089580918802813021F7933009F080E040
:10535000809383021092E9008091E800877F809318
:10536000E8000E945527D5CF809188028111F2CFA5
:1053700080918A028F7069F28093E9002091EB009E
:1053800020FFE8CF933031F48091EB00806280936E
:10539000EB00E0CF9091EB0090619093EB0021E067
:1053A00030E001C0220F8A95EAF72093EA001092BC
:1053B000EA008091EB008860EACF8111AACF1091BA
:1053C00088021F778091E3008078812B8093E3002F
:1053D0008091E800877F8093E8000E9455278091A4
:1053E000E80080FFFCCF8091E30080688093E300B9
:1053F00083E0111101C082E0809385028ACF80583A
:10540000823008F086CF80918802909189028C3D8D
:1054100023E09207A1F583E08A838AE289834FB76C
:10542000F894DE01139620E03EE051E2E32FF0E035
:1054300050935700E49120FF03C0E295EF703F5F67
:10544000EF708E2F90E0EA30C0F0C7968D939D9359
:105450002F5F243159F74FBF8091E800877F8093F9
:10546000E8006AE270E0CE0101960E946226809117
:10547000E8008B778093E8004CCFC096E7CFAE0171
:105480004F5F5F4F60918A020E94A825BC01892B63
:1054900009F43FCF9091E800977F9093E8008981CD
:1054A0009A810E94C126E3CF803809F032CF8091E3
:1054B000E800877F8093E800809181028093F1006B
:1054C0001DCF811126CF90918802923008F021CF14
:1054D0008091E800877F8093E800909381020E948A
:1054E000552780918102882331F084E080938502E2
:1054F0000E94AA240ECF8091E30087FDF6CF81E0C1
:10550000F5CF0895CF9380918502882399F0C091BB
:10551000E900CF708091EC0080FD0EC080E0C82BC8
:105520001092E9008091E80083FD0E942D29CF7040
:10553000C093E900CF91089580E8F1CF0E94A52A99
:105540006894B1110C94342B08950E94192B88F0A3
:105550009F5798F0B92F9927B751B0F0E1F0660F37
:10556000771F881F991F1AF0BA95C9F714C0B13078
:1055700091F00E94332BB1E008950C94332B672FE8
:10558000782F8827B85F39F0B93FCCF386957795A7
:105590006795B395D9F73EF4909580957095619590
:1055A0007F4F8F4F9F4F0895E89409C097FB3EF4BB
:1055B00090958095709561957F4F8F4F9F4F992360
:1055C000A9F0F92F96E9BB279395F69587957795DE
:1055D0006795B795F111F8CFFAF4BB0F11F460FF9E
:1055E0001BC06F5F7F4F8F4F9F4F16C0882311F0F6
:1055F00096E911C0772321F09EE8872F762F05C00A
:10560000662371F096E8862F70E060E02AF09A95A4
:10561000660F771F881FDAF7880F9695879597F999
:10562000089557FD9058440F551F59F05F3F71F092
:105630004795880F97FB991F61F09F3F79F08795F9
:105640000895121613061406551FF2CF4695F1DF82
:1056500008C0161617061806991FF1CF8695710512
:10566000610508940895E894BB2766277727CB0146
:1056700097F908950E944D2B0C94BE2B0E94B02BDD
:1056800038F00E94B72B20F0952311F00C94A72B33
:105690000C94AD2B11240C94342B0E94112B70F31D
:1056A000959FC1F3950F50E0551F629FF001729FC7
:1056B000BB27F00DB11D639FAA27F00DB11DAA1FD6
:1056C000649F6627B00DA11D661F829F2227B00D23
:1056D000A11D621F739FB00DA11D621F839FA00DAE
:1056E000611D221F749F3327A00D611D231F849FFE
:1056F000600D211D822F762F6A2F11249F57504055
:105700009AF0F1F088234AF0EE0FFF1FBB1F661FCF
:10571000771F881F91505040A9F79E3F510580F098
:105720000C94A72B0C94342B5F3FE4F3983ED4F3F6
:10573000869577956795B795F795E7959F5FC1F73C
:10574000FE2B880F911D9695879597F9089597F9E7
:105750009F6780E870E060E008959FEF80EC089517
:1057600000240A9416161706180609060895002440
:105770000A9412161306140605060895092E0394BA
:10578000000C11F4882352F0BB0F40F4BF2B11F42E
:1057900060FF04C06F5F7F4F8F4F9F4F0895AA1B1C
:1057A000BB1B51E107C0AA1FBB1FA617B70710F00C
:1057B000A61BB70B881F991F5A95A9F7809590953E
:1057C000BC01CD01089597FB072E16F4009407D075
:1057D00077FD09D00E94CF2B07FC05D03EF49095B1
:1057E00081959F4F0895709561957F4F0895EE0FB5
:1057F000FF1F0590F491E02D0994F999FECF92BD19
:1058000081BDF89A992780B50895A6E1B0E044E0FB
:1058100050E00C94372CA8E1B0E042E050E00C944A
:10582000372C262FF999FECF92BD81BDF89A0197AA
:1058300000B4021639F01FBA20BD0FB6F894FA9AD8
:10584000F99A0FBE08950396272F0E94122C0E94EA
:10585000112C252F0E94122C242F0C94122C01960F
:10586000272F0E94122C0C94112CDC01CB01FC017F
:10587000F999FECF06C0F2BDE1BDF89A319600B4A9
:0E5880000D9241505040B8F70895F894FFCFB4
:10588E00FF04022808140A321EB32345242024EAFA
:10589E0023B6230167F6F5F4F1C690919293949591
:1058AE009697343530313233F7404D3639240ED792
:0E58BE000DA10D680DFB0C140D2D0D460D00F7
:00000001FF
