:100000000C9432090C9479090C9479090C947909AF
:100010000C9479090C9479090C9479090C94790958
:100020000C9479090C9479090C94F0290C94C32A46
:100030000C94C7200C9479090C9479090C947909D3
:100040000C9479090C9479090C9479090C94790928
:100050000C9479090C942F210C9479090C9479094A
:100060000C9479090C9479090C9479090C94790908
:100070000C9479090C9479090C9479090C947909F8
:100080000C9479090C9479090C9479090C947909E8
:100090000C9479090C9479090C9479090C947909D8
:1000A0000C9479090C9479090C94790929003A0087
:1000B0003B003C003D003E003F0043004400450043
:1000C000460049004A004D004B004E0035001E001E
:1000D0001F00200021002200230027002D002E00F9
:1000E0004C002A0053005400550056002B00140009
:1000F0001A000800150017001C00120013002F0042
:10010000300031005F0060006100560039000400DB
:100110001600070009000A000B000F00330034002E
:10012000350228005C005D005E005700E1003200EF
:100130001D001B00060019000500360037003800BE
:10014000E500520059005A005B005700E000E30050
:10015000E200000000002C000000E6000151E40075
:10016000500051004F006200630058000000000082
:100170004000240018000D00110010000E000C00BB
:10018000250041002600420000000000010001009F
:100190000100010001000100010001000100010057
:1001A0000100010001000100010001000100010047
:1001B0000100010001000100010001000100010037
:1001C0000100010001000100010001000100347084
:1001D000520035703670377038703B700100010086
:1001E00001000100010001000100010001005000B8
:1001F00051004F0001000100010001000100010059
:1002000020020100010001000100010001000100C5
:1002100000700100307032703170A90001000100DF
:1002200001000100010001000100010001000100C6
:1002300001000000000001000000010001000100B9
:1002400001000100010001000100010000000000A8
:100250000100010039700100AA00A80001003A70F5
:100260000100010001000100000000000100010088
:100270000100010001000100010001000100010076
:100280000100010001000100010001000100010066
:100290000100010001000100010001000100010056
:1002A0000100010001000100010001000100010046
:1002B0000100010001000100010001000100010036
:1002C0000100010001000100010001000100010026
:1002D0000100010001000100010001000100010016
:1002E0000100010001000100010001000100010006
:1002F00001000100010001000100010001000100F6
:1003000001000100010001000100010001000100E5
:1003100001000000000001000000010001000100D8
:1003200001000100010001000100010000000000C7
:1003300001000100010001000100010001000100B5
:1003400001000100010001000000000001000100A7
:100350000100010001000100010001000100010095
:100360000100010001000100010001000100010085
:100370000100010001000100010001000100010075
:100380000100010001000100010001000100010065
:100390000100010001000100010001000100010055
:1003A0000100010001000100010001000100010045
:1003B0000100010001000100010001000100010035
:1003C0000100010001000100010001000100010025
:1003D0000100010001000100010001000100010015
:1003E0000100010001000100010001000100010005
:1003F00001000000000001000000010001000100F8
:1004000001000100010001000100010000000000E6
:1004100001000100010001000100010001000100D4
:1004200001000100010001000000000001000100C6
:1004300001000100010001000100010001000100B4
:1004400001000100010001000100010001000100A4
:100450000100010001000100010001000100010094
:100460000100010001000100010001000100010084
:100470000100010001000100010001000100010074
:100480000100010001000100010001000100010064
:100490000100010001000100010001000100010054
:1004A0000100010001000100010001000100010044
:1004B0000100010001000100010001000100010034
:1004C0000100010001000100010001000100010024
:1004D0000100000000000100000001000100010017
:1004E0000100010001000100010001000000000006
:1004F00001000100010001000100010001000100F4
:1005000001000100010001000000000001000100E5
:1005100001000100010001000100010001000100D3
:1005200001000100010001000100010001000100C3
:1005300001000100010001000100010001000100B3
:1005400001000100010001000100010001000100A3
:100550000100010001000100010001000100010093
:100560000100010001000100010001000100010083
:100570000100010001000100010001000100010073
:100580000100010001000100010001000100010063
:100590000100010001000100010001000100010053
:1005A0000100010001000100010001000100010043
:1005B0000100000000000100000001000100010036
:1005C0000100010001000100010001000000000025
:1005D0000100010001000100010001000100010013
:1005E0000100010001000100000000000100010005
:1005F00001000100010001000100010001000100F3
:1006000001000100010001000100010001000100E2
:1006100001000100010001000100010001000100D2
:1006200001000100010001000100010001000100C2
:1006300001000100010001000100010001000100B2
:1006400001000100010001000100010001000100A2
:100650000100010001000100010001000100010092
:100660000100010001000100010001000100010082
:100670000100010001000100010001000100010072
:100680000100010001000100010001000100010062
:100690000100000000000100000001000100010055
:1006A0000100010001000100010001000000000044
:1006B0000100010001000100010001000100010032
:1006C0000100010001000100000000000100010024
:1006D0000100010001000100010001000100010012
:1006E0000100010001000100010001000100010002
:1006F00001000100010001000100010001000100F2
:1007000001000100010001000100010001000100E1
:1007100001000100010001000100010001000100D1
:1007200001000100010001000100010001000100C1
:1007300001000100010001000100010001000100B1
:1007400001000100010001000100010001000100A1
:100750000100010001000100010001000100010091
:100760000100010001000100010001000100010081
:100770000100000000000100000001000100010074
:100780000100010001000100010001000000000063
:100790000100010001000100010001000100010051
:1007A0000100010001000100000000000100010043
:1007B0000100010001000100010001000100010031
:1007C0000100010001000100010001000100010021
:1007D0000100010001000100010001000100010011
:1007E0000100010001000100010001000100010001
:1007F00001000100010001000100010001000100F1
:1008000001000100010001000100010001000100E0
:1008100001000100010001000100010001000100D0
:1008200001000100010001000100010001000100C0
:1008300001000100010001000100010001000100B0
:1008400001000100010001000100010001000100A0
:100850000100000000000100000001000100010093
:100860000100010001000100010001000000000082
:100870000100010001000100010001000100010070
:100880000100010001000100000000000100010062
:100890000100010001000100010001000100010050
:1008A0000100010001000100010001000100010040
:1008B0000100010001000100010001000100010030
:1008C0000100010001000100010001000100010020
:1008D0000100010001000100010001000100010010
:1008E0000100010001000100010001000100010000
:1008F00001000100010001000100010001000100F0
:1009000001000100010001000100010001000100DF
:1009100001000100010001000100010001000100CF
:1009200001000100010001000100010001000100BF
:1009300001000000000001000000010001000100B2
:1009400001000100010001000100010000000000A1
:10095000010001000100010001000100010001008F
:100960000100010001000100000000000100010081
:10097000010001000100010001000100010001006F
:10098000010001000100010001000100010001005F
:10099000010001000100010001000100010001004F
:1009A000010001000100010001000100010001003F
:1009B000010001000100010001000100010001002F
:1009C000010001000100010001000100010001001F
:1009D000010001000100010001000100010001000F
:1009E00001000100010001000100010001000100FF
:1009F00001000100010001000100010001000100EF
:100A000001000100010001000100010001000100DE
:100A100001000000000001000000010001000100D1
:100A200001000100010001000100010000000000C0
:100A300001000100010001000100010001000100AE
:100A400001000100010001000000000001000100A0
:100A5000010001000100010001000100010001008E
:100A6000010001000100010001000100010001007E
:100A7000010001000100010001000100010001006E
:100A8000010001000100010001000100010001005E
:100A9000010001000100010001000100010001004E
:100AA000010001000100010001000100010001003E
:100AB000010001000100010001000100010001002E
:100AC000010001000100010001000100010001001E
:100AD000010001000100010001000100010001000E
:100AE00001000100010001000100010001000100FE
:100AF00001000000000001000000010001000100F1
:100B000001000100010001000100010000000000DF
:100B100001000100010001000100010001000100CD
:100B200001000100010001000000000001000100BF
:100B300001000100010001000100010001000100AD
:100B4000010001000100010001000100010001009D
:100B5000010001000100010001000100010001008D
:100B6000010001000100010001000100010001007D
:100B7000010001000100010001000100010001006D
:100B8000010001000100010001000100010001005D
:100B9000010001000100010001000100010001004D
:100BA000010001000100010001000100010001003D
:100BB000010001000100010001000100010001002D
:100BC000010001000100010001000100010001001D
:100BD0000100000000000100000001000100010010
:100BE00001000100010001000100010000000000FF
:100BF00001000100010001000100010001000100ED
:100C000001000100010001000000000001000100DE
:100C100001000100010001000100010001000100CC
:100C200001000100010001000100010001000100BC
:100C300001000100010001000100010001000100AC
:100C4000010001000100010001000100010001009C
:100C5000010001000100010001000100010001008C
:100C6000010001000100010001000100010001007C
:100C7000010001000100010001000100010001006C
:100C8000010001000100010001000100010001005C
:100C9000010001000100010001000100010001004C
:100CA000010001000100010001000100010001003C
:100CB000010000000000010000000100010001002F
:100CC000010001000100010001000100000000001E
:100CD000010001000100010001000100010001000C
:100CE00001000100010001000000000001000100FE
:100CF00001000100010001000100010001000100EC
:100D000001000100010001000100010001000100DB
:100D100001000100010001000100010001000100CB
:100D200001000100010001000100010001000100BB
:100D300001000100010001000100010001000100AB
:100D4000010001000100010001000100010001009B
:100D5000010001000100010001000100010001008B
:100D6000010001000100010001000100010001007B
:100D7000010001000100010001000100010001006B
:100D8000010001000100010001000100010001005B
:100D9000010000000000010000000100010001004E
:100DA000010001000100010001000100000000003D
:100DB000010001000100010001000100010001002B
:100DC000010001000100010000000000010001001D
:100DD000010001000100010001000100010001000B
:100DE00001000100010001000100010001000100FB
:100DF00001000100010001000100010001000100EB
:100E000001000100010001000100010001000100DA
:100E100001000100010001000100010001000100CA
:100E200001000100010001000100010001000100BA
:100E300001000100010001000100010001000100AA
:100E4000010001000100010001000100010001009A
:100E5000010001000100010001000100010001008A
:100E6000010001000100010001000100010001007A
:100E7000010000000000010000000100010001006D
:100E8000010001000100010001000100000000005C
:100E9000010001000100010001000100010001004A
:100EA0000100010001000100000000006432146430
:100EB0003214783C1E1E140A0500000000010101D6
:100EC0000202030405050607090A0B0C0E0F111296
:100ED000141517191B1D1F212325282A2C2F3134E7
:100EE00036393B3E414346494C4F5255585A5D6155
:100EF00064676A6D707376797C7F8386898C8F9244
:100F000095989B9EA2A5A7AAADB0B3B6B9BCBEC129
:100F1000C4C6C9CBCED0D3D5D7DADCDEE0E2E4E676
:100F2000E8EAEBEDEEF0F1F3F4F5F6F8F9FAFAFB96
:100F3000FCFDFDFEFEFEFFFFFFFFFFFFFFFEFEFECE
:100F4000FDFDFCFBFAFAF9F8F6F5F4F3F1F0EEED3D
:100F5000EBEAE8E6E4E2E0DEDCDAD7D5D3D0CECBCC
:100F6000C9C6C4C1BEBCB9B6B3B0ADAAA7A5A29E3E
:100F70009B9895928F8C898683807C797673706D2F
:100F80006A6764615D5A5855524F4C494643413E29
:100F90003B393634312F2C2A282523211F1D1B19BC
:100FA00017151412110F0E0C0B0A0907060505047C
:100FB0000302020101010000000000000000010125
:100FC0000101010101010102020202020202020208
:100FD00003030303030303030404040404040505D7
:100FE0000505050606060606070707070808080898
:100FF0000909090A0A0A0A0B0B0B0C0C0C0D0D0D42
:101000000E0E0F0F0F1010111111121213131414D2
:10101000151516161717181819191A1A1B1C1C1D46
:101020001D1E1F1F2020212222232425252627279D
:1010300028292A2B2B2C2D2E2F2F303132333435CB
:1010400036363738393A3B3C3D3E3F4041424344D7
:10105000464748494A4B4C4D4F50515253555657AD
:10106000585A5B5C5E5F606263646667696A6C6D58
:101070006E707173747678797B7C7E8081838486D0
:10108000888A8B8D8F91929496989A9B9D9FA1A30D
:10109000A5A7A9ABADAFB1B3B5B7B9BBBDBFC1C40F
:1010A000C6C8CACCCFD1D3D6D8DADCDFE1E4E6E8D3
:1010B000EBEDF0F2F5F7FAFCFF12036B0065007937
:1010C0000062006F0061007200640000001603718E
:1010D000006D006B006200750069006C00640065C3
:1010E00000720000000403090409026D00040100FD
:1010F000A0FA090400000103010100092111010007
:10110000012240000705810308000A0904010001CB
:1011100003010200092111010001224D000705828F
:101120000308000A0904020001030000000921115C
:101130000100012236000705830308000A090403A1
:1011400000010300000009211101000122390007FC
:101150000584032000011201100100000008EDFECB
:10116000606001000102000105010906A1010507F7
:1011700019E029E715002501950875018102050888
:1011800019012905950575019102950175039101D4
:101190000507190029F71500250195F87501810249
:1011A000C005010980A10185021601002603001A6D
:1011B00081002A8300751095018100C0050C09018A
:1011C000A1018503160100269C021A01002A9C0237
:1011D000751095018100C005010902A1010901A155
:1011E00000050919012905150025019505750181DD
:1011F0000295017503810105010930093115812529
:101200007F95027508810609381581257F9501753E
:10121000088106050C0A38021581257F950175089D
:101220008106C0C005010906A101050719E029E7EB
:101230001500250195087501810295017508810148
:101240000508190129059505750191029501750398
:1012500091010507190029FF150026FF0095067565
:10126000088100C011241FBECFEFDAE0DEBFCDBF82
:1012700004B603FE27C08091BC029091BD02A091EC
:10128000BE02B091BF028730904BA740B04BD1F463
:101290001092BC021092BD021092BE021092BF02C8
:1012A00014BE84B7877F84BF0FB6F894A895809149
:1012B0006000886180936000109260000FBEE0E0E3
:1012C000F8E3099511E0A0E0B1E0E2E3FCE502C03B
:1012D00005900D92A034B107D9F722E0A0E4B1E067
:1012E00001C01D92AC3BB207E1F70E943D270C9470
:1012F000172E0C94000090E080E008950895089562
:1013000081E00895089581E008950C9480090E9479
:1013100028192FEF84E39CE0215080409040E1F7B2
:1013200000C000000C945421FF920F931F93CF93A1
:10133000DF938C01FC01C081D18180919D018111DD
:1013400048C08281882309F43FC0CE010E948D1ECF
:10135000F82E682FCE010E94351EBE018F2D0E94EF
:10136000760BEC01B8010E948509882309F478C046
:10137000B801CE010E94A70D882309F471C0C633BD
:10138000F0E7DF0709F484C0C0F5C53190E7D9075D
:1013900028F5C230E0E7DE0708F099C0C115F0E794
:1013A000DF0709F458C0C130D04709F460C081E0BC
:1013B0008093420180934301C801DF91CF911F9137
:1013C0000F91FF900C948309CE010E94631EF82EAA
:1013D000C4CFCE010E948D1EBE01C1CFC43390E7A1
:1013E000D90709F44EC0C533D04709F7F801828107
:1013F0008823B1F10E948F1133C0CA33F0E7DF07B1
:1014000009F457C070F4F8018281C833F0E7DF07B0
:1014100009F44AC008F443C0882311F10E94D31094
:101420001FC0CC33E0E7DE0709F4D5C008F448C09C
:10143000CD33D04709F0BBCFF8018281882309F46E
:10144000F1C0109243010E94F920909341018093D2
:10145000400180E2CDC0F801828181110E9487099C
:1014600080E0DF91CF911F910F91FF900895F801D7
:1014700082818823A9F38091490281608093490287
:10148000EFCFF8018281882359F30E949911E8CFA8
:10149000F8018281882321F30E948410E1CF882300
:1014A000F9F20E949C10DCCF8823D1F20E94BB107D
:1014B000D7CFF8018281882399F20E94EB10D0CF18
:1014C000F8018281882361F20E940311C9CFF801DB
:1014D0008281882309F470CF0E944A20811102C0C2
:1014E0000E9424200E94672090E09093AD02809398
:1014F000AC02FE01E350F0478091AC028160E23122
:10150000F105C8F4EA57F54F0C94C92D980AA40ABE
:10151000A80AAC0AB00AB40AB80ABC0AC00AC40ACB
:10152000C80ACC0AD00AD40AD80ADC0AE00AE40ABB
:101530008091AC0282608093AC028091AC020E94E8
:101540006B200E9428198CCF8091AC028460F3CF6D
:101550008091AC028860EFCF8091AC028061EBCFCC
:101560008091AC028062E7CF8091AC028064E3CFCF
:101570008091AC028068DFCF8091AC028460EACFBA
:101580008091AC028E7FD7CF8091AC028D7FD3CF7C
:101590008091AC028B7FCFCF8091AC02877FCBCF85
:1015A0008091AC028F7EC7CF8091AC028F7DC3CF7C
:1015B0008091AC028F7BBFCF8091AC028F77BBCF85
:1015C0008091AC028B7FEACF9091AC02892F97FB80
:1015D00087F98058B0CFF8018281882361F010929A
:1015E00042010E94F920909341018093400182E0E2
:1015F0000E94921635CF8091420181110FC08091D7
:101600004001909141010E940521883C910530F4F0
:1016100086E20E94671586E20E94431682E00E94DD
:1016200099161ECF8091430181110FC08091400116
:10163000909141010E940521883C910530F487E298
:101640000E94671587E20E94431680E2E8CF0C945F
:10165000F80D269A2E988FEF9FEF90938700809336
:10166000860082E28093800089E1809381000C945F
:10167000F2240E94290B0C94F60D2E9881110AC0B9
:10168000809180008F7D8093800010928B0010925B
:101690008A0008958C3061F480918000806280938C
:1016A00080008FEF9FEF90938B0080938A000895C6
:1016B000909180009062909380002CE030E0A9012E
:1016C000481B5109CA0146E0489F9001499F300DCF
:1016D00011248FEF9FEF02C0969587952A95E2F728
:1016E000E2CF0C9482090C94710B0895E72FF0E07F
:1016F00097E0899FE00DF11D112484E0EE0FFF1F9C
:101700008A95E1F7E60FF11DEE0FFF1FE455FF4F3D
:10171000859194910895FC01EE0FFF1FE455F14F60
:101720008591949108950E94760B0E94260D811553
:1017300020E5920708F040C0811530E4930708F0D7
:10174000FAC0883E910518F5803E910508F07DC1EC
:10175000883A910580F4853A910508F087C0813078
:10176000910509F472C120F08430910508F06DC133
:1017700090E080E008958D3B910508F482C0803CA4
:101780009105B0F3805C91090E948B0B089581153F
:1017900040E2940750F4811521E0920708F055C10A
:1017A000803F910528F390650895811530E39307F4
:1017B00008F0BEC09F70E8CF811545E5940760F53D
:1017C000811524E5920708F0E5C0811532E59307FD
:1017D00050F4811541E5940708F4B0C0982F88278C
:1017E000816F906A0895282F26952695AC01437045
:1017F00055278115934508F0BEC081E090E002C0F6
:10180000880F991F4A95E2F740E2249F9001112426
:10181000822B932B9C680895803340E7940798F4BB
:10182000803220E7920708F0BFC0811536E59307A4
:1018300008F4B5C09C0130569F702115304108F066
:1018400097CF90620895813320E7920709F4B3C0DF
:1018500008F4AEC0823340E7940709F4AFC0833385
:10186000904709F085CF80E093ED0895853A910582
:1018700009F4A7C0863A910509F0A6C082E890E471
:101880000895883A910509F4A2C0893A910509F4AE
:10189000A1C08A3A910509F4A0C08B3A910509F4D8
:1018A0009FC08C3A910509F49EC08B3B910509F4C9
:1018B0009DC08C3B910509F49CC08D3A910509F4BB
:1018C0009BC0803B910509F49AC08E3A910509F4BA
:1018D00099C08F3A910509F498C0813B910509F4AC
:1018E00097C0823B910509F496C0833B910509F4AA
:1018F00095C0843B910509F494C0853B910509F49A
:1019000093C0863B910509F492C0873B910509F489
:1019100091C0883B910509F490C0893B910509F479
:101920008FC08A3B910509F48EC080E094E408954D
:101930009927906C08959F70906A08959C0154E0D7
:10194000369527955A95E1F7922F9370482F43705B
:1019500021E030E002C0220F331F4A95E2F73C68D5
:10196000392B86958695837040E2849FC0011124AF
:10197000822B932B089581E090E002C0880F991F7D
:101980004A95E2F740E2249F90011124822B932B89
:101990009A680895982F8827846F906A0895982FE1
:1019A000882788279F714DCF80529047946D089566
:1019B00080E091ED089580E090ED089580E092ED53
:1019C000089581E890E4089583E890E4089582EE14
:1019D00094E4089589EE94E408958AEE94E40895D9
:1019E00085EB94E4089586EB94E4089583EB94E406
:1019F000089584EB94E4089587EB94E408958CECC7
:101A000094E408958DEC94E4089583E895E40895B2
:101A10008AE895E4089582E995E4089584E995E4D7
:101A2000089581E296E4089583E296E4089584E2BD
:101A300096E4089585E296E4089586E296E4089592
:101A400087E296E408958AE296E408958238910543
:101A500049F1B0F48133910509F45CC048F489324E
:101A6000910509F452C08A32910509F458C00895CD
:101A70008533910509F444C08933910599F008959F
:101A8000833E910531F138F4803E910591F0823E1C
:101A90009105B1F00895863E910511F1873E9105BB
:101AA00041F108952091AC022370C9F080EE90E0DE
:101AB00008952091AC0220FF12C089E390E00895C0
:101AC0002091AC0222FF0BC024FF2EC090E080E0EA
:101AD00008952091AC0222FD2AC024FDF7CF08957D
:101AE0002091AC0223FFFBCF24FDF0CF87EE90E0E6
:101AF00008952091AC0223FFF0CF86EE90E0089588
:101B00002091AC0225FD16C008952091AC0225FD60
:101B100014C008952091AC0226FD12C008952091B2
:101B2000AC0226FD10C0089583EE90E0089582EE89
:101B300090E0089589E290E0089585E390E00895AB
:101B40008AE290E0089581E390E0C9CF08950F9371
:101B50001F93CF938C01FB018281811106C0C1E0EC
:101B60008C2FCF911F910F910895C0915101C111F8
:101B700025C00531104799F70E94A60D81E080939A
:101B800051010E94F9209093500180934F011092CF
:101B900044011092460110924501109248011092A2
:101BA000470110924A011092490110924C01109283
:101BB0004B0110924E0110924D01D2CF80914F01F6
:101BC000909150010E940521883C910540F680913A
:101BD0004401E82FF0E0EE0FFF1FEB5BFE4F118397
:101BE00000838F5F80934401C0E0BACF0C947E09DC
:101BF0000C947F0985B7806885BF85B7806885BFED
:101C0000A4E2B1E061E070E08D91E82FE295EF7021
:101C1000F0E041A18F709B0101C0220F8A95EAF785
:101C2000922F9095942391A382A1822B82A381E08D
:101C3000AB32B80749F7A4E1B1E061E070E08D9103
:101C4000E82FE295EF70F0E041A18F709B0101C099
:101C5000220F8A95EAF7922F9095942391A382A15F
:101C6000822B82A381E0A432B80749F7E0E6F1E0D5
:101C7000A2E5B1E08EE691E0119211921D921D92C3
:101C80008E179F07C9F70C94390B4F925F927F9282
:101C90008F929F92AF92BF92CF92DF92EF92FF927C
:101CA0000F931F93CF93DF9302E511E094E2E92EA7
:101CB00091E0F92EE801CC24C394D12C992493947B
:101CC000A880B98019821882D7018D917D01E82FF3
:101CD000E295EF70F0E091A18F70960101C0220FA4
:101CE0008A95EAF7892F822B81A382A1822E809484
:101CF000882182A3B0EABA95F1F784E1482E81E009
:101D0000582E90E080E0D2017D912D01472F429521
:101D10004F7050E0DA0190967C90488159817F7035
:101D2000D60102C0AA0FBB1F7A95E2F7BD01672159
:101D300009F057C0B601082E02C0660F771F0A943B
:101D4000E2F7462B572B5983488301968031910542
:101D5000D1F681A1882281A282A1282B22A3888189
:101D60009981A816B90641F090926E010E94F9205F
:101D70009093700180936F012296BBE2EB16B1E065
:101D8000FB0609F09DCF80916E018823B9F0809108
:101D90006F01909170010E940521069778F0E0E6AE
:101DA000F1E080E691E0D8012D913D918D012193E4
:101DB00031938A179B07B9F710926E010E94270B87
:101DC00081E0DF91CF911F910F91FF90EF90DF9015
:101DD000CF90BF90AF909F908F907F905F904F90EB
:101DE000089570E060E0ADCFE82FF0E0EE0FFF1F48
:101DF000E05AFE4F808191810895089531B3242FD8
:101E00002095232331B3432B3FB7F894FC01680F8F
:101E1000791FE617F70711F43FBF0895819198E005
:101E200041BB000000C087FF21BB880F000000C03D
:101E300000C000C021BB00C09A9591F7EACF20B343
:101E4000242B20BB9B01220F331F620F731F0E94A4
:101E5000FE0E87EC90E00197F1F700C000000895B6
:101E600041E00C941F0FCF92DF92EF92FF920F93FD
:101E70001F93CF93DF93E901662309F466C0E42E34
:101E8000F12CEFEFF0E0E61BF109EE9D8001EF9DF4
:101E9000100DFE9D100D1124212FE12FFF27EE1AAA
:101EA000FF0A5CE3C52ED12CB6010E94A12DFB01D7
:101EB000BC01E69EC001E79E900DF69E900D112498
:101EC000B6010E94A12DE230F10589F168F4812F5D
:101ED000262F210F309781F0242F461B319761F078
:101EE00080E020E040E008C0E430F10551F128F145
:101EF000842F861B3597A1F7E42FF0E0E754F04FCD
:101F00004491E22FF0E0E754F04F9491E82FF0E095
:101F1000E754F04FE49149839883EA83DF91CF91AE
:101F20001F910F91FF90EF90DF90CF900895862F33
:101F3000810FE42F412F2E2FDFCFE42FE61B842FBC
:101F4000F9CF842F462F410FD7CF842F242FD4CF02
:101F500088E090E00C94D72DAB01BC0188E090E0C4
:101F60000C94F52DE6E7F2E083E08083109277028F
:101F70008FEF8283838360917602709177028091E4
:101F80007802909179020C94AC0F80917602EEE782
:101F9000F2E080FF06C06EE070E08EE792E00C9405
:101FA000300F118210821282339682E0E83AF807ED
:101FB000C1F7F1CFEEE7F2E081836083428333968D
:101FC00092E0E83AF907C1F70C94C50FEF92FF923F
:101FD0000F931F93CF93DF9300D01F92CDB7DEB73F
:101FE000182FE92EF62E042F809176029091770219
:101FF000A0917802B091790280937A0290937B024B
:10200000A0937C02B0937D028091760280FF1FC076
:102010009E012F5F3F4F812F9E2D0E94330F809195
:102020007A0210FB87F980937A02169580917B02E1
:102030008078812BE0FA87F980937B02F0927C0212
:1020400000937D024B8169818A810E94DA0F0F9093
:102050000F900F90DF91CF911F910F91FF90EF9014
:1020600008950F931F93CF93DF93EC01062F142F46
:102070009091760290FF43C0892F8E77823021F5B0
:10208000CE010E94E60F80917602C0FB87F9809313
:102090007602C695809177028078C82BD0FBC7F96D
:1020A000C0937702009378021093790260917602D0
:1020B000709177028091780290917902DF91CF91AF
:1020C0001F910F910C94AC0F892F86958F732EE37F
:1020D000280F2F73243018F410917902D4CF865C26
:1020E0008F73893080F6991F9927991FD0917702B5
:1020F000CD2FCC0FC92BD7FBDD27D0F9C4CFDF9173
:10210000CF911F910F910895E6E7F2E02081221F01
:102110002227221F30917702432F440F842F822BD6
:1021200037FB992790F9089668E671E00E94B52D73
:10213000438162810C94311020917602221F222764
:10214000221F30917702432F440F842F822B37FBBD
:10215000992790F98830910540F4805A9E4F40911C
:102160007902609178020C943110089768E671E06A
:102170000E94B52DF4CF60917802683F90F4685FBB
:1021800080917602881F8827881F90917702292FD7
:10219000220F97FB992790F940917902822B0C949A
:1021A00031106FEFEDCF60917802683090F0685099
:1021B00080917602881F8827881F90917702292FA7
:1021C000220F97FB992790F940917902822B0C946A
:1021D000311060E0EDCF40917902483F90F4485FC4
:1021E00080917602881F8827881F90917702292F77
:1021F000220F97FB992790F960917802822B0C941B
:1022000031104FEFEDCF40917902483090F04850B7
:1022100080917602881F8827881F90917702292F46
:10222000220F97FB992790F960917802822B0C94EA
:10223000311040E0EDCF9091760290FF3BC0917855
:10224000811126C09260909376026091760270911F
:10225000770280917802909179020E94AC0F809170
:102260007602982F9E779230D9F410928601881FBB
:102270008827881F90917702292F220F97FB992793
:1022800090F94091790260917802822B0C94311080
:10229000893110F09063D7CF8F73880F982BD3CFED
:1022A000982F9695925C9F73963108F791E09093E2
:1022B0008601DDCF089580914902816080934902B3
:1022C00081E0809387010E944A20811104C00E940E
:1022D00024200E94B20F0E94A80F60937602709390
:1022E000770280937802909379026E7761F40E946E
:1022F000B20F0E94A80F60937602709377028093CA
:1023000078029093790281E0809386018091760231
:1023100080FF04C086958F730C941B1108958091E3
:10232000760286958F738F5F893108F081E00C9477
:102330001B1190917602892F8E7F90FF8160809390
:102340007602609176027091770280917802909186
:1023500079020E94AC0F8091760280FF04C08695BE
:102360008F730C941B11109286012FEF80E792E07F
:10237000215080409040E1F700C000000C94C50F50
:10238000CF93C82F80918401909185010E940521EF
:10239000EC2FF0E0EB54F14FE491E817190609F047
:1023A00010F50E94F9209093850180938401E091BB
:1023B0008301F0E0E754F14F449180917602881F49
:1023C0008827881F90917702292F220F97FB992742
:1023D00090F960917802822B0E94E60F8091830130
:1023E0008F5F80938301CF910895CF93C82F809101
:1023F0008101909182010E940521EC2FF0E0EE54C2
:10240000F14FE491E817190609F0E8F40E94F92069
:1024100090938201809381014091790260917802CA
:1024200080917F01909180010E94E60F80917F0151
:1024300090918001019668E671E00E94A12D909331
:10244000800180937F01CF910895DF92EF92FF92F8
:102450000F931F93CF93DF93D82E80917D0190919E
:102460007E010E940521ED2DE695F0E0EE54F14F3E
:10247000E491E817190609F0A8F50E94F920909355
:102480007E0180937D010EE712E0D0E0C0E088E697
:10249000E82EFF24F39480917B0190917C018C0FB6
:1024A0009D1FB7010E94A12D980140917902609172
:1024B00078020E94330F69960D5F1F4FCE3581E081
:1024C000D80749F70E94C50F80917B0190917C014C
:1024D000D0FE10C00196B7010E94A12D90937C01FF
:1024E00080937B01DF91CF911F910F91FF90EF902F
:1024F000DF9008950197F2CFAF92BF92CF92DF9213
:10250000EF92FF920F931F93CF93DF93C82FFF2477
:10251000FA9480FD02C0FF24F39480917901909198
:102520007A010E940521C695EC2FF0E0E155F14FAC
:10253000E491E817190611F008F053C00E94F92041
:1025400090937A0180937901CEE7D2E010E000E029
:1025500097E0C92ED12C198218821A8287E0A82E02
:10256000B12CE12C809178018E0D87FD825F082EC1
:10257000000C990B08171907E9F4209179022A9D9C
:10258000C0012B9D900D1124B6010E94B52D462F40
:1025900080917602881F8827881F90917702592F93
:1025A000550F97FB992790F99E0160917802852B32
:1025B0000E94330FEF0C81E0A81AB10899F60F5F63
:1025C0001F4F23960E30110531F60E94C50F8091E2
:1025D000780191E0F91212C081110EC08DE0809354
:1025E0007801DF91CF911F910F91FF90EF90DF90D5
:1025F000CF90BF90AF9008958150F1CF90E00196B9
:10260000B8010E94B52DEBCFBF92CF92DF92EF922F
:10261000FF920F931F93CF93DF93CDB7DEB7AA97A7
:102620000FB6F894DEBF0FBECDBF182F8091760194
:10263000909177010E940521E12FF0E0E455F14FE0
:10264000E491E817190611F008F07AC00E94F92009
:1026500090937701809376018E010F5F1F4FF12CCD
:10266000E12C6801D80111961C9211971C921296C8
:102670001C92B12C9091000180917501B99E800D42
:1026800011248E300CF08DE087FD80E0082E000CC8
:10269000990BE816F906A1F480917602881F882725
:1026A000881F90917702592F550F97FB992790F922
:1026B00098014091790260917802852B0E94330F36
:1026C000B394B7E0BB12D6CFEFEFEE1AFE0A0D5F60
:1026D0001F4FFEE0EF16F10429F62EE732E009E085
:1026E00010E05EE0E52EF12CC801B7010E94B52D87
:1026F000FC01EE0FFF1FE80FF91FEC0DFD1D81819E
:10270000D90111968C93119780818C9382811296B6
:102710008C930F5F1F4F2D5F3F4F0731110521F73E
:102720000E94C50F90910001809175019130E1F4F4
:102730008A3FB4F489EF809375018FEF8093000195
:10274000AA960FB6F894DEBF0FBECDBFDF91CF9132
:102750001F910F91FF90EF90DF90CF90BF90089561
:10276000815080937501ECCF85312CF084E180930A
:10277000750181E0E3CF8F5FF4CFCF93DF9380913A
:102780007301909174010E940521883E934028F1C5
:102790000E94F920909374018093730180917101DC
:1027A00090917201019681709927909372018093A4
:1027B0007101CEE7D2E09E014091790260917802EA
:1027C00090E080E00E94330F239682E0C83AD80759
:1027D00091F7DF91CF910C94C50FDF91CF910895C0
:1027E00080918601882371F18091760286958F739E
:1027F0009EE3980F9F73943018F482500C94C0118C
:102800009AE3980F9F73933018F486500C94F51147
:1028100097E3980F9F73963018F489500C94251203
:1028200091E3980F9F73963018F48F500C947C129C
:102830009BE2980F9F73933018F485510C94041306
:102840000C94BD13089590938D0180938C0108958D
:10285000E0918C01F0918D01309721F00190F08191
:10286000E02D099480E00895E0918C01F0918D01B4
:10287000309721F00280F381E02D09940895E091D2
:102880008C01F0918D01309721F00480F581E02DCD
:102890000994089520918A0130918B0128173907F6
:1028A00071F090938B0180938A01E0918C01F091FB
:1028B0008D01309721F00680F781E02D099408956D
:1028C00020918801309189012817390771F0909380
:1028D000890180938801E0918C01F0918D013097FE
:1028E00021F00084F185E02D0994089508950C9459
:1028F00076140E94F0200E94FA0D0E94C1210E94CD
:10290000F2240C945B115F926F927F928F929F9250
:10291000AF92BF92CF92DF92EF92FF920F931F93ED
:10292000CF93DF93CDB7DEB72A970FB6F894DEBF0B
:102930000FBECDBF0E94450E9FE8A92E91E0B92E93
:1029400010E000E088248394912C502E802F0E9468
:10295000F40E7C01F501C190D1905F01C816D90633
:1029600009F45EC08091490281FD0E94FD0E90E055
:1029700080E0CE24DF243401082E02C0660C771CD0
:102980000A94E2F7960126213721232B09F443C04C
:102990008E835F82E620F72081E0EF2809F480E053
:1029A00088870E94F9208160782F9A8789874E81D5
:1029B0005F8168858A850E943D15000F111FF8010F
:1029C000E157FE4F8081918168267926718260826D
:1029D0000E9444240E94281490918E018917B9F115
:1029E0000E94281480938E012A960FB6F894DEBFB9
:1029F0000FBECDBFDF91CF911F910F91FF90EF9050
:102A0000DF90CF90BF90AF909F908F907F906F900E
:102A10005F900C94730B01968031910509F0ABCF58
:102A20000F5F1F4F0730110509F08FCF8FEF89839C
:102A30008A831B820E94F9208160782F9D838C837A
:102A400049815A816B818D810E943D15C1CF2A96A3
:102A50000FB6F894DEBF0FBECDBFDF91CF911F91AF
:102A60000F91FF90EF90DF90CF90BF90AF909F902D
:102A70008F907F906F905F900895CF93DF93CDB745
:102A8000DEB72B970FB6F894DEBF0FBECDBF4F83D6
:102A9000588769877A878B871E821D8285E0FE01B1
:102AA0003796DE01119601900D928A95E1F74981E2
:102AB0005A816B817C818D819E812B960FB6F89413
:102AC000DEBF0FBECDBFDF91CF910C94DA1B882300
:102AD00009F4D8C0823871F40E94281481FDD2C054
:102AE00089E30E942D1F0E94F51F89E30E946A1F3F
:102AF0000C94F51F833859F40E94281480FDC2C03D
:102B000083E50E942D1F0E94F51F83E5EFCF8438D7
:102B100059F40E94281482FDB5C087E40E942D1F3D
:102B20000E94F51F87E4E2CF9CEF980F913A18F4CA
:102B30000E942D1FDDCF90E2980F983050F48770DF
:102B400091E001C0990F8A95EAF7892F0E94AC1F86
:102B5000CFCF9BE5980F933070F4853A31F0863AE9
:102B600039F083E890E00C944A1481E890E0FBCFC0
:102B700082E890E0F8CF98E5980F953108F082C090
:102B8000883A09F440C0893A09F440C08A3A09F405
:102B900040C08B3A09F440C08C3A09F440C08B3BEA
:102BA00009F440C08C3B09F440C08D3A09F440C0A0
:102BB000803B09F440C08E3A09F440C08F3A09F4D2
:102BC00040C0813B09F440C0823B09F440C0833BD4
:102BD00009F440C0843B09F440C0853B09F440C07F
:102BE000863B09F440C0873B09F440C0883B09F4A8
:102BF00040C0893B09F440C08A3B09F440C090E0E2
:102C000080E00C94601482EE90E0FBCF89EE90E0BF
:102C1000F8CF8AEE90E0F5CF85EB90E0F2CF86EB2F
:102C200090E0EFCF83EB90E0ECCF84EB90E0E9CF46
:102C300087EB90E0E6CF8CEC90E0E3CF8DEC90E07A
:102C4000E0CF83E891E0DDCF8AE891E0DACF82E956
:102C500091E0D7CF84E991E0D4CF81E292E0D1CF67
:102C600083E292E0CECF84E292E0CBCF85E292E0A5
:102C7000C8CF86E292E0C5CF87E292E0C2CF8AE277
:102C800092E0BFCF0895882309F44BC0823871F4D5
:102C90000E94281481FF45C089E30E942D1F0E94D5
:102CA000F51F89E30E946A1F0C94F51F833859F4BD
:102CB0000E94281480FF35C083E50E942D1F0E94CA
:102CC000F51F83E5EFCF843859F40E94281482FF62
:102CD00028C087E40E942D1F0E94F51F87E4E2CFE1
:102CE0009CEF980F913AF0F290E2980F983050F4E0
:102CF000877091E001C0990F8A95EAF7892F0E94A9
:102D0000B21FD2CF9BE5980F933020F490E080E083
:102D10000C944A14885A853120F490E080E00C9499
:102D200060140895882321F00E94AC1F0C94F51FB5
:102D30000895882321F00E94B21F0C94F51F089576
:102D40008F929F92AF92BF92DF92EF92FF920F937A
:102D50001F93CF93DF937C01D62FC72FFC010581F2
:102D600002950F70128111110E94CB1F0E94261F25
:102D7000D82E882371F0112321F180E28D0F883045
:102D800000F182E00E94101F0E94261F91E0D82EC1
:102D9000D926EC2FE295EF70F0E0EF52F94E0C944B
:102DA000C92DE316E316331733177517911710174C
:102DB00010179C17101734183418A718B0181017CC
:102DC000D018D12CE6CF0C2F0F70C07F11F00295D8
:102DD000007F1123A9F0002359F080E28D0F883085
:102DE00010F0D11109C0802F0E94AC1F0E94F51F66
:102DF0008D2F0E94671514C0802F0E94BD1FF6CF33
:102E00008D2F0E944316002359F080E28D0F8830E9
:102E100010F0D11124C0802F0E94B21F0E94F51F14
:102E2000DD2009F4C4C10E94031F80FDC0C1F70169
:102E300012820E94FD1E0E94791DC7010E94E318A4
:102E40000E94FD1EDF91CF911F910F91FF90EF9097
:102E5000DF90BF90AF909F908F900C949A1D802F21
:102E60000E94C31FDBCFFC2FFF70BF2EC07FC0327C
:102E700019F0B29480EFB822DD2369F0D13029F146
:102E8000112369F1002359F0F701858180FFB0CF4C
:102E90008F70858304C0112361F0011104C08B2D54
:102EA0000E949216BDCF8B2D0130D1F70E94DF1FFB
:102EB000B7CF011106C00E94E21F8B2D0E94991608
:102EC000AFCF013009F4ACCFF6CF112321F006309B
:102ED00008F0A6CFE4CF053008F0A2CFEECF002354
:102EE00061F38D2F0E9443169BCF8C2F869586957C
:102EF000837069F0813009F093CF8D2F9C2F9370F0
:102F0000111102C090E080E00E94601489CF8D2FE3
:102F10009C2F9370111102C090E080E00E944A142F
:102F20007FCF8D2F112329F00E944D230E94392439
:102F300077CF0E94B523FACF8C2F837009F047C05A
:102F400011116ECF2D2F229526952770220F220F5B
:102F50006D2F6F70862E912CB12CA12C022E04C0E7
:102F6000880C991CAA1CBB1C0A94D2F760E070E084
:102F7000CB01D4FF0FC06FE070E080E090E004C0B0
:102F8000660F771F881F991F2A95D2F76095709555
:102F900080959095C695C695C370C23051F080F467
:102FA000682979298A299B29C13071F00E94221D44
:102FB00037CF682979298A299B290E943E1D30CF65
:102FC0000E94221DC501B4010E94061D29CF8695CD
:102FD000112311F08C2F8170882309F421CF2D2F1C
:102FE000229526952770220F220F6D2F6F70862E47
:102FF000912CB12CA12C022E04C0880C991CAA1C67
:10300000BB1C0A94D2F760E070E0CB01D4FF0FC084
:103010006FE070E080E090E004C0660F771F881FCB
:10302000991F2A95D2F76095709580959095C695D1
:10303000C695C370C23051F080F4682979298A2975
:103040009B29C13071F00E94FC1DEACE68297929C4
:103050008A299B290E94181EE3CE0E94FC1DC501EF
:10306000B4010E94E01DDCCEE0E2ED0FE53108F096
:1030700062C0F0E0E25CF74E0C94C92D531853186F
:1030800053185318531853185318531853185318E8
:1030900053185318531853185318531860186E18B0
:1030A00075187C188618DF708C2F8F71112321F012
:1030B0000E94791D8D2FF4CE0E949A1D8D2FFECE79
:1030C000112341F0053008F0ABCE8C2F8F710E9498
:1030D000BF1DA6CE063008F0A3CEF7CF8C2F8F7180
:1030E000112339F00E94791D9BCE8C2F8F711123F3
:1030F000C9F30E949A1D94CE112329F08C2F8F7151
:103100000E94641D8DCE0E945A1D8ACE112349F063
:10311000CF718C2F0E94791D63E08C2F0E94071FB6
:103120007FCE81E00E94101F023008F479CE82E049
:103130000E94101F75CE112329F0011159CE8C2F3A
:103140008F71D0CF0111CDCE8C2F8F71D2CF4C2F5C
:103150004F706D2FC7010E947B090E94831C60CEB7
:1031600011115ECECF70C230A9F040F4CC2379F0BB
:10317000C13009F055CE0E941B2552CEC33069F0F4
:10318000C43009F04DCE8D2F0E946A2549CE0E9491
:10319000032546CE0E94342543CE0E94472540CECB
:1031A0004C2F4F706D2FC7010E94750B39CEDF91E8
:1031B000CF911F910F91FF90EF90DF90BF90AF9054
:1031C0009F908F9008950F931F93CF93DF93EC01FF
:1031D000988189812B813C81232B39F08F3F19F411
:1031E00081E09F3F19F080E001C081E080FD17C0C1
:1031F000CE010E949409882391F0688179818A81A7
:103200000E94D91E8C010E94341E0E94FB1CB80132
:10321000CE01DF91CF911F910F910C94A016DF91F9
:10322000CF911F910F9108950E94CB1F0E94DC1F28
:103230000E949E1F0E94F51F0E94E6240E943924CE
:1032400090E080E00E944A1490E080E00C946014CA
:103250000E94BA1F0C9414190E94CF1EE92FE29508
:10326000EF70E250EE30E0F4F0E0E75CF64E0C94E4
:10327000C92D471947195019501952195019501989
:103280005019471947195719501950195719803FA4
:1032900019F020F4803E20F481E00895843FE1F3AA
:1032A00080E00895803EC0F3813FD1F7F5CF93FBD6
:1032B000882780F90895CF93DF9300D000D01F9224
:1032C000CDB7DEB70F900F900F900F900F90DF915A
:1032D000CF910895CF93DF9300D000D000D0CDB729
:1032E000DEB726960FB6F894DEBF0FBECDBFDF91D6
:1032F000CF9108951F93CF93DF93C0919E0116E065
:1033000080919F018C1304C0DF91CF911F9108958C
:10331000D0E01C9FF0011D9FF00D1124E056FE4FE0
:103320004081518162817381848195810E946A19F3
:103330002196C770E5CF4091D0015091D1016091A5
:10334000D2017091D3018091D4019091D5010C9458
:103350006A191F93CF93DF938091D501807FD1F4B9
:103360008091D2018823B1F080919E01D0919F017C
:10337000B091D001C091D1014091D3015091D401BD
:10338000A1E0BF3F09F0A0E0BA016095709516E09A
:10339000D81304C0DF91CF911F91089521E041150A
:1033A000510521F02A2FCF3F09F020E090E020FDC9
:1033B00038C0189FF001199FF00D1124E056FE4F00
:1033C00021812C132EC020812B132BC0228121118F
:1033D00028C0238134812417350700F1241B350BC5
:1033E000283C3105F0F42091D5012F702061209305
:1033F000D50126E0289FF001299FF00D1124EB55FF
:10340000FE4F80818F708061808380ED91E00E940B
:10341000E318DF91CF911F910C947A19260F371F73
:10342000DFCF01968770B4CFAF92BF92CF92DF9279
:10343000EF92FF920F931F93CF93DF93CDB7DEB739
:1034400061970FB6F894DEBF0FBECDBF8C0185E04B
:10345000F801DE011D9601900D928A95E1F7D801E1
:103460004C9111965C9111971296EC903091D0018D
:103470006091D1018091D3019091D40121E0009716
:1034800031F06F3F19F421E03F3F09F020E0B22F07
:10349000B170BB2E20FD80C1F801C380D480A09004
:1034A000D201AA2009F427C1C816D906D0F1D60145
:1034B000A81BB90BCD01FF24F394883C910508F0BB
:1034C000F12C8091D501982F907FFF2009F4CAC07C
:1034D000911187C0FE2C651329C0341327C0E11059
:1034E00025C08F7080618093D5010E949B1980ED6B
:1034F00091E00E94E3188091D501F80185838F2D1A
:1035000061960FB6F894DEBF0FBECDBFDF91CF91AD
:103510001F910F91FF90EF90DF90CF90BF90AF90F1
:103520000895809590958C0D9D1DC5CF81E0CD2887
:1035300031F05F3F19F481E04F3F09F080E080FDFA
:1035400024C081E08E25F82FF170DF2E80FF3FC070
:1035500080919E0120919F0136E0821318C04D8713
:103560005E878D859E850E94CF1E292F22952F7004
:10357000223008F1243030F59F7009F1D8011596FA
:103580009C91907FE1F4FB2CBACF80E0DCCF90E0FF
:10359000389FF001399FF00D1124E056FE4F6181F4
:1035A000561306C06081461303C062816E110FC0BE
:1035B00001968770D2CF9F7011F0882321F3805E2F
:1035C000883008F3C8010E94E318BD2CDCCFEE2040
:1035D00009F495CF8091D50181608093D501F12CBC
:1035E0008ECF651312C0341310C0E1100EC0F80165
:1035F0008583C8010E94E31886E0F801A0EDB1E0E0
:1036000001900D928A95E1F741C04D875E878D85C7
:103610009E850E942C19882309F4C8C0EE2009F465
:10362000C5C08091D501803270F02091D0013091D9
:10363000D10138872F831986DB86CA868C87CE0115
:1036400007960E94E31886E0F801A0EDB1E0019032
:103650000D928A95E1F70E94A9190E949B19FF24F7
:10366000F3944DCF911115C07C2DD98AC88A6E2D47
:1036700089890E945B1980ED91E00E94E31886E041
:10368000E0EDF1E0DF011D928A95E9F70E949B19B8
:1036900036CF651312C0341310C0E1100EC0F8010C
:1036A0008583C8010E94E318E0EDF1E086E0DF01C8
:1036B0001D928A95E9F7FA2C22CF4D875E878D857A
:1036C0009E850E942C19882309F470C0EE2009F40D
:1036D0006DC08091D501803208F4B5CF2091D00122
:1036E0003091D1013A8329831B82DD82CC828E8383
:1036F000CE010196A6CFC816D90638F1F601E81B0F
:10370000F90BCF01F12C883C910508F03DC0FE2C4F
:10371000EE2009F44BC0651326C0341324C08091F9
:10372000D50180FD17C0982F907FA1F0D801159684
:103730008C931597903F09F45CCF982F907F905F02
:103740008F70892B15968C9354CF809590958C0D06
:103750009D1DD8CF86E0F801A0EDB1E001900D925B
:103760008A95E1F7CCCE4D875E878D859E850E9438
:103770002C19811168CF8091D50181608093D5018A
:10378000C8010E94E318BBCE7C2DD98AC88A6E2D51
:1037900089890E945B1973CFEE2041F04D875E87C7
:1037A0008D859E850E942C1981114DCFC8010E94E4
:1037B000E31855CF1F93CF93DF93CDB7DEB72C9788
:1037C0000FB6F894DEBF0FBECDBF4F835887698711
:1037D0007A878B879C87CE0107960E94141A8823CC
:1037E00009F442C09F8188852A853B85232B39F0C7
:1037F0008F3F19F481E09F3F19F080E001C081E024
:1038000080FD08C04F81588569857A858B859C85A8
:103810000E946A1916E080919E0190919F0189177C
:1038200009F467C0819FC001112480569E4F0E94F9
:10383000141A882309F45DC0E0919E011E9FF001D7
:103840001124E056FE4F4081518162817381848151
:1038500095810E946A1980919E0190E0019687707F
:10386000992780939E01D7CF86E0FE013796DE012F
:10387000119601900D928A95E1F79F8188852A859E
:103880003B85232B39F08F3F19F481E09F3F19F0DE
:1038900080E001C081E080FDBDCF20919F0130E03C
:1038A000C90101968770992740919E014817190612
:1038B00099F096E0929FD001939FB00D1124A056ED
:1038C000BE4FFE01319601900D929A95E1F78093DB
:1038D0009F010E947A199ECF0E94281910929F0181
:1038E00010929E0186E0E0EDF1E0DF011D928A95E5
:1038F000E9F72C960FB6F894DEBF0FBECDBFDF916F
:10390000CF911F910895EF92FF920F931F93CF9342
:10391000DF938C01892B81F0F12CEE24E394E801F4
:103920002196F8018491843770F4843008F05FC0E8
:103930008130B1F08230A1F1DF91CF911F910F91D1
:10394000FF90EF900895853709F44CC008F43DC00E
:103950009CE7980F903780F78F770E94431649C0F5
:103960000E5F1F4FFE01849190E2980F983060F433
:103970008770FE2D01C0FF0F8A95EAF78F2F0E94F6
:10398000CE1F0E94F51F02C00E9467158F2D815027
:1039900030F2EFE9FFE03197F1F700C00000F7CF18
:1039A0000E5F1F4FFE01849190E2980F983050F403
:1039B0008770FE2D01C0FF0F8A95EAF78F2F0E94B6
:1039C000D41FDFCF0E944316E1CF0E5F1F4FFE01D1
:1039D000C491C150D8F28FE99FE00197F1F700C080
:1039E0000000F7CF0E5F1F4FFE01F490CFCF0E9473
:1039F00067158E01CBCF089560932002709321024A
:103A000080932202909323020C9414190F931F9316
:103A10000091200210912102209122023091230274
:103A2000DC01CB01802B912BA22BB32B80932002A6
:103A300090932102A0932202B09323021F910F9131
:103A40000C9414190F931F930091200210912102DE
:103A50002091220230912302DC01CB0180239123AB
:103A6000A223B3238093200290932102A0932202E9
:103A7000B09323021F910F910C9414190F931F936D
:103A80000091200210912102209122023091230204
:103A9000DC01CB0180279127A227B3278093200246
:103AA00090932102A0932202B09323021F910F91C1
:103AB0000C94141910921C0210921D0210921E02F6
:103AC00010921F020C94141941E050E060E070E085
:103AD00004C0440F551F661F771F8A95D2F7409385
:103AE0001C0250931D0260931E0270931F020C94DF
:103AF000141941E050E060E070E004C0440F551F2D
:103B0000661F771F8A95D2F780911C0290911D0243
:103B1000A0911E02B0911F02842B952BA62BB72BD0
:103B200080931C0290931D02A0931E02B0931F026B
:103B30000C94141941E050E060E070E004C0440FC0
:103B4000551F661F771F8A95D2F74095509560954F
:103B5000709580911C0290911D02A0911E02B0915F
:103B60001F0284239523A623B72380931C029093DE
:103B70001D02A0931E02B0931F020C94141941E081
:103B800050E060E070E004C0440F551F661F771FCF
:103B90008A95D2F780911C0290911D02A0911E027D
:103BA000B0911F0284279527A627B72780931C0270
:103BB00090931D02A0931E02B0931F020C9414193F
:103BC0000F931F9300911C0210911D0220911E0261
:103BD00030911F02DC01CB01802B912BA22BB32B48
:103BE00080931C0290931D02A0931E02B0931F02AB
:103BF0001F910F910C9414190F931F9300911C02A5
:103C000010911D0220911E0230911F02DC01CB0198
:103C100080239123A223B32380931C0290931D023F
:103C2000A0931E02B0931F021F910F910C941419C0
:103C30000F931F9300911C0210911D0220911E02F0
:103C400030911F02DC01CB0180279127A227B327E7
:103C500080931C0290931D02A0931E02B0931F023A
:103C60001F910F910C94141908959295907F890FCC
:103C7000982F977071E001C0770F9A95EAF78695B3
:103C80008695869525E0829FC001112450E040E092
:103C9000A62FB0E0FC01E40FF51FEA52FE4F608151
:103CA0009D01042E02C0369527950A94E2F72170F3
:103CB000219526272723262720834F5F5F4F4530F6
:103CC000510541F708959295907F890F982F97702D
:103CD00086958695869525E0829FA001112470E047
:103CE00060E080E0FA01E60FF71FEA52FE4F208104
:103CF00030E0092E02C0369527950A94E2F721702C
:103D00003327062E01C0220F0A94EAF7822B6F5F39
:103D10007F4F6530710531F70895BF92CF92DF92E2
:103D2000EF92FF920F931F93CF93DF938C01C0907C
:103D30001C02D0901D02E0901E02F0901F028091A4
:103D4000200290912102A0912202B0912302C82A60
:103D5000D92AEA2AFB2ACFE1D0E0BC2ED701C6013E
:103D60000C2E04C0B695A795979587950A94D2F71F
:103D700080FD0EC0219788F7B12C8B2DDF91CF915C
:103D80001F910F91FF90EF90DF90CF90BF9008951B
:103D9000B8018C2F0E94930B019761F3EECFCF9364
:103DA000DF93EC010E948D1EBE01DF91CF910C9438
:103DB000930B1F93CF93DF93EB0190919D01992378
:103DC00031F0CB01DF91CF911F910C94CF1E88234E
:103DD00079F0CB010E948D1E182F682FCE010E9412
:103DE000351EBE01812FDF91CF911F910C94930B53
:103DF000CB010E94631E182FF4CF80912402859579
:103E0000859585950895809124028770089598E09E
:103E1000899F90011124622B609324020C94791DD8
:103E2000909124028095892380932402282F277063
:103E300061F4282F082E000C330B9217130629F07B
:103E40008595859585950C949A1D089590912402E9
:103E5000977081E009F480E008959091130199230F
:103E6000E1F09091AC0297FF18C0E82FE695E69537
:103E7000E695EF3139F12091010130910201E20F15
:103E8000F32FF11D877021E030E001C0220F8A95E9
:103E9000EAF78181822B818308952091010130917D
:103EA0000201F90132969FEF40E05191851751F0E0
:103EB0009F3F19F4511101C0942F4F5F4E31A9F764
:103EC0009F3F09F40895290F311D97FD3A95F90197
:103ED00082830895909113019923F1F09091AC029F
:103EE00097FF1AC0E82FE695E695E695EF3129F1A0
:103EF0002091010130910201E20FF32FF11D282FD3
:103F0000277081E090E001C0880F2A95EAF780953C
:103F100091818923818308952091010130910201CB
:103F2000F9013296205E3F4F9191891303C0DF0162
:103F300011971C92E217F307B9F7089581E090E01A
:103F4000E0910101F0910201E80FF91F1082019642
:103F500080329105A9F7089590914802892B8093AA
:103F600048020895982F9095809148028923809364
:103F70004802089510924802089590914702892BB3
:103F8000809347020895982F909580914702892346
:103F90008093470208951092470208959091460237
:103FA000892B809346020895982F90958091460220
:103FB00089238093460208951092460208958093C3
:103FC0002502089510922502089520910101309153
:103FD0000201F9013196205E3F4F80E091919111ED
:103FE0008F5FE217F307D1F70895E0910101F09197
:103FF0000201809148028083E0910101F091020169
:10400000808190914702892B8083E0910101F0919A
:104010000201808190914602892B80839091250234
:10402000992361F0E0910101F09102018081892BD7
:1040300080830E94E51F8111109225028091010169
:10404000909102010C9434146DEE7EEF90E080E0CC
:104050000E94012E60E082E090E00E94E32D60E08B
:1040600083E090E00E94E32D60E084E090E00E9415
:10407000E32D60E085E090E00E94E32D60E086E0C3
:1040800090E00E94E32D40E050E0BA0188E090E02B
:104090000C94F52D90E080E00E94DD2D21E08D3E16
:1040A0009E4F09F020E0822F089582E090E00C946A
:1040B000CF2D682F82E090E00C94E32D83E090E018
:1040C0000C94CF2D682F83E090E00C94E32D84E0D6
:1040D00090E00C94CF2D682F84E090E00C94E32DB9
:1040E00086E090E00C94CF2D682F86E090E00C9451
:1040F000E32D8091B302843051F110924A0288E19D
:1041000090E020E40FB6F894A895809360000FBE6D
:104110002093600080E00E943D0B80E00E94730BC2
:1041200083B7817F846083BF83B7816083BF7894C6
:10413000889583B78E7F83BF0FB6F894A89580913A
:104140006000886180936000109260000FBE089547
:1041500008950895CF930E94A8200E94450E0E94C2
:10416000A920C0E08C2F0E94F40E892B31F4CF5F80
:10417000C730C1F780E0CF91089581E0FCCF0E9465
:1041800028190E94F2240E9428140C94730B1F9289
:104190000F920FB60F9211248F939F93AF93BF93FB
:1041A00080914A02811113C08091A8029091A902C6
:1041B000A091AA02B091AB024196A11DB11D8093BE
:1041C000A8029093A902A093AA02B093AB02BF9158
:1041D000AF919F918F910F900FBE0F901F901895E8
:1041E00082E084BD93E095BD9AEF97BD80936E0009
:1041F00008952FB7F8948091A8029091A902A091F8
:10420000AA02B091AB022FBF0895CF92DF92EF9236
:10421000FF920F931F932FB7F8944091A8025091EB
:10422000A9026091AA027091AB022FBF6A017B01C3
:10423000EE24FF248C0130E020E0C016D106E20617
:10424000F30650F0481B590BCA011F910F91FF90C4
:10425000EF90DF90CF90089541505109F3CF1F9216
:104260000F920FB60F9211248F939F93AF93BF932A
:104270008091A8029091A902A091AA02B091AB02EC
:104280000196A11DB11D8093A8029093A902A0934D
:10429000AA02B093AB02BF91AF919F918F910F9003
:1042A0000FBE0F901F9018950E947529F8942FEF5C
:1042B00087EA91E6215080409040E1F700C000007D
:1042C00087E090EBDC018093BC029093BD02A09349
:1042D000BE02B093BF0288E19CE00FB6F894A895A7
:1042E000809360000FBE90936000FFCFAF92BF92AB
:1042F000CF92DF92EF92FF920F931F93CF93C0E084
:10430000CC24C394D12CE82EF12C8C2F0E94F40ED7
:104310005C0110E000E0C601002E02C0880F991F6A
:104320000A94E2F78A219B21892B99F40F5F1F4F92
:104330000031110581F7CF5FC73039F780E0CF91A9
:104340001F910F91FF90EF90DF90CF90BF90AF90B3
:104350000895602F7C2F80E00E94760BE816F90606
:1043600029F781E0ECCFCF93C82F8CE20E94762111
:10437000882321F08C2FCF910C94762180E0CF916F
:104380000895CF930E944A20811102C00E942420E8
:10439000C5E608C00E94450E8FE39CE90197F1F73E
:1043A00000C00000C150B1F789E20E94B321811121
:1043B000EFC08AE20E94B32181110E94242085E08F
:1043C0000E94B32181110E9454210E9455208093A4
:1043D000490287E00E94B321882371F08BE10E949B
:1043E000B321882309F4B1C090914902892F8D7FB0
:1043F00091FF826080934902809149020E94592076
:104400000E94672090E09093AD028093AC0280EE12
:104410000E94B321882341F09091AC02892F8E7FB6
:1044200090FF81608093AC0289E30E94B3218823CE
:1044300041F09091AC02892F8D7F91FF8260809333
:10444000AC0282EE0E94B321882341F09091AC022D
:10445000892F8B7F92FF84608093AC0286EE0E944E
:10446000B321882341F09091AC02892F877F93FF7D
:1044700088608093AC0283EE0E94B321882341F0D0
:104480009091AC02892F8F7E94FF80618093AC0263
:1044900085E30E94B321882341F09091AC02892FDB
:1044A0008F7D95FF80628093AC0281E30E94B321EF
:1044B000882341F09091AC02892F8F7B96FF806416
:1044C0008093AC0281E10E94B321882341F0909156
:1044D000AC02892F97FB87F980588093AC028091BA
:1044E000AC020E946B2087E20E94B321C82F8EE1AC
:1044F0000E94B3218111C2608FE10E94B32181111A
:10450000C46080E20E94B3218111C86081E20E94F0
:10451000B3218111C06182E20E94B3218111C06286
:1045200083E20E94B3218111C06484E20E94B3211E
:10453000882341F1C0688C2F0E9462206C2F70E0AC
:1045400090E080E0CF910C94FC1C8EE00E94B3219F
:10455000882339F090914902892F8B7F92FF8460E4
:1045600049CF80E10E94B32190914902882329F02C
:10457000892F877F93FF88603DCF892F8E7F90FFA3
:10458000816038CFC111D7CF0E945E20682FD7CF6E
:10459000CF91089580914D0280FF12C06091060175
:1045A00085E0689FB00111247595679575956795AD
:1045B00060387105A8F561157105A1F1862F089580
:1045C00081FF09C06091060185E0689FB001112458
:1045D00075956795EDCF82FF07C06091060185E074
:1045E000689FB0011124E4CF20914E022223A9F04C
:1045F000909105016091060185E0689FB00111244A
:104600002917B0F6269FA001279F500D1124692F6E
:1046100070E0CA010E94B52DCBCF65E070E0CECF2F
:104620008FE7089581E0089580914D0280FF0CC0CE
:104630006091040170E075956795759567956115B2
:10464000710549F1862F089581FF06C0609104012C
:1046500070E075956795F3CF6091040182FD0BC002
:1046600090914E029923A1F0609103018091040181
:10467000961738F0682F70E06038710500F38FE707
:104680000895899FC001112470E00E94B52DF4CFD8
:1046900061E070E0D7CF81E00895803F31F40E945F
:1046A000CA228195809351020895813F19F40E9496
:1046B000CA22F8CF823F31F40E94CA2281958093AA
:1046C00050020895833F19F40E94CA22F8CF893F0F
:1046D00029F40E9414238093520208958A3F21F402
:1046E0000E9414238195F7CF8B3F31F40E9414234D
:1046F00081958093530208958C3F19F40E941423EE
:10470000F8CF843F31F480914F02816080934F0253
:104710000895853F21F480914F028260F7CF863F54
:1047200021F480914F028460F1CF873F21F4809182
:104730004F028860EBCF883F21F480914F02806167
:10474000E5CF8D3F31F480914D02816080934D0221
:1047500008958E3F21F480914D028260F7CF8F3F04
:10476000B9F780914D028460F1CF803FC1F4809110
:10477000510287FD109251028091500281110EC0AA
:104780008091510281110AC080915202811106C0AC
:1047900080915302811102C010924E020895813F10
:1047A00029F48091510218162CF3E6CF9091500213
:1047B000823F29F497FFE0CF10925002DDCF833F74
:1047C00019F41916CCF3D8CF893F39F480915202ED
:1047D000181694F610925202CFCF8A3F29F4809196
:1047E000520287FFC9CFF6CF8B3F39F48091530235
:1047F00087FFC2CF10925302BFCF8C3F29F4809124
:1048000053021816BCF3B8CF843F31F480914F02A5
:104810008E7F80934F02B0CF853F21F480914F026D
:104820008D7FF7CF863F21F480914F028B7FF1CFB0
:10483000873F21F480914F02877FEBCF883F21F49F
:1048400080914F028F7EE5CF8D3F31F480914D02F4
:104850008E7F80934D0290CF8E3F21F480914D0248
:104860008D7FF7CF8F3F09F087CF80914D028B7FEF
:10487000F0CF8FE492E00E943F140E94F9209093C1
:104880004C0280934B0208951F93CF93DF93809146
:104890004B0290914C020E940521AC0190914E0276
:1048A0002091070130E0911106C0209108018AE0B3
:1048B000289F900111244217530780F080915002E5
:1048C000C091510210915202D091530281110AC03D
:1048D000C11178C0111176C0D11174C0DF91CF9190
:1048E0001F9108959F3F19F09F5F90934E021816F5
:1048F00024F40E94CA22809350028091500287FFC4
:1049000005C00E94CA228195809350021C1624F48F
:104910000E94CA22809351028091510287FF05C0F4
:104920000E94CA22819580935102609150026623B1
:1049300031F1C0915102CC2311F1062E000C770BFE
:10494000880B990B0E94A82C23E333E343E35FE336
:104950000E940C2D0E94702C609350026C2FCC0F83
:10496000770B880B990B0E94A82C23E333E343E3D6
:104970005FE30E940C2D0E94702C6093510211166F
:1049800024F40E941423809352028091520287FFE4
:1049900005C00E9414238195809352021D1624F4B1
:1049A0000E941423809353028091530287FF05C015
:1049B0000E941423819580935302DF91CF911F9120
:1049C0000C9439249F3F09F08FCFA0CF85E0EFE40E
:1049D000F2E0DF011D928A95E9F710924E021092E3
:1049E0004D0208950E944A20811102C00E94242095
:1049F0000E9470208093AE0280FF03C086950C94C5
:104A00003D0B80E0FCCF8091AE02982F96959C30B4
:104A100030F49F5F990F8170892B8093AE02809153
:104A2000AE0281608093AE020E9474208091AE023B
:104A300086950C943D0B8091AE02982F9E7F79F065
:104A400082508093AE028E7F91E009F490E08091D5
:104A5000AE0290FB80F98093AE020E947420809198
:104A6000AE0286950C943D0B9091AE02892F8E7FFD
:104A700090FF81608093AE020E9474208091AE020C
:104A800080FF03C086950C943D0B80E0FCCF909195
:104A9000AE02892F86958F5F8F7791708D30B8F435
:104AA000880F892B8093AE028091AE028E7F91E0B9
:104AB00009F490E08091AE0290FB80F98093AE0201
:104AC0000E9474208091AE0286950C943D0B9093C9
:104AD000AE02EACF9091AE02292F26958227880F49
:104AE0009170982B9093AE029E7F21E009F420E014
:104AF0008091AE0220FB80F98093AE020E94742068
:104B00008091AE0286950C943D0B809174020895BD
:104B1000CF93DF9300D01F92CDB7DEB79C01809179
:104B2000B302843019F593E099833B832A839093F1
:104B3000E9008FEF9091E800815095FD06C095ED5A
:104B40009A95F1F700008111F5CF8091E80085FF7B
:104B50000DC050E040E063E070E0CE0101960E949D
:104B6000E5278091E8008E778093E8000F900F9002
:104B70000F90DF91CF910895CF93DF9300D01F92D4
:104B8000CDB7DEB72091B302243031F522E029837E
:104B9000805891099B838A8383E08093E9008FEF9B
:104BA0009091E800815095FD06C095ED9A95F1F73A
:104BB00000008111F5CF8091E80085FF0DC050E025
:104BC00040E063E070E0CE0101960E94E52780910D
:104BD000E8008E778093E8000F900F900F90DF91A0
:104BE000CF9108959C018091B3028430F9F482E062
:104BF0008093E9009FEF8091E800915085FD06C009
:104C000085ED8A95F1F700009111F5CF8091E800CC
:104C100085FF0CC050E040E065E070E0C9010E94F3
:104C2000E5278091E8008E778093E8000895CF9380
:104C3000DF93EC018091B3028430F1F49091130181
:104C40009923E9F09091AC0297FF19C08093E90095
:104C50008FEF9091E800815095FD06C095E19A95FF
:104C6000F1F700008111F5CF8091E80050E040E0BD
:104C700060E270E085FD1AC0DF91CF91089581E078
:104C80008093E9008FEF9091E800815095FD06C078
:104C900095ED9A95F1F700008111F5CF8091E8002C
:104CA00085FFEACF50E040E068E070E0CE010E946E
:104CB000E5278091E8008E778093E80080E2FE018E
:104CC000A4E5B2E001900D928A95E1F7D5CF8091ED
:104CD000B202811109C00E9475290E94D2298091D7
:104CE000E20084608093E20008951092B202089579
:104CF000089508950C94BF2042E061EC81E00E9489
:104D0000F32842E061EC82E00E94F32842E061EC8B
:104D100083E00E94F32842E261EC84E00C94F328E3
:104D20008091B502833009F455C030F4813071F1BF
:104D3000823009F491C008958A3009F47DC08B3027
:104D400009F463C0893009F044C08091B402813213
:104D500009F03FC08091B8029091B902009711F01C
:104D60000397B9F58091E800877F8093E8008091F0
:104D7000E80082FF2AC08091F10080937402809144
:104D8000E8008B778093E8000C9427298091B40287
:104D9000813AF9F48091E800877F8093E800809160
:104DA000B8029091B902892B61F460E284E592E047
:104DB00070E00E9434288091E8008B778093E800AF
:104DC000089560E090E080E0F3CF8091B30281111C
:104DD000CECF08958091B402813AD9F78091B8027C
:104DE0009091B902892BA9F78091E800877F809381
:104DF000E8008091E80080FFFCCF80911301809350
:104E0000F1008091E8008E77BDCF8091B4028132AD
:104E100001F78091B8029091B902892BD1F6809167
:104E2000E800877F8093E8000E9427298091B602DE
:104E3000809313010C9428198091B402813249F6B1
:104E40008091E800877F8093E8000E942729809165
:104E5000B7028093750208958091B402813A09F0F7
:104E6000B8CF8091E800877F8093E8008091E800C8
:104E700080FFFCCF80917502C2CF84B7877F84BF4B
:104E80000FB6F894A89580916000886180936000C7
:104E9000109260000FBE80E8809361001092610064
:104EA0000E9477140E9475290E94D2298091E20005
:104EB00084608093E20078940E94542C0E947914BC
:104EC00089E091E00E9423148091B302853029F09B
:104ED0000E9483140E94F013F7CF0E9479208091E2
:104EE000B102882389F30E94AA20882369F30E94D3
:104EF000CF27EACF292F33272330310579F158F412
:104F000021303105F1F02230310519F190E080E0D7
:104F100030E020E01AC02132310599F1223231050A
:104F2000A9F7643098F770E0FB01EE0FFF1FE15D19
:104F3000FE4F20813181655D7E4FFB01808190E0D5
:104F400004C082E190E026E531E1FA01318320835B
:104F500008958DE690E029EE30E1F7CF9927813072
:104F6000910561F028F0029789F6E9EBF0E102C0C3
:104F7000E5EEF0E1849190E09F01E7CFEDECF0E108
:104F8000F9CF643008F0C2CFE62FF0E0EE0FFF1F3C
:104F9000E95CFE4F2081318189E090E0D6CF80E14D
:104FA00089BD82E189BD09B400FEFDCF8091D800A2
:104FB0008F7D8093D8008091E00082608093E00034
:104FC0008091E00081FDFCCF0895AF92BF92CF9217
:104FD000DF92FF920F931F93CF93DF936C01EB014E
:104FE0008A010E944629F82E811123C0011511055E
:104FF00039F0F80180819181C81BD90BC80ED91EE8
:10500000B12CA12C2097A9F08091E80085FD22C049
:105010008091E8008E778093E80001151105A1F0DA
:10502000F80180819181A80EB91EB182A08285E02D
:10503000F82E8F2DDF91CF911F910F91FF90DF9070
:10504000CF90BF90AF9008950E9446298823D1F257
:10505000F82EEFCFF60181916F018093F100219737
:10506000FFEFAF1ABF0ACECFFC018091BA02909138
:10507000BB0286179707A0F06115710529F490917E
:10508000E8009E779093E80090E06115710551F477
:10509000911108C08091E80082FF35C080E008953A
:1050A000BC01F2CF8091B3028823C9F18530C9F1E8
:1050B0008091E80083FD31C08091E80082FDEACF55
:1050C0008091E80080FFE1CF2091F3008091F20011
:1050D000322F282F6115710519F02830310558F04D
:1050E00091E02830310509F090E02091E8002E771A
:1050F0002093E800CACF81918093F100615071093B
:105100002F5F3F4FE7CF8091B302882341F0853076
:1051100041F08091E80083FFBDCF81E0089582E0F7
:10512000089583E00895FC018091BA029091BB023A
:1051300086179707A0F06115710529F48091E800A2
:105140008E778093E80090E06115710551F491111C
:1051500008C08091E80082FF36C080E00895BC015D
:10516000F2CF8091B3028823D1F18530D1F18091C3
:10517000E80083FD32C08091E80082FDEACF809193
:10518000E80080FFE1CF2091F3008091F200322F00
:10519000282F6115710519F02830310558F091E07C
:1051A0002830310509F090E08091E8008E778093F7
:1051B000E800CACF84918093F10031966150710963
:1051C0002F5F3F4FE6CF8091B302882341F08530B7
:1051D00041F08091E80083FFBCCF81E0089582E038
:1051E000089583E00895982F973028F08F7080936A
:1051F000E90081E008959093E900242F762F50E094
:10520000981731F07091EC002091ED005091F00072
:1052100021FD02C09F5FE8CF3091EB003E7F3093CD
:10522000EB003091ED003D7F3093ED003091EB00CD
:1052300031603093EB007093EC002093ED005093BD
:10524000F0002091EE0027FDE5CF80E008958091E9
:10525000B40287FF13C08091E80082FF06C08091EE
:10526000E8008B778093E80004C08091B30281113D
:10527000F2CF08958091B3028823D9F38091E8009A
:1052800080FFF8CF8091E8008E77ECCF2091E4008A
:105290003091E50085E69091EC0090FF06C090917A
:1052A000E80090FF06C080E008959091E80092FD2C
:1052B000FACF9091B302992391F0953091F09091AB
:1052C000EB0095FD10C04091E4005091E5002417DB
:1052D000350709F381509A01F1F684E0089582E0E0
:1052E000089583E0089581E008950E94E3290E94D3
:1052F000EB29E0EEF0E0808181608083E8EDF0E072
:1053000080818F77808319BCA7EDB0E08C918E7F70
:105310008C9380818F7E80831092B20208950F93C8
:105320001F93CF93DF930E94E3290E94EB29C8EDDE
:10533000D0E088818F77888388818068888388819E
:105340008F7D888319BC1092B3021092AF02109225
:10535000B1021092B00200EE10E0F80180818B7F64
:10536000808388818160888342E060E080E00E94E1
:10537000F328E1EEF0E080818E7F8083E2EEF0E0C2
:10538000808181608083808188608083F801808152
:105390008E7F8083888180618883DF91CF911F9188
:1053A0000F910895E8EDF0E080818F7E8083E7ED36
:1053B000F0E080818160808384E082BF81E080931F
:1053C000B2020C948F29E8EDF0E080818E7F80831B
:1053D0001092E20008951092DA001092E100089510
:1053E0001F920F920FB60F9211242F933F934F935A
:1053F0005F936F937F938F939F93AF93BF93EF933D
:10540000FF938091E10082FF0BC08091E20082FF58
:1054100007C08091E1008B7F8093E1000E94532CB4
:105420008091DA0080FF19C08091D80080FF15C0FC
:105430008091DA008E7F8093DA008091D90080FF1E
:1054400094C080E189BD82E189BD09B400FEFDCF31
:1054500081E08093B3020E9467268091E10080FF83
:1054600019C08091E20080FF15C08091E2008E7F1C
:105470008093E2008091E20080618093E20080915D
:10548000D80080628093D80019BC85E08093B30275
:105490000E9479268091E10084FF29C08091E2007A
:1054A00084FF25C080E189BD82E189BD09B400FE89
:1054B000FDCF8091D8008F7D8093D8008091E1004E
:1054C0008F7E8093E1008091E2008F7E8093E200E6
:1054D0008091E20081608093E2008091AF02882396
:1054E00009F449C084E08093B3020E947A26809137
:1054F000E10083FF29C08091E20083FF25C08091F5
:10550000E100877F8093E10082E08093B3021092F4
:10551000AF028091E1008E7F8093E1008091E200F4
:105520008E7F8093E2008091E20080618093E200B0
:1055300042E060E080E00E94F3288091F000886003
:105540008093F0000E947826FF91EF91BF91AF9178
:105550009F918F917F916F915F914F913F912F918B
:105560000F900FBE0F901F90189519BC1092B302A8
:105570000E94752672CF8091E30087FD02C081E012
:10558000B2CF83E0B0CF1F920F920FB60F921124CB
:105590002F933F934F935F936F937F938F939F933B
:1055A000AF93BF93CF93EF93FF93C091E900CF7078
:1055B0008091EC001092E9008091F000877F809349
:1055C000F00078940E94FF2A1092E9008091F00088
:1055D00088608093F000C093E900FF91EF91CF9134
:1055E000BF91AF919F918F917F916F915F914F91FB
:1055F0003F912F910F900FBE0F901F9018951F9302
:10560000CF93DF93CDB7DEB7AA970FB6F894DEBF7E
:105610000FBECDBFE4EBF2E08091F100819322E078
:10562000EC3BF207C9F70E9490268091E80083FFC7
:1056300042C08091B4029091B5029A3008F03BC00C
:10564000E92FF0E0EA5DF44D0C94C92D302B542B7A
:105650005B2B542B5B2BAF2BD12B5B2B262C332CB2
:10566000803879F0823839F58091B8028F70809354
:10567000E9008091EB0085FB882780F91092E90012
:1056800006C08091B0029091B10291118260909118
:10569000E800977F9093E8008093F1001092F1006A
:1056A0008091E8008E772DC0282F2D7F21F488234C
:1056B000D1F0823059F18091E80083FF0AC08091D7
:1056C000E800877F8093E8008091EB008062809300
:1056D000EB00AA960FB6F894DEBF0FBECDBFDF91E8
:1056E000CF911F9108958091B602813021F79330B8
:1056F00009F080E08093B1021092E9008091E80007
:10570000877F8093E8000E942729D5CF8091B60239
:105710008111F2CF8091B8028F7069F28093E90015
:105720002091EB0020FFE8CF933031F48091EB0023
:1057300080628093EB00E0CF9091EB0090619093BA
:10574000EB0021E030E001C0220F8A95EAF72093B8
:10575000EA001092EA008091EB008860EACF8111A4
:10576000AACF1091B6021F778091E3008078812B39
:105770008093E3008091E800877F8093E8000E9497
:1057800027298091E80080FFFCCF8091E3008068AA
:105790008093E30083E0111101C082E08093B302A3
:1057A0008ACF8058823008F086CF8091B6029091DF
:1057B000B7028C3D23E09207A1F583E08A838AE259
:1057C00089834FB7F894DE01139620E03EE051E262
:1057D000E32FF0E050935700E49120FF03C0E295DF
:1057E000EF703F5FEF708E2F90E0EA30C0F0C79609
:1057F0008D939D932F5F243159F74FBF8091E8001F
:10580000877F8093E8006AE270E0CE0101960E94F3
:1058100034288091E8008B778093E8004CCFC096C5
:10582000E7CFAE014F5F5F4F6091B8020E947A27C9
:10583000BC01892B09F43FCF9091E800977F9093AA
:10584000E80089819A810E949328E3CF803809F08B
:1058500032CF8091E800877F8093E8008091AF028B
:105860008093F1001DCF811126CF9091B602923026
:1058700008F021CF8091E800877F8093E800909323
:10588000AF020E9427298091AF02882331F084E083
:105890008093B3020E947C260ECF8091E30087FDA7
:1058A000F6CF81E0F5CF0895CF938091B30288239E
:1058B00099F0C091E900CF708091EC0080FD0EC09E
:1058C00080E0C82B1092E9008091E80083FD0E94DF
:1058D000FF2ACF70C093E900CF91089580E8F1CFFF
:1058E0000E94772C6894B1110C94062D08950E94A3
:1058F000EB2C88F09F5798F0B92F9927B751B0F04B
:10590000E1F0660F771F881F991F1AF0BA95C9F743
:1059100014C0B13091F00E94052DB1E008950C94AF
:10592000052D672F782F8827B85F39F0B93FCCF362
:10593000869577956795B395D9F73EF490958095C0
:10594000709561957F4F8F4F9F4F0895E89409C0E0
:1059500097FB3EF490958095709561957F4F8F4FA2
:105960009F4F9923A9F0F92F96E9BB279395F695B8
:10597000879577956795B795F111F8CFFAF4BB0F36
:1059800011F460FF1BC06F5F7F4F8F4F9F4F16C09A
:10599000882311F096E911C0772321F09EE8872F24
:1059A000762F05C0662371F096E8862F70E060E0E0
:1059B0002AF09A95660F771F881FDAF7880F969559
:1059C000879597F9089557FD9058440F551F59F042
:1059D0005F3F71F04795880F97FB991F61F09F3FDC
:1059E00079F087950895121613061406551FF2CF05
:1059F0004695F1DF08C0161617061806991FF1CF55
:105A000086957105610508940895E894BB2766277B
:105A10007727CB0197F908950E941F2D0C94902DA4
:105A20000E94822D38F00E94892D20F0952311F0DC
:105A30000C94792D0C947F2D11240C94062D0E942A
:105A4000E32C70F3959FC1F3950F50E0551F629FB3
:105A5000F001729FBB27F00DB11D639FAA27F00DC7
:105A6000B11DAA1F649F6627B00DA11D661F829FEE
:105A70002227B00DA11D621F739FB00DA11D621FD3
:105A8000839FA00D611D221F749F3327A00D611DF0
:105A9000231F849F600D211D822F762F6A2F1124D2
:105AA0009F5750409AF0F1F088234AF0EE0FFF1F05
:105AB000BB1F661F771F881F91505040A9F79E3F5C
:105AC000510580F00C94792D0C94062D5F3FE4F382
:105AD000983ED4F3869577956795B795F795E795B2
