:100000000C9432090C9479090C9479090C947909AF
:100010000C9479090C9479090C9479090C94790958
:100020000C9479090C9479090C94042A0C94D62A1E
:100030000C9474240C9479090C9479090C94790922
:100040000C9479090C9479090C9479090C94790928
:100050000C9479090C94DC240C9479090C9479099A
:100060000C9479090C9479090C9479090C94790908
:100070000C9479090C9479090C9479090C947909F8
:100080000C9479090C9479090C9479090C947909E8
:100090000C9479090C9479090C9479090C947909D8
:1000A0000C9479090C9479090C947909F60AF80AE8
:1000B000030BFA0AFC0AFE0A000B020B050B070BE6
:1000C000090B140B0B0B0D0B0F0B110B130B160B5A
:1000D000591A591A8B1A8B1A101C101C101C101C40
:1000E000C91A101C6A1B6A1BDC1BE51B101C091CAF
:1000F000771B771B771B771B771B771B771B771B70
:10010000771B771B771B771B771B771B771B771B5F
:10011000881B961B9D1BA41BAE1B931C931CA51C2C
:10012000A51C9C1CA51CA51CA51C931C931CA11CF8
:10013000A51CA51CA11C432B6A2B5C2C6A2B5C2CD8
:10014000B62BD92B5C2C2F2C3E2C29003A003B00DF
:100150003C003D003E003F00430044004500460097
:1001600049004A004D004B004E0035001E001F00A4
:10017000200021002200230027002D002E004C002B
:100180002A0053005400550056002B0014001A009A
:100190000800150017001C00120013002F0030008B
:1001A00031005F0060006100560039000400160055
:1001B000070009000A000B000F0033003400320072
:1001C00028005C005D005E005700E10036021D0063
:1001D0001B00060019000500360037003800E50056
:1001E000520059005A005B005700E000E300E200B3
:1001F000000000002C000000E600015101515000F9
:1002000051004F00620063005800000000004000F1
:10021000240018000D00110010000E000C00250035
:100220004100260042000000000001000100010022
:1002300001000100010001000100010001000100B6
:1002400001000100010001000100010001000100A6
:100250000100010001000100010001000100010096
:10026000010001000100010001000100C25C520018
:10027000C35CC55CC65CC75CCA5C010001000100D0
:1002800001000100010001000100010050005100C7
:100290004F00010001000100010001000100010008
:1002A0000100010001000100010001003702005CB3
:1002B0000100BD5CBF5CBE5CA90001000100010043
:1002C0000100010001000100010001000100010026
:1002D0000000000001000000010001000100010019
:1002E0000100010001000100010000000000010008
:1002F0000100C85C0100AA00A8000100C95C01005F
:1003000001000100010000000000010001000100E7
:1003100001000100010001000100010001000100D5
:1003200001000100010001000100010001000100C5
:1003300001000100010001000100010001000100B5
:1003400001000100010001000100010001000100A5
:100350000100010001000100010001000100010095
:100360000100010001000100010001000100010085
:100370000100010001000100010001000100010075
:100380000100010001000100010001000100010065
:100390000100010001000100010001000100010055
:1003A0000100010001000100010001000100010045
:1003B0000000000001000000010001000100010038
:1003C0000100010001000100010000000000010027
:1003D0000100010001000100010001000100010015
:1003E0000100010001000000000001000100010007
:1003F00001000100010001000100010001000100F5
:1004000001000100010001000100010001000100E4
:1004100001000100010001000100010001000100D4
:1004200001000100010001000100010001000100C4
:1004300001000100010001000100010001000100B4
:1004400001000100010001000100010001000100A4
:100450000100010001000100010001000100010094
:100460000100010001000100010001000100010084
:100470000100010001000100010001000100010074
:100480000100010001000100010001000100010064
:100490000000000001000000010001000100010057
:1004A0000100010001000100010000000000010046
:1004B0000100010001000100010001000100010034
:1004C0000100010001000000000001000100010026
:1004D0000100010001000100010001000100010014
:1004E0000100010001000100010001000100010004
:1004F00001000100010001000100010001000100F4
:1005000001000100010001000100010001000100E3
:1005100001000100010001000100010001000100D3
:1005200001000100010001000100010001000100C3
:1005300001000100010001000100010001000100B3
:1005400001000100010001000100010001000100A3
:100550000100010001000100010001000100010093
:100560000100010001000100010001000100010083
:100570000000000001000000010001000100010076
:100580000100010001000100010000000000010065
:100590000100010001000100010001000100010053
:1005A0000100010001000000000001000100010045
:1005B0000100010001000100010001000100010033
:1005C0000100010001000100010001000100010023
:1005D0000100010001000100010001000100010013
:1005E0000100010001000100010001000100010003
:1005F00001000100010001000100010001000100F3
:1006000001000100010001000100010001000100E2
:1006100001000100010001000100010001000100D2
:1006200001000100010001000100010001000100C2
:1006300001000100010001000100010001000100B2
:1006400001000100010001000100010001000100A2
:100650000000000001000000010001000100010095
:100660000100010001000100010000000000010084
:100670000100010001000100010001000100010072
:100680000100010001000000000001000100010064
:100690000100010001000100010001000100010052
:1006A0000100010001000100010001000100010042
:1006B0000100010001000100010001000100010032
:1006C0000100010001000100010001000100010022
:1006D0000100010001000100010001000100010012
:1006E0000100010001000100010001000100010002
:1006F00001000100010001000100010001000100F2
:1007000001000100010001000100010001000100E1
:1007100001000100010001000100010001000100D1
:1007200001000100010001000100010001000100C1
:1007300000000000010000000100010001000100B4
:1007400001000100010001000100000000000100A3
:100750000100010001000100010001000100010091
:100760000100010001000000000001000100010083
:100770000100010001000100010001000100010071
:100780000100010001000100010001000100010061
:100790000100010001000100010001000100010051
:1007A0000100010001000100010001000100010041
:1007B0000100010001000100010001000100010031
:1007C0000100010001000100010001000100010021
:1007D0000100010001000100010001000100010011
:1007E0000100010001000100010001000100010001
:1007F00001000100010001000100010001000100F1
:1008000001000100010001000100010001000100E0
:1008100000000000010000000100010001000100D3
:1008200001000100010001000100000000000100C2
:1008300001000100010001000100010001000100B0
:1008400001000100010000000000010001000100A2
:100850000100010001000100010001000100010090
:100860000100010001000100010001000100010080
:100870000100010001000100010001000100010070
:100880000100010001000100010001000100010060
:100890000100010001000100010001000100010050
:1008A0000100010001000100010001000100010040
:1008B0000100010001000100010001000100010030
:1008C0000100010001000100010001000100010020
:1008D0000100010001000100010001000100010010
:1008E0000100010001000100010001000100010000
:1008F00000000000010000000100010001000100F3
:1009000001000100010001000100000000000100E1
:1009100001000100010001000100010001000100CF
:1009200001000100010000000000010001000100C1
:1009300001000100010001000100010001000100AF
:10094000010001000100010001000100010001009F
:10095000010001000100010001000100010001008F
:10096000010001000100010001000100010001007F
:10097000010001000100010001000100010001006F
:10098000010001000100010001000100010001005F
:10099000010001000100010001000100010001004F
:1009A000010001000100010001000100010001003F
:1009B000010001000100010001000100010001002F
:1009C000010001000100010001000100010001001F
:1009D0000000000001000000010001000100010012
:1009E0000100010001000100010000000000010001
:1009F00001000100010001000100010001000100EF
:100A000001000100010000000000010001000100E0
:100A100001000100010001000100010001000100CE
:100A200001000100010001000100010001000100BE
:100A300001000100010001000100010001000100AE
:100A4000010001000100010001000100010001009E
:100A5000010001000100010001000100010001008E
:100A6000010001000100010001000100010001007E
:100A7000010001000100010001000100010001006E
:100A8000010001000100010001000100010001005E
:100A9000010001000100010001000100010001004E
:100AA000010001000100010001000100010001003E
:100AB0000000000001000000010001000100010031
:100AC0000100010001000100010000000000010020
:100AD000010001000100010001000100010001000E
:100AE0000100010001000000000001000100010000
:100AF00001000100010001000100010001000100EE
:100B000001000100010001000100010001000100DD
:100B100001000100010001000100010001000100CD
:100B200001000100010001000100010001000100BD
:100B300001000100010001000100010001000100AD
:100B4000010001000100010001000100010001009D
:100B5000010001000100010001000100010001008D
:100B6000010001000100010001000100010001007D
:100B7000010001000100010001000100010001006D
:100B8000010001000100010001000100010001005D
:100B90000000000001000000010001000100010050
:100BA000010001000100010001000000000001003F
:100BB000010001000100010001000100010001002D
:100BC000010001000100000000000100010001001F
:100BD000010001000100010001000100010001000D
:100BE00001000100010001000100010001000100FD
:100BF00001000100010001000100010001000100ED
:100C000001000100010001000100010001000100DC
:100C100001000100010001000100010001000100CC
:100C200001000100010001000100010001000100BC
:100C300001000100010001000100010001000100AC
:100C4000010001000100010001000100010001009C
:100C5000010001000100010001000100010001008C
:100C6000010001000100010001000100010001007C
:100C7000000000000100000001000100010001006F
:100C8000010001000100010001000000000001005E
:100C9000010001000100010001000100010001004C
:100CA000010001000100000000000100010001003E
:100CB000010001000100010001000100010001002C
:100CC000010001000100010001000100010001001C
:100CD000010001000100010001000100010001000C
:100CE00001000100010001000100010001000100FC
:100CF00001000100010001000100010001000100EC
:100D000001000100010001000100010001000100DB
:100D100001000100010001000100010001000100CB
:100D200001000100010001000100010001000100BB
:100D300001000100010001000100010001000100AB
:100D4000010001000100010001000100010001009B
:100D5000000000000100000001000100010001008E
:100D6000010001000100010001000000000001007D
:100D7000010001000100010001000100010001006B
:100D8000010001000100000000000100010001005D
:100D9000010001000100010001000100010001004B
:100DA000010001000100010001000100010001003B
:100DB000010001000100010001000100010001002B
:100DC000010001000100010001000100010001001B
:100DD000010001000100010001000100010001000B
:100DE00001000100010001000100010001000100FB
:100DF00001000100010001000100010001000100EB
:100E000001000100010001000100010001000100DA
:100E100001000100010001000100010001000100CA
:100E200001000100010001000100010001000100BA
:100E300000000000010000000100010001000100AD
:100E4000010001000100010001000000000001009C
:100E5000010001000100010001000100010001008A
:100E6000010001000100000000000100010001007C
:100E7000010001000100010001000100010001006A
:100E8000010001000100010001000100010001005A
:100E9000010001000100010001000100010001004A
:100EA000010001000100010001000100010001003A
:100EB000010001000100010001000100010001002A
:100EC000010001000100010001000100010001001A
:100ED000010001000100010001000100010001000A
:100EE00001000100010001000100010001000100FA
:100EF00001000100010001000100010001000100EA
:100F000001000100010001000100010001000100D9
:100F100000000000010000000100010001000100CC
:100F200001000100010001000100000000000100BB
:100F300001000100010001000100010001000100A9
:100F40000100010001000000000000047F3F1F6459
:100F50003214643214783C1E1E140A0522232526FE
:100F600028292A2C2D2F3032333536383A3B3D3E56
:100F70004042434547494A4C4E5051535557595AA0
:100F80005C5E6062646668696B6D6F7173757779BA
:100F90007B7D7F81838587898A8C8E9092949698B9
:100FA0009A9C9E9FA1A3A5A7A8AAACAEAFB1B3B4CB
:100FB000B6B8B9BBBCBEBFC1C2C3C5C6C7C9CACB20
:100FC000CCCDCED0D1D2D2D3D4D5D6D7D7D8D9D9EB
:100FD000DADADBDBDBDCDCDCDCDCDDDDDDDDDCDC54
:100FE000DCDCDCDBDBDBDADAD9D9D8D7D7D6D5D471
:100FF000D3D2D2D1D0CECDCCCBCAC9C7C6C5C3C23D
:10100000C1BFBEBCBBB9B8B6B4B3B1AFAEACAAA891
:10101000A7A5A3A19F9E9C9A98969492908E8C8A45
:1010200089878583817F7D7B79777573716F6D6B20
:101030006968666462605E5C5A5957555351504EF8
:101040004C4A4947454342403E3D3B3A38363533AA
:1010500032302F2D2C2A292826252322FFAA7F551E
:10106000400000000000000000000001010101013B
:101070000101010102020202020202020303030350
:101080000303030404040404050505050506060618
:10109000060607070707080808080909090A0A0ACF
:1010A0000B0B0B0C0C0C0D0D0D0E0E0E0F0F10106C
:1010B00010111112121313141415151616171718F0
:1010C0001819191A1A1B1C1C1D1D1E1F1F20212157
:1010D00022232324252526272828292A2B2C2C2D9A
:1010E0002E2F30313132333435363738393A3B3CB4
:1010F0003D3E3F404142434445464748494B4C4DA5
:101100004E4F50525354555758595A5C5D5E60616A
:1011100063646567686A6B6C6E6F717274767779F9
:101120007A7C7D7F8182848687898B8D8E90929454
:101130009597999B9D9FA1A2A4A6A8AAACAEB0B278
:10114000B4B6B9BBBDBFC1C3C5C8CACCCED0D3D558
:10115000D7DADCDEE1E3E6E8EAEDEFF2F4F7F9FCFA
:10116000FF0403300000001E036B0065007900627D
:10117000006F007200610064003900360073006582
:10118000007400520000000E0364007A00740065D1
:10119000006300680000000403090409023B000228
:1011A0000100A0FA09040000010301010009211156
:1011B0000100012240000705810308000A0904011B
:1011C000000103000000092111010001223B00077A
:1011D00005820320000A1201100100000008EDFE44
:1011E000606001000102030105010906A1018505F6
:1011F000050719E029E71500250195087501810209
:1012000005081901290595057501910295017503D8
:1012100091010507190029EF1500250195F07501C9
:101220008102C005010906A101050719E029E7159A
:101230000025019508750181029501750881010558
:10124000081901290595057501910295017503910C
:10125000010507190029FF150026FF0095067508EE
:101260008100C00011241FBECFEFDAE0DEBFCDBF8A
:1012700004B603FE27C08091B6029091B702A091F8
:10128000B802B091B9028730904BA740B04BD1F46F
:101290001092B6021092B7021092B8021092B902E0
:1012A00014BE84B7877F84BF0FB6F894A895809149
:1012B0006000886180936000109260000FBEE0E0E3
:1012C000F8E3099511E0A0E0B1E0E2ECFAE502C034
:1012D00005900D92AA35B107D9F722E0AAE5B1E051
:1012E00001C01D92A63BB207E1F70E9426270C948D
:1012F0005F2D0C9400000C9482090C94830980E00B
:1013000090E008950895089581E00895089581E09A
:1013100008950C9484091F93CF93DF9300D000D0DD
:101320001F92CDB7DEB749835A832091A0018981EE
:101330009A81211112C0662349F00E94B821182F0A
:10134000682F89819A810E945D2103C00E948C21AF
:10135000182F69817A81812F04C00E94B821698188
:101360007A810F900F900F900F900F90DF91CF9197
:101370001F910C94840CFC01408151816281738126
:1013800084810C948B090E94890F8FE39CE901975B
:10139000F1F700C000000E94890F80E00E94340F26
:1013A00080FF04C00E94E8220C94022508950C944A
:1013B0007D09E82FE295EF70F0E032A1282F2F7021
:1013C00081E090E001C0880F2A95EAF78095832399
:1013D00082A30895CF92DF92EF92FF928D3030F486
:1013E000811105C0909180009F7D04C08CE0909198
:1013F0008000906290938000282F30E0AFEFBFEF25
:101400000E94F02C2CE030E040E050E00E94C82C1C
:101410002C3784E138074105510530F4C90169E0F2
:1014200070E00E94A02C29C0DA01C9018A50974DB2
:10143000AF4FBF4F6627782F892F9A2F25EF38E2BD
:1014400041E050E00E94C82C69017A01CA01B9014B
:101450000E94902C9B01AC01C701B6010E94902C08
:10146000BB27A92F982F872F009721E0A207B1054E
:1014700011F0BC0102C06FEF7FEF70938B0060939F
:101480008A00FF90EF90DF90CF900895269A86E330
:101490000E94D90982E28093800089E180938100D3
:1014A0008FEF9FEF90938700809386000C943F25E9
:1014B0000E94C3090E94EE22811102C00E94712382
:1014C0000E94460A0C947B090C9486090C94640AC9
:1014D00008950E94831C0E94680A2FEF84E39CE019
:1014E000215080409040E1F700C000000C9402259C
:1014F0000F931F93CF93DF938C010E94BB09EC01E4
:10150000B8010E948909882309F4F7C1B801CE0106
:101510000E94E216882309F4F0C1CA3CFCE5DF070B
:1015200041F4F8018281882309F4E7C10E94201365
:10153000E4C1CB3C8CE5D80708F012C1C33C9CE564
:10154000D90761F4F8018281882309F4D6C10E9489
:1015500038228272E1F00E944B15CFC1C43CECE509
:10156000DE07C0F0C63C9CE5D90709F4CAC008F004
:10157000DCC0C43CFCE5DF0709F0CBC0F801828188
:10158000882309F4BAC10E943822827221F30E9492
:101590003E15B3C1C531FCE5DF0708F07BC0C230A2
:1015A0008CE5D80708F452C0F8018281882309F439
:1015B00054C00E94EE22811102C00E9471230E9439
:1015C000012390E09093A7028093A602FE01E350CE
:1015D000FC45E231F10530F4EA5AFF4F8091A60252
:1015E0000C94EA2C8091A602816027C0826025C0FD
:1015F000846023C0806121C080621FC080641DC0E0
:1016000080681BC08460886018C08E7F16C08D7F84
:1016100014C08B7F12C08F7E10C08F7D0EC08F7B59
:101620000CC08F770AC08B7F877F07C087FB22277C
:1016300020F991E0922790FB87F98093A602809190
:10164000A6020E9405230E94831C57C1C1159CE578
:10165000D90751F0C130DC4579F0C801DF91CF9155
:101660001F910F910C948709F8018281882309F456
:1016700044C10E94690A41C1F8018281882309F4AA
:101680003CC180914C02982F909590FB80F98093FB
:101690004C0233C1C631FCE5DF0739F50E94382220
:1016A000282FF80182814091100150911101882367
:1016B00079F02A7A91E009F490E090935A0191111F
:1016C00002C069E201C065E3CA010E94D8230AC0D2
:1016D00080915A01811102C069E201C065E3CA012B
:1016E0000E94E3230E94842208C1C23CDC4509F029
:1016F000B4CFF8018281882309F4FFC00E945915F4
:10170000FCC0F8018281882309F4F7C00E94E4122A
:10171000F4C0C53CDC4509F0A0CFF80182818823E4
:1017200009F4EBC00E94D712E8C0F8018281C83CDE
:10173000FCE5DF0731F4882309F4DFC00E940213BF
:10174000DCC0C93CDC4530F4882309F4D6C00E94D3
:10175000F312D3C0882309F4D0C00E941113CDC066
:10176000C13DECE5DE0791F4F8018281882309F49C
:10177000C4C00E9452118F3028F00E94521184314F
:1017800008F405CF8FE00E944E15B7C0C23DFCE5BE
:10179000DF0708F05AC0CD3C8CE5D80739F4F801D2
:1017A0008281882309F4A9C081E0EDCFCE3C9CE57D
:1017B000D907C0F4CB3CECE5DE0741F4F8018281A7
:1017C000882309F49AC00E945A1197C0CC3CDC458A
:1017D00009F043CFF8018281882309F48EC00E946A
:1017E0006B118BC0F8018281CF3CFCE5DF0771F4FF
:1017F000882309F482C00E945211863028F00E948A
:101800005211883008F4C3CE86E0BDCFC03DDC4520
:1018100070F4882309F471C00E945211823028F0BC
:101820000E945211853008F4B2CE82E0ACCF8823FA
:1018300009F463C00E945211893028F00E945211AD
:101840008E3008F4A4CE89E09ECFC53DECE5DE07DE
:1018500039F4F8018281882309F44FC083E293CFE1
:10186000C63DFCE5DF0740F5F8018281C33DFCE59C
:10187000DF0729F4882309F440C088E184CFC43D00
:10188000DC4568F48823C9F10E945211853128F0A3
:101890000E945211873108F47ACE85E174CF8823F3
:1018A00061F10E945211893128F00E945211823256
:1018B00008F46DCE89E167CFCD3DECE5DE0741F45C
:1018C000F80182818823C9F082E00E94C72715C0F1
:1018D000CE3DFCE5DF0739F4F8018281882369F009
:1018E0000E9471230AC0CC3DDC4509F0B6CEF80158
:1018F0008281882311F080E0E8CF80E0DF91CF91F2
:101900001F910F9108950895E72FF0E097E0899FC8
:10191000E00DF11D112484E0EE0FFF1F8A95E1F721
:10192000E60FF11DEE0FFF1FE65BFE4F85919491D0
:101930000895880F991FFC01E65BF04F8591949103
:101940000895CF93DF930E94840C0E94940EEC01C3
:10195000811521E5920708F042C0811560E59607E0
:1019600008F031C1883E910500F5803E910508F0F0
:10197000D7C1883A910570F4853A910508F0A6C060
:101980008130910509F4CCC108F47DC1049708F0B9
:10199000C7C179C18F3B910508F4A3C0803C910574
:1019A00008F471C1805C9109FDC0C11580E3D807BE
:1019B00080F4C11590E2D90708F0F2C0C03FD1050C
:1019C00008F461C1CF3FD10511F008F0A9C1D0657D
:1019D000A7C1C11520E4D20708F0F2C0E7C0811505
:1019E00069E5960760F5C11588E5D80708F037C1A5
:1019F000C11594E5D90778F4C11523E5D20708F09D
:101A000013C1C11562E5D60708F0F8C0DC2FCC275A
:101A1000C16FD06A85C1C11585E5D80708F41AC120
:101A2000C11596E5D90708F02EC18C2F0E94110F21
:101A30008F71C82FD0E0DC2FCC27D06271C18D3BD5
:101A40002CE5920709F416C1F0F4CB3B8CE5D807DE
:101A500009F40AC108F00BC1C1152AE5D20708F044
:101A600012C18C2F8F700E94110F94E0D695C795EC
:101A70009A95E1F7CF70D0E0DC2FCC27D06A8F7039
:101A8000806EC82B4DC1803C9C4509F4F9C0C13C17
:101A90008CE5D80760F4CE3B9CE5D90709F4EDC08E
:101AA000CF3BDC4509F0EFC0C0E0D2ED39C1CE013B
:101AB00090568115904208F0E6C08D2F8F710E94DC
:101AC000110FDD27D0628F71D82B2AC1853A91057D
:101AD00009F4DCC0863A910509F0DBC0C2E8D0E425
:101AE0001FC1883A910509F4D7C0893A910509F4D4
:101AF000D6C08A3A910509F4D5C08B3A910509F40C
:101B0000D4C08C3A910509F4D3C08B3B910509F4FC
:101B1000D2C08C3B910509F4D1C08D3A910509F4EE
:101B2000D0C0803B910509F4CFC08E3A910509F4ED
:101B3000CEC08F3A910509F4CDC0813B910509F4DF
:101B4000CCC0823B910509F4CBC0833B910509F4DD
:101B5000CAC0843B910509F4C9C0853B910509F4CD
:101B6000C8C0863B910509F4C7C0873B910509F4BD
:101B7000C6C0883B910509F4C5C0893B910509F4AD
:101B8000C4C08D3B910509F4C3C08E3B910509F497
:101B9000C2C08A3B910509F4C1C0C0E0D4E4C0C012
:101BA000CE019F700E94990CEC01BAC0CE0199271A
:101BB000D3FF03C0EC01D86CB3C0EC01D06CB0C053
:101BC000DF70D06AADC0837021E030E002C0220F28
:101BD000331F8A95E2F73C68CE0174E096958795AD
:101BE0007A95E1F78370382BCF70C695C69580E261
:101BF000C89FE0011124C22BD32B92C04C2F4695D5
:101C0000469590E2499FA0011124C370DD2721E091
:101C100030E0C90102C0880F991FCA95E2F7EC01B4
:101C2000C42BD52BDC687CC04C2F4695469580E2B2
:101C3000489FA0011124C370DD2721E030E0C901D5
:101C400002C0880F991FCA95E2F7EC01C42BD52B6F
:101C5000DA6866C0DC2FCC27C46FD06A61C0DC2F85
:101C6000CC27C06FD06A5CC0C0E0D4ED59C0C0E0E2
:101C7000D5ED56C0C0E0D1ED53C0C0E0D0ED50C0AE
:101C8000C0E0D3ED4DC0C0E0D0E04AC0C1E8D0E430
:101C900047C0C3E8D0E444C0C2EED4E441C0C9EEBA
:101CA000D4E43EC0CAEED4E43BC0C5EBD4E438C0B3
:101CB000C6EBD4E435C0C3EBD4E432C0C4EBD4E407
:101CC0002FC0C7EBD4E42CC0CCECD4E429C0CDECBD
:101CD000D4E426C0C3E8D5E423C0CAE8D5E420C0D4
:101CE000C2E9D5E41DC0C4E9D5E41AC0C1E2D6E416
:101CF00017C0C3E2D6E414C0C4E2D6E411C0C5E202
:101D0000D6E40EC0C6E2D6E40BC0C7E2D6E408C0F3
:101D1000CFE6D4E405C0C0E7D4E402C0CAE2D6E40A
:101D2000CE01DF91CF9108958238910549F1B0F449
:101D30008133910509F458C048F48932910509F4BA
:101D40004EC08A32910509F454C008958533910537
:101D500009F440C08933910599F00895833E9105B7
:101D600029F138F4803E910591F0823E9105A1F071
:101D70000895863E9105F9F0873E910531F1089569
:101D80002091A60220FD3AC021FD38C0089580911F
:101D9000A60280FD35C032C08091A60282FF32C00B
:101DA0008091A60284FD30C083EE39C08091A602E6
:101DB00082FD28C0F5CF8091A60283FF27C08091C5
:101DC000A60284FD21C087EE2AC08091A60283FD71
:101DD0001DC0F5CF8091A60285FD1AC01BC0809161
:101DE000A60285FD17C014C08091A60286FD14C00E
:101DF00015C08091A60286FD11C00EC080EE0FC0F6
:101E000089E30DC082EE0BC080E009C086EE07C0FA
:101E100089E205C085E303C08AE201C081E390E066
:101E200008959091A60292FF0DC0282F28712830A6
:101E300019F4877F846006C0282F2471243011F4A0
:101E40008B7F886093FF0DC0282F2871283119F4EB
:101E5000877E846106C0282F2471243111F48B7E83
:101E6000886194FD877E0895E82FF0E0EE0FFF1F54
:101E7000E55AFE4F8081918108950895ADE2B1E069
:101E800041E050E027E02A0F8D91E82FE295EF70B6
:101E9000F0E031A18F70BA0102C0660F771F8A95FA
:101EA000E2F7CB01962F9095932391A392A1892BD2
:101EB00082A32A13E9CFADE1B1E041E050E020E197
:101EC0002A0F8D91E82FE295EF70F0E031A18F702D
:101ED000BA0102C0660F771F8A95E2F7CB01962FF1
:101EE0009095932391A392A1892B82A32A13E9CFE2
:101EF000E9E6F1E0ABE5B1E0119211921D921D927D
:101F000071E0E737F707C1F787E00E9420100C94D3
:101F1000580A5F926F927F928F929F92AF92BF9278
:101F2000CF92DF92EF92FF920F931F93CF93DF93A5
:101F30000DE211E0A9E6B1E0612CEE24E394F12C6E
:101F40005D018D909C90119711961C921E92E80154
:101F500089918E01E82FE295EF70F0E091A18F70EA
:101F6000A70101C0440F8A95EAF7892F842B81A32A
:101F700082A1542E5094852182A3D0EADA95F1F7FC
:101F80008DE1C82E81E0D82E80E090E0E6017990C6
:101F90006E01272D22952F7030E0E90168A12D9167
:101FA0003C91119770E0D72DDF7002C07595679551
:101FB000DA95E2F760FD08C0B701082E02C0660F8F
:101FC000771F0A94E2F702C060E070E0262B372BFF
:101FD00011963C932E93019680319105B9F681A11B
:101FE000D52DD823D1A382A1482B42A3129681E0FC
:101FF000F501208131818216930609F480E0682A78
:10200000F1E0A737BF0709F09BCF262D47E06BE52E
:1020100071E089E691E00E9421100E94D709862D87
:10202000DF91CF911F910F91FF90EF90DF90CF90B4
:10203000BF90AF909F908F907F906F905F9008952A
:102040000895FF920F931F93CF93DF93F82E092FDC
:10205000162FD72FC42F222349F081E080937901D6
:102060000E94A62490937801809377018091790152
:102070008823D9F080917701909178010E94B22451
:10208000069798F0EF2DF02FA12FBD2F80E090E064
:102090004C2F50E08417950734F4219131912D9302
:1020A0003D930196F7CF10927901DF91CF911F9167
:1020B0000F91FF900895CF92DF92EF92FF920F93CE
:1020C0001F93CF93DF937B01282F382FE82FF0E069
:1020D000F11006C0EF59FF4E6491762F862F7BC01A
:1020E0000F2D10E046E0649FC0011124CFEFD0E037
:1020F000BE010E94A02CAB016BEA6403C001659F86
:10210000900D11248E0D911D8E0D911D982F990FFC
:10211000890FBE01601B710B6E9FD0016F9FB00DC8
:102120007E9FB00D11249B2F8F9DB0011124672F2E
:1021300077277E01E61AF70AEE9EB001EF9E700D3A
:10214000FE9E700D11246E01C81AD108C09E700148
:10215000C19EF00CD09EF00C11240F2D1127C01B36
:10216000D10BCE9F8001CF9F100DDE9F100D11244B
:10217000812F4230510591F04CF441155105E1F0A9
:1021800041305105B9F4822F272F16C04430510534
:1021900069F044F04630510579F00CC0822F2B2FA6
:1021A000912F0AC02B2F932F872F06C08B2F922F92
:1021B000212F02C08B2F972FE22FF0E0EF59FF4E17
:1021C0007491E82FF0E0EF59FF4E6491E92FF0E0B1
:1021D000EF59FF4E8491DF91CF911F910F91FF90A6
:1021E000EF90DF90CF9008950895CF93DF93762FEF
:1021F000E901682F842F0E945B10798368838A83AA
:10220000DF91CF910895493C08F048EC0C94F5100B
:1022100080917302282F269530E02115310519F49D
:102220008170826005C02532310524F08170886498
:102230008093730280917602893C18F088EC809339
:102240007602089588E090E00C941F2DCF93DF93E1
:1022500000D000D0CDB7DEB7AB01BC0149835A83B3
:102260006B837C830E94081149815A816B817C8138
:1022700088E090E00F900F900F900F90DF91CF913A
:102280000C943D2DE3E7F2E083E0808311828FEF31
:10229000828388EC8383148260817181828193813F
:1022A0000C9426118091730280FF02C086950895D8
:1022B00080E0089580917702833018F48F5F8093D7
:1022C000770260917302709174028091750290910F
:1022D00076020C94261180917702882319F08150A0
:1022E00080937702609173027091740280917502FD
:1022F000909176020C9426116091040170E0809117
:10230000730280FF0AC080917E0123E0829FC0019A
:10231000112488589D4F0C94721680917D019091E4
:102320000301891780F7E82FF0E09F01220F331F88
:10233000E20FF31FE858FD4F1182108212828F5F67
:10234000F0CF9091730290FF16C090917D01209183
:102350000301921770F4E92FF0E0DF01AA0FBB1F11
:10236000EA0FFB1FE858FD4F8183608342839F5F24
:10237000F0CF0C947C110895CF93DF9300D01F927F
:10238000CDB7DEB79091730290FF0AC09E012F5F18
:102390003F4F0E9403114B8169818A810E94A111E4
:1023A0000F900F900F90DF91CF910895CF93DF930F
:1023B000EC01EC81F0E0E45AF04F4491E3E7F2E005
:1023C000628181810E94BC118C818F5F8C83DF913F
:1023D000CF910895CF93DF93EC01E3E7F2E04381DF
:1023E00062818C810E94BC118C818F5F8C83DF9114
:1023F000CF9108950F931F93CF93DF9300D01F9237
:10240000CDB7DEB78C0180917A0181110AC09E019F
:102410002F5F3F4F48EC6FEF0E9403118A8180933A
:102420007A01F8018481813051F028F0823061F422
:1024300040917A010AC080917A0140E007C0609122
:102440007A0140E080E003C040E080E060E00E946C
:10245000A111F801248130E0C901019663E070E028
:102460000E94B42C84830F900F900F90DF91CF9136
:102470001F910F910895AF92BF92CF92DF92EF928A
:10248000FF920F931F93CF93DF9300D01F92CDB78E
:10249000DEB7182FF62E042FE22E9091730290FFD4
:1024A0006EC0E92FE695AE2FB0E0AC5CBE4F8C91CC
:1024B000809386019E7F923061F49E012F5F3F4F93
:1024C000812F0E9403114B8169818A810E94A11191
:1024D00044C0823019F4009176023FC0863019F46E
:1024E000109174023AC08930D9F38931B1F5E951BC
:1024F0008E2F8170D82EE695F0E0E45AFF4EA5901D
:10250000B490C12CBB2460910201C61620F5EC2DBD
:10251000F0E0EA9DC001EB9D900DFA9D900D112415
:1025200070E00E94A02C812FD11002C0860F01C044
:10253000861B90917D01E90FF11D9F01220F331F32
:10254000E20FF31F9F0128583D4F402F6F2D0E942F
:102550000311C394D8CF0E947C1110937402F0929F
:10256000750200937602EE2051F060917302709133
:10257000740280917502909176020E9426110F904C
:102580000F900F90DF91CF911F910F91FF90EF90DF
:10259000DF90CF90BF90AF900895E3E7F2E0918194
:1025A000282F4381628188E0890F0C943B1281E0DF
:1025B0000C94CD12E3E7F2E09181282F43816281F0
:1025C00088EF890F0C943B1281E00C94DA12E3E758
:1025D000F2E0628128E0620F08F46FEF282F438158
:1025E00081810C943B1281E00C94E712E3E7F2E066
:1025F000628128E0621B08F460E0282F438181811A
:102600000C943B1281E00C94F612E3E7F2E0438174
:1026100028E0420F08F44FEF282F628181810C944B
:102620003B1281E00C940513E3E7F2E0438128E0DC
:10263000421B08F440E0282F628181810C943B12F8
:1026400081E00C94141320E00C943B12FF920F9342
:102650001F93CF93DF93EC01F12C0FEF10E060910B
:102660000201F616E8F420917D0130E02F0D311DB6
:10267000C901880F991F280F391F28583D4F70E056
:10268000C8010E94B42C962F8C81409176026091F3
:102690007502F99E800D11240E940311F394DFCF7F
:1026A0000E947C119A818C8190FF02C08F5F01C0D3
:1026B00081508C83DF91CF911F910F91FF900895EE
:1026C000BF92CF92DF92EF92FF920F931F93CF931F
:1026D000DF93FC01828180FF02C00FEF01C001E0A7
:1026E00010E0809102011817E0F5C12ED12C8091E5
:1026F0007D01E601C80FD11DCE01880F991FC80FBB
:10270000D91FC858DD4F198218821A8234E0E32E8F
:10271000F12CB12C80917C018B0D87FF03C090912F
:102720000201890F082E000C990BC816D90691F4E6
:10273000809176028E9DA0018F9D500D112455959C
:102740004795559547959E01609175028091740259
:102750000E940311B00EF1E0EF1AF108D9F61F5FE5
:10276000C0CF0E947C1180917C01013031F4811135
:1027700002C080910201815007C090E001966091F3
:10278000020170E00E94B42C80937C01DF91CF9114
:102790001F910F91FF90EF90DF90CF90BF90089521
:1027A000CF9380917D0190910301891770F4E82FF8
:1027B000F0E09F01220F331FE20FF31FE858FD4F97
:1027C0001182108212828F5FF0CFC0E0609102010F
:1027D000C617B8F5EC2FF0E070E0CF010E94B42CE2
:1027E00040917D01480F80917B01082E000C990BD0
:1027F00050E0E817F907C4F020910101022E000C07
:10280000330B2E173F0784F09A01220F331F240F3A
:10281000351F28583D4F4091760260917502809196
:1028200074020E9403110BC0FA01EE0FFF1F4E0F3E
:102830005F1FFA01E858FD4F118210821282CF5FAC
:10284000C5CF0E947C112091000180917B01820FF5
:1028500080937B0190910101920F909301011916D1
:102860005CF4082E000C990B4091020150E041509D
:102870005109841795071CF0219520930001CF91F1
:1028800008950F931F93CF93DF938C01FC018481F4
:10289000958101968170992795838483C0E0D5E561
:1028A00080910201C817F8F420917D0130E02C0FCF
:1028B000311DC901880F991F280F391F28583D4F16
:1028C0004C2F4695F80184819581840F911D81706C
:1028D00040917602609175028D9F802D11240E9497
:1028E0000311CF5FDDCFDF91CF911F910F910C943A
:1028F0007C110F931F93CF93DF93EC0100E010E066
:1029000080910201282F30E00217130724F59091DF
:102910007D019801290F311DA901440F551F240F76
:10292000351F28583D4F869590E04C8108171907B0
:102930001CF4442331F002C0411103C040917602DF
:1029400001C040E060917502809174020E94031101
:102950000F5F1F4FD5CF0E947C112C8130E02F5F7D
:102960003F4F217033272C83DF91CF911F910F911F
:102970000895E3E7F2E080818E7F8083608171813A
:10298000828193810E942611109287012FEF80E7A8
:1029900092E0215080409040E1F700C000000C948C
:1029A0007C11E3E7F2E080818E7F808310928701C3
:1029B0002FEF80E792E0215080409040E1F700C087
:1029C00000000C947C1160917302669570E04BE0FE
:1029D00050E085E091E00E940A2D892B19F481E0F6
:1029E000809387010E94A6249093800180937F01A9
:1029F00008959091730290FF35C09170811102C0CB
:102A0000926006C0853210F0986402C0880F982B3F
:102A100090937302662351F0609173027091740277
:102A200080917502909176020E9426116091730246
:102A3000669570E04BE050E085E091E00E940A2D41
:102A4000892B19F01092870102C00E94E31481E0E3
:102A500080938201409176026091750280917402A8
:102A60000C9423130895682F90917302969581E03A
:102A7000890F853208F081E00C94F91481E00C9400
:102A80003315682F9091730296958FEF890F09F493
:102A900084E20C94F91481E00C94411561E00C94EB
:102AA000F914E3E7F2E080818160808386950C94DD
:102AB0004E158091730280FD0C94B9140C9451153D
:102AC00060E00C94F91480918501811133C08091EC
:102AD0004C02816080934C020E94EE22811104C05E
:102AE0000E9471230E9442110E942211609373027E
:102AF0007093740280937502909376026E7F61F4F6
:102B00000E9442110E94221160937302709374021A
:102B100080937502909376020E94081110928701AB
:102B20008091730280FF03C086950E94601581E04A
:102B3000809385010895E3E7F2E0808181608083DE
:102B400086950C9460151092870108950F931F933A
:102B5000CF93DF9380918701882309F48CC0809103
:102B60008601E0917302E695E81BE09381018230D3
:102B700049F4F0E0E85AF04FE491CE2FD0E006EDB2
:102B800011E149C0863049F4F0E0EB5AF04FE4918E
:102B9000CE2FD0E00AEE11E13EC0893051F4E69527
:102BA000F0E0EE5AF04FE491CE2FD0E006E213E1D0
:102BB00032C08F3051F4E695F0E0E15BF04FE491E4
:102BC000CE2FD0E000E613E126C0853149F4F0E0D5
:102BD000E45BF04FE491CE2FD0E000ED13E11BC099
:102BE000883181F0833239F4EAE4FFE0C591D49171
:102BF0000AEF11E110C0843251F4C4EFD1E009E7CB
:102C000014E109C0C8EED3E001E414E104C0C0ED52
:102C1000D7E004EF10E180918201882389F01092BF
:102C200082010E94A6249E0120953095820F931F59
:102C30009093800180937F01109284011092830110
:102C400080917F01909180010E94B2248C179D0792
:102C500090F0E0917F01F0918001CE0FDF1FD093C3
:102C60008001C0937F018FE791E0F801DF91CF9160
:102C70001F910F910994DF91CF911F910F910895AA
:102C800021B3342F3095232331B3432B3FB7F8942E
:102C9000FC01680F791FE617F70789F0819198E02A
:102CA00041BB000000C087FF21BB880F000000C0AF
:102CB00000C000C021BB00C09A9591F7ECCF3FBF88
:102CC000089520B3242B20BB9B01220F331F620FDA
:102CD000731F0E94401687EC90E00197F1F700C047
:102CE0000000089541E00C9461160F931F93CF9359
:102CF000DF93C62FD42F022FFC0182818823C9F0D5
:102D000060938A010E94A624909389018093880190
:102D100080E28C0F883008F050C0C77081E001C09D
:102D2000880FCA95EAF7DF91CF911F910F910C940C
:102D3000151A10918A01161330C080918801909164
:102D400089010E94B224883C910538F5C0E2CD0F7C
:102D50001D17B9F080E2810F883040F4177081E0D0
:102D600001C0880F1A95EAF70E941C1AC83048F46F
:102D700081E09D2F977001C0880F9A95EAF70E9415
:102D8000151A802F0E94021AC830B8F4D77081E05B
:102D900001C0880FDA95EAF70AC080E28C0F88300C
:102DA00060F4C77081E001C0880FCA95EAF7DF912F
:102DB000CF911F910F910C941C1ADF91CF911F910D
:102DC0000F9108959C01CB01203F4CE53407F9F0A9
:102DD00078F4283DFCE53F07B9F0293D4CE5340780
:102DE00011F1273D3C4531F526E241EE61EE1EC072
:102DF000223FFCE53F0799F070F0233F3C45D1F4BA
:102E000027E245EE66EE12C027E245EE0EC026E24E
:102E100041EE60EE0BC027E245EE64EE07C026E20D
:102E200041EE62EE03C028E241E065EE0E947516B5
:102E300080E00895FC018281882319F010928A01B4
:102E4000089581E008959093900180938F010895F3
:102E5000E0918F01F0919001309721F00190F08185
:102E6000E02D099480E00895E0918F01F0919001A8
:102E7000309799F020911C01222359F02091A6024D
:102E800027FF07C0DC012C9111962C93119725E0A8
:102E90002C930280F381E02D0994089520918D01F7
:102EA00030918E018217930771F090938E01809379
:102EB0008D01E0918F01F0919001309721F0068013
:102EC000F781E02D0994089520918B0130918C01B8
:102ED0008217930771F090938C0180938B01E0919E
:102EE0008F01F0919001309721F00084F185E02D61
:102EF0000994089585B7806885BF85B7806885BFC8
:102F00000895089508950C94821708950C948517D8
:102F10000E947A170E9481170C94831781E008950C
:102F20000E949D240E943E0F0E9426250E943F255C
:102F30000E9463150C9486174F925F927F928F9236
:102F40009F92AF92BF92CF92DF92EF92FF920F9338
:102F50001F93CF93DF93CDB7DEB72A970FB6F894C0
:102F6000DEBF0FBECDBF0E94890F0E948E17811158
:102F700011C08FEF89838A831B820E94A6248160FF
:102F8000782F9D838C8349815A816B818D810E942A
:102F9000581857C092E9C92E91E0D92E00E010E0F0
:102FA000AA24A394B12C702E802F0E94340F4C01C0
:102FB000F601419051906F01482659264114510461
:102FC00031F40F5F1F4F0730110569F7D2CF8091A1
:102FD0004C0281FD0E943D0F20E030E07501022E81
:102FE00002C0EE0CFF1C0A94E2F7C7018421952170
:102FF000892B09F12E837F828E209F2091E08928E2
:1030000009F490E098870E94A6248160782F9A871F
:1030100089874E815F8168858A850E945818000FD4
:10302000111FF801EE56FE4F80819181E826F926A6
:10303000F182E08206C02F5F3F4F2031310571F6EB
:10304000C0CF109191010E9428171817D9F00E9443
:103050002817809391012A960FB6F894DEBF0FBE11
:10306000CDBFDF91CF911F910F91FF90EF90DF9037
:10307000CF90BF90AF909F908F907F905F904F9038
:103080000C94660A2A960FB6F894DEBF0FBECDBF29
:10309000DF91CF911F910F91FF90EF90DF90CF9034
:1030A000BF90AF909F908F907F905F904F900895CA
:1030B000CF93DF93CDB7DEB72B970FB6F894DEBF73
:1030C0000FBECDBF4F83588769877A878B87DE0114
:1030D000119686E0FD0111928A95E9F785E0FE01DF
:1030E000379601900D928A95E1F749815A816B815B
:1030F0007C818D819E810E942D1F2B960FB6F894A6
:10310000DEBF0FBECDBFDF91CF910895FC0180815E
:1031100091810E94F9210895882309F413C1682F31
:103120008238C1F40E94281781FD0CC169E38091A7
:103130001001909111010E94D8230E9484222FEF48
:1031400081EE94E0215080409040E1F700C0000003
:1031500069E319C08338F9F40E94281780FDF2C092
:1031600063E580911001909111010E94D8230E9483
:1031700084222FEF81EE94E0215080409040E1F7CF
:1031800000C0000063E580911001909111010E9440
:10319000E3230C9484228438C1F40E94281782FD12
:1031A000D1C067E480911001909111010E94D82351
:1031B0000E9484222FEF81EE94E0215080409040C5
:1031C000E1F700C0000067E4DECF8CEF860F813AA4
:1031D00038F480911001909111010E94D823D9CF29
:1031E00080E2860F883048F4677081E001C0880F64
:1031F0006A95EAF70E943B22CCCF8BE5860F83309D
:1032000070F4653A29F0663A31F083E890E005C041
:1032100081E890E002C082E890E00C944E1788E5C7
:10322000860F873108F08EC0683A09F445C0693AC4
:1032300009F445C06A3A09F445C06B3A09F445C03F
:103240006C3A09F445C06B3B09F445C06C3B09F48A
:1032500045C06D3A09F445C0603B09F445C06E3A7B
:1032600009F445C06F3A09F445C0613B09F445C013
:10327000623B09F445C0633B09F445C0643B09F473
:1032800045C0653B09F445C0663B09F445C0673B52
:1032900009F445C0683B09F445C0693B09F445C0E1
:1032A0006D3B09F445C06E3B09F445C06A3B09F427
:1032B00045C080E090E044C082EE90E041C089EEDD
:1032C00090E03EC08AEE90E03BC085EB90E038C0D5
:1032D00086EB90E035C083EB90E032C084EB90E069
:1032E0002FC087EB90E02CC08CEC90E029C08DECD7
:1032F00090E026C083E891E023C08AE891E020C0F6
:1033000082E991E01DC084E991E01AC081E292E077
:1033100017C083E292E014C084E292E011C085E21B
:1033200092E00EC086E292E00BC087E292E008C015
:103330008FE690E005C080E790E002C08AE292E06C
:103340000C9464170895882309F45BC0682F8238B1
:1033500079F40E94281781FF54C069E3809110011D
:10336000909111010E94D8230E94842269E310C029
:103370008338B1F40E94281780FF43C063E5809131
:103380001001909111010E94D8230E94842263E5CC
:1033900080911001909111010E94E3230C948422EA
:1033A000843879F40E94281782FF2BC067E480914B
:1033B0001001909111010E94D8230E94842267E499
:1033C000E7CF8CEF860F813A18F380E2860F8830C2
:1033D00048F4677081E001C0880F6A95EAF70E949F
:1033E0004122DCCF8BE5860F833020F480E090E033
:1033F0000C944E17685A673120F480E090E00C94EA
:1034000064170895CF93C82F0E948C18C93349F4CC
:103410002FEF83EC99E0215080409040E1F700C00D
:1034200000008C2FCF910C94A319882321F00E94C7
:103430003B220C9484220895882321F00E9441228B
:103440000C94842208954F925F926F927F92BF9264
:10345000CF92DF92EF92FF920F931F93CF93DF9360
:103460007C01062FC72FFC01158112951F70D28198
:10347000D1110E9458220E943122882379F0DD2345
:1034800069F080E2800F883048F082E00E94CF220D
:103490000E94312291E0B82EB92601C0B12CCC2E69
:1034A000C2948FE0C822D12CF601E859FF4F0C944A
:1034B000EA2C8C2F807FCF70882311F0C295C07FBB
:1034C000DD2399F0CC2309F462C180E2800F8830BB
:1034D00010F0011104C08C2F0E943B2203C08C2FDE
:1034E0000E944B220E94842252C1802F0E94A31965
:1034F000CC2309F495C180E2800F883010F00111CF
:1035000004C08C2F0E94412203C08C2F0E945122A4
:103510000E94842285C18C2F807FCF70803211F071
:10352000C295C07F002319F00130C9F022C0DD230D
:1035300071F0112341F0113031F40E946B228C2B79
:103540000E9471226DC10E946B228C2BD8C0112366
:1035500019F0113009F464C10E947A2218C0DD23E9
:1035600021F0163008F05CC10EC0153008F058C1CB
:103570000EC0DD2351F0112331F0F701858180FF6A
:1035800006C18F7085838C2FBAC0111111C18C2F89
:10359000BCC08C2F837009F04BC0D1114DC1202FBE
:1035A000229526952770220F220F602F6F70862F8D
:1035B00090E0A0E0B0E02C013D01022E04C0440CDC
:1035C000551C661C771C0A94D2F704FF10C08FE0CC
:1035D00090E0A0E0B0E004C0880F991FAA1FBB1FB5
:1035E0002A95D2F780959095A095B09503C080E07C
:1035F00090E0DC01C695C695C370D0E0BC01CD015A
:103600006429752986299729C230D10559F0C3301C
:10361000D10559F0219719F00E9472200DC10E9426
:1036200060200AC10E94842007C10E945E2004C15C
:10363000DD2319F08C2F817001C08695882309F451
:10364000FBC0202F229526952770220F220F602F76
:103650006F70862F90E0A0E0B0E02C013D01022EBB
:1036600004C0440C551C661C771C0A94D2F704FF56
:1036700010C08FE090E0A0E0B0E004C0880F991F78
:10368000AA1FBB1F2A95D2F780959095A095B0955B
:1036900003C080E090E0DC01C695C695C370D0E021
:1036A000BC01CD016429752986299729C230D1052D
:1036B00059F0C330D10559F0219719F00E943821F3
:1036C000BBC00E942621B8C00E944A21B5C00E94FA
:1036D0009920B2C0802F90E0FC01E05EF109E53155
:1036E000F10508F050C0E858FF4F0C94EA2C0F7019
:1036F0008C2F8F71DD2331F00E94BF20802F0E941C
:10370000151A8EC00E94E020802F0E941C1A88C0CB
:10371000DD2341F0153008F083C08C2F8F710E949B
:1037200005217EC0163008F07BC0F7CFDD2339F0CD
:103730008C2F8F710E94BF2073C0DD23C9F38C2FA3
:103740008F710E94E0206CC0DD2329F08C2F8F71D7
:103750000E94AA2065C00E94A52062C0DD2349F016
:10376000CF718C2F0E94BF2063E08C2F0E94BA2261
:1037700057C081E00E94CF22123008F451C082E08D
:103780000E94CF224DC0DD2331F0112389F2802F1A
:103790000E948C1845C0112391F2093349F4FFEFC0
:1037A00023EC89E0F15020408040E1F700C00000A8
:1037B000802F0E94A31934C04C2F4F70602FC70177
:1037C0000E947F090E94D11F3BC0D11139C0CF7028
:1037D000D0E0C230D10599F03CF4209769F02197F0
:1037E000F9F40E9479252CC0C430D10571F054F051
:1037F0002597B1F480E00AC00E945C2521C00E9498
:10380000B8251EC00E94BF251BC08CE00E94E22587
:1038100017C04C2F4F70602FC7010E94830C10C03F
:1038200098E0C916D10441F05CF0FAE0CF1AD10853
:1038300022E0C216D10420F40E9428170E94660AD2
:10384000BB20F1F00E942D2280FD1AC0F7011282E8
:103850000E9427220E94BF20C7010E944E1C0E9486
:103860002722DF91CF911F910F91FF90EF90DF9072
:10387000CF90BF907F906F905F904F900C94E0201E
:10388000DF91CF911F910F91FF90EF90DF90CF903C
:10389000BF907F906F905F904F9008950F931F930C
:1038A000CF93DF93EC01888199812B813C81232B7D
:1038B000B9F09F3F11F48F3F99F0CE010E94780A32
:1038C000882371F0688179818A810E9404228C01A9
:1038D0000E945C210E945D20B801CE010E94231A43
:1038E000DF91CF911F910F9108950E9458220E945D
:1038F00068220C94842280911001909111010E9401
:10390000EE230C94751C0E9448220C947B1CE92F1A
:10391000E295EF70F0E03297EE30F105B0F4E35746
:10392000FF4F0C94EA2C803F91F018F4803E68F42D
:103930000EC0843F51F40BC0803E48F0813F29F413
:1039400006C093FB882780F9089580E0089581E000
:1039500008950E94F9210E94871C0895CF93DF9358
:1039600000D000D01F92CDB7DEB70F900F900F9010
:103970000F900F90DF91CF910895CF93DF9300D0F8
:1039800000D000D0CDB7DEB726960FB6F894DEBFD4
:103990000FBECDBFDF91CF9108951F93CF93DF93DB
:1039A000C091A10116E08091A201C81799F0D0E062
:1039B0001C9FF0011D9FF00D1124ED55FE4F40811D
:1039C000518162817381848195810E94BD1C219601
:1039D000C770E9CFDF91CF911F9108954091D30136
:1039E0005091D4016091D5017091D6018091D70199
:1039F0009091D8010C94BD1C8091D80182958F7054
:103A000009F054C08091D501882309F44FC08091FA
:103A1000A101A091A2016091D3017091D4014091C4
:103A2000D6015091D701B6E08A1709F43FC090E063
:103A300041155105C1F17F3F11F46F3FA1F1B89FCE
:103A4000F001B99FF00D1124ED55FE4F2181721345
:103A50002AC02081621327C02281211124C0238122
:103A600034812417350710F421503109241B350BFC
:103A7000283C3105C0F42091D8012F70206120939B
:103A8000D80126E0289FF001299FF00D1124E85568
:103A9000FE4F80818F708061808383ED91E00E9472
:103AA0004E1C0C94CD1C01968770BECF0895CF920A
:103AB000DF92EF92FF920F931F93CF93DF93CDB7D7
:103AC000DEB762970FB6F894DEBF0FBECDBF8C0194
:103AD00085E0F801DE011D9601900D928A95E1F7CF
:103AE000D8014C9111965C91119712966C91129796
:103AF0001396CD90DC9014973091D3017091D4013E
:103B00008091D6019091D701009709F46BC17F3F56
:103B100019F43F3F09F466C1E090D501EE2009F4A5
:103B2000C0C02091D801C816D90628F0F601E81BBC
:103B3000F90BCF0104C0809590958C0D9D1DFF243D
:103B4000F394883C910578F0F12C207F09F0C6C0F1
:103B50007C2DD98AC88A89890E94AE1C83ED91E0A8
:103B60000E944E1CB1C0822F807F09F046C07513A1
:103B700014C0341312C0611110C02F702061209343
:103B8000D8010E94EE1C83ED91E00E944E1C8091B2
:103B9000D801D80115968C932EC0CD2819F15F3F1E
:103BA00011F44F3FF9F0F62E61111CC08091A10174
:103BB0002091A20136E0821709F45AC090E0389FA4
:103BC000F001399FF00D1124ED55FE4F718157130F
:103BD00006C07081471303C07281711103C0019642
:103BE0008770E9CFF62E662309F427C18091D801AA
:103BF00081608093D801F12C20C1751308C0341363
:103C000006C0611104C08091D801D801C3C04D879E
:103C10005E878D859E856A8B0E94A91C6A89882390
:103C2000E1F16623D1F12091D801822F82958F7026
:103C300090E0029774F08091D3019091D40198871D
:103C40008F831986DB86CA862C87CE0107960E9451
:103C50004E1C86E0F801A3EDB1E001900D928A952B
:103C6000E1F70E94FC1C0E94EE1CFF24F394E5C0C7
:103C70004D875E878D859E850E94F921292F22958B
:103C80002F7030E0223031050CF0CBC09F7009F06E
:103C9000C5C0805E883008F4D0C0C8010E944E1CA8
:103CA000E4CFC816D90608F453C0F601E81BF90B97
:103CB000CF01883C910508F450C0F12C7C2DD98AA5
:103CC000C88A89890E94AE1CE3EDF1E086E0DF013D
:103CD0001D928A95E9F70E94EE1CAFC0751314C0BF
:103CE000341312C0611110C08091D801F80185838E
:103CF000C8010E944E1C86E0E3EDF1E0DF011D9259
:103D00008A95E9F7FE2C99C04D875E878D859E8543
:103D10006A8B0E94A91C6A89882309F4BECF662396
:103D200009F4BBCF2091D801822F82958F7090E04B
:103D300002970CF48ECF8091D3019091D4019A8395
:103D400089831B82DD82CC822E83CE0101967FCFB8
:103D5000809590958C0D9D1DACCFF62E662309F4B1
:103D60009CCF75132EC034132CC02091D80120FD98
:103D70001FC0822F82958F70D9F0D80115962C9391
:103D800015978F3049F08F5F982F9295907F822FF3
:103D90008F70892B15968C93C8010E944E1C86E06B
:103DA000F801A3EDB1E001900D928A95E1F793CF70
:103DB00086E0F801A3EDB1E001900D928A95E1F75C
:103DC0003CC04D875E878D859E850E94A91C811110
:103DD00040CF8091D80181608093D801C8010E94B2
:103DE0004E1C2BC0662309F458CF4D875E878D8506
:103DF0009E850E94A91CF82E882309F44ECF86E0E8
:103E0000F801A3EDB1E001900D928A95E1F783ED01
:103E100091E00E9486180E94FC1C5DCF811139CF71
:103E20000CC0243031050CF038CF9F7009F431CF2D
:103E3000F8019581907F09F02CCF8F2D62960FB6F7
:103E4000F894DEBF0FBECDBFDF91CF911F910F91D0
:103E5000FF90EF90DF90CF9008951F93CF93DF9363
:103E6000CDB7DEB72C970FB6F894DEBF0FBECDBF2F
:103E70004F83588769877A878B879C87CE010796FF
:103E80000E94571D882369F08F8198852A853B857C
:103E9000232BF1F19F3F09F063C08F3F09F060C011
:103EA00037C086E0FE013796DE01119601900D9233
:103EB0008A95E1F76F817885EA85FB85309741F136
:103EC0007F3F11F46F3F21F12091A20130E0C90141
:103ED0000196877099274091A10150E084179507BA
:103EE00009F447C069837A83FD83EC8396E0929F4F
:103EF000D001939FB00D1124AD55BE4FFE013196F8
:103F000001900D929A95E1F78093A2010E94CD1C39
:103F100016E08091A1019091A2018917C1F1189F2B
:103F2000C00111248D559E4F0E94571D882379F1A1
:103F3000E091A1011E9FF0011124ED55FE4F40813B
:103F4000518162817381848195810E94BD1C809121
:103F5000A10190E00196877099278093A101D9CFA4
:103F60004F81588569857A858B859C850E94BD1C0B
:103F7000CFCF0E94831C1092A2011092A101E3ED09
:103F8000F1E086E0DF011D928A95E9F7C1CF2C961A
:103F90000FB6F894DEBF0FBECDBFDF91CF911F915A
:103FA0000895EF92FF920F931F93CF93DF938C01AD
:103FB000892B09F46CC0F12CEE24E394E8012196DE
:103FC000F8018491843740F4843008F051C0813086
:103FD00081F0823019F15BC0853709F444C0A8F143
:103FE0009CE7980F903708F052C08F770E94A31972
:103FF00041C00E5F1F4FFE01C49180E28C0F8830DC
:1040000048F4C7708E2D01C0880FCA95EAF70E9448
:104010005B2214C08C2F0E948C182DC00E5F1F4F86
:10402000FE01C49180E28C0F883058F4C7708E2D49
:1040300001C0880FCA95EAF70E9461220E9484227B
:104040001AC08C2F0E94A31916C00E5F1F4FFE01CD
:10405000C491CC2381F08FE99FE00197F1F700C074
:104060000000C150F6CF0E5F1F4FFE01F49003C059
:104070000E948C188E018F2D882309F49FCFEFE9C1
:10408000FFE03197F1F700C000008150F5CFDF91DC
:10409000CF911F910F91FF90EF90089508950C9488
:1040A0004E200E944F20609323027093240280933D
:1040B0002502909326020C94751C08950C945120AF
:1040C0000F931F9300912302109124022091250247
:1040D00030912602602B712B822B932B1F910F9115
:1040E0000C9451200F931F930091230210912402EE
:1040F000209125023091260260237123822393238D
:104100001F910F910C9451200F931F930091230244
:1041100010912402209125023091260260277127F8
:10412000822793271F910F910C94512008950C948E
:1041300096200E94972060931F0270932002809324
:104140002102909322020C94751C60E070E0CB0178
:104150000C9499200F931F9341E050E060E070E0D1
:104160008A019B0104C0000F111F221F331F8A9573
:10417000D2F7C901B8011F910F910C9499200F93A8
:104180001F9341E050E060E070E004C0440F551F11
:10419000661F771F8A95D2F780911F0290912002A7
:1041A000A0912102B09122028A019B01082B192BB8
:1041B0002A2B3B2BC901B8011F910F910C94992018
:1041C0000F931F9341E050E060E070E004C0440FA3
:1041D000551F661F771F8A95D2F7409550956095B9
:1041E000709580911F0290912002A0912102B091C0
:1041F00022028A019B01082319232A233B23C90198
:10420000B8011F910F910C9499200F931F9341E0D7
:1042100050E060E070E004C0440F551F661F771F38
:104220008A95D2F780911F0290912002A0912102DD
:10423000B09122028A019B01082719272A273B27D0
:10424000C901B8011F910F910C9499200F931F93EE
:1042500000911F0210912002209121023091220230
:10426000602B712B822B932B1F910F910C94992013
:104270000F931F9300911F021091200220912102A1
:104280003091220260237123822393231F910F9187
:104290000C9499200F931F9300911F0210912002FC
:1042A00020912102309122026027712782279327D3
:1042B0001F910F910C949920089520E1929F800DF9
:1042C0001124A82FA695A695A695877051E001C048
:1042D000550F8A95EAF785E0A89FD001112420E0C8
:1042E00030E070E0F901EA0FFB1FE752FE4F40811A
:1042F000CB01022E02C0969587950A94E2F7817051
:104300009927819584278523842780832F5F3F4FBA
:104310002530310539F7089520E1929F800D112451
:10432000682F669566956695982F977085E0689FCB
:10433000B001112440E050E080E0FA01E60FF71FE1
:10434000E752FE4F208130E0092E02C036952795B6
:104350000A94E2F721703327042E01C0220F0A9439
:10436000EAF7822B4F5F5F4F4530510531F70895D3
:10437000BF92CF92DF92EF92FF920F931F93CF9352
:10438000DF938C01C0902302D0902402E09025029C
:10439000F090260280911F0290912002A0912102AC
:1043A000B0912202C82AD92AEA2AFB2ACFE1D0E01A
:1043B000D701C6010C2E04C0B695A7959795879591
:1043C0000A94D2F780FF07C0BC2EB8018C2F0E9440
:1043D000A10C019719F4219758F7B12C8B2DDF917F
:1043E000CF911F910F91FF90EF90DF90CF90BF90F2
:1043F0000895CF93DF93EC010E94B821BE010E9483
:10440000A10CDF91CF9108951F93CF93DF93EB0120
:104410009091A001992321F0CB010E94F92113C0B2
:10442000882349F0CB010E94B821182F682FCE01B4
:104430000E945D2104C0CB010E948C21182FBE0177
:10444000812F0E94A10CDF91CF911F91089580913F
:104450002702859585958595089580912702877017
:10446000089590912702977081E009F480E0089503
:1044700080914B02089590914B02892B80934B02BF
:104480000895809590914B02892380934B02089563
:1044900010924B02089590914A02892B80934A0210
:1044A0000895809590914A02892380934A02089545
:1044B00010924A02089590914902892B80934902F3
:1044C0000895809590914902892380934902089527
:1044D00010924902089580912802089508950C943D
:1044E0006E2290912802981721F0809328020C9454
:1044F0006F22089580912802882329F010922802C3
:1045000080E00C946F220895E0911001F091110168
:1045100080914B028083E0911001F0911101908114
:1045200080914A02892B8083E0911001F091110162
:10453000908180914902892B808380912802882371
:1045400081F0E0911001F09111019081892B80831D
:1045500080911001909111010E94732381110E949A
:104560007A2280911001909111010C9434170895D2
:104570000C94B72298E0899F90011124262B209358
:1045800027020E94BF2080912702859585958595F9
:104590000C94B8221092270280E00C94B82220914B
:1045A00027028095822380932702982F977079F4B1
:1045B00030E0482F082E000C550B2417350739F032
:1045C0008595859585950E94E0200C94CA220895D2
:1045D0006FEF7FEF80E090E00C94492D80E090E059
:1045E0000E94252D21E08D3E9E4F09F020E0822F74
:1045F000089582E090E00C94172D83E090E00C94F5
:10460000172D84E090E00C94172D682F84E090E043
:104610000C942B2D86E090E00C94172D682F86E0EB
:1046200090E00C942B2DAB01BC018FE090E00C943A
:104630003D2DAB01BC0183E190E00C943D2D60E089
:1046400070E0CB010C94192360E070E0CB010E9474
:1046500013230C941F236DEE7EEF80E090E00E9408
:10466000492D60E082E090E00E942B2D60E083E025
:1046700090E00E942B2D109223021092240210929F
:1046800025021092260260E084E090E00E942B2D2B
:1046900060E085E090E00E942B2D60E086E090E0F5
:1046A0000E942B2D6FEF87E090E00E942B2D40E0C1
:1046B00050E0BA0188E090E00E943D2D60E08DE07E
:1046C00090E00E942B2D40E050E0BA0188E190E09C
:1046D0000E943D2D60E087E190E00E942B2D0C941C
:1046E00024230C942B23FC01329680911C018823F7
:1046F00031F08091A60287FF02C09EE101C096E0E2
:1047000080E0915028F021912223D9F38F5FF9CFD7
:1047100008959C01FC0132969FEF80E0419146177D
:1047200089F09F3F19F4411101C0982F8F5F8630A7
:10473000A9F79F3F39F0F901E90FF11D97FDFA95AF
:10474000628308950895FC0132960896208126130D
:1047500001C010823196E817F907C1F70895262F96
:104760002695269526952E3168F4FC01E20FF11D61
:10477000677021E030E001C0220F6A95EAF782817C
:10478000282B22830895262F2695269526952E31AF
:1047900070F4FC01E20FF11D677021E030E001C010
:1047A000220F6A95EAF720958281282322830895B3
:1047B00020911C01222329F02091A60227FD0C94B0
:1047C000AF230C94892320911C01222329F02091EE
:1047D000A60227FD0C94C3230C94A32320911C0153
:1047E000FC013296222331F08091A60287FF02C09D
:1047F0008EE101C086E0DF011D928A95E9F70895F8
:1048000008950C9400240E9401248091AD0284300C
:1048100009F43CC010924D0220E488E190E00FB60C
:10482000F894A895809360000FBE2093600080E00C
:104830000E94EA0980E00E94660A0E94A315809106
:104840004E0281110AC081E080934E028091730272
:10485000817080934F020E94D1140E94012483B77B
:10486000817F846083BF83B7816083BF789488959C
:1048700083B78E7F83BF0FB6F894A89580916000B0
:10488000886180936000109260000FBE08950895C3
:104890000895CF930E9447240E94890F0E944824C4
:1048A000C0E08C2F0E94340F892B29F4CF5FC730D2
:1048B000C1F780E001C081E0CF91089508950C9484
:1048C0005E240E94831C0E943F250E9428170E949C
:1048D000660A10924E0280914F0281110E949B1530
:1048E0000E94E3140C945F241F920F920FB60F9254
:1048F00011248F939F93AF93BF9380914D028111A9
:1049000013C08091A2029091A302A091A402B09141
:10491000A5024196A11DB11D8093A2029093A3020E
:10492000A093A402B093A502BF91AF919F918F91E4
:104930000F900FBE0F901F90189582E084BD93E0FA
:1049400095BD9AEF97BD80936E0008952FB7F894A8
:104950008091A2029091A302A091A402B091A5021D
:104960002FBF0895CF92DF92EF92FF920F931F9384
:104970002FB7F8944091A2025091A3026091A40233
:104980007091A5022FBF6A017B01EE24FF248C01E8
:1049900020E030E0C016D106E206F30610F44150E4
:1049A00051099A01281B390BC9011F910F91FF90E2
:1049B000EF90DF90CF90089578941F920F920FB6EA
:1049C0000F9211248F939F93AF93BF938091A20274
:1049D0009091A302A091A402B091A5020196A11DFD
:1049E000B11D8093A2029093A302A093A402B0935E
:1049F000A502BF91AF919F918F910F900FBE0F9025
:104A00001F90189581E08093E00080E28093D800A9
:104A10001092C9008FE19EE40197F1F700C00000F9
:104A200087E090EBDC018093B6029093B702A093ED
:104A3000B802B093B9029CE088E10FB6F894A8954B
:104A4000809360000FBE90936000FFCF0E94EE2223
:104A5000811102C00E9471230E94F92280934C02AE
:104A60000E94012390E09093A7028093A6020E94E7
:104A7000FD22682F70E080E090E00C945E200E94A0
:104A8000EE22811102C00E9471230E940A238093AA
:104A9000A802282F269530E02D30310524F08170B2
:104AA00088618093A8028091A80280FF02C0869549
:104AB00001C080E00C94EA092091A802822F86951B
:104AC000482F50E04C30510544F48F5F982F990FD8
:104AD000822F8170892B8093A8028091A802816027
:104AE0008093A8020E940E238091A80286950C94C0
:104AF000EA098091A802982F969591F09158990F04
:104B00008170892B8093A8028E7F91E009F490E058
:104B10008091A80290FB80F98093A8020E940E2346
:104B20008091A80286950C94EA098091A80280FDE4
:104B300011C081608093A802813019F483E08093D2
:104B4000A8028091A8020E940E238091A802869557
:104B50000C94EA0908958091A80280FF08C08E7F16
:104B60008093A8020E940E2380E00C94EA09089525
:104B70008091A80280FD0C94AB250C949525909112
:104B8000A802892F86958F5F8F7791708D3028F4DA
:104B9000880F892B8093A80202C09093A80280916D
:104BA000A8028E7F91E009F490E08091A80290FB2A
:104BB00080F98093A8020E940E238091A802869516
:104BC0000C94EA098D3008F08CE0880F9091A802CF
:104BD0009170892B8093A8028E7F91E009F490E078
:104BE0008091A80290FB80F98093A8020E940E2376
:104BF0008091A80286950C94EA098091700208952C
:104C0000089508950895CF93DF93EC010E94D7276C
:104C1000823011F08430D9F580911C01882339F05D
:104C20008091A60287FF03C060E282E002C068E0D4
:104C300081E08093E9008FEF9091E800815095FD2D
:104C400006C095ED9A95F1F700008111F5CF80919E
:104C5000E80085FF1CC080911C01811105C040E067
:104C600050E068E070E003C070E040E050E0CE014A
:104C70000E94F4278091E8008E778093E80080E21C
:104C8000FE01A0E5B2E001900D928A95E1F7DF9177
:104C9000CF9108958091AC02811109C00E948929A9
:104CA0000E94E6298091E20084608093E2000895EA
:104CB0001092AC020895089508950C94612442E086
:104CC00061EC81E00E94032942E261EC82E00C94F5
:104CD00003298091AF02833009F460C030F4813041
:104CE00071F0823009F499C008958A3009F485C0C2
:104CF0008B3009F46BC0893009F0A7C020C08091C7
:104D0000AE02813A09F0A1C08091E800877F8093CC
:104D1000E8008091B2029091B302892B21F460E205
:104D200080E592E003C060E080E090E070E00E94E7
:104D30003F288091E8008B778093E8000895809168
:104D4000AE02813209F081C08091B2029091B3022B
:104D5000029708F07AC08091E800877F8093E8008E
:104D60008091E80082FD05C08091AD028111F8CFED
:104D70006CC02091F3008091F20090E0922B02979A
:104D800029F48091F1008B7F813021F48091F10032
:104D9000809370028091E8008B7753C08091AE02BF
:104DA000813A09F052C08091B2029091B302892BEE
:104DB00009F04BC08091E800877F8093E8008091E4
:104DC000E80080FFFCCF80911C0136C08091AE02CC
:104DD0008132D9F58091B2029091B302892BA9F565
:104DE0008091E800877F8093E8000E9438298091B5
:104DF000B00280931C010C94831C8091AE0281321E
:104E000021F58091E800877F8093E8000E9438298F
:104E10008091B1028093710208958091AE02813A2F
:104E2000A1F48091E800877F8093E8008091E800FA
:104E300080FFFCCF809171028093F1008091E800A7
:104E40008E778093E8000C943829089584B7877F83
:104E500084BF0FB6F894A895809160008861809314
:104E60006000109260000FBE80E880936100109295
:104E700061000E9488170E9489290E94E62980917A
:104E8000E20084608093E20078940E94752C0E9476
:104E9000901782E191E00E9423178091AD02853046
:104EA00069F40E9403248091AB028823B1F30E942D
:104EB0004924882391F30E94DE27EFCF0E949C179C
:104EC0000E94A615EACF0C946527292F332723309B
:104ED0003105C9F064F42130310581F0223031050B
:104EE00009F04CC08BE390E02BE931E14BC021325B
:104EF000310521F12232310589F140C082E190E093
:104F000026ED31E13FC099278130910571F02CF4F5
:104F1000892BA1F5E7E9F1E10DC08230910541F05F
:104F2000039761F5E1E6F1E105C0E7E8F1E102C0D0
:104F3000E7E6F1E1849190E09F0124C061157105DD
:104F400041F061307105D1F489E090E026EC31E167
:104F500019C089E090E02DEA31E114C061157105B6
:104F600041F06130710551F48BE390E028EE31E1BE
:104F700009C080E490E023E232E104C080E090E0E8
:104F800020E030E0FA013183208308950895CF9323
:104F9000C82F0E94C627C0937202CF9108958091B6
:104FA000AD02843011F081E0089582E0089580918F
:104FB0007202811102C00C94CF27089580E189BD4F
:104FC00082E189BD09B400FEFDCF8091D8008F7DBC
:104FD0008093D8008091E00082608093E00080910F
:104FE000E00081FDFCCF0895CF92DF92EF92FF9217
:104FF0000F931F93CF93DF93EC018B016A010E9403
:105000005729811133C0C114D10439F0F6018081D0
:105010009181081B190BC80FD91FE12CF12C011528
:10502000110519F18091E80085FD16C08091E80016
:105030008E778093E800C114D10449F0F601808195
:105040009181E80EF91EF182E08285E00FC00E9496
:105050005729882321F30AC089918093F1000150D8
:105060001109FFEFEF1AFF0ADACF80E0DF91CF914D
:105070001F910F91FF90EF90DF90CF9008952091B6
:10508000B4023091B5022617370748F06115710553
:1050900039F42091E8002E772093E80001C0B9018F
:1050A00040E061157105A9F12091AD02222309F4B8
:1050B00043C0253009F442C02091E80023FD40C0E0
:1050C0002091E80022FD32C02091E80020FFE9CFC6
:1050D0004091F3002091F20030E0342BFC01CF012D
:1050E0006115710559F02830310540F481918093A4
:1050F000F100615071092F5F3F4FF1CF41E028303F
:10510000310509F040E02091E8002E772093E80077
:10511000C8CF4111C9CF0AC08091AD02882361F088
:10512000853061F08091E80083FD0AC08091E8003D
:1051300082FFF2CF80E0089582E0089583E0089531
:1051400081E008952091B4023091B5022617370707
:1051500048F06115710539F42091E8002E7720930D
:10516000E80001C0B901FC0120E06115710591F171
:105170008091AD02882309F440C0853009F43FC016
:105180008091E80083FD3DC08091E80082FD2FC042
:105190008091E80080FFE9CF2091F3008091F20038
:1051A00090E0922B6115710559F08830910540F41B
:1051B00024912093F1003196615071090196F2CF4C
:1051C00021E0089709F020E08091E8008E77809335
:1051D000E800CBCF2111CCCF0AC08091AD0288234B
:1051E00061F0853061F08091E80083FD0AC0809114
:1051F000E80082FFF2CF80E0089582E0089583E026
:10520000089581E00895982F973058F59093E9001C
:10521000981739F07091EC002091ED005091F0005A
:1052200003C0242F762F50E021FF19C03091EB00EE
:105230003E7F3093EB003091ED003D7F3093ED00E9
:105240003091EB0031603093EB007093EC002093D1
:10525000ED005093F0002091EE0027FF07C09F5F04
:10526000D3CF8F708093E90081E0089580E00895A6
:105270008091AE0287FF11C08091E80082FD05C0D9
:105280008091AD028111F8CF11C08091E8008B7739
:105290000BC08091AD02882349F08091E80080FF27
:1052A000F8CF8091E8008E778093E80008952091F0
:1052B000E4003091E50095E64091EC00842F817088
:1052C00040FF22C08091E80080FD1CC08091AD02AB
:1052D000882391F0853091F08091EB0085FD10C01E
:1052E0004091E4005091E5004217530729F39A01D9
:1052F000915011F784E0089582E0089583E00895C5
:1053000081E0089580E008954091E80042FFDECFFB
:1053100008950E94F7290E94FF29E0EEF0E08081C5
:1053200081608083E8EDF0E080818F77808319BC15
:10533000A7EDB0E08C918E7F8C9380818F7E8083EF
:105340001092AC0208950F931F93CF93DF930E94A6
:10535000F7290E94FF29C8EDD0E088818F778883E4
:1053600088818068888388818F7D888319BC1092AA
:10537000AD021092A9021092AB021092AA0200EEA6
:1053800010E0F80180818B7F808388818160888331
:1053900042E060E080E00E940329E1EEF0E08081DD
:1053A0008E7F8083E2EEF0E0808181608083808167
:1053B00088608083F80180818E7F8083888180610E
:1053C0008883DF91CF911F910F910895E8EDF0E070
:1053D00080818F7E8083E7EDF0E080818160808333
:1053E00084E082BF81E08093AC020C94A329E8EDB5
:1053F000F0E080818E7F80831092E2000895109209
:10540000DA001092E10008951F920F920FB60F92EA
:1054100011242F933F934F935F936F937F938F93B9
:105420009F93AF93BF93EF93FF938091E10082FF2F
:105430000BC08091E20082FF07C08091E1008B7F6A
:105440008093E1000E94742C8091DA0080FF1FC0DD
:105450008091D80080FF1BC08091DA008E7F8093FE
:10546000DA008091D90080FF0DC080E189BD82E122
:1054700089BD09B400FEFDCF81E08093AD020E949A
:105480004A2605C019BC1092AD020E945826809190
:10549000E10080FF19C08091E20080FF15C080917B
:1054A000E2008E7F8093E2008091E2008061809331
:1054B000E2008091D80080628093D80019BC85E01A
:1054C0008093AD020E945C268091E10084FF30C091
:1054D0008091E20084FF2CC080E189BD82E189BD1A
:1054E00009B400FEFDCF8091D8008F7D8093D80055
:1054F0008091E1008F7E8093E1008091E2008F7EB9
:105500008093E2008091E20081608093E2008091CC
:10551000A902882311F084E007C08091E30087FD91
:1055200002C081E001C083E08093AD020E945D264D
:105530008091E10083FF29C08091E20083FF25C0B4
:105540008091E100877F8093E10082E08093AD024B
:105550001092A9028091E1008E7F8093E1008091FA
:10556000E2008E7F8093E2008091E2008061809370
:10557000E20042E060E080E00E9403298091F000B8
:1055800088608093F0000E945B26FF91EF91BF91AD
:10559000AF919F918F917F916F915F914F913F91CB
:1055A0002F910F900FBE0F901F9018951F920F9282
:1055B0000FB60F9211242F933F934F935F936F93E6
:1055C0007F938F939F93AF93BF93CF93DF93EF938B
:1055D000FF93C091E900CF708091EC00D82FD1707B
:1055E00080FDD0E81092E9008091F000877F8093E1
:1055F000F00078940E941A2B1092E9008091F0003C
:1056000088608093F000CD2BCF70C093E900FF91AC
:10561000EF91DF91CF91BF91AF919F918F917F914A
:105620006F915F914F913F912F910F900FBE0F900F
:105630001F9018951F93CF93DF93CDB7DEB7AA972E
:105640000FB6F894DEBF0FBECDBFEEEAF2E088E001
:105650008E0F9091F10091938E13FBCF0E946926DB
:105660008091E80083FF28C18091AE029091AF0243
:10567000492F50E04A30510508F01EC1FA01E556A5
:10568000FF4F0C94EA2C803821F0823809F014C1C5
:1056900008C08091AA029091AB02992389F08260A0
:1056A0000FC08091B2028F70873008F005C18093DF
:1056B000E9008091EB0085FB882780F91092E900D2
:1056C0009091E800977F9093E8008093F10010920A
:1056D000F100D0C0282F2D7F09F0EEC0882319F0EB
:1056E000823061F0E9C08091B002813009F0E4C0FD
:1056F000933009F080E08093AB022EC08091B0021D
:1057000081112AC08091B2028F702FEF280F2630AE
:1057100008F0D2C08093E9002091EB0020FF1CC06C
:10572000933021F48091EB00806214C09091EB00E3
:1057300090619093EB0021E030E0A90102C0440F9A
:10574000551F8A95E2F74093EA001092EA00809193
:10575000EB0088608093EB001092E9008091E800F4
:10576000877F8093E8000E943829A6C08111A4C0D9
:105770001091B0021F778091E3008078812B809395
:10578000E3008091E800877F8093E8000E94382939
:105790008091E80080FFFCCF8091E30080688093D7
:1057A000E300111102C082E001C083E08093AD02EA
:1057B00083C08058823008F07FC08091B002909101
:1057C000B1028C3D53E0950779F583E08A838AE244
:1057D00089834FB7F894DE01139620E03EE051E252
:1057E000E32FF0E050935700E49120FF03C0E295CF
:1057F000EF703F5FEF708E2F90E0EA3010F0C796A9
:1058000001C0C0968D939D932F5F243149F74FBF00
:105810008091E800877F8093E8006AE270E0CE0123
:1058200001960E943F2815C06091B2027091B302A8
:10583000AE014F5F5F4F0E946327BC01892BE1F1EE
:105840009091E800977F9093E80089819A810E9467
:10585000A2288091E8008B778093E8002DC08038E3
:1058600059F58091E800877F8093E8008091A90234
:105870008093F1008091E8008E7773CF81111CC076
:105880009091B0029230C0F48091E800877F8093BD
:10589000E8009093A9020E9438298091A902811101
:1058A00006C08091E30087FD02C081E001C084E072
:1058B0008093AD020E945F268091E80083FF0AC0BA
:1058C0008091E800877F8093E8008091EB00806200
:1058D0008093EB00AA960FB6F894DEBF0FBECDBF43
:1058E000DF91CF911F9108950895CF938091AD02DC
:1058F0008823A1F0C091E900CF709091EC00892F2E
:10590000817090FD80E8C82B1092E9008091E8003A
:1059100083FD0E941A2BCF70C093E900CF910895A8
:10592000DB018F939F930E94FF2CBF91AF91A29FA9
:10593000800D911DA39F900DB29F900D112408958D
:10594000AA1BBB1B51E107C0AA1FBB1FA617B707A5
:1059500010F0A61BB70B881F991F5A95A9F78095C1
:105960009095BC01CD01089597FB072E16F4009485
:1059700007D077FD09D00E94A02C07FC05D03EF48B
:10598000909581959F4F0895709561957F4F0895EB
:10599000A1E21A2EAA1BBB1BFD010DC0AA1FBB1F33
:1059A000EE1FFF1FA217B307E407F50720F0A21BA5
:1059B000B30BE40BF50B661F771F881F991F1A9412
:1059C00069F760957095809590959B01AC01BD013C
:1059D000CF010895EE0FFF1F0590F491E02D09947B
:1059E000A29FB001B39FC001A39F700D811D112420
:1059F000911DB29F700D811D1124911D08950E946B
:105A0000F02CA59F900DB49F900DA49F800D911D2B
:105A100011240895FC014150504030F001900616C9
:105A2000D1F73197CF010895882799270895F999DB
:105A3000FECF92BD81BDF89A992780B50895A6E161
:105A4000B0E044E050E00C94512DA8E1B0E042E019
:105A500050E00C94512D262FF999FECF92BD81BDB7
:105A6000F89A019700B4021639F01FBA20BD0FB69C
:105A7000F894FA9AF99A0FBE08950396272F0E9478
:105A80002C2D0E942B2D252F0E942C2D242F0C9481
:105A90002C2D0196272F0E942C2D0C942B2DDC01F0
:105AA000CB01FC01F999FECF06C0F2BDE1BDF89A29
:105AB000319600B40D9241505040B8F70895F894D3
:025AC000FFCF16
:105AC20001020E0E0E01191A1B1C1D1E1F2021227F
:105AD2002902FD2503260026012602260167F6F586
