:100000000C94A4030C94EB030C94EB030C94EB03FF
:100010000C94EB030C94EB030C94EB030C94EB03A8
:100020000C94EB030C94EB030C9482200C943E2074
:100030000C9426270C94EB030C94EB030C94EB0329
:100040000C94EB030C94EB030C94EB030C94EB0378
:100050000C94EB030C9402270C94EB030C94EB032D
:100060000C94EB030C94EB030C94EB030C94EB0358
:100070000C94EB030C94EB030C94EB030C94EB0348
:100080000C94EB030C94EB030C94EB030C94EB0338
:100090000C94EB030C94EB030C94EB030C94EB0328
:1000A0000C94EB030C94EB030C94EB030501090295
:1000B000A10185020901A100050919012905150001
:1000C00025019505750181029501750381010501E1
:1000D000093009311581257F950275088106093897
:1000E0001581257F950175088106050C0A380215D2
:1000F00081257F950175088106C0C005010980A191
:1001000001850319012AB700150126B7009501756D
:10011000108100C0050C0901A101850419012AA064
:1001200002150126A002950175108100C005010984
:1001300006A1018505050719E029E71500250195A8
:1001400008750181020507190029EF1500250195A1
:10015000F0750181020508190129059505750191C0
:1001600002950175039101C00660FF0961A10109B3
:1001700062150026FF0095207508810209631500AD
:1001800026FF00952075089102C005010906A1010E
:10019000050719E029E71500250195087501810279
:1001A0009501750881010507190029FF150026FF33
:1001B0000095067508810005081901290595057542
:1001C000019102950175039101C000010101010136
:1001D0000101010102020202020202020203030300
:1001E00003030303030404040404040405050505D0
:1001F0000506060606060707070707080808080990
:100200000909090A0A0A0B0B0B0C0C0C0D0D0D0E3B
:100210000E0E0F0F0F1010111111121213131414D0
:10022000151516161717181819191A1A1B1B1C1D45
:100230001D1E1E1F2020212222232424252626279E
:100240002829292A2B2C2D2D2E2F303132323334D0
:1002500035363738393A3B3C3D3E3F4041424344D6
:1002600045464748494A4C4D4E4F505153545556B8
:1002700058595A5B5D5E5F616264656668696B6C64
:100280006D6F7072737577787A7B7D7E80828385DF
:1002900087888A8C8E8F91939596989A9C9EA0A21F
:1002A000A3A5A7A9ABADAFB1B3B5B7BABCBEC0C229
:1002B000C4C6C9CBCDCFD1D4D6D8DBDDDFE2E4E7ED
:1002C000E9EBEEF0F3F5F8FAFDFFFFAA7F554022C7
:1002D00023252628292A2C2D2F3032333536383A3B
:1002E0003B3D3E4042434547494A4C4E5051535591
:1002F00057595A5C5E6062646668696B6D6F7173B2
:100300007577797B7D7F81838587898A8C8E9092B2
:100310009496989A9C9E9FA1A3A5A7A8AAACAEAFBD
:10032000B1B3B4B6B8B9BBBCBEBFC1C2C3C5C6C702
:10033000C9CACBCCCDCED0D1D2D2D3D4D5D6D7D7B3
:10034000D8D9D9DADADBDBDBDCDCDCDCDCDDDDDDFB
:10035000DDDCDCDCDCDCDBDBDBDADAD9D9D8D7D7F7
:10036000D6D5D4D3D2D2D1D0CECDCCCBCAC9C7C6A4
:10037000C5C3C2C1BFBEBCBBB9B8B6B4B3B1AFAEE2
:10038000ACAAA8A7A5A3A19F9E9C9A989694929088
:100390008E8C8A89878583817F7D7B797775737160
:1003A0006F6D6B6968666462605E5C5A595755533D
:1003B00051504E4C4A4947454342403E3D3B3A38F6
:1003C00036353332302F2D2C2A2928262523222971
:1003D000001E001F00200021002200230024002511
:1003E00000260027002D002E002A002B0014001AE2
:1003F000000800150017001C0018000C0012001364
:10040000002F0030003100390004001600070009F9
:10041000000A000B000D000E000F00330034000036
:10042000002800E10000001D001B00060019000567
:10043000001100100036003700E50052003800E0DF
:1004400000E3000000E200000000002C00000000BB
:1004500000E6000151500051004F0035003A003BCA
:10046000003C003D003E003F004000410042004390
:1004700000440045004C000100C25C0100C35CCF99
:100480005CD55C01000100010001000100010001D8
:100490000001000100500051004F00010001000167
:1004A0000001000100010001000100000001000145
:1004B000000000005C0100010001000100010001DA
:1004C0000001000100010001000100010001000025
:1004D0000001000000000001000000000001000118
:1004E0000001000100010001000100010001000104
:1004F00000010001000100010001000100010001F4
:1005000000010001000100010001000100010001E3
:1005100000010001000100010001000100010001D3
:1005200000010001000100010001000100010001C3
:1005300000010001000100000001000100000001B5
:1005400000010001000100010001000100010001A3
:100550000001000100010001000100000001000095
:100560000000000100000000000100010001000186
:100570000001000100010001000100010001000173
:100580000001000100010001000100010001000163
:100590000001000100010001000100010001000153
:1005A0000001000100010001000100010001000143
:1005B0000001000100010001000100010001000133
:1005C0000001000000010001000000010001000125
:1005D0000001000100010001000100010001000113
:1005E0000001000100010000000100000000000106
:1005F00000000000000100010001000100010000F6
:1006000000000000000000000000000000000000EA
:100610000000007E0F00D4FFFFFFC700000078003D
:10062000000000000000002A2B280000000000004D
:100630000000000000000000000029000000002C65
:100640001E3420212224342627252E362D37382704
:100650001E1F202122232425263333362E37381F10
:100660000405060708090A0B0C0D0E0F10111213D2
:100670001415161718191A1B1C1D2F3130232D3570
:100680000405060708090A0B0C0D0E0F10111213B2
:100690001415161718191A1B1C1D2F3130354C3222
:1006A000190A00047F3F1F643214643214783C1E20
:1006B0001E140A0509025B00030100A0FA090400E8
:1006C000000103010100092111010001224000077E
:1006D00005810308000A0904010002030000000963
:1006E00021110100012222000705820320000107D9
:1006F00005030320000109040200010300000009B2
:10070000211101000122BC000705840320000A1208
:100710000110010000000820456060010001020393
:10072000010403300000000E03490044003600338A
:10073000004800530000000A034E0050004B0043E5
:10074000000000040309040011241FBECFEFDAE00B
:10075000DEBFCDBF04B603FE27C080910705909190
:100760000805A0910905B0910A058730904BA74074
:10077000B04BD1F4109207051092080510920905AC
:1007800010920A0514BE84B7877F84BF0FB6F89411
:10079000A89580916000886180936000109260004D
:1007A0000FBEE0E0F8E3099525E0ACE9B1E001C057
:1007B0001D92A730B207E1F711E0A0E0B1E0E8E157
:1007C000F2E502C005900D92AC39B107D9F70E944D
:1007D0005F210C94BF280C940000E8EDF0E08081CC
:1007E0008E7F80831092E2001092DA001092E10076
:1007F000A0EEB0E08C9181608C9380818F778083B4
:1008000019BCA7EDB0E08C918E7F8C9380818F7E98
:1008100080831092D40408952091E4003091E50083
:1008200095E6A9012091EC00822F817020FF06C07F
:100830008091E80080FF06C080E008952091E800E4
:1008400022FD1AC080910205882389F0853089F045
:100850008091EB0085FD0FC02091E4003091E50010
:1008600042175307F9F29150E1F684E0089582E0CF
:10087000089583E0089581E00895EF92FF920F9329
:100880001F93CF937C018B010E940C04C82F811110
:1008900017C08091E80085FD0BC08091E8008E773D
:1008A0008093E8000E940C04882399F3C82F08C0A5
:1008B000F70181917F018093F1000150110949F7FF
:1008C0008C2FCF911F910F91FF90EF900895CF93B0
:1008D000FC0180910205843001F5C091E900CF70E0
:1008E0002091EC00922F917020FD90E8C92B82E0BE
:1008F0008093E9008091E80080FF0CC050E040E068
:1009000060E270E0CF010E943D048091E8008E77A4
:100910008093E800CF70C093E900CF910895809153
:10092000FA0487FF13C08091E80082FF06C080911F
:10093000E8008B778093E80004C080910205811164
:10094000F2CF0895809102058823D9F38091E800C1
:1009500080FFF8CF8091E8008E77ECCF982F9093AE
:10096000E900242F762F50E0891731F07091EC00C8
:100970002091ED005091F00021FD07C09F5F97305E
:1009800071F78093E90081E008953091EB003E7F9C
:100990003093EB003091ED003D7F3093ED003091CE
:1009A000EB0031603093EB007093EC002093ED008E
:1009B0005093F0002091EE0027FDE0CF80E00895F5
:1009C000CF92DF92EF92FF920F931F93CF93DF931B
:1009D000C8EDD0E088818F7E8883E7EDF0E08081EC
:1009E0008160808384E082BF81E08093D404888129
:1009F0008E7F888302EE10E0F80110821092DA00F8
:100A000081EEC82ED12CF601108288818F778883E1
:100A100088818068888388818F7D888319BC109243
:100A200002051092F9041092F8041092F70490EE67
:100A3000E92EF12CF70180818B7F80838881816092
:100A4000888342E060E080E00E94AE04F60180818D
:100A50008E7F8083F80180818160808380818860BF
:100A60008083F70180818E7F808388818061888385
:100A7000DF91CF911F910F91FF90EF90DF90CF907A
:100A80000895FC0180910005909101058617970754
:100A9000A0F06115710529F49091E8009E7790937C
:100AA000E80090E06115710551F4911108C0809142
:100AB000E80082FF34C080E00895BC01F2CF80914D
:100AC00002058823C1F18530C1F18091E80083FDE2
:100AD00030C08091E80082FDEACF8091E80080FF7D
:100AE000E1CF8091F3002091F200382F611571055C
:100AF00019F02830310558F091E02830310509F01F
:100B000090E02091E8002E772093E800CBCF8191F0
:100B10008093F100615071092F5F3F4FE7CF8091C3
:100B20000205882341F0853041F08091E80083FF81
:100B3000BECF81E0089582E0089583E0089508958E
:100B40008091D60408959091AF04803F59F480912C
:100B5000B00487FF0DC01092B00491110BC0109229
:100B6000AA0408C0813F81F48091B00418169CF358
:100B7000992381F08091B1049091B204892B09F0FE
:100B800064C01092A7040895823F49F497FFF0CF04
:100B90001092AF048091B0048111ECCFE0CF833F7D
:100BA00019F41916ACF3E4CF2091B104893F29F46C
:100BB0001216F4F61092B104DBCF8A3F19F427FF26
:100BC000D7CFF8CF2091B2048B3F29F427FFD0CFA5
:100BD0001092B204CDCF8C3F19F41216CCF3C8CFCB
:100BE000843F31F48091AE048E7F8093AE04C0CFF9
:100BF000853F21F48091AE048D7FF7CF863F21F4AD
:100C00008091AE048B7FF1CF873F21F48091AE04B9
:100C1000877FEBCF883F21F48091AE048F7EE5CFB4
:100C20008D3F31F4809190048E7F80939004A0CF0B
:100C30008E3F21F4809190048D7FF7CF8F3F09F094
:100C400097CF809190048B7FF0CF0895809190048E
:100C500080FD16C081FD16C082FD16C08091A704DC
:100C60008823A1F0883280F428E0829FC0011124FB
:100C700068E270E00E947B27862F672B39F0089589
:100C800082E0089584E0089588E0089581E0089561
:100C90008091900480FD14C081FD14C082FD16C0B7
:100CA0008091AA04882381F0843180F422E3829F1A
:100CB000C001112464E170E00E947B27862F089513
:100CC0008CE0089589E1089585E0089582E3089510
:100CD000803F31F40E94480681958093B0040895C6
:100CE000813F19F40E944806F8CF823F31F40E94F8
:100CF000480681958093AF040895833F19F40E94BC
:100D00004806F8CF893F29F40E9426068093B10453
:100D100008958A3F21F40E9426068195F7CF8B3FE4
:100D200031F40E94260681958093B20408958C3F89
:100D300019F40E942606F8CF843F31F48091AE0466
:100D400081608093AE040895853F21F48091AE04C4
:100D50008260F7CF863F21F48091AE048460F1CFAA
:100D6000873F21F48091AE048860EBCF883F21F467
:100D70008091AE048061E5CF8D3F31F48091900485
:100D800081608093900408958E3F21F480919004B7
:100D90008260F7CF8F3FB9F7809190048460F1CFE4
:100DA0009C014FB7F8948091D0049091D104A09108
:100DB000D204B091D3044FBF821B930B08952FB779
:100DC000F8948091D0049091D104A091D204B09174
:100DD000D3042FBF08950E94DF069C019091AF04B9
:100DE0008091B004982B21F03093AC042093AB0495
:100DF0009091B1048091B204982B21F03093A90412
:100E00002093A804E0919E04F0919F04309749F04C
:100E100082E08093AD040480F581E02D8DEA94E0BA
:100E20000994089580918B04811110928B04089588
:100E300080918A0490918904892B90918804892B50
:100E400080939C0190918B049923A1F0892B80932E
:100E50009C0180911C01882341F180919B0487FFB4
:100E600024C08EE1EEE9F1E090E0815000F59111AF
:100E70000E941207E0919E04F0919F043097E1F0E8
:100E800080911C01882359F080919B0487FF07C043
:100E900080919C0180939D0185E080939C0102805C
:100EA000F381E02D8CE991E0099486E0DBCF21917C
:100EB0002223D9F29F5FD9CF089590911C019923E5
:100EC000D1F090919B0497FF16C0E82FE695E69528
:100ED000E695EE31E0F4F0E0E456FE4F282F27705F
:100EE00081E090E001C0880F2A95EAF78095928111
:100EF000892382830895EEE9F1E09191891303C07B
:100F0000DF0111971C9291E0E43AF907B1F70895D7
:100F100090911C019923C1F090919B0497FF14C0FC
:100F2000E82FE695E695E695EE31F8F4F0E0E45624
:100F3000FE4F877021E030E001C0220F8A95EAF76A
:100F40008281822B82830895AEE9B1E0EFEF90E0D9
:100F50002D91821751F0EF3F19F4211101C0E92FB3
:100F60009F5F9630A9F7EF3F09F408950E2E000C0D
:100F7000FF0BE456FE4FE6CF2EE0929F800D11242A
:100F8000982F977086958695869525E0829FF0012B
:100F90001124E65AFB4F50E040E080E0219130E020
:100FA000092E02C0369527950A94E2F7217033275F
:100FB000042E01C0220F0A94EAF7822B4F5F5F4F85
:100FC0004530510559F708952EE0929F800D112468
:100FD000982F977041E001C0440F9A95EAF78695E3
:100FE0008695869595E0899FF0011124E65AFB4F7E
:100FF00090E080E070E05191DF0111979B01082E95
:1010000002C0369527950A94E2F72170219525278D
:10101000242325272C9301968530910561F70895A7
:101020008091590490912804981301C008958F5F0E
:101030008770FACF882341F0809590918A048923A4
:1010400080938A040C9418070895882339F09091AE
:101050008A04982B90938A040C9418070895209181
:101060001E0430911F042817390771F090931F0454
:1010700080931E04E0919E04F0919F04309721F02C
:101080000084F185E02D0994089520911C0430918D
:101090001D042817390771F090931D0480931C04D8
:1010A000E0919E04F0919F04309721F00680F78133
:1010B000E02D0994089510928904109288040E94EA
:1010C000180786E0EDEAF4E0DF011D928A95E9F762
:1010D0001092AA041092A704109290040E94EB06AA
:1010E00090E080E00E94450890E080E00C942F089A
:1010F000609303057093040580930505909306059E
:101100000C945B080F931F93609103057091040585
:1011100080910505909106058B019C0106701127B1
:1011200022273327063011052105310529F468608F
:101130001F910F910C947808677FFACF0F931F933C
:1011400041E050E060E070E004C0440F551F661FAE
:10115000771F8A95D2F7CB01BA016095709580957B
:10116000909500910305109104052091050530919B
:10117000060560237123822393231F910F910C9402
:101180007808909187048095892380938704282F7D
:10119000277071F4282F082E000C330B92171306BA
:1011A00039F08595859585950E949E081092870453
:1011B00008950F931F9341E050E060E070E004C099
:1011C000440F551F661F771F8A95D2F7809103053C
:1011D00090910405A0910505B09106058A019B0137
:1011E000082B192B2A2B3B2BC901B8011F910F91FA
:1011F0000C94780860938C0470938D0480938E0413
:1012000090938F040C945B08E0919E04F0919F04EE
:10121000309721F00190F081E02D099480E008954D
:10122000882309F459C0823871F40E94040981FFAF
:1012300053C089E30E9488070E94180789E30E942F
:101240005D070C941807833859F40E94040980FF45
:1012500043C083E50E9488070E94180783E5EFCF0B
:10126000843859F40E94040982FF36C087E40E9442
:1012700088070E94180787E4E2CF9CEF980F913A05
:10128000F0F290E2980F983088F4877021E030E017
:10129000A90102C0440F551F8A95E2F7CA01809543
:1012A00090918A04892380938A04CBCF9BE5980F81
:1012B000933020F490E080E00C94450898E5980F76
:1012C000973120F490E080E00C942F08803F20F0CC
:1012D0000E94A3050C94EB060895FA01811101C048
:1012E000FB0109948091C104982F9E7F61F4817065
:1012F00082608093C1048091C404833318F082E338
:101300008093C40408958635B0F381708465F1CF6D
:10131000AF92BF92DF92EF92FF920F931F93CF9302
:10132000DF93182F062FE901433308F042E3E42F3F
:10133000F0E0E653FE4F011110C0E4915E2F4E2FF6
:101340004983E8835A83DF91CF911F910F91FF90DA
:10135000EF90DF90BF90AF900895202F30E0449140
:10136000D42EE42EF12C56E0159FC0011124EFEF8E
:10137000F0E0BF010E946727812F90E0880F991F3E
:1013800055E5569FD001579FB00D11248A1B9B0B2A
:10139000982F990F890F5F01A21AB30AAE9CD00152
:1013A000AF9CB00DBE9CB00D11245B2F089F800137
:1013B0001124012F11275F01A01AB10AAE9C8001F0
:1013C000AF9C100DBE9C100D11245F01A81AB1082E
:1013D000A29EC001A39E900DB29E900D1124892F54
:1013E0009927E81BF90BEE9DC001EF9D900DFE9D26
:1013F000900D1124E92F62307105A1F050F46115B0
:10140000710509F49DCF6130710581F0EB2F512FEB
:1014100097CF6430710569F080F06630710509F48A
:101420008FCFF4CFE42F4B2F592F8ACFE42F412FAA
:1014300087CFEB2F542F492F83CF4B2F5D2DE12FDB
:101440007FCF90919B0492FF06C0282F28712830EF
:10145000F9F4877F846093FF06C0282F2871283114
:10146000F1F4877E846120919C0420FF06C0382F10
:1014700038713830D9F4877F816021FF06C0282F6A
:1014800028712831D1F4877E816194FD877E08958B
:10149000282F24712430F9F68B7F8860DCCF282F29
:1014A0002471243101F78B7E8861DDCF382F3171B3
:1014B000313019F78E7F8860E0CF282F21712131DC
:1014C00021F78E7E8861E1CF81FF03C03E9A469866
:1014D00008953E98FCCFCF93DF9300D00F92CDB705
:1014E000DEB790910205943011F589837B836A837E
:1014F0009093E9008FEF9091E800815095FD06C030
:1015000095ED9A95F1F700008111F5CF8091E800F3
:1015100085FF0DC050E040E063E070E0CE01019631
:101520000E943D048091E8008E778093E8000F9040
:101530000F900F90DF91CF910895BC0184E00C943F
:101540006B0ABC0183E00C946B0A9C0184E08093DD
:10155000E9009FEF8091E800915085FD06C085ED80
:101560008A95F1F700009111F5CF8091E80085FF91
:101570000CC050E040E066E070E0C9010E943D040C
:101580008091E8008E778093E8000895CF93DF93F1
:10159000EC0180911C018823B1F180919B0487FFAD
:1015A00032C060E284E08093E9008FEF9091E80020
:1015B000815095FD06C095ED9A95F1F700008111D7
:1015C000F5CF8091E80085FF1BC080911C0170E081
:1015D00050E040E0811104C050E040E068E070E07D
:1015E000CE010E943D048091E8008E778093E80050
:1015F00080E2FE01A7EDB4E001900D928A95E1F73B
:10160000DF91CF91089568E081E0CDCF81E08093B4
:10161000E00080E28093D8001092C9008FE19EE440
:101620000197F1F700C0000087E090EBDC018093A8
:10163000070590930805A0930905B0930A0588E172
:101640009CE00FB6F894A895809360000FBE90932D
:101650006000FFCFCF93C82F882309F4AEC0823833
:10166000C1F40E94040981FDA8C089E30E94880793
:101670000E9418072FEF81EE94E0215080409040A7
:10168000E1F700C0000089E30E945D07CF910C9450
:1016900018078338A1F40E94040980FD8EC083E5F9
:1016A0000E9488070E9418072FEF81EE94E02150D6
:1016B00080409040E1F700C0000083E5E5CF84382A
:1016C000A1F40E94040982FD78C087E40E94880783
:1016D0000E9418072FEF81EE94E021508040904047
:1016E000E1F700C0000087E4CFCF8CEF8C0F813A88
:1016F00088F580911C01882301F180919B0487FF6C
:101700001CC0EC2FE695E695E695F0E0E456FE4F1A
:10171000828190E04C2F477021E030E002C0220F20
:10172000331F4A95E2F782239323892B79F08C2F7C
:101730000E945D070E94180709C0EEE9F1E081915F
:10174000C817A9F321E0E43AF207C9F78C2F0E94E9
:1017500088079CCF80E28C0F883068F4C77021E046
:1017600030E001C0220FCA95EAF780918A04822BEB
:1017700080938A048BCFEBE5EC0FE33040F4F0E08C
:10178000E85BFE4F808190E0CF910C944508E8E53E
:10179000EC0FE73150F4F0E0EE0FFF1FE55BFE4F7A
:1017A00080819181CF910C942F08C03F30F08C2F15
:1017B0000E946806CF910C94EB06CF910895CF93C9
:1017C000C82F0E942A0BC93349F42FEF87EE93E00C
:1017D000215080409040E1F700C000008C2FCF9155
:1017E0000C9410090F931F93CF93DF93C42FD22F24
:1017F000FC0182818823A1F0409320040E94DF062F
:1018000090931B0480931A04C77081E001C0880F75
:10181000CA95EAF7DF91CF911F910F910C9425089B
:1018200010912004141335C080911A0490911B0468
:101830000E94D006883C910560F5C0E2CD0F1D17CF
:10184000B9F080E2810F883040F4177081E001C068
:10185000880F1A95EAF70E941A08C83048F481E008
:101860009D2F977001C0880F9A95EAF70E9425086E
:10187000802F0E94DF0BC83098F4D77081E001C040
:10188000880FDA95EAF7DF91CF911F910F910C94B1
:101890001A08C77081E001C0880FCA95EAF7F3CF34
:1018A000DF91CF911F910F9108958091C10480FD28
:1018B0000AC0E2ECF1E0118210821282339652E00B
:1018C000E33AF507C1F7279A35B13F7725B120688C
:1018D0004FB7F89482EC91E0FC015191CF0168E0A0
:1018E00025B9000000C057FF35B9550F000000C0F2
:1018F00000C000C035B900C06A9591F7F2E0833AA4
:101900009F0751F74FBF8FE594E00197F1F700C0B3
:1019100000000895EF92FF921F93CF93DF93EC01A5
:1019200082ECE82E81E0F82E10E08C819701409146
:10193000C4046091C304810F0E9488091D5F83E085
:10194000E80EF11C113E89F70E94550C9A818C819A
:1019500090FF08C08F5F8C83DF91CF911F91FF9024
:10196000EF9008958150F7CFBF92CF92DF92EF9220
:10197000FF920F931F93CF93DF93FC018281DD24AD
:10198000DA9480FD02C0DD24D39402EC11E0D0E0B3
:10199000C0E02BE4B22EF80111821082128294E092
:1019A000E92EF12CC12C8091BF018C0D8C340CF4EC
:1019B0003DC06B2D0E945927892F082E000C990BD2
:1019C0008C179D0791F48091C4048E9DA0018F9D7A
:1019D000500D11245595479555954795980160915F
:1019E000C3048091C2040E948809CD0CF1E0EF1A73
:1019F000F108C9F621960D5F1F4FCB34D10559F67A
:101A00000E94550C8091BF0191E0D91215C081113F
:101A100011C08AE48093BF01DF91CF911F910F9194
:101A2000FF90EF90DF90CF90BF90089587FFC5CFD4
:101A3000855BC3CF8150EECF90E00196BE010E943E
:101A40007B27E8CF0F931F93CF93DF93C2ECD1E0B6
:101A5000FE01118210821282339682E0E33AF80787
:101A6000C1F710E000E08091C001082E000C990B36
:101A7000081719078CF180911001082E000C990BA2
:101A8000801791074CF19E014091C4046091C304FA
:101A90008091C2040E9488090F5F1F4F23960B3468
:101AA000110509F70E94550C80910F019091C0011A
:101AB000980F9093C00120911001280F20931001DE
:101AC000121614F49A341CF0819580930F01DF9163
:101AD000CF911F910F910895198218821A82DCCF3D
:101AE0008F929F92AF92BF92CF92DF92EF92FF922E
:101AF0000F931F93CF93DF93EC014C81042F10E0E1
:101B00009801D8010E94B0289B01AC010E947B285B
:101B10004B015C01E0E2F0E0E01BF10BA5E5B0E079
:101B2000AC019B010E947B286B017C019F01DF01BE
:101B30000E949C279B01AC010E9486289B01AC015E
:101B4000280D391D4A1D5B1DC701B6010E948E2854
:101B5000F22E822F90E039E23F15D8F143E0249F26
:101B60009001112435952795122F109592ECC92ECE
:101B700091E0D92E00E085E5E82EEF188E2D01FDCD
:101B80008F2D9601412F6091C3040E9488090F5F39
:101B900053E0C50ED11C0B3489F70E94550C9C8173
:101BA00081E0992319F0903219F48FEF809311019D
:101BB00080911101890F8C83DF91CF911F910F913B
:101BC000FF90EF90DF90CF90BF90AF909F908F905D
:101BD000089525E530E0A901481B590BCA019A0177
:101BE000220F331F280F391F37FFBCCF2F5F3F4F06
:101BF000B9CFEF92FF920F931F93CF93DF938C0196
:101C0000C2ECD1E0F12CE12CF80194816091C30485
:101C10008091C204F5E2EF16F104FCF49923F9F087
:101C20009E014091C4040E9488092FEFE21AF20A33
:101C300023968BE4E816F10439F70E94550CF8015D
:101C4000848190E00196817099278483DF91CF9100
:101C50001F910F91FF90EF900895992309F39E0132
:101C600040E0E1CF9091C10490FF0CC0E2ECF1E0C4
:101C7000818360834283339692E0E33AF907C1F7A8
:101C80000C94550C08950F931F93CF93DF9300D0BE
:101C90000F92CDB7DEB78C018091C10181110AC0CE
:101CA0009E012F5F3F4F42E36FEF0E9488098A81B8
:101CB0008093C101F8016481613069F08091C101B4
:101CC00040E0662361F040E0623011F44091C101D0
:101CD00080E060E004C06091C10140E080E00E94CB
:101CE000320EF801848190E0019663E070E00E947A
:101CF0007B2784830F900F900F90DF91CF911F91DE
:101D00000F910895CF93DF9300D00F92CDB7DEB738
:101D10009091C10490FF0AC09E012F5F3F4F0E9427
:101D200088094B8169818A810E94320E0F900F9041
:101D30000F90DF91CF910895CF93DF93EC01EC8169
:101D4000F0E0E153FD4F4491E1ECF4E062818181E8
:101D50000E94820E8C818F5F8C83DF91CF910895DA
:101D6000CF93DF93EC01E1ECF4E0438162818C815D
:101D70000E94820E8C818F5F8C83DF91CF910895BA
:101D80007F928F929F92AF92BF92CF92DF92EF920B
:101D9000FF920F931F93CF93DF9309E711E0A1E91F
:101DA000B4E0712CCC24C394D12CE80189918E012C
:101DB000E82FE295EF70F0E091A18F70760101C0FD
:101DC000EE0C8A95EAF7892F8E2981A392A17E2DA8
:101DD0007095972392A3D0EADA95F1F79EE7A92EA2
:101DE00091E0B92E50E040E030E020E0E50169915B
:101DF0005E01862E82948FE08822912CE40188A1D6
:101E000090E06F7002C0959587956A95E2F780FD26
:101E100065C0C601042E02C0880F991F0A94E2F71C
:101E2000282B392B4F5F5F4F4E305105F9F681A1BA
:101E3000872381A382A1E82AE2A28D919C91119728
:101E40002817390709F44DC011963C932E9381E071
:101E5000782A1296D1E00E371D0709F0A6CF772019
:101E600009F441C081E08093BE010E94DF06909397
:101E7000BD018093BC018091BC019091BD010E9485
:101E8000D0060697A0F180919104909192049093CE
:101E9000C7048093C6048091930490919404909316
:101EA000C9048093C80480919504909196049093FE
:101EB000CB048093CA0480919704909198049093E6
:101EC000CD048093CC048091990490919A049093CE
:101ED000CF048093CE041092BE0109C090E080E050
:101EE0009FCF80E0B5CF8091BE018111C4CF872DF7
:101EF000DF91CF911F910F91FF90EF90DF90CF90E6
:101F0000BF90AF909F908F907F900895CF9384E083
:101F100090E00E941428C82F81E290E00E941428CB
:101F2000982F8C2FCF9108950F931F93CF93DF930A
:101F3000C42FD0E0CC0FDD1F2CE1629FC00DD11D5E
:101F400011243CE8839FC00DD11D1124CE0186963B
:101F50000E941428082F10E0102F0027CE0187962A
:101F60000E9414289801282BC901DF91CF911F915D
:101F70000F910895462F843038F4753028F46E3070
:101F800018F4672F0C94940F90E080E00895CF939D
:101F9000DF930E94BA0FEC0182389105A9F1D8F5C0
:101FA0008133910509F496C048F58932910509F409
:101FB0008AC08A9709F495C0C11521E5D20708F0B7
:101FC000BCC0C11530E5D30708F014C1C83ED10527
:101FD00008F09CC0C03ED10560F5C83AD10508F0B4
:101FE00087C0C53AD10508F0FDC0C130D10509F15F
:101FF0002097F9F0C430D105E0F440C08533910555
:1020000009F45AC0C997C1F680919B04837089F086
:10201000C0EED0E00EC0833E910599F170F4803E91
:10202000910501F1823E910539F680919B0482FD74
:1020300021C0CE01DF91CF910895863E910561F1D7
:10204000873E910571F1843E910509F0B5CF8091ED
:102050009C0481FFEECF80919B04C7EED0E084FD0D
:102060000DC0E7CF80919B0480FD12C190919C042C
:1020700090FFDFCFC3EED0E084FFDBCFD0E0C0E045
:10208000D8CF80919B0482FD06C190919C0490FD65
:10209000BFCF84FFCECFF2CF80919B0483FDDDCFF5
:1020A000C8CF80919B0483FDF9C090919C0491FF5F
:1020B000F0CFC4EED0E0BDCF80919B0485FFB9CFB7
:1020C000C9E2D0E0B6CF80919B0485FFB2CFC5E3D3
:1020D000D0E0AFCF80919B0486FFABCFCAE2D0E0C7
:1020E000A8CF80919B0486FFA4CFC1E3D0E0A1CF0D
:1020F000CF3BD10518F6C85AD0E0CC0FDD1FC55B29
:10210000DE4F0990D881C02DD46493CFC11540E231
:10211000D40758F4C11581E0D80708F08ACFC03F32
:10212000D10508F4ABCFD06584CFC11590E4D907B1
:1021300008F4A4CFDF70D06A7CCFC11525E5D207A3
:1021400000F5C11534E5D30708F08AC0C11543E591
:10215000D40708F071C0C11582E5D80708F467C03C
:10216000CE018370992721E030E002C0220F331F97
:102170008A95E2F7C695C69580E2C89FE0011124D2
:1021800052C0C11599E5D907A8F4C11528E5D207B1
:1021900008F06BC0C11536E5D30708F06FCF8C2F60
:1021A0000E94210AC82FD0E0DC2FCC27CC27DF717A
:1021B000D0623FCFC1154AE5D40708F45BC0CE0119
:1021C00090568115904208F059CF8D2F8F710E9443
:1021D000210A90E0982F882788279F719C012C2B3B
:1021E000E901E6CFC55AD0E0C85BDE4FC881D0E038
:1021F000D0641FCFCE01E4E096958795EA95E1F78C
:1022000083702C2F26952695237040E2249F900101
:102210001124382B8C2F8370C1E0D0E002C0CC0F8A
:10222000DD1F8A95E2F7C22BD32BDC6802CFDC2FAF
:10223000CC27C16FD06AFDCECE018370992721E0F3
:1022400030E002C0220F331F8A95E2F7C695C6958B
:1022500090E2C99FE0011124C22BD32BDA68E9CEAA
:10226000DC2FCC27C46FD06AE4CEDC2FCC27C06F24
:10227000D06ADFCE8C2F8F700E94210A34E0D69571
:10228000C7953A95E1F7CF709C2FEC01D069D1CE7C
:10229000C9E3D0E0CECEC2EED0E0CBCEC6EED0E0E9
:1022A000C8CEBF92CF92DF92EF92FF920F931F930F
:1022B000CF93DF938C01C0900305D0900405E0908C
:1022C0000505F090060580918C0490918D04A091F5
:1022D0008E04B0918F04C82AD92AEA2AFB2ACFE1BA
:1022E000D0E0BC2ED701C6010C2E04C0B695A79530
:1022F000979587950A94D2F780FD0EC0219788F7AD
:10230000B12C8B2DDF91CF911F910F91FF90EF900A
:10231000DF90CF90BF900895B8018C2F0E94C70F17
:10232000019761F3EECFCF93DF93EC010E9451113F
:10233000BE01DF91CF910C94C70F0E949311292FFA
:102340002F7092959F7092509E3078F4E92FF0E0B4
:10235000EF53F74D0C948F27803F19F020F4883EFF
:1023600020F481E00895843FE1F380E00895883E01
:10237000C0F3813FD1F7F5CF822F8695869586955C
:1023800008956F927F928F929F92AF92BF92CF9259
:10239000DF92EF92FF920F931F93CF93DF938FEC17
:1023A000C82E83E0D82E9EECE92EF12CE701CC5804
:1023B000D10936011BC0F50185909490692DC801A3
:1023C0000E942828682DC80101960E94282882E0D2
:1023D000A80EB11C0E5F1F4FC017D10761F78CE12B
:1023E000680E711C6C96CE15DF0529F08E010C511C
:1023F00011095301E0CF7E018CE8E80EF11C8CE856
:10240000C80ED11C8EEFE81682E0F80679F6DF914F
:10241000CF911F910F91FF90EF90DF90CF90BF90E1
:10242000AF909F908F907F906F900895CF93DF93A0
:10243000C6E5D2E060E0CE010E9428282196C115B1
:1024400084E0D807B9F7DF91CF910895CF93C82FD3
:102450006FEF811161E282E290E00E9428286FEF25
:10246000C11162E183E290E00E9428286FEFC11160
:1024700061E084E290E0CF910C9428288F929F92A3
:10248000AF92BF92CF92DF92EF92FF920F931F9382
:10249000CF93DF93FC01B280948081E08483C3EA10
:1024A000D2E002EC11E08BE4A82E88248394EE2481
:1024B000EA94F12C2BE4C22ED12C91101DC01B826A
:1024C0001A8298014A81698188810E94880925962B
:1024D0000D5F1F4F84E0CA31D80779F7DF91CF91A4
:1024E0001F910F91FF90EF90DF90CF90BF90AF9032
:1024F0009F908F900C94550C2B81222309F1215031
:102500002B833C818A2D821B311101C0822F909137
:10251000C404899FC0011124B6010E9467276A8301
:10252000211104C0332311F01C82AB8222E02B1551
:1025300040F28091C20488838091C3048983C1CF13
:102540000E94F727823091400CF0BBCF82E08B15C0
:10255000C0F40E94F727B7010E947B27888322E0FE
:102560002B1590F40E94F7272091C3042695622F23
:1025700070E00E947B27280F29831A82AB828C820D
:10258000A0CF8091C204EACF2091C304F5CF6CEEB6
:102590007EEF90E080E00E94462860E082E090E0DC
:1025A0000E94282860E083E090E00E942828109292
:1025B0008C0410928D0410928E0410928F0460E0AF
:1025C00084E090E00E94282860E081E290E00E9490
:1025D000282860E085E090E00E94282860E086E0FE
:1025E00090E00E9428286FEF87E090E00E94282862
:1025F00040E050E0BA0188E090E00E943A2860E0B4
:102600008DE090E00E94282840E050E0BA0188E187
:1026100090E00E943A2860E087E190E00E9428283C
:1026200040E050E0BA018CE190E00E943A2860E07E
:1026300080E290E00E94282840E050E0BA018FE05C
:1026400090E00E943A2840E050E0BA0183E190E037
:102650000C943A28CF92DF92EF92FF926B017C01AB
:102660000E947209B701A60188E090E0FF90EF9008
:10267000DF90CF900C943A285F926F927F928F9266
:102680009F92AF92BF92CF92DF92EF92FF920F9301
:102690001F93CF93DF9300D00F92CDB7DEB7182FE3
:1026A000762E042F622E9091C10490FF29C0E92F4D
:1026B000E695AE2FB0E0A35EBE4F8C918093BF0431
:1026C0009E7F923081F59E012F5F3F4F812F0E94A8
:1026D00088094B8169818A810E94320E1093C2045D
:1026E0007092C3040093C404662051F06091C10449
:1026F0007091C2048091C3049091C4040E942A1373
:102700000F900F900F90DF91CF911F910F91FF903D
:10271000EF90DF90CF90BF90AF909F908F907F9081
:102720006F905F900895823019F40091C404D6CF61
:10273000863019F41091C204D1CF8930D9F3893190
:1027400069F6E9518E2F8170582EE695F0E0E65338
:10275000FD4FA590B490BB2482ECE82E81E0F82ECA
:10276000D12CC12C9BE4892E912CC601B4010E946E
:102770006727812F511013C0860F9701402F672DB7
:102780000E948809CA0CDB1C83E0E80EF11C83EA76
:10279000E81682E0F80649F70E94550C9FCF861B89
:1027A000ECCFE1ECF4E0438128E0421B08F440E088
:1027B00021E0628181810C943C13E1ECF4E04381DF
:1027C00028E0420F08F44FEF21E0628181810C94F0
:1027D0003C13E1ECF4E0628128E0621B08F460E065
:1027E00021E0438181810C943C13E1ECF4E06281AF
:1027F00028E0620F08F46FEF21E0438181810C949F
:102800003C13E1ECF4E0818121E043816281885056
:102810000C943C13E1ECF4E0818121E0438162817E
:10282000885F0C943C138091C504882319F0815073
:102830008093C5046091C1047091C2048091C30467
:102840009091C4040C942A138091C504833018F429
:102850008F5F8093C5046091C1047091C204809120
:10286000C3049091C4040C942A13E1ECF4E081E1D8
:10287000808311828FEF828382E38383148260815D
:102880007181828193810C942A1310928A04809121
:102890001C01EEE9F1E0882359F080919B0487FF49
:1028A00007C08EE1DF011D928A95E9F70C945B0861
:1028B00086E0F8CF1F93CF93DF93CDB7DEB7AA970B
:1028C0000FB6F894DEBF0FBECDBF8AEF94E0209123
:1028D000F100DC012D93CD01B5E082309B07B9F703
:1028E0008091FB04833009F471C0B8F4813009F49D
:1028F00048C0823009F4B2C08091E80083FF3AC139
:102900008091FA049091FB049A3008F033C1E92FCA
:10291000F0E0E153F74D0C948F278A3009F48DC015
:102920008B3009F470C0893039F78091FA04813214
:1029300019F78091FE049091FF04009711F002971F
:10294000D9F68091E800877F8093E8008091E800C5
:1029500082FF37C09091F3008091F200029729F432
:102960008091F1008B7F813021F48091F100809380
:10297000D6048091E8008B778093E8000E948F0452
:10298000BBCF8091FA04813A09F0B6CF8091E8007C
:10299000877F8093E8008091FE049091FF04892B4B
:1029A00061F460E287ED94E070E00E94410580915F
:1029B000E8008B778093E8009FCF60E090E080E0B4
:1029C000F3CF809102058111C1CF96CF8091FA0497
:1029D000813A09F091CF8091FE049091FF04892BF8
:1029E00009F08ACF8091E800877F8093E80080918A
:1029F000E80080FFFCCF80911C018093F100809162
:102A0000E8008E77B9CF8091FA04813209F074CF53
:102A10008091FE049091FF04892B09F06DCF809185
:102A2000E800877F8093E8000E948F048091FC0477
:102A300080931C010E9445145FCF8091FA0481327B
:102A400009F05ACF8091E800877F8093E8000E94C8
:102A50008F048091FD048093D5044ECF8091FA04B9
:102A6000813A09F049CF8091E800877F8093E800A0
:102A70008091E80080FFFCCF8091D504BECF8038E4
:102A800099F0823809F076C08091FE048F7087300B
:102A900008F070C08093E9008091EB0085FB8827E7
:102AA00080F91092E90006C08091F7049091F80433
:102AB000911182609091E800977F9093E800809355
:102AC000F1001092F1008091E8008E77C0C1882358
:102AD00009F4ADC1823009F04DC08091FC04811130
:102AE000B1C18091FE048F702FEF280F263008F0BF
:102AF00041C08093E9002091EB0020FFA3C19330F7
:102B000031F48091EB0080628093EB009BC1909147
:102B1000EB0090619093EB0021E030E001C0220FC8
:102B20008A95EAF72093EA001092EA008091EB0080
:102B30008860EACF81111EC01091FC041F7780913C
:102B4000E3008078812B8093E3008091E800877F09
:102B50008093E8000E948F048091E80080FFFCCF02
:102B60008091E30080688093E30082E0111183E0AC
:102B7000809302058091E80083FF0AC08091E800FD
:102B8000877F8093E8008091EB0080628093EB0068
:102B9000AA960FB6F894DEBF0FBECDBFDF91CF91DE
:102BA0001F9108958058823028F72091FC043091BD
:102BB000FD042C3DE3E03E07A1F583E08A838AE231
:102BC00089834FB7F894DE01139620E03EE051E28E
:102BD000E32FF0E050935700E49120FF03C0E2950B
:102BE000EF703F5FEF708E2F90E0EA30C0F0C79635
:102BF0008D939D932F5F243159F74FBF8091E8004B
:102C0000877F8093E8006AE270E0CE0101960E941F
:102C100041058091E8008B778093E800ABCFC096A8
:102C2000E7CF8091FE049091FF04432F5527433056
:102C3000510509F44AC078F54130510509F485C0C1
:102C40008BE590E0E4EBF6E04230510509F092CFDD
:102C50002091E800277F2093E80020910005309123
:102C600001058217930708F49C0140E02115310506
:102C700009F070C041116EC08091E80082FDC9CF9B
:102C800080910205882329F2853019F28091E800AD
:102C900083FFF2CFBECF4132510509F447C0423223
:102CA000510509F067CF8330910508F063CFFC012F
:102CB000EE0FFF1FE157FE4F0190F081E02D84578A
:102CC0009E4FDC018C9190E01DC0332721303105EF
:102CD000E9F02115310579F022303105F9F0233082
:102CE000310509F047CFE1E2F7E0E4918E2F90E063
:102CF000E1E2F7E007C0E3E4F7E0E4918E2F90E033
:102D0000E3E4F7E0009709F435CFA2CFE7E3F7E07B
:102D1000E4918E2F90E0E7E3F7E0F4CFE7E2F7E00D
:102D2000E4918E2F90E0E7E2F7E0ECCF833091055D
:102D300008F020CF880F991FFC01EB56FE4F019041
:102D4000F081E02D89E090E083CF82E190E0EFE038
:102D5000F7E07ECF80910205882309F45ACF8530B1
:102D600009F457CF8091E80083FD53CF8091E800AC
:102D700082FD82CF8091E80080FF78CF9091F300B0
:102D80008091F2002115310519F08830910550F03D
:102D900041E0089709F040E08091E8008E77809349
:102DA000E80064CF44914093F100319621503109FD
:102DB0000196E8CF803809F0DDCE8091E800877F6A
:102DC0008093E8008091F9048093F1007CCE81111A
:102DD000D1CE1091FC04123008F0CCCE8091E800E6
:102DE000877F8093E8001093F9040E948F041123D9
:102DF00011F084E005C08091E30087FDFACF81E007
:102E00008093020542E061EC81E00E94AE0442E260
:102E100061EC84E00E94AE0442E261EC82E00E9438
:102E2000AE0442E260EC83E00E94AE04A3CE809147
:102E3000FC04813009F09ECE81E0933009F080E0FF
:102E40008093F8041092E9008091E800877F8093D6
:102E5000E8000E948F048ECE9091C10490FF3DC087
:102E60009170811129C092609093C104662351F042
:102E70006091C1047091C2048091C3049091C40414
:102E80000E942A136091C104669570E04BE050E007
:102E900084E091E00E940728892BA9F01092C004D9
:102EA00081E08093A40420E04091C4046091C304B5
:102EB0008091C2040C943C138B3210F09465D4CFF3
:102EC000880F982BD1CF81E08093C0040E94DF0649
:102ED0009093A2048093A104E3CF08958091C1044C
:102EE0008695815009F48AE261E00C942C17809158
:102EF000C10486958F5F8B3208F081E061E00C940D
:102F00002C179091C10490FF07C09695981720F058
:102F1000961710F40C94771761E00C942C174F92CD
:102F20005F926F927F928F929F92AF92BF92CF9259
:102F3000DF92EF92FF920F931F93CF93DF9300D016
:102F400000D00F92CDB7DEB77C01FC018381948164
:102F5000892B31F08081918189238F3F09F0F8C559
:102F60000F900F900F900F900F90DF91CF911F91C6
:102F70000F91FF90EF90DF90CF90BF90AF909F9018
:102F80008F907F906F905F904F9008950E945111A5
:102F9000182F682F89819A810E94E40769817A81BC
:102FA000812F0E94BA0F8C01F7019281992309F4B5
:102FB000C4C5980122513F452031310508F094C520
:102FC0008FEF93E00E941428025156E5852E52E0BF
:102FD000952E882379F180918704877009F4C0CFFA
:102FE000F7018281882309F4BBCF82E00F900F9014
:102FF0000F900F900F90DF91CF911F910F91FF9045
:10300000EF90DF90CF90BF90AF909F908F907F9088
:103010006F905F904F900C94C1088114F4E09F066C
:10302000D1F2C4010E941428811101C001502FEF78
:10303000821A920A0111F1CF1C821B8266246394CA
:103040004AE0542E84010F5F1F4FC4010E941428D0
:1030500089831A82882309F4BECF9FEF980F93309B
:1030600008F58A83698232E0830E911CC8010E94B0
:1030700014288B83882309F4AECF8E010F5F1F4F76
:10308000F80120812223F1F2213009F043C091811F
:103090008281913049F40E5F1F4F0E94DF0B0F5F5A
:1030A0001F4FEECF4801E9CF923029F40E5F1F4F3A
:1030B0000E942A0BF4CF933029F40E5F1F4F0E9419
:1030C0001009EDCF943019F00F5F1F4FE8CF0E5F5E
:1030D0001F4F30E020E0B8016F5F7F4FF801418162
:1030E0008053990B8A30910550F021503109B8F284
:1030F0008FE99FE00197F1F700C00000F6CF529EE4
:10310000F001539EF00D11249C012E0F3F1F842FC0
:103110008B01E1CFE22FF0E0E15EF94F7490822F56
:1031200086958695869590E0FC01E15FF94FA49025
:103130002770B12C022E02C0B594A7940A94E2F72E
:10314000E1E0AE22BB24FC01E150FA4FC490D12C47
:1031500002C0D594C7942A95E2F7F1E0CF22DD248E
:10316000A114B10419F081EE0E942A0BC114D104FC
:1031700019F086EE0E942A0B872D0E94DF0BCD28C6
:1031800019F086EE0E941009AB2809F488CF81EE71
:1031900096CF81E00E94D9080E9482081CCF81E06E
:1031A0000E949E08F9CF82E0F5CF053F2CE512077B
:1031B00009F465C008F45DC0063F8CE5180709F402
:1031C00064C0992309F4D5C4109220040230ECE5C0
:1031D0001E0708F442C10631FCE51F0738F09801CC
:1031E0002A5F3C452930310508F037C10E94860F1F
:1031F00090939C0480939B0400312CE5120709F402
:10320000FBC008F085C008308CE5180709F4E6C05B
:1032100008F057C00430ECE51E0709F4D3C008F0ED
:1032200040C002302CE5120709F4C6C080919B040F
:10323000826003301C4509F4C2C060919B04109168
:103240009C0484E090E00E942828612F81E290E0B5
:103250000E9428280E944514BECE07E225EE45EEC6
:1032600068ED7CE566C406E221EE40EE63EF7CE5A6
:1032700060C407E225EE44EE64EF7CE55AC406E242
:1032800021EE42EE65EF7CE554C407E225EE46EE02
:1032900066EF7CE54EC408E221E045EE69ED7CE591
:1032A00048C406308CE5180709F494C080919B044B
:1032B000886007301C4508F482C080919B048062BE
:1032C0007EC080919B048D7F0C30ECE51E0709F4D5
:1032D00076C070F480919B048C600A302CE5120754
:1032E00009F46DC008F47EC080919B048E7F67C096
:1032F0000E308CE5180709F47BC080919B048B7F0E
:103300000F301C4508F45BC080919B048F7E57C032
:103310000B3FECE51E0709F459C030F503312CE5ED
:10332000120709F471C078F401318CE5180709F42B
:1033300067C002311C4509F080CF0E94451480917E
:103340009B048F773CC00531ECE51E0709F464C08F
:1033500008F478C080919C0481600A3F1C4509F004
:103360006CCF80939C0469CF0F3F3CE5130709F4B1
:103370004FC088F480919C048D7F0D3F9CE5190718
:1033800081F380919C048E7F0E3F1C4550F3809109
:103390009C048360E6CF0130FDE51F0709F45BC0A4
:1033A00008F446C060E002301D4509F046CF8EE0CB
:1033B00090E00E94282841CF80919B0481608093F7
:1033C0009B043BCF80919B048460F9CF80919C0447
:1033D0008260C7CF80919B048061F1CF80919B0474
:1033E0008064EDCF0E94451480919B048068E7CFF4
:1033F00080919B04877FE3CF80919B048F7DDFCFFB
:1034000080919B048F7BDBCF80919B04837FD7CF00
:1034100080919C048C7FA5CF80919B0482FB99278F
:1034200090F921E0922790FB82F990FB83F9C7CFB6
:1034300080919C04982F909591708E7F892B90FBA2
:1034400081F98FCF0E94451490919B04892F97FB9F
:1034500087F98058B4CF61E0AACF80918A04063101
:10346000ECE51E0709F091C38A7A91E009F490E037
:1034700090932104811106C089E20E9488070E946E
:103480001807A9CD85E3F9CF85E37CC38091C104FA
:1034900080FF1BC08E7F8093C1046091C104709136
:1034A000C2048091C3049091C4040E942A13109214
:1034B000C004FFEF20E732E0F15020403040E1F758
:1034C00000C000000E94550C86CD81608093C1042D
:1034D00061E086950E942C177ECD4EE657E167E7A6
:1034E00077E10E946D0977CD47E757E16EE677E116
:1034F000F8CF41E054E16AE074E1F3CF4AE054E1EF
:1035000061E074E1EECF49EE53E165EF73E1E9CF9D
:1035100045EF53E169EE73E1E4CF41ED53E16DED29
:1035200073E1DFCF4DED53E161ED73E1DACF43E1BC
:1035300054E164E274E1D5CF44E254E163E174E123
:10354000D0CF61E081E0C6CF65E082E00E948117C4
:1035500042CD68E086E0FACF6EE089E0F7CF64E123
:103560008FE0F4CF67E185E1F1CF61E088E1B2CF90
:1035700062E289E1EBCF61E083E2ACCF01158CE53B
:10358000180709F447C00E3D1C4509F450C0F70167
:1035900000811181992309F44DC0C8010E94511185
:1035A000D82E682FC8010E94E407B8018D2D0E9413
:1035B000C70F8C01882EF701A580A2943FE0A322BB
:1035C000D280D1101092890480918704877099F07D
:1035D000DD2089F0812F807F803421F080E2800F10
:1035E000883048F082E00E94C1088091870487708B
:1035F000CC24C3948111C12CB12EB2942FE0B222FD
:10360000FBE0FB1508F450C0EB2DF0E0E752F74D5E
:103610000C948F270E944514FFEF24E33CE0F15007
:1036200020403040E1F700C000000E94060B0E94DD
:10363000C712D1CCC8010E94BC07D82EB6CF212F0B
:103640002F70A22E107F19F0A29490EFA922DD20F6
:10365000C9F0AA2069F080E2800F883010F0811054
:103660000BC080918A04A82AA0928A040E9418079D
:10367000802F0E942A0B18C080918904A82AA0924A
:103680008904F4CF802F0E941009AA2069F0A09429
:10369000005E083010F081103DC080918A04A8229D
:1036A000A0928A040E941807EB2DE850FF0B349774
:1036B00020F40E9404090E94640ACC2009F450CC32
:1036C0008091870480FD4CCCF70112828595859509
:1036D00085950E94D908C7010E948F1780918704A1
:1036E0008595859585950F900F900F900F900F9071
:1036F000DF91CF911F910F91FF90EF90DF90CF90CE
:10370000BF90AF909F908F907F906F905F904F9001
:103710000C949E0880918904A822A0928904C2CFAB
:10372000312F3F70932E107F103219F0929480EF5A
:103730009822882071F081E0881661F1DD20B9F1CE
:10374000AA2071F1F701858180FF92CF8F70858368
:1037500027C0DD2091F090918B04892D892BA11039
:1037600003C00E942508A0CFE1E0AE12FACF98175F
:1037700009F49ACF80938B0497CFA11006C00E94C2
:103780001207892D0E941A088FCFF1E0AF1609F4B5
:103790008BCFF5CFDD2031F025E02A1508F484CF5A
:1037A000892DDFCF34E03A1508F47ECFEACFAA2086
:1037B00041F3F9E38F1291C12FEF37EE83E02150EF
:1037C00030408040E1F700C0000087C1812F86951E
:1037D0008695837061F0813009F066CFC8019370DF
:1037E000D11002C090E080E00E942F085DCFC80198
:1037F0009370D11002C090E080E00E94450854CF41
:10380000802FDD2029F00E9468060E94EB064CCF35
:103810000E94A305FACF812F837009F066C0D110F2
:1038200043CF802F829586958770880F880F602FF1
:103830006F70462E512C712C612C082E04C0440C44
:10384000551C661C771C0A94D2F740E050E0BA0180
:1038500004FF0FC04FE050E060E070E004C0440F90
:10386000551F661F771F8A95D2F740955095609532
:103870007095812F869586958370823019F1D8F4E2
:1038800000918C0410918D0420918E0430918F044E
:10389000813069F04429552966297729CB01BA017D
:1038A00060237123822393230E94FA08FDCE402ACD
:1038B000512A622A732ACB01BA0164297529862903
:1038C0009729F2CF442955296629772900918C043C
:1038D00010918D0420918E0430918F04CB01BA0198
:1038E0006027712782279327DFCF8695DD2011F08F
:1038F000812F8170882309F4D7CE802F82958695F9
:103900008770880F880F602F6F70462E512C712C96
:10391000612C082E04C0440C551C661C771C0A94AC
:10392000D2F740E050E0BA0104FF0FC04FE050E092
:1039300060E070E004C0440F551F661F771F8A9532
:10394000D2F74095509560957095812F8695869514
:103950008370823019F1D8F40091030510910405A9
:103960002091050530910605813069F044295529DB
:1039700066297729CB01BA0160237123822393231F
:103980000E94780891CE402A512A622A732ACB01DC
:10399000BA016429752986299729F2CF4429552926
:1039A00066297729009103051091040520910505EA
:1039B00030910605CB01BA01602771278227932732
:1039C000DFCF1F70DD2029F0812F0E94D908802FC2
:1039D000C8CE802F0E941A08812F0E949E0864CEB4
:1039E000802F92EF891609F450C0981578F0E0EF17
:1039F0008E1619F1F1EF8F1609F43FC0DD2009F49E
:103A000067C0A11035CE812F8F713CC023EF821685
:103A100009F440C034EF8312F1CFDD2009F44DC02A
:103A20001F71812F0E94D908E8E01E9FC001112458
:103A3000836080938704812F25C0DD20C9F084E056
:103A40008A1508F431CE1F7161E070E080E090E0EB
:103A500004C0660F771F881F991F1A95D2F700912F
:103A60000305109104052091050530910605A4CFAA
:103A700095E09A1508F418CEE6CF812F8F71DD20DE
:103A800009F4ABCF0E94D9080FCE812F8F71DD20B2
:103A9000C9F3A3CF60E070E0CB01DD2009F470CF63
:103AA0001F7161E070E080E090E004C0660F771F56
:103AB000881F991F1A95D2F763CF81E00E94C10831
:103AC000F1E0FA1508F0F0CD82E00E94C108ECCDDB
:103AD000AA2039F0893309F46FCE802F0E94100993
:103AE000E3CD812F8F7179CF0031FFE51F0709F4F6
:103AF00050CB01312FE5120709F455CB033F2CE5DC
:103B0000120709F4B0CB08F050CB083D8CE518073C
:103B100009F4A3CB093DECE51E0709F4BCCB073D36
:103B2000FCE51F0709F04DCB06E221EE41EE67ED03
:103B30007CE5C7010E94F20B4ECA00313FE5130736
:103B400009F42DCB01318FE51807C1F682E028CBAF
:103B500085E0DE01119601900D928A95E1F7F7015B
:103B6000228189819A81211111CA0E94BC07182FD4
:103B700015CA06311C4509F00ACD80912104811136
:103B800083CC89E20E945D077ACC8272F801E25C04
:103B9000FC45E431F10508F0F1CCEB51F74D0C9404
:103BA0008F271F93CF93DF9380912704807FA9F401
:103BB00080912404882389F080915904D0912804AD
:103BC0006091220470912304A0912504B0912604F1
:103BD000C62FC72316E0D81304C0DF91CF911F91E1
:103BE000089590E0109711F0CF3F19F40196877077
:103BF000F2CF189F9001199F300D1124F901E75D54
:103C0000FB4F41814713F2CF40814613EFCF4281F2
:103C10004111ECCF438154814A1B5B0B483C510559
:103C200028F7809127048F70806180932704F90121
:103C3000E25DFB4F80818F708061808382E294E03F
:103C40000E948F17DF91CF911F910C941008AF92B3
:103C5000BF92CF92DF92EF92FF920F931F93CF9379
:103C6000DF93CDB7DEB761970FB6F894DEBF0FBE16
:103C7000CDBF8C0185E0F801DE011D9601900D920B
:103C80008A95E1F7F80180819181E28022E2A22EFB
:103C900024E0B22E6091250470912604611571050F
:103CA00009F43EC13091220440912304232F2423A0
:103CB0002F3F09F435C1C380D480F0902404F6016D
:103CC000E61BF70BFF2009F4FBC020912704522FBD
:103CD000507FE83CF10508F0BBC0511178C0FE2CC4
:103CE000491321C038131FC0E1101DC02F7020617F
:103CF00020932704C5010E948F1780912704F801A3
:103D000085838F2D61960FB6F894DEBF0FBECDBFB1
:103D1000DF91CF911F910F91FF90EF90DF90CF90A7
:103D2000BF90AF900895CD2829F0282F29232F3F49
:103D300009F014C120E0F22FF170DF2E20FF3DC00A
:103D4000209159044091280456E0241315C08D8712
:103D50009E878D859E850E949311292F22952F7015
:103D60002230F8F0243020F59F70F9F0F8019581A9
:103D7000907FD9F4D12C1FC030E0529FF001539FA7
:103D8000F00D1124E75DFB4F6181961306C0608141
:103D9000861303C06281E61210C02F5F3F4F277069
:103DA000D4CF9F7011F0882329F3805E883010F300
:103DB000C8010E948F17FD2CA4CFEE2009F4A1CFDB
:103DC00080912704816080932704F12C9ACF4913B6
:103DD00012C0381310C0E1100EC0F8012583C801CD
:103DE0000E948F1786E0F801A2E2B4E001900D92E4
:103DF0008A95E1F786CF8D879E878D859E850E9467
:103E00009D11882309F1EE20F9F08091270480327A
:103E100070F0209122043091230438872F83198673
:103E2000DB86CA868C87CE0107960E948F1786E0B4
:103E3000F801A2E2B4E001900D928A95E1F70E94A8
:103E4000D11DFF24F3945DCFC8010E948F17F9CFD5
:103E500051110AC082E294E00E948F1786E0F501BA
:103E600011928A95E9F7B1CF49130FC038130DC0ED
:103E7000E1100BC0F8012583C8010E948F1786E06E
:103E8000F50111928A95E9F73CCF8D879E878D8544
:103E90009E850E949D118823B9F2EE20A9F280919F
:103EA0002704803220F220912204309123043A83A7
:103EB00029831B82DD82CC828E83CE010196B5CF11
:103EC000E83CF105E0F6FE2CEE2009F4BDCF4913E5
:103ED00016C0381314C08091270480FD83CF982F1B
:103EE000907F09F47FCFF8018583903F09F477CF65
:103EF000982F907F905F8F70892B858370CF8D87EF
:103F00009E878D859E850E949D11811190CF809105
:103F10002704816080932704C8010E948F17F1CE87
:103F2000EE2009F491CF8D879E878D859E850E9416
:103F30009D11F82E882309F487CF86E0F801A2E2CC
:103F4000B4E001900D928A95E1F78091220490915E
:103F500023040E9493110E94D11DD3CE21E02E256F
:103F6000EACE1F93CF93DF93CDB7DEB767970FB637
:103F7000F894DEBF0FBECDBF4B8B5C8B6D8B7E8B01
:103F80008F8B1A8A198A85E0FE017396DE011D96D1
:103F900001900D928A95E1F786E0FE013D96DE01E3
:103FA000179601900D928A95E1F7CE0107960E942F
:103FB000271E882389F016E08091590490912804E7
:103FC000891349C067960FB6F894DEBF0FBECDBF08
:103FD000DF91CF911F91089586E0FE013796DE01B3
:103FE000119601900D928A95E1F78A859B85892B20
:103FF00011F38F81988589238F3FE9F2209128045E
:1040000030E0C901019687709927409159044817FB
:10401000190671F40E944514109228041092590454
:1040200086E0E2E2F4E0DF011D928A95E9F7C3CF72
:1040300096E0929FD001939FB00D1124A75DBB4FD6
:10404000FE01319601900D929A95E1F78093280434
:104050000E941008B0CF819FC0011124875D9B4F43
:104060000E94271E882309F4ADCF8091590490E067
:10407000019687709927809359049ECF1F920F92C3
:104080000FB60F9211242F933F934F935F936F932B
:104090007F938F939F93AF93BF93CF93DF93EF93D0
:1040A000FF93D091E900DF708091EC00C82FC170C0
:1040B00080FDC0E81092E9008091F000877F809336
:1040C000F00078940E945A141092E9008091F00058
:1040D00088608093F000CD2BCF70C093E900FF91F2
:1040E000EF91DF91CF91BF91AF919F918F917F9190
:1040F0006F915F914F913F912F910F900FBE0F9055
:104100001F9018951F920F920FB60F9211242F93A4
:104110003F934F935F936F937F938F939F93AF934F
:10412000BF93EF93FF938091E10082FF09C08091DC
:10413000E20082FF05C08091E1008B7F8093E10067
:104140008091DA0080FF24C08091D80080FF20C0D9
:104150008091DA008E7F8093DA008091D90080FF11
:10416000A1C080E189BD82E189BD09B400FEFDCF17
:1041700081E0809302058091D404811109C00E94DE
:10418000ED030E94E0048091E20084608093E200ED
:104190008091E10080FF17C08091E20080FF13C092
:1041A0008091E2008E7F8093E2008091E200806146
:1041B0008093E2008091D80080628093D80019BC7F
:1041C00085E0809302058091E10084FF2FC08091FB
:1041D000E20084FF2BC080E189BD82E189BD89B501
:1041E000982F917080FFFBCF8091D8008F7D8093B6
:1041F000D8008091E1008F7E8093E1008091E20001
:104200008F7E8093E2008091E20081608093E200E3
:104210008091F904882309F44BC084E0809302055F
:104220000E9445140E9404090E94640A8091E100E2
:1042300083FF27C08091E20083FF23C08091E100CB
:10424000877F8093E10082E0809302051092F90459
:104250008091E1008E7F8093E1008091E2008E7F6B
:104260008093E2008091E20080618093E20042E06E
:1042700060E080E00E94AE048091F000886080934E
:10428000F000FF91EF91BF91AF919F918F917F913E
:104290006F915F914F913F912F910F900FBE0F90B3
:1042A0001F90189519BC109202051092D40470CF7B
:1042B0008091E30087FD93E090930205B1CFCDB7E5
:1042C000DEB7AA970FB6F894DEBF0FBECDBF84B796
:1042D000877F84BF0FB6F894A895809160008861AD
:1042E00080936000109260000FBE80E890E00FB6EF
:1042F000F89480936100909361000FBE85B7806849
:1043000085BF85B7806885BF0E94ED030E94E004E9
:104310008091E20084608093E200789480910205AD
:104320008823A1F01091E9001F709091EC00892F73
:10433000817090FD80E8182B1092E9008091E800D0
:1043400083FD0E945A141F701093E90082E084BD1F
:1043500093E095BD9AEF97BD80936E00A9E7B1E019
:1043600061E070E08D91E82FE295EF70F0E041A1FF
:104370008F709B0101C0220F8A95EAF7922F9095CA
:10438000942391A382A1822B82A321E0AE37B207AE
:1043900049F7AEE7B1E061E070E08D91E82FE2957A
:1043A000EF70F0E041A18F709B0101C0220F8A9550
:1043B000EAF7922F9095942391A382A1822B82A356
:1043C00041E0AC38B40749F710929204109291047E
:1043D0001092C7041092C604109294041092930491
:1043E0001092C9041092C804109296041092950479
:1043F0001092CB041092CA04109298041092970461
:104400001092CD041092CC0410929A041092990448
:104410001092CF041092CE040E94C00E8FEF96E748
:10442000E1E081509040E040E1F700C000000E94D0
:10443000C00E8091C60480FF0BC080E00E9426124F
:104440006FEF7FEF90E080E00E9446280E94060B0D
:1044500090E080E00E9422288C3E9E4F11F00E9446
:10446000C71282E290E00E941428813209F0AAC4A7
:1044700083E290E00E941428823109F0A3C484E210
:1044800090E00E941428813009F09CC490E080E004
:104490000E9422288C3E9E4F11F00E94C71282E09B
:1044A00090E00E9414288093B4040E94860F909399
:1044B0009C0480939B0483E090E00E941428682F62
:1044C00070E090E080E00E94FA0880919D048111E4
:1044D00036C090E080E00E9422288C3E9E4F21F062
:1044E0000E94C7120E94351488E090E00E941C28A8
:1044F0006093C1047093C2048093C3049093C40476
:104500006E7F71F40E94351488E090E00E941C28B0
:104510006093C1047093C2048093C3049093C40455
:104520000E9472091092C0048091C10480FF04C0EF
:1045300060E086950E942C1781E080939D0482E1C3
:1045400091E090939F0480939E04E2EAEE2EE6E0D1
:10455000FE2E80910205853009F481C10E94C00EB3
:10456000A6ECB4E0E5EBF4E010E000E0602F8D9104
:104570009D91419151914817590709F4B5C14827B8
:10458000592720E0CC24C394D12C5A01AC20BD2063
:10459000AB2809F4A3C129A36AA39C012C213D21C6
:1045A00091E0232B09F490E09BA30E94DF06816039
:1045B000782F9DA38CA349A15AA16BA18DA10E9424
:1045C000B11F000F111FF801EB54FB4F8081918147
:1045D000C826D926D182C0828091C004882309F4DC
:1045E00041C08091BF04E091C104E695E81BE093CF
:1045F000A304823009F08FC1F0E0E055F94FE49157
:104600000E2F10E08CE9C82E8EE0D82E8091A404E5
:10461000882389F01092A4040E94DF069801209557
:104620003095820F931F9093A2048093A10410925F
:10463000A6041092A5048091A1049091A2040E9466
:10464000D0068017910770F0E091A104F091A204C8
:104650000E0F1F1F1093A2040093A10481EA94E09F
:10466000F601099586E0EDEAF4E0DE01119601908D
:104670000D928A95E1F7D090AF04C090B0041091EC
:10468000B1040091B2041092AF041092B0041092E1
:10469000B1041092B2048D2D8C2909F448C0809188
:1046A000AB049091AC040E94D0069C019091AA04A6
:1046B000992309F4A2C323333105C8F19F3F19F0B0
:1046C0009F5F9093AA04DD2059F00E9448069FEF57
:1046D0001D140CF491E0899F802D11248093AF0468
:1046E000CC2059F00E9448069FEF1C140CF491E076
:1046F000899F802D11248093B0043091AF0433231F
:10470000B1F02091B004222391F045EB3403C001B5
:104710001124992309F46AC19093AF0445EB240353
:1047200090011124332309F465C13093B004812F23
:10473000802B09F448C08091A8049091A9040E949C
:10474000D0069C019091A704992309F451C3253602
:104750003105C8F19F3F19F09F5F9093A704112383
:1047600059F00E9426069FEF11160CF491E0899FE4
:10477000802D11248093B104002359F00E94260655
:104780009FEF10160CF491E0899F802D11248093E7
:10479000B2043091B1043323B1F02091B20422234A
:1047A00091F045EB3403C0011124992309F426C18B
:1047B0009093B10445EB240390011124332309F4B1
:1047C00021C13093B2048091AF049091B004892B41
:1047D0009091B104892B9091B204892B11F00E9421
:1047E000EB0686E0FE013196ADEAB4E001900D9251
:1047F0008A95E1F70E9404099091B304891731F07A
:104800000E9404098093B3040E94640A8091020507
:10481000843009F09ECE83E08093E9008091E80027
:1048200082FF97CE8091E80090E085FF06C00E944D
:104830000C04882309F4EAC091E08091E8008B77AA
:104840008093E800992309F484CEE981E150E331B3
:1048500008F057C1F0E0E750F74D0C948F27809196
:104860000205843039F11092A00488E190E020E440
:104870000FB6F894A895809360000FBE2093600057
:1048800080E00E94640A83B7817F846083BF83B71E
:10489000816083BF7894889583B78E7F83BF0FB67E
:1048A000F894A895809160008861809360001092D0
:1048B00060000FBE8091F804882309F44ACE0E945C
:1048C000C00EE6ECF4E080ED94E021913191232BD1
:1048D00009F062C28E179F07C1F73BCE2F5FCC0C49
:1048E000DD1C2E3009F051CE0F5F1F4F0530110532
:1048F00009F03CCE8FEF8EA38FA318A60E94DF068F
:104900008160782F9AA789A74EA15FA168A58AA583
:104910000E94B11F61CE863059F4F0E0E355F94FA3
:10492000E4910E2F10E0B0EBCB2EBEE0DB2E6ECE6E
:10493000893061F4E695F0E0E655F94FE4910E2FE9
:1049400010E0AAE8CA2EACE0DA2E60CE8F3061F417
:10495000E695F0E0E955F94FE4910E2F10E0F4EB05
:10496000CF2EFCE0DF2E52CE853159F4F0E0EC552D
:10497000F94FE4910E2F10E0E2E2CE2EEDE0DE2EB4
:1049800045CE08E210E050E7C52E5DE0D52E883117
:1049900009F43CCE833241F4F7010591149173E49C
:1049A000C72E7EE0D72E32CE04EF11E049EFC42EA1
:1049B0004DE0D42E843209F429CE00ED17E03FE912
:1049C000C32E35E0D32E853209F020CE8E2F63E042
:1049D0000E944D27E92FF0E0E156F94FE4910E2FA8
:1049E00010E06EE3C62E62E1D62E10CE81E08093F9
:1049F000AF0494CE81E08093B00499CE81E080939F
:104A0000B104D8CE81E08093B204DDCE00E210E0A4
:104A1000CE0101966C018091E80085FD0AC080916D
:104A2000E8008B778093E8000E940C04882399F3B8
:104A300003CF8091F100F60181936F0101501109BC
:104A400051F7FACE1A8289E08B831AC08A818230AC
:104A500009F4C5C18330C9F0813009F052C02FB7C5
:104A6000F8946091D0047091D1048091D204909117
:104A7000D3042FBF0E9495276B837C838D839E83F5
:104A8000CE0101960E94670464CD8091C604909186
:104A9000C7049827892798279C838B838091C80413
:104AA0009091C9049827892798279E838D838091A8
:104AB000CA049091CB0498278927982798878F83D9
:104AC0008091CC049091CD049827892798279A87C4
:104AD00089878091CE049091CF04982789279827C1
:104AE0009C878B87CDCF8A81823059F46B817C8102
:104AF0008D819E810E94952785E290E00E94282862
:104B0000BFCF8FEF8983BCCF4C816B818A810E949C
:104B1000940F9827892798279E838D83B1CFCD80C6
:104B2000DE80DC24CD24DC248A810B81FCE10F9F14
:104B3000800111242CE8829F000D111D11248C810D
:104B400090E0880F991F080F191F6D2DC8018696D8
:104B50000E9428286C2DC8018796D0CF0E94C111D1
:104B60008FCF8A818138C1F060F4803809F088CF16
:104B700020E04B816091C3048091C2040E943C13E9
:104B80007FCF823859F1833809F07ACF20E0409105
:104B9000C4046C818B81F2CF60E08B810E942C1762
:104BA0009B818091C104911111C08E7F8093C104BB
:104BB0001092C0044FEF80E792E041508040904057
:104BC000E1F700C000000E94550C5ACF816080932D
:104BD000C10460E086950E942C1752CF8B81809390
:104BE000C5044ECF8A81813899F030F4803809F0BD
:104BF00047CF8091C40428CF823891F0833809F0E0
:104C00003FCF8091C2048B838091C3048C8338CFC3
:104C10008091C10480FF02C0869516CF80E014CF3A
:104C20008091C50411CF6091C1047091C20480913C
:104C3000C3049091C4040E942A1322CF80E18A8386
:104C40001FCF81E08A838AEAFFCE0A811B81102769
:104C500001271027FE0131966F01AC80CF018A0D2C
:104C6000911D5C01C8018A5A9D4FCA14DB0409F4E6
:104C700007CF0A3AE1E01E0750F40E941428F6011B
:104C800084830F5F1F4FFFEFCF1ADF0AEBCFF601D0
:104C90001482F7CF0A811B81102701271027CE012C
:104CA00001965C01CC80C00ED12ED11CC8018A5A5D
:104CB0009D4FC016D10609F4E3CE0A3AE1E01E0783
:104CC00020F4F50164810E942828FFEFAF1ABF0A83
:104CD0000F5F1F4FEBCF0E941612D2CE84E0AFCFF2
:104CE0000A811B81102701271027CE0101966C0134
:104CF000AC80FC01EA0DF11D5F01C8018696CA1463
:104D0000DB0409F4BDCE0033F2E01F0750F40E942B
:104D10001428F60184830F5F1F4FFFEFCF1ADF0ABD
:104D2000ECCFF6011482F7CF0A811B8110270127EF
:104D30001027CE0101965C01CC80C00ED12ED11C73
:104D4000C80186960C151D0509F49ACE0033E2E0E1
:104D50001E0720F4F50164810E942828FFEFAF1A96
:104D6000BF0A0F5F1F4FECCF80E00E9426126FEF4B
:104D70007FEF90E080E00E94462882CECE0101962F
:104D80000E9467042FEF41EE84E0215040408040B4
:104D9000E1F700C000005ACB80E189BD82E189BD06
:104DA00009B400FEFDCF8091D8008F7D8093D8009C
:104DB0008091E00082608093E0008091E00081FDBE
:104DC000FCCFC7CB60E085E290E00E9428280E94DB
:104DD000C1110E94161281E00E94261257CB85E273
:104DE00090E00E9414281B821C821D828E8348CE74
:104DF0002D32314008F0B0CCE6CC2D32314008F0F5
:104E00005FCC95CC78941F921FB61F9211248F937C
:104E10009F93AF93BF938091D0049091D104A091C0
:104E2000D204B091D3040196A11DB11D8093D0048A
:104E30009093D104A093D204B093D304BF91AF91C7
:104E40009F918F911F901FBE1F9018951F921FB6A4
:104E50001F9211248F939F93AF93BF938091A004CF
:104E6000811113C08091D0049091D104A091D204FB
:104E7000B091D3044196A11DB11D8093D0049093AD
:104E8000D104A093D204B093D304BF91AF919F916A
:104E90008F911F901FBE1F901895991B79E004C039
:104EA000991F961708F0961B881F7A95C9F7809569
:104EB000089587FB082E062687FD819567FD61957D
:104EC0000E944D270EF4919507FC81950895AA1B29
:104ED000BB1B51E107C0AA1FBB1FA617B70710F0E5
:104EE000A61BB70B881F991F5A95A9F78095909517
:104EF000BC01CD01089597FB072E16F4009407D04E
:104F000077FD09D00E94672707FC05D03EF49095F5
:104F100081959F4F0895709561957F4F0895EE0F8D
:104F2000FF1F0590F491E02D0994692796276927C2
:104F300078278727782708950E94B028332312F412
:104F40008A1B9B0B0C94A6270E94B028B7FF0895DC
:104F5000821B930B08958F929F92AF92BF92CF9234
:104F6000DF92EF92FF92CF93DF93EC01688179811A
:104F70008A819B81611571058105910521F464E2A7
:104F800079ED8BE597E02DE133EF41E050E00E94B1
:104F90005C2849015A019B01AC01A7EAB1E40E94D7
:104FA0007B286B017C01ACEEB4EFA50194010E945B
:104FB0008928DC01CB018C0D9D1DAE1DBF1DB7FFE7
:104FC00003C00197A109B04888839983AA83BB8352
:104FD0009F77DF91CF91FF90EF90DF90CF90BF90C0
:104FE000AF909F908F9008950E94AB27089580E026
:104FF00091E00E94AB270895B0E0A0E0809300010B
:1050000090930101A0930201B09303010895FC0164
:105010004150504030F001900616D1F73197CF0142
:105020000895882799270895F999FECF92BD81BDEB
:10503000F89A992780B50895A6E1B0E044E050E0E1
:105040000C944E28A8E1B0E042E050E00C944E28C9
:10505000262FF999FECF92BD81BDF89A019700B431
:10506000021639F01FBA20BD0FB6F894FA9AF99AD1
:105070000FBE08950396272F0E9429280E942828F2
:10508000252F0E942928242F0C9429280196272FA8
:105090000E9429280C942828DC01CB01FC01F999F5
:1050A000FECF06C0F2BDE1BDF89A319600B40D9274
:1050B00041505040B8F70895052E97FB1EF4009418
:1050C0000E94732857FD07D00E948E2807FC03D04A
:1050D0004EF40C94732850954095309521953F4F90
:1050E0004F4F5F4F089590958095709561957F4FD4
:1050F0008F4F9F4F08950E94B028A59F900DB49F99
:10510000900DA49F800D911D11240895B7FF0C945C
:105110007B280E947B28821B930B0895A1E21A2E04
:10512000AA1BBB1BFD010DC0AA1FBB1FEE1FFF1F4B
:10513000A217B307E407F50720F0A21BB30BE40B9B
:10514000F50B661F771F881F991F1A9469F76095E2
:105150007095809590959B01AC01BD01CF0108959C
:10516000A29FB001B39FC001A39F700D811D1124A8
:10517000911DB29F700D811D1124911D0895F89409
:10518000FFCFAC11AC11B511B511B711B511B511F7
:10519000B511AC11AC11BC11B511B511BC113F1555
:1051A0006715BA156715BA159A15D215BA15DA1614
:1051B000E7161F1B1F1B901B901BE61B001C541B9C
:1051C000541B0B1CE11CF01CF01C461A6D1A741ABF
:1051D000791A7E1A831A881A8D1A921A971A9C1AAB
:1051E000A11AA41AA91AAC1AAF1AB21AB51AB81A87
:1051F000BB1A22252625732584258F25AE25B125AA
:10520000F2251326B426BE261E26212625264A264A
:085210006B266E267026942621
:105218000100000001191A1B1C1D1E1F202122015C
:105228000201A005C60AA50AA10A9D0A01000102F9
:105238000202020606060909090909090F0F0F0FDC
:105248000F0F1515151819191919191919191919E7
:105258002324252525252525818283E200E900EAE6
:1052680000B500B600B700CD008301CC008A0192DA
:105278000194012102230224022502260227022A80
:1052880002B300B4006F007000303132C6F767F621
:10529800F5F4F13390919293949596974022BC8AB5
:0C52A800016801AC00C606DF06FF06002E
:00000001FF
